{
	"data": {
		"bytecode": {
			"linkReferences": {},
			"object": "60c06040525f6002555f6006555f60085534801561001b575f5ffd5b5060405161517b38038061517b833981810160405281019061003d91906105e5565b335f73ffffffffffffffffffffffffffffffffffffffff168173ffffffffffffffffffffffffffffffffffffffff16036100ae575f6040517f1e4fbdf70000000000000000000000000000000000000000000000000000000081526004016100a59190610660565b60405180910390fd5b6100bd8161022d60201b60201c565b50600180819055505f73ffffffffffffffffffffffffffffffffffffffff168373ffffffffffffffffffffffffffffffffffffffff161415801561012d57505f73ffffffffffffffffffffffffffffffffffffffff168273ffffffffffffffffffffffffffffffffffffffff1614155b610135575f5ffd5b5f815111610178576040517f08c379a000000000000000000000000000000000000000000000000000000000815260040161016f906106d3565b60405180910390fd5b8273ffffffffffffffffffffffffffffffffffffffff1660808173ffffffffffffffffffffffffffffffffffffffff16815250508173ffffffffffffffffffffffffffffffffffffffff1660a08173ffffffffffffffffffffffffffffffffffffffff16815250505f5f90505b815181101561022457610217828281518110610204576102036106f1565b5b60200260200101516102ee60201b60201c565b80806001019150506101e5565b50505050610803565b5f5f5f9054906101000a900473ffffffffffffffffffffffffffffffffffffffff169050815f5f6101000a81548173ffffffffffffffffffffffffffffffffffffffff021916908373ffffffffffffffffffffffffffffffffffffffff1602179055508173ffffffffffffffffffffffffffffffffffffffff168173ffffffffffffffffffffffffffffffffffffffff167f8be0079c531659141344cd1fd0a4f28419497f9722a3daafe3b4186f6b6457e060405160405180910390a35050565b60055f8273ffffffffffffffffffffffffffffffffffffffff1673ffffffffffffffffffffffffffffffffffffffff1681526020019081526020015f205f9054906101000a900460ff1615610378576040517f08c379a000000000000000000000000000000000000000000000000000000000815260040161036f90610768565b60405180910390fd5b600160055f8373ffffffffffffffffffffffffffffffffffffffff1673ffffffffffffffffffffffffffffffffffffffff1681526020019081526020015f205f6101000a81548160ff02191690831515021790555060065f8154809291906103df906107bc565b91905055508073ffffffffffffffffffffffffffffffffffffffff167f956f4b06f20eda3aa4f6be9e72e8fc77beb3f95f4f2a95a796b2af742583d74360405160405180910390a250565b5f604051905090565b5f5ffd5b5f5ffd5b5f73ffffffffffffffffffffffffffffffffffffffff82169050919050565b5f6104648261043b565b9050919050565b6104748161045a565b811461047e575f5ffd5b50565b5f8151905061048f8161046b565b92915050565b5f5ffd5b5f601f19601f8301169050919050565b7f4e487b71000000000000000000000000000000000000000000000000000000005f52604160045260245ffd5b6104df82610499565b810181811067ffffffffffffffff821117156104fe576104fd6104a9565b5b80604052505050565b5f61051061042a565b905061051c82826104d6565b919050565b5f67ffffffffffffffff82111561053b5761053a6104a9565b5b602082029050602081019050919050565b5f5ffd5b5f61056261055d84610521565b610507565b905080838252602082019050602084028301858111156105855761058461054c565b5b835b818110156105ae578061059a8882610481565b845260208401935050602081019050610587565b5050509392505050565b5f82601f8301126105cc576105cb610495565b5b81516105dc848260208601610550565b91505092915050565b5f5f5f606084860312156105fc576105fb610433565b5b5f61060986828701610481565b935050602061061a86828701610481565b925050604084015167ffffffffffffffff81111561063b5761063a610437565b5b610647868287016105b8565b9150509250925092565b61065a8161045a565b82525050565b5f6020820190506106735f830184610651565b92915050565b5f82825260208201905092915050565b7f4e6f20626f617264206d656d626572732070726f7669646564000000000000005f82015250565b5f6106bd601983610679565b91506106c882610689565b602082019050919050565b5f6020820190508181035f8301526106ea816106b1565b9050919050565b7f4e487b71000000000000000000000000000000000000000000000000000000005f52603260045260245ffd5b7f416c7265616479206120626f617264206d656d626572000000000000000000005f82015250565b5f610752601683610679565b915061075d8261071e565b602082019050919050565b5f6020820190508181035f83015261077f81610746565b9050919050565b7f4e487b71000000000000000000000000000000000000000000000000000000005f52601160045260245ffd5b5f819050919050565b5f6107c6826107b3565b91507fffffffffffffffffffffffffffffffffffffffffffffffffffffffffffffffff82036107f8576107f7610786565b5b600182019050919050565b60805160a05161491161086a5f395f818161087701528181610e9c0152818161121801528181611f9501528181612068015281816121f9015281816128f00152612bf001525f81816107190152818161187201528181611e7e0152612a5201526149115ff3fe608060405234801561000f575f5ffd5b50600436106101c2575f3560e01c80638c858a14116100f7578063c6e64e5311610095578063dfdc0de21161006f578063dfdc0de214610521578063e2b0608d1461053d578063ec75351514610559578063f2fde38b14610575576101c2565b8063c6e64e53146104b7578063cae359b9146104d3578063d88150ea14610503576101c2565b80639eceddea116100d15780639eceddea1461041d578063bc4456eb14610439578063bff1378514610457578063c5cac20214610487576101c2565b80638c858a141461039a5780638da5cb5b146103ca578063937b2581146103e8576101c2565b80633e413bee116101645780636f9fb98a1161013e5780636f9fb98a14610322578063715018a6146103405780637205249e1461034a57806372403a791461037e576101c2565b80633e413bee146102a45780635b65da64146102c25780636353a400146102f2576101c2565b806321739779116101a05780632173977914610232578063240791581461024e57806324f13a761461026c578063359f82a314610288576101c2565b8063055ad42e146101c65780631558bed3146101e45780631714f2e014610214575b5f5ffd5b6101ce610591565b6040516101db9190612fc0565b60405180910390f35b6101fe60048036038101906101f99190613014565b610597565b60405161020b9190612fc0565b60405180910390f35b61021c610717565b60405161022991906130b9565b60405180910390f35b61024c6004803603810190610247919061310d565b61073b565b005b610256610a65565b6040516102639190612fc0565b60405180910390f35b61028660048036038101906102819190613014565b610a6b565b005b6102a2600480360381019061029d9190613287565b610b84565b005b6102ac610e9a565b6040516102b99190613327565b60405180910390f35b6102dc60048036038101906102d79190613014565b610ebe565b6040516102e99190612fc0565b60405180910390f35b61030c60048036038101906103079190613340565b611018565b60405161031991906134b7565b60405180910390f35b61032a611215565b6040516103379190612fc0565b60405180910390f35b6103486112b3565b005b610364600480360381019061035f91906134d1565b6112c6565b60405161037595949392919061353d565b60405180910390f35b6103986004803603810190610393919061358e565b61165d565b005b6103b460048036038101906103af9190613014565b611828565b6040516103c19190612fc0565b60405180910390f35b6103d2611928565b6040516103df91906135db565b60405180910390f35b61040260048036038101906103fd9190613014565b61194f565b6040516104149695949392919061360e565b60405180910390f35b61043760048036038101906104329190613014565b6119bf565b005b610441611c5a565b60405161044e9190612fc0565b60405180910390f35b610471600480360381019061046c919061366d565b611c61565b60405161047e9190613698565b60405180910390f35b6104a1600480360381019061049c9190613014565b611c7e565b6040516104ae9190612fc0565b60405180910390f35b6104d160048036038101906104cc91906134d1565b611dd8565b005b6104ed60048036038101906104e89190613014565b61238d565b6040516104fa9190612fc0565b60405180910390f35b61050b6124e6565b6040516105189190612fc0565b60405180910390f35b61053b60048036038101906105369190613014565b6124ec565b005b61055760048036038101906105529190613763565b612691565b005b610573600480360381019061056e919061380b565b6128d6565b005b61058f600480360381019061058a919061366d565b612b3a565b005b60025481565b5f8160058111156105dd576040517f08c379a00000000000000000000000000000000000000000000000000000000081526004016105d490613945565b60405180910390fd5b5f60035f60025481526020019081526020015f206040518060600160405290815f8201600680602002604051908101604052809291908260068015610637576020028201915b815481526020019060010190808311610623575b505050505081526020016006820160068060200260405190810160405280929190826006801561067c576020028201915b815481526020019060010190808311610668575b50505050508152602001600c82016006806020026040519081016040528092919082600680156106c1576020028201915b8154815260200190600101908083116106ad575b5050505050815250509050806040015184600681106106e3576106e2613963565b5b6020020151816020015185600681106106ff576106fe613963565b5b602002015161070e91906139bd565b92505050919050565b7f000000000000000000000000000000000000000000000000000000000000000081565b60055f3373ffffffffffffffffffffffffffffffffffffffff1673ffffffffffffffffffffffffffffffffffffffff1681526020019081526020015f205f9054906101000a900460ff166107c4576040517f08c379a00000000000000000000000000000000000000000000000000000000081526004016107bb90613a3a565b60405180910390fd5b5f8211610806576040517f08c379a00000000000000000000000000000000000000000000000000000000081526004016107fd90613aa2565b60405180910390fd5b5f73ffffffffffffffffffffffffffffffffffffffff168173ffffffffffffffffffffffffffffffffffffffff1603610874576040517f08c379a000000000000000000000000000000000000000000000000000000000815260040161086b90613b0a565b60405180910390fd5b817f000000000000000000000000000000000000000000000000000000000000000073ffffffffffffffffffffffffffffffffffffffff166370a08231306040518263ffffffff1660e01b81526004016108ce91906135db565b602060405180830381865afa1580156108e9573d5f5f3e3d5ffd5b505050506040513d601f19601f8201168201806040525081019061090d9190613b3c565b101561094e576040517f08c379a000000000000000000000000000000000000000000000000000000000815260040161094590613bb1565b60405180910390fd5b5f60085f81548092919061096190613bcf565b9190505590505f60075f8381526020019081526020015f20905083815f018190555082816001015f6101000a81548173ffffffffffffffffffffffffffffffffffffffff021916908373ffffffffffffffffffffffffffffffffffffffff1602179055504281600201819055505f81600301819055505f816005015f6101000a81548160ff0219169083151502179055505f8160050160016101000a81548160ff0219169083151502179055503373ffffffffffffffffffffffffffffffffffffffff16827fddff8e72a79f7f23c3de5bed3c8189aabc3c85dba0b2f1af299d96eef93861b18686604051610a57929190613c16565b60405180910390a350505050565b60065481565b5f60075f8381526020019081526020015f209050806005015f9054906101000a900460ff1615610ad0576040517f08c379a0000000000000000000000000000000000000000000000000000000008152600401610ac790613c87565b60405180910390fd5b8060050160019054906101000a900460ff1615610b22576040517f08c379a0000000000000000000000000000000000000000000000000000000008152600401610b1990613cef565b60405180910390fd5b62093a808160020154610b359190613d0d565b421015610b77576040517f08c379a0000000000000000000000000000000000000000000000000000000008152600401610b6e90613d8a565b60405180910390fd5b610b8082612bbe565b5050565b610b8c612d2a565b5f845111610bcf576040517f08c379a0000000000000000000000000000000000000000000000000000000008152600401610bc690613df2565b60405180910390fd5b5f73ffffffffffffffffffffffffffffffffffffffff168373ffffffffffffffffffffffffffffffffffffffff1603610c3d576040517f08c379a0000000000000000000000000000000000000000000000000000000008152600401610c3490613e5a565b60405180910390fd5b601e811115610c81576040517f08c379a0000000000000000000000000000000000000000000000000000000008152600401610c7890613ec2565b60405180910390fd5b5f73ffffffffffffffffffffffffffffffffffffffff16600485604051610ca89190613f32565b90815260200160405180910390205f015f9054906101000a900473ffffffffffffffffffffffffffffffffffffffff1673ffffffffffffffffffffffffffffffffffffffff1614610d2e576040517f08c379a0000000000000000000000000000000000000000000000000000000008152600401610d2590613f92565b60405180910390fd5b6040518060c001604052808473ffffffffffffffffffffffffffffffffffffffff1681526020018373ffffffffffffffffffffffffffffffffffffffff1681526020018281526020016040518060c001604052805f81526020015f81526020015f81526020015f81526020015f81526020015f81525081526020015f81526020015f815250600485604051610dc39190613f32565b90815260200160405180910390205f820151815f015f6101000a81548173ffffffffffffffffffffffffffffffffffffffff021916908373ffffffffffffffffffffffffffffffffffffffff1602179055506020820151816001015f6101000a81548173ffffffffffffffffffffffffffffffffffffffff021916908373ffffffffffffffffffffffffffffffffffffffff16021790555060408201518160020155606082015181600301906006610e7c929190612ec8565b506080820151816009015560a082015181600a015590505050505050565b7f000000000000000000000000000000000000000000000000000000000000000081565b5f816005811115610f04576040517f08c379a0000000000000000000000000000000000000000000000000000000008152600401610efb90613945565b60405180910390fd5b5f60035f60025481526020019081526020015f206040518060600160405290815f8201600680602002604051908101604052809291908260068015610f5e576020028201915b815481526020019060010190808311610f4a575b5050505050815260200160068201600680602002604051908101604052809291908260068015610fa3576020028201915b815481526020019060010190808311610f8f575b50505050508152602001600c8201600680602002604051908101604052809291908260068015610fe8576020028201915b815481526020019060010190808311610fd4575b50505050508152505090508060200151846006811061100a57611009613963565b5b602002015192505050919050565b611020612f08565b5f825111611063576040517f08c379a000000000000000000000000000000000000000000000000000000000815260040161105a90613ffa565b60405180910390fd5b5f6004836040516110749190613f32565b90815260200160405180910390206040518060c00160405290815f82015f9054906101000a900473ffffffffffffffffffffffffffffffffffffffff1673ffffffffffffffffffffffffffffffffffffffff1673ffffffffffffffffffffffffffffffffffffffff168152602001600182015f9054906101000a900473ffffffffffffffffffffffffffffffffffffffff1673ffffffffffffffffffffffffffffffffffffffff1673ffffffffffffffffffffffffffffffffffffffff168152602001600282015481526020016003820160068060200260405190810160405280929190826006801561117c576020028201915b815481526020019060010190808311611168575b5050505050815260200160098201548152602001600a8201548152505090505f73ffffffffffffffffffffffffffffffffffffffff16815f015173ffffffffffffffffffffffffffffffffffffffff160361120c576040517f08c379a000000000000000000000000000000000000000000000000000000000815260040161120390614062565b60405180910390fd5b80915050919050565b5f7f000000000000000000000000000000000000000000000000000000000000000073ffffffffffffffffffffffffffffffffffffffff166370a08231306040518263ffffffff1660e01b815260040161126f91906135db565b602060405180830381865afa15801561128a573d5f5f3e3d5ffd5b505050506040513d601f19601f820116820180604052508101906112ae9190613b3c565b905090565b6112bb612d2a565b6112c45f612db1565b565b5f5f5f5f5f876005811115611310576040517f08c379a000000000000000000000000000000000000000000000000000000000815260040161130790613945565b60405180910390fd5b5f8811611352576040517f08c379a000000000000000000000000000000000000000000000000000000000815260040161134990613aa2565b60405180910390fd5b5f61135c8a610597565b1161139c576040517f08c379a0000000000000000000000000000000000000000000000000000000008152600401611393906140ca565b60405180910390fd5b876113a68a610597565b10156113e7576040517f08c379a00000000000000000000000000000000000000000000000000000000081526004016113de90614132565b60405180910390fd5b876113f18a61238d565b6113fb9190614150565b95505f94505f93505f92505f8751111561162a575f6004886040516114209190613f32565b908152602001604051809103902090505f73ffffffffffffffffffffffffffffffffffffffff16815f015f9054906101000a900473ffffffffffffffffffffffffffffffffffffffff1673ffffffffffffffffffffffffffffffffffffffff16036114c0576040517f08c379a00000000000000000000000000000000000000000000000000000000081526004016114b790614062565b60405180910390fd5b6019816002015411158061152157503373ffffffffffffffffffffffffffffffffffffffff16815f015f9054906101000a900473ffffffffffffffffffffffffffffffffffffffff1673ffffffffffffffffffffffffffffffffffffffff16145b611560576040517f08c379a0000000000000000000000000000000000000000000000000000000008152600401611557906141db565b60405180910390fd5b60198160020154101561160a5760648160020154601961158091906139bd565b8861158b9190614150565b6115959190614226565b94505f73ffffffffffffffffffffffffffffffffffffffff16816001015f9054906101000a900473ffffffffffffffffffffffffffffffffffffffff1673ffffffffffffffffffffffffffffffffffffffff16146116095760646005886115fc9190614150565b6116069190614226565b93505b5b606481600201548861161c9190614150565b6116269190614226565b9550505b848661163691906139bd565b955082848761164591906139bd565b61164f91906139bd565b915050939792965093509350565b611665612d2a565b8160058111156116aa576040517f08c379a00000000000000000000000000000000000000000000000000000000081526004016116a190613945565b60405180910390fd5b5f600254116116ee576040517f08c379a00000000000000000000000000000000000000000000000000000000081526004016116e5906142a0565b60405180910390fd5b5f60035f60025481526020019081526020015f20905080600c01846006811061171a57611719613963565b5b015483101561175e576040517f08c379a00000000000000000000000000000000000000000000000000000000081526004016117559061432e565b60405180910390fd5b61176784611828565b81600c01856006811061177d5761177c613963565b5b01548461178a91906139bd565b11156117cb576040517f08c379a00000000000000000000000000000000000000000000000000000000081526004016117c2906143bc565b60405180910390fd5b828160060185600681106117e2576117e1613963565b5b0181905550836002547f8e070ae3a2de4465c368f672c2324b17b4ec062510fe99be064df3727aff13798560405161181a9190612fc0565b60405180910390a350505050565b5f81600581111561186e576040517f08c379a000000000000000000000000000000000000000000000000000000000815260040161186590613945565b60405180910390fd5b5f5f7f000000000000000000000000000000000000000000000000000000000000000073ffffffffffffffffffffffffffffffffffffffff1663039af9eb866040518263ffffffff1660e01b81526004016118c99190612fc0565b5f60405180830381865afa1580156118e3573d5f5f3e3d5ffd5b505050506040513d5f823e3d601f19601f8201168201806040525081019061190b9190614448565b50935093505050808261191e91906139bd565b9350505050919050565b5f5f5f9054906101000a900473ffffffffffffffffffffffffffffffffffffffff16905090565b6007602052805f5260405f205f91509050805f015490806001015f9054906101000a900473ffffffffffffffffffffffffffffffffffffffff1690806002015490806003015490806005015f9054906101000a900460ff16908060050160019054906101000a900460ff16905086565b60055f3373ffffffffffffffffffffffffffffffffffffffff1673ffffffffffffffffffffffffffffffffffffffff1681526020019081526020015f205f9054906101000a900460ff16611a48576040517f08c379a0000000000000000000000000000000000000000000000000000000008152600401611a3f90613a3a565b60405180910390fd5b5f60075f8381526020019081526020015f209050806005015f9054906101000a900460ff1615611aad576040517f08c379a0000000000000000000000000000000000000000000000000000000008152600401611aa490613c87565b60405180910390fd5b8060050160019054906101000a900460ff1615611aff576040517f08c379a0000000000000000000000000000000000000000000000000000000008152600401611af690613cef565b60405180910390fd5b806004015f3373ffffffffffffffffffffffffffffffffffffffff1673ffffffffffffffffffffffffffffffffffffffff1681526020019081526020015f205f9054906101000a900460ff1615611b8b576040517f08c379a0000000000000000000000000000000000000000000000000000000008152600401611b8290614541565b60405180910390fd5b6001816004015f3373ffffffffffffffffffffffffffffffffffffffff1673ffffffffffffffffffffffffffffffffffffffff1681526020019081526020015f205f6101000a81548160ff021916908315150217905550806003015f815480929190611bf690613bcf565b91905055503373ffffffffffffffffffffffffffffffffffffffff16827f7ab1df95613019ba98da0113a7adf5073c9fa62d93b5f202502115266aadc06a60405160405180910390a3600654816003015403611c5657611c5582612bbe565b5b5050565b62093a8081565b6005602052805f5260405f205f915054906101000a900460ff1681565b5f816005811115611cc4576040517f08c379a0000000000000000000000000000000000000000000000000000000008152600401611cbb90613945565b60405180910390fd5b5f60035f60025481526020019081526020015f206040518060600160405290815f8201600680602002604051908101604052809291908260068015611d1e576020028201915b815481526020019060010190808311611d0a575b5050505050815260200160068201600680602002604051908101604052809291908260068015611d63576020028201915b815481526020019060010190808311611d4f575b50505050508152602001600c8201600680602002604051908101604052809291908260068015611da8576020028201915b815481526020019060010190808311611d94575b505050505081525050905080604001518460068110611dca57611dc9613963565b5b602002015192505050919050565b826005811115611e1d576040517f08c379a0000000000000000000000000000000000000000000000000000000008152600401611e1490613945565b60405180910390fd5b611e25612e72565b5f5f5f5f611e348888886112c6565b9450945094505093508660035f60025481526020019081526020015f20600c018960068110611e6657611e65613963565b5b015f828254611e759190613d0d565b925050819055507f000000000000000000000000000000000000000000000000000000000000000073ffffffffffffffffffffffffffffffffffffffff1663156e29f6338a8a6040518463ffffffff1660e01b8152600401611ed99392919061455f565b5f604051808303815f87803b158015611ef0575f5ffd5b505af1158015611f02573d5f5f3e3d5ffd5b505050505f86511115611f93575f600487604051611f209190613f32565b9081526020016040518091039020905087816003018a60068110611f4757611f46613963565b5b015f828254611f569190613d0d565b9250508190555083816009015f828254611f709190613d0d565b925050819055508181600a015f828254611f8a9190613d0d565b92505081905550505b7f000000000000000000000000000000000000000000000000000000000000000073ffffffffffffffffffffffffffffffffffffffff166323b872dd3330876040518463ffffffff1660e01b8152600401611ff093929190614594565b6020604051808303815f875af115801561200c573d5f5f3e3d5ffd5b505050506040513d601f19601f8201168201806040525081019061203091906145f3565b505f865111801561204057505f83115b1561232a575f6004876040516120569190613f32565b908152602001604051809103902090507f000000000000000000000000000000000000000000000000000000000000000073ffffffffffffffffffffffffffffffffffffffff1663a9059cbb825f015f9054906101000a900473ffffffffffffffffffffffffffffffffffffffff16866040518363ffffffff1660e01b81526004016120e392919061461e565b6020604051808303815f875af11580156120ff573d5f5f3e3d5ffd5b505050506040513d601f19601f8201168201806040525081019061212391906145f3565b50805f015f9054906101000a900473ffffffffffffffffffffffffffffffffffffffff1673ffffffffffffffffffffffffffffffffffffffff167fe940afde5872f4760f0ae48b728b98579e2ab7722dd8973624fa47301b0b2d2c8560405161218c9190612fc0565b60405180910390a25f831180156121f257505f73ffffffffffffffffffffffffffffffffffffffff16816001015f9054906101000a900473ffffffffffffffffffffffffffffffffffffffff1673ffffffffffffffffffffffffffffffffffffffff1614155b15612328577f000000000000000000000000000000000000000000000000000000000000000073ffffffffffffffffffffffffffffffffffffffff1663a9059cbb826001015f9054906101000a900473ffffffffffffffffffffffffffffffffffffffff16856040518363ffffffff1660e01b815260040161227592919061461e565b6020604051808303815f875af1158015612291573d5f5f3e3d5ffd5b505050506040513d601f19601f820116820180604052508101906122b591906145f3565b50806001015f9054906101000a900473ffffffffffffffffffffffffffffffffffffffff1673ffffffffffffffffffffffffffffffffffffffff167fe940afde5872f4760f0ae48b728b98579e2ab7722dd8973624fa47301b0b2d2c8460405161231f9190612fc0565b60405180910390a25b505b873373ffffffffffffffffffffffffffffffffffffffff167f7bc3ddf0bf2ada973906c61001cd8f787646720bb7da90229e5bf81fa71bab6d8987604051612373929190614645565b60405180910390a350505050612387612eb8565b50505050565b5f8160058111156123d3576040517f08c379a00000000000000000000000000000000000000000000000000000000081526004016123ca90613945565b60405180910390fd5b5f60035f60025481526020019081526020015f206040518060600160405290815f820160068060200260405190810160405280929190826006801561242d576020028201915b815481526020019060010190808311612419575b5050505050815260200160068201600680602002604051908101604052809291908260068015612472576020028201915b81548152602001906001019080831161245e575b50505050508152602001600c82016006806020026040519081016040528092919082600680156124b7576020028201915b8154815260200190600101908083116124a3575b5050505050815250509050805f015184600681106124d8576124d7613963565b5b602002015192505050919050565b60085481565b60055f3373ffffffffffffffffffffffffffffffffffffffff1673ffffffffffffffffffffffffffffffffffffffff1681526020019081526020015f205f9054906101000a900460ff16612575576040517f08c379a000000000000000000000000000000000000000000000000000000000815260040161256c90613a3a565b60405180910390fd5b5f60075f8381526020019081526020015f209050806005015f9054906101000a900460ff16156125da576040517f08c379a00000000000000000000000000000000000000000000000000000000081526004016125d190613c87565b60405180910390fd5b8060050160019054906101000a900460ff161561262c576040517f08c379a0000000000000000000000000000000000000000000000000000000008152600401612623906146b6565b60405180910390fd5b60018160050160016101000a81548160ff0219169083151502179055503373ffffffffffffffffffffffffffffffffffffffff16827fcd8a8adeb6b0a0338444333e99ee6394df82ac7e4e8132079d728b1a0e863a1160405160405180910390a35050565b612699612d2a565b5f5f90505b6006811015612716576126b081611828565b8282600681106126c3576126c2613963565b5b60200201511115612709576040517f08c379a000000000000000000000000000000000000000000000000000000000815260040161270090614744565b60405180910390fd5b808060010191505061269e565b505f60025411156127e9575f5f90505b60068110156127e7575f61273982610597565b14612779576040517f08c379a0000000000000000000000000000000000000000000000000000000008152600401612770906147ac565b60405180910390fd5b6127828161238d565b83826006811061279557612794613963565b5b6020020151116127da576040517f08c379a00000000000000000000000000000000000000000000000000000000081526004016127d190614814565b60405180910390fd5b8080600101915050612726565b505b60025f8154809291906127fb90613bcf565b919050555060405180606001604052808381526020018281526020016040518060c001604052805f81526020015f81526020015f81526020015f81526020015f81526020015f81525081525060035f60025481526020019081526020015f205f820151815f0190600661286f929190612ec8565b50602082015181600601906006612887929190612ec8565b50604082015181600c0190600661289f929190612ec8565b509050506002547f7ded52798ab2e63ad5f4474d2273d878d5ec60f9e082cde09a3e544efba9329660405160405180910390a25050565b5f5f5f5f6128e58d8d8d6112c6565b9450945094505093507f000000000000000000000000000000000000000000000000000000000000000073ffffffffffffffffffffffffffffffffffffffff1663e3ee160e3330878e8e8e8c8f8f6040518a63ffffffff1660e01b815260040161295799989796959493929190614850565b5f604051808303815f87803b15801561296e575f5ffd5b505af1158015612980573d5f5f3e3d5ffd5b505050505f8b511115612a11575f60048c60405161299e9190613f32565b908152602001604051809103902090508c816003018f600681106129c5576129c4613963565b5b015f8282546129d49190613d0d565b9250508190555083816009015f8282546129ee9190613d0d565b925050819055508181600a015f828254612a089190613d0d565b92505081905550505b8b60035f60025481526020019081526020015f20600c018e60068110612a3a57612a39613963565b5b015f828254612a499190613d0d565b925050819055507f000000000000000000000000000000000000000000000000000000000000000073ffffffffffffffffffffffffffffffffffffffff1663156e29f6338f8f6040518463ffffffff1660e01b8152600401612aad9392919061455f565b5f604051808303815f87803b158015612ac4575f5ffd5b505af1158015612ad6573d5f5f3e3d5ffd5b505050508c3373ffffffffffffffffffffffffffffffffffffffff167f7bc3ddf0bf2ada973906c61001cd8f787646720bb7da90229e5bf81fa71bab6d8e87604051612b23929190614645565b60405180910390a350505050505050505050505050565b612b42612d2a565b5f73ffffffffffffffffffffffffffffffffffffffff168173ffffffffffffffffffffffffffffffffffffffff1603612bb2575f6040517f1e4fbdf7000000000000000000000000000000000000000000000000000000008152600401612ba991906135db565b60405180910390fd5b612bbb81612db1565b50565b5f60075f8381526020019081526020015f2090506001816005015f6101000a81548160ff0219169083151502179055507f000000000000000000000000000000000000000000000000000000000000000073ffffffffffffffffffffffffffffffffffffffff1663a9059cbb826001015f9054906101000a900473ffffffffffffffffffffffffffffffffffffffff16835f01546040518363ffffffff1660e01b8152600401612c6f92919061461e565b6020604051808303815f875af1158015612c8b573d5f5f3e3d5ffd5b505050506040513d601f19601f82011682018060405250810190612caf91906145f3565b503373ffffffffffffffffffffffffffffffffffffffff16827e9525d1b7630386050058876f776d3f6b7b6c79213925aec88934ffa1678e21835f0154846001015f9054906101000a900473ffffffffffffffffffffffffffffffffffffffff16604051612d1e929190613c16565b60405180910390a35050565b612d32612ec1565b73ffffffffffffffffffffffffffffffffffffffff16612d50611928565b73ffffffffffffffffffffffffffffffffffffffff1614612daf57612d73612ec1565b6040517f118cdaa7000000000000000000000000000000000000000000000000000000008152600401612da691906135db565b60405180910390fd5b565b5f5f5f9054906101000a900473ffffffffffffffffffffffffffffffffffffffff169050815f5f6101000a81548173ffffffffffffffffffffffffffffffffffffffff021916908373ffffffffffffffffffffffffffffffffffffffff1602179055508173ffffffffffffffffffffffffffffffffffffffff168173ffffffffffffffffffffffffffffffffffffffff167f8be0079c531659141344cd1fd0a4f28419497f9722a3daafe3b4186f6b6457e060405160405180910390a35050565b600260015403612eae576040517f3ee5aeb500000000000000000000000000000000000000000000000000000000815260040160405180910390fd5b6002600181905550565b60018081905550565b5f33905090565b8260068101928215612ef7579160200282015b82811115612ef6578251825591602001919060010190612edb565b5b509050612f049190612f6b565b5090565b6040518060c001604052805f73ffffffffffffffffffffffffffffffffffffffff1681526020015f73ffffffffffffffffffffffffffffffffffffffff1681526020015f8152602001612f59612f86565b81526020015f81526020015f81525090565b5b80821115612f82575f815f905550600101612f6c565b5090565b6040518060c00160405280600690602082028036833780820191505090505090565b5f819050919050565b612fba81612fa8565b82525050565b5f602082019050612fd35f830184612fb1565b92915050565b5f604051905090565b5f5ffd5b5f5ffd5b612ff381612fa8565b8114612ffd575f5ffd5b50565b5f8135905061300e81612fea565b92915050565b5f6020828403121561302957613028612fe2565b5b5f61303684828501613000565b91505092915050565b5f73ffffffffffffffffffffffffffffffffffffffff82169050919050565b5f819050919050565b5f61308161307c6130778461303f565b61305e565b61303f565b9050919050565b5f61309282613067565b9050919050565b5f6130a382613088565b9050919050565b6130b381613099565b82525050565b5f6020820190506130cc5f8301846130aa565b92915050565b5f6130dc8261303f565b9050919050565b6130ec816130d2565b81146130f6575f5ffd5b50565b5f81359050613107816130e3565b92915050565b5f5f6040838503121561312357613122612fe2565b5b5f61313085828601613000565b9250506020613141858286016130f9565b9150509250929050565b5f5ffd5b5f5ffd5b5f601f19601f8301169050919050565b7f4e487b71000000000000000000000000000000000000000000000000000000005f52604160045260245ffd5b61319982613153565b810181811067ffffffffffffffff821117156131b8576131b7613163565b5b80604052505050565b5f6131ca612fd9565b90506131d68282613190565b919050565b5f67ffffffffffffffff8211156131f5576131f4613163565b5b6131fe82613153565b9050602081019050919050565b828183375f83830152505050565b5f61322b613226846131db565b6131c1565b9050828152602081018484840111156132475761324661314f565b5b61325284828561320b565b509392505050565b5f82601f83011261326e5761326d61314b565b5b813561327e848260208601613219565b91505092915050565b5f5f5f5f6080858703121561329f5761329e612fe2565b5b5f85013567ffffffffffffffff8111156132bc576132bb612fe6565b5b6132c88782880161325a565b94505060206132d9878288016130f9565b93505060406132ea878288016130f9565b92505060606132fb87828801613000565b91505092959194509250565b5f61331182613088565b9050919050565b61332181613307565b82525050565b5f60208201905061333a5f830184613318565b92915050565b5f6020828403121561335557613354612fe2565b5b5f82013567ffffffffffffffff81111561337257613371612fe6565b5b61337e8482850161325a565b91505092915050565b613390816130d2565b82525050565b61339f81612fa8565b82525050565b5f60069050919050565b5f81905092915050565b5f819050919050565b5f6133cd8383613396565b60208301905092915050565b5f602082019050919050565b6133ee816133a5565b6133f881846133af565b9250613403826133b9565b805f5b8381101561343357815161341a87826133c2565b9650613425836133d9565b925050600181019050613406565b505050505050565b61016082015f8201516134505f850182613387565b5060208201516134636020850182613387565b5060408201516134766040850182613396565b50606082015161348960608501826133e5565b50608082015161349d610120850182613396565b5060a08201516134b1610140850182613396565b50505050565b5f610160820190506134cb5f83018461343b565b92915050565b5f5f5f606084860312156134e8576134e7612fe2565b5b5f6134f586828701613000565b935050602061350686828701613000565b925050604084013567ffffffffffffffff81111561352757613526612fe6565b5b6135338682870161325a565b9150509250925092565b5f60a0820190506135505f830188612fb1565b61355d6020830187612fb1565b61356a6040830186612fb1565b6135776060830185612fb1565b6135846080830184612fb1565b9695505050505050565b5f5f604083850312156135a4576135a3612fe2565b5b5f6135b185828601613000565b92505060206135c285828601613000565b9150509250929050565b6135d5816130d2565b82525050565b5f6020820190506135ee5f8301846135cc565b92915050565b5f8115159050919050565b613608816135f4565b82525050565b5f60c0820190506136215f830189612fb1565b61362e60208301886135cc565b61363b6040830187612fb1565b6136486060830186612fb1565b61365560808301856135ff565b61366260a08301846135ff565b979650505050505050565b5f6020828403121561368257613681612fe2565b5b5f61368f848285016130f9565b91505092915050565b5f6020820190506136ab5f8301846135ff565b92915050565b5f67ffffffffffffffff8211156136cb576136ca613163565b5b602082029050919050565b5f5ffd5b5f6136ec6136e7846136b1565b6131c1565b90508060208402830185811115613706576137056136d6565b5b835b8181101561372f578061371b8882613000565b845260208401935050602081019050613708565b5050509392505050565b5f82601f83011261374d5761374c61314b565b5b600661375a8482856136da565b91505092915050565b5f5f610180838503121561377a57613779612fe2565b5b5f61378785828601613739565b92505060c061379885828601613739565b9150509250929050565b5f819050919050565b6137b4816137a2565b81146137be575f5ffd5b50565b5f813590506137cf816137ab565b92915050565b5f60ff82169050919050565b6137ea816137d5565b81146137f4575f5ffd5b50565b5f81359050613805816137e1565b92915050565b5f5f5f5f5f5f5f5f5f6101208a8c03121561382957613828612fe2565b5b5f6138368c828d01613000565b99505060206138478c828d01613000565b98505060408a013567ffffffffffffffff81111561386857613867612fe6565b5b6138748c828d0161325a565b97505060606138858c828d01613000565b96505060806138968c828d01613000565b95505060a06138a78c828d016137c1565b94505060c06138b88c828d016137c1565b93505060e06138c98c828d016137c1565b9250506101006138db8c828d016137f7565b9150509295985092959850929598565b5f82825260208201905092915050565b7f496e76616c6964207261726974792049440000000000000000000000000000005f82015250565b5f61392f6011836138eb565b915061393a826138fb565b602082019050919050565b5f6020820190508181035f83015261395c81613923565b9050919050565b7f4e487b71000000000000000000000000000000000000000000000000000000005f52603260045260245ffd5b7f4e487b71000000000000000000000000000000000000000000000000000000005f52601160045260245ffd5b5f6139c782612fa8565b91506139d283612fa8565b92508282039050818111156139ea576139e9613990565b5b92915050565b7f4e6f74206120626f617264206d656d62657200000000000000000000000000005f82015250565b5f613a246012836138eb565b9150613a2f826139f0565b602082019050919050565b5f6020820190508181035f830152613a5181613a18565b9050919050565b7f416d6f756e74206d7573742062652067726561746572207468616e207a65726f5f82015250565b5f613a8c6020836138eb565b9150613a9782613a58565b602082019050919050565b5f6020820190508181035f830152613ab981613a80565b9050919050565b7f496e76616c696420726563697069656e740000000000000000000000000000005f82015250565b5f613af46011836138eb565b9150613aff82613ac0565b602082019050919050565b5f6020820190508181035f830152613b2181613ae8565b9050919050565b5f81519050613b3681612fea565b92915050565b5f60208284031215613b5157613b50612fe2565b5b5f613b5e84828501613b28565b91505092915050565b7f496e73756666696369656e742062616c616e63650000000000000000000000005f82015250565b5f613b9b6014836138eb565b9150613ba682613b67565b602082019050919050565b5f6020820190508181035f830152613bc881613b8f565b9050919050565b5f613bd982612fa8565b91507fffffffffffffffffffffffffffffffffffffffffffffffffffffffffffffffff8203613c0b57613c0a613990565b5b600182019050919050565b5f604082019050613c295f830185612fb1565b613c3660208301846135cc565b9392505050565b7f416c7265616479206578656375746564000000000000000000000000000000005f82015250565b5f613c716010836138eb565b9150613c7c82613c3d565b602082019050919050565b5f6020820190508181035f830152613c9e81613c65565b9050919050565b7f5265717565737420626c6f636b656400000000000000000000000000000000005f82015250565b5f613cd9600f836138eb565b9150613ce482613ca5565b602082019050919050565b5f6020820190508181035f830152613d0681613ccd565b9050919050565b5f613d1782612fa8565b9150613d2283612fa8565b9250828201905080821115613d3a57613d39613990565b5b92915050565b7f54696d656f7574206e6f742072656163686564000000000000000000000000005f82015250565b5f613d746013836138eb565b9150613d7f82613d40565b602082019050919050565b5f6020820190508181035f830152613da181613d68565b9050919050565b7f456d70747920636f6465000000000000000000000000000000000000000000005f82015250565b5f613ddc600a836138eb565b9150613de782613da8565b602082019050919050565b5f6020820190508181035f830152613e0981613dd0565b9050919050565b7f496e76616c696420616d6261737361646f7220616464726573730000000000005f82015250565b5f613e44601a836138eb565b9150613e4f82613e10565b602082019050919050565b5f6020820190508181035f830152613e7181613e38565b9050919050565b7f446973636f756e7420746f6f20686967680000000000000000000000000000005f82015250565b5f613eac6011836138eb565b9150613eb782613e78565b602082019050919050565b5f6020820190508181035f830152613ed981613ea0565b9050919050565b5f81519050919050565b5f81905092915050565b8281835e5f83830152505050565b5f613f0c82613ee0565b613f168185613eea565b9350613f26818560208601613ef4565b80840191505092915050565b5f613f3d8284613f02565b915081905092915050565b7f436f646520616c726561647920657869737473000000000000000000000000005f82015250565b5f613f7c6013836138eb565b9150613f8782613f48565b602082019050919050565b5f6020820190508181035f830152613fa981613f70565b9050919050565b7f4e6f20636f64652070726f7669646564000000000000000000000000000000005f82015250565b5f613fe46010836138eb565b9150613fef82613fb0565b602082019050919050565b5f6020820190508181035f83015261401181613fd8565b9050919050565b7f496e76616c696420636f646500000000000000000000000000000000000000005f82015250565b5f61404c600c836138eb565b915061405782614018565b602082019050919050565b5f6020820190508181035f83015261407981614040565b9050919050565b7f4e6f204e465473206c65667420696e20746869732070686173650000000000005f82015250565b5f6140b4601a836138eb565b91506140bf82614080565b602082019050919050565b5f6020820190508181035f8301526140e1816140a8565b9050919050565b7f457863656564732070686173652072656d61696e696e6720737570706c7900005f82015250565b5f61411c601e836138eb565b9150614127826140e8565b602082019050919050565b5f6020820190508181035f83015261414981614110565b9050919050565b5f61415a82612fa8565b915061416583612fa8565b925082820261417381612fa8565b9150828204841483151761418a57614189613990565b5b5092915050565b7f5468697320636f6465206973206f6e6c7920666f722073656c662d75736167655f82015250565b5f6141c56020836138eb565b91506141d082614191565b602082019050919050565b5f6020820190508181035f8301526141f2816141b9565b9050919050565b7f4e487b71000000000000000000000000000000000000000000000000000000005f52601260045260245ffd5b5f61423082612fa8565b915061423b83612fa8565b92508261424b5761424a6141f9565b5b828204905092915050565b7f4e6f2061637469766520706861736500000000000000000000000000000000005f82015250565b5f61428a600f836138eb565b915061429582614256565b602082019050919050565b5f6020820190508181035f8301526142b78161427e565b9050919050565b7f4e657720737570706c79206c657373207468616e20616c7265616479206d696e5f8201527f7465640000000000000000000000000000000000000000000000000000000000602082015250565b5f6143186023836138eb565b9150614323826142be565b604082019050919050565b5f6020820190508181035f8301526143458161430c565b9050919050565b7f4e657720737570706c7920657863656564732072656d61696e696e67204e46545f8201527f20737570706c7900000000000000000000000000000000000000000000000000602082015250565b5f6143a66027836138eb565b91506143b18261434c565b604082019050919050565b5f6020820190508181035f8301526143d38161439a565b9050919050565b5f6143ec6143e7846131db565b6131c1565b9050828152602081018484840111156144085761440761314f565b5b614413848285613ef4565b509392505050565b5f82601f83011261442f5761442e61314b565b5b815161443f8482602086016143da565b91505092915050565b5f5f5f5f5f60a0868803121561446157614460612fe2565b5b5f86015167ffffffffffffffff81111561447e5761447d612fe6565b5b61448a8882890161441b565b955050602086015167ffffffffffffffff8111156144ab576144aa612fe6565b5b6144b78882890161441b565b94505060406144c888828901613b28565b93505060606144d988828901613b28565b92505060806144ea88828901613b28565b9150509295509295909350565b7f416c726561647920617070726f766564000000000000000000000000000000005f82015250565b5f61452b6010836138eb565b9150614536826144f7565b602082019050919050565b5f6020820190508181035f8301526145588161451f565b9050919050565b5f6060820190506145725f8301866135cc565b61457f6020830185612fb1565b61458c6040830184612fb1565b949350505050565b5f6060820190506145a75f8301866135cc565b6145b460208301856135cc565b6145c16040830184612fb1565b949350505050565b6145d2816135f4565b81146145dc575f5ffd5b50565b5f815190506145ed816145c9565b92915050565b5f6020828403121561460857614607612fe2565b5b5f614615848285016145df565b91505092915050565b5f6040820190506146315f8301856135cc565b61463e6020830184612fb1565b9392505050565b5f6040820190506146585f830185612fb1565b6146656020830184612fb1565b9392505050565b7f416c726561647920626c6f636b656400000000000000000000000000000000005f82015250565b5f6146a0600f836138eb565b91506146ab8261466c565b602082019050919050565b5f6020820190508181035f8301526146cd81614694565b9050919050565b7f506861736520737570706c7920657863656564732072656d61696e696e67204e5f8201527f465420737570706c790000000000000000000000000000000000000000000000602082015250565b5f61472e6029836138eb565b9150614739826146d4565b604082019050919050565b5f6020820190508181035f83015261475b81614722565b9050919050565b7f50726576696f7573207068617365206e6f742066756c6c79206d696e746564005f82015250565b5f614796601f836138eb565b91506147a182614762565b602082019050919050565b5f6020820190508181035f8301526147c38161478a565b9050919050565b7f4e6577207072696365206d7573742062652068696768657200000000000000005f82015250565b5f6147fe6018836138eb565b9150614809826147ca565b602082019050919050565b5f6020820190508181035f83015261482b816147f2565b9050919050565b61483b816137a2565b82525050565b61484a816137d5565b82525050565b5f610120820190506148645f83018c6135cc565b614871602083018b6135cc565b61487e604083018a612fb1565b61488b6060830189612fb1565b6148986080830188612fb1565b6148a560a0830187614832565b6148b260c0830186614841565b6148bf60e0830185614832565b6148cd610100830184614832565b9a995050505050505050505056fea26469706673582212201985534246dd39030e08c41b2640b616b9f811445849b47bbdeb74afae1b6e2c64736f6c634300081e0033",
			"opcodes": "PUSH1 0xC0 PUSH1 0x40 MSTORE PUSH0 PUSH1 0x2 SSTORE PUSH0 PUSH1 0x6 SSTORE PUSH0 PUSH1 0x8 SSTORE CALLVALUE DUP1 ISZERO PUSH2 0x1B JUMPI PUSH0 PUSH0 REVERT JUMPDEST POP PUSH1 0x40 MLOAD PUSH2 0x517B CODESIZE SUB DUP1 PUSH2 0x517B DUP4 CODECOPY DUP2 DUP2 ADD PUSH1 0x40 MSTORE DUP2 ADD SWAP1 PUSH2 0x3D SWAP2 SWAP1 PUSH2 0x5E5 JUMP JUMPDEST CALLER PUSH0 PUSH20 0xFFFFFFFFFFFFFFFFFFFFFFFFFFFFFFFFFFFFFFFF AND DUP2 PUSH20 0xFFFFFFFFFFFFFFFFFFFFFFFFFFFFFFFFFFFFFFFF AND SUB PUSH2 0xAE JUMPI PUSH0 PUSH1 0x40 MLOAD PUSH32 0x1E4FBDF700000000000000000000000000000000000000000000000000000000 DUP2 MSTORE PUSH1 0x4 ADD PUSH2 0xA5 SWAP2 SWAP1 PUSH2 0x660 JUMP JUMPDEST PUSH1 0x40 MLOAD DUP1 SWAP2 SUB SWAP1 REVERT JUMPDEST PUSH2 0xBD DUP2 PUSH2 0x22D PUSH1 0x20 SHL PUSH1 0x20 SHR JUMP JUMPDEST POP PUSH1 0x1 DUP1 DUP2 SWAP1 SSTORE POP PUSH0 PUSH20 0xFFFFFFFFFFFFFFFFFFFFFFFFFFFFFFFFFFFFFFFF AND DUP4 PUSH20 0xFFFFFFFFFFFFFFFFFFFFFFFFFFFFFFFFFFFFFFFF AND EQ ISZERO DUP1 ISZERO PUSH2 0x12D JUMPI POP PUSH0 PUSH20 0xFFFFFFFFFFFFFFFFFFFFFFFFFFFFFFFFFFFFFFFF AND DUP3 PUSH20 0xFFFFFFFFFFFFFFFFFFFFFFFFFFFFFFFFFFFFFFFF AND EQ ISZERO JUMPDEST PUSH2 0x135 JUMPI PUSH0 PUSH0 REVERT JUMPDEST PUSH0 DUP2 MLOAD GT PUSH2 0x178 JUMPI PUSH1 0x40 MLOAD PUSH32 0x8C379A000000000000000000000000000000000000000000000000000000000 DUP2 MSTORE PUSH1 0x4 ADD PUSH2 0x16F SWAP1 PUSH2 0x6D3 JUMP JUMPDEST PUSH1 0x40 MLOAD DUP1 SWAP2 SUB SWAP1 REVERT JUMPDEST DUP3 PUSH20 0xFFFFFFFFFFFFFFFFFFFFFFFFFFFFFFFFFFFFFFFF AND PUSH1 0x80 DUP2 PUSH20 0xFFFFFFFFFFFFFFFFFFFFFFFFFFFFFFFFFFFFFFFF AND DUP2 MSTORE POP POP DUP2 PUSH20 0xFFFFFFFFFFFFFFFFFFFFFFFFFFFFFFFFFFFFFFFF AND PUSH1 0xA0 DUP2 PUSH20 0xFFFFFFFFFFFFFFFFFFFFFFFFFFFFFFFFFFFFFFFF AND DUP2 MSTORE POP POP PUSH0 PUSH0 SWAP1 POP JUMPDEST DUP2 MLOAD DUP2 LT ISZERO PUSH2 0x224 JUMPI PUSH2 0x217 DUP3 DUP3 DUP2 MLOAD DUP2 LT PUSH2 0x204 JUMPI PUSH2 0x203 PUSH2 0x6F1 JUMP JUMPDEST JUMPDEST PUSH1 0x20 MUL PUSH1 0x20 ADD ADD MLOAD PUSH2 0x2EE PUSH1 0x20 SHL PUSH1 0x20 SHR JUMP JUMPDEST DUP1 DUP1 PUSH1 0x1 ADD SWAP2 POP POP PUSH2 0x1E5 JUMP JUMPDEST POP POP POP POP PUSH2 0x803 JUMP JUMPDEST PUSH0 PUSH0 PUSH0 SWAP1 SLOAD SWAP1 PUSH2 0x100 EXP SWAP1 DIV PUSH20 0xFFFFFFFFFFFFFFFFFFFFFFFFFFFFFFFFFFFFFFFF AND SWAP1 POP DUP2 PUSH0 PUSH0 PUSH2 0x100 EXP DUP2 SLOAD DUP2 PUSH20 0xFFFFFFFFFFFFFFFFFFFFFFFFFFFFFFFFFFFFFFFF MUL NOT AND SWAP1 DUP4 PUSH20 0xFFFFFFFFFFFFFFFFFFFFFFFFFFFFFFFFFFFFFFFF AND MUL OR SWAP1 SSTORE POP DUP2 PUSH20 0xFFFFFFFFFFFFFFFFFFFFFFFFFFFFFFFFFFFFFFFF AND DUP2 PUSH20 0xFFFFFFFFFFFFFFFFFFFFFFFFFFFFFFFFFFFFFFFF AND PUSH32 0x8BE0079C531659141344CD1FD0A4F28419497F9722A3DAAFE3B4186F6B6457E0 PUSH1 0x40 MLOAD PUSH1 0x40 MLOAD DUP1 SWAP2 SUB SWAP1 LOG3 POP POP JUMP JUMPDEST PUSH1 0x5 PUSH0 DUP3 PUSH20 0xFFFFFFFFFFFFFFFFFFFFFFFFFFFFFFFFFFFFFFFF AND PUSH20 0xFFFFFFFFFFFFFFFFFFFFFFFFFFFFFFFFFFFFFFFF AND DUP2 MSTORE PUSH1 0x20 ADD SWAP1 DUP2 MSTORE PUSH1 0x20 ADD PUSH0 KECCAK256 PUSH0 SWAP1 SLOAD SWAP1 PUSH2 0x100 EXP SWAP1 DIV PUSH1 0xFF AND ISZERO PUSH2 0x378 JUMPI PUSH1 0x40 MLOAD PUSH32 0x8C379A000000000000000000000000000000000000000000000000000000000 DUP2 MSTORE PUSH1 0x4 ADD PUSH2 0x36F SWAP1 PUSH2 0x768 JUMP JUMPDEST PUSH1 0x40 MLOAD DUP1 SWAP2 SUB SWAP1 REVERT JUMPDEST PUSH1 0x1 PUSH1 0x5 PUSH0 DUP4 PUSH20 0xFFFFFFFFFFFFFFFFFFFFFFFFFFFFFFFFFFFFFFFF AND PUSH20 0xFFFFFFFFFFFFFFFFFFFFFFFFFFFFFFFFFFFFFFFF AND DUP2 MSTORE PUSH1 0x20 ADD SWAP1 DUP2 MSTORE PUSH1 0x20 ADD PUSH0 KECCAK256 PUSH0 PUSH2 0x100 EXP DUP2 SLOAD DUP2 PUSH1 0xFF MUL NOT AND SWAP1 DUP4 ISZERO ISZERO MUL OR SWAP1 SSTORE POP PUSH1 0x6 PUSH0 DUP2 SLOAD DUP1 SWAP3 SWAP2 SWAP1 PUSH2 0x3DF SWAP1 PUSH2 0x7BC JUMP JUMPDEST SWAP2 SWAP1 POP SSTORE POP DUP1 PUSH20 0xFFFFFFFFFFFFFFFFFFFFFFFFFFFFFFFFFFFFFFFF AND PUSH32 0x956F4B06F20EDA3AA4F6BE9E72E8FC77BEB3F95F4F2A95A796B2AF742583D743 PUSH1 0x40 MLOAD PUSH1 0x40 MLOAD DUP1 SWAP2 SUB SWAP1 LOG2 POP JUMP JUMPDEST PUSH0 PUSH1 0x40 MLOAD SWAP1 POP SWAP1 JUMP JUMPDEST PUSH0 PUSH0 REVERT JUMPDEST PUSH0 PUSH0 REVERT JUMPDEST PUSH0 PUSH20 0xFFFFFFFFFFFFFFFFFFFFFFFFFFFFFFFFFFFFFFFF DUP3 AND SWAP1 POP SWAP2 SWAP1 POP JUMP JUMPDEST PUSH0 PUSH2 0x464 DUP3 PUSH2 0x43B JUMP JUMPDEST SWAP1 POP SWAP2 SWAP1 POP JUMP JUMPDEST PUSH2 0x474 DUP2 PUSH2 0x45A JUMP JUMPDEST DUP2 EQ PUSH2 0x47E JUMPI PUSH0 PUSH0 REVERT JUMPDEST POP JUMP JUMPDEST PUSH0 DUP2 MLOAD SWAP1 POP PUSH2 0x48F DUP2 PUSH2 0x46B JUMP JUMPDEST SWAP3 SWAP2 POP POP JUMP JUMPDEST PUSH0 PUSH0 REVERT JUMPDEST PUSH0 PUSH1 0x1F NOT PUSH1 0x1F DUP4 ADD AND SWAP1 POP SWAP2 SWAP1 POP JUMP JUMPDEST PUSH32 0x4E487B7100000000000000000000000000000000000000000000000000000000 PUSH0 MSTORE PUSH1 0x41 PUSH1 0x4 MSTORE PUSH1 0x24 PUSH0 REVERT JUMPDEST PUSH2 0x4DF DUP3 PUSH2 0x499 JUMP JUMPDEST DUP2 ADD DUP2 DUP2 LT PUSH8 0xFFFFFFFFFFFFFFFF DUP3 GT OR ISZERO PUSH2 0x4FE JUMPI PUSH2 0x4FD PUSH2 0x4A9 JUMP JUMPDEST JUMPDEST DUP1 PUSH1 0x40 MSTORE POP POP POP JUMP JUMPDEST PUSH0 PUSH2 0x510 PUSH2 0x42A JUMP JUMPDEST SWAP1 POP PUSH2 0x51C DUP3 DUP3 PUSH2 0x4D6 JUMP JUMPDEST SWAP2 SWAP1 POP JUMP JUMPDEST PUSH0 PUSH8 0xFFFFFFFFFFFFFFFF DUP3 GT ISZERO PUSH2 0x53B JUMPI PUSH2 0x53A PUSH2 0x4A9 JUMP JUMPDEST JUMPDEST PUSH1 0x20 DUP3 MUL SWAP1 POP PUSH1 0x20 DUP2 ADD SWAP1 POP SWAP2 SWAP1 POP JUMP JUMPDEST PUSH0 PUSH0 REVERT JUMPDEST PUSH0 PUSH2 0x562 PUSH2 0x55D DUP5 PUSH2 0x521 JUMP JUMPDEST PUSH2 0x507 JUMP JUMPDEST SWAP1 POP DUP1 DUP4 DUP3 MSTORE PUSH1 0x20 DUP3 ADD SWAP1 POP PUSH1 0x20 DUP5 MUL DUP4 ADD DUP6 DUP2 GT ISZERO PUSH2 0x585 JUMPI PUSH2 0x584 PUSH2 0x54C JUMP JUMPDEST JUMPDEST DUP4 JUMPDEST DUP2 DUP2 LT ISZERO PUSH2 0x5AE JUMPI DUP1 PUSH2 0x59A DUP9 DUP3 PUSH2 0x481 JUMP JUMPDEST DUP5 MSTORE PUSH1 0x20 DUP5 ADD SWAP4 POP POP PUSH1 0x20 DUP2 ADD SWAP1 POP PUSH2 0x587 JUMP JUMPDEST POP POP POP SWAP4 SWAP3 POP POP POP JUMP JUMPDEST PUSH0 DUP3 PUSH1 0x1F DUP4 ADD SLT PUSH2 0x5CC JUMPI PUSH2 0x5CB PUSH2 0x495 JUMP JUMPDEST JUMPDEST DUP2 MLOAD PUSH2 0x5DC DUP5 DUP3 PUSH1 0x20 DUP7 ADD PUSH2 0x550 JUMP JUMPDEST SWAP2 POP POP SWAP3 SWAP2 POP POP JUMP JUMPDEST PUSH0 PUSH0 PUSH0 PUSH1 0x60 DUP5 DUP7 SUB SLT ISZERO PUSH2 0x5FC JUMPI PUSH2 0x5FB PUSH2 0x433 JUMP JUMPDEST JUMPDEST PUSH0 PUSH2 0x609 DUP7 DUP3 DUP8 ADD PUSH2 0x481 JUMP JUMPDEST SWAP4 POP POP PUSH1 0x20 PUSH2 0x61A DUP7 DUP3 DUP8 ADD PUSH2 0x481 JUMP JUMPDEST SWAP3 POP POP PUSH1 0x40 DUP5 ADD MLOAD PUSH8 0xFFFFFFFFFFFFFFFF DUP2 GT ISZERO PUSH2 0x63B JUMPI PUSH2 0x63A PUSH2 0x437 JUMP JUMPDEST JUMPDEST PUSH2 0x647 DUP7 DUP3 DUP8 ADD PUSH2 0x5B8 JUMP JUMPDEST SWAP2 POP POP SWAP3 POP SWAP3 POP SWAP3 JUMP JUMPDEST PUSH2 0x65A DUP2 PUSH2 0x45A JUMP JUMPDEST DUP3 MSTORE POP POP JUMP JUMPDEST PUSH0 PUSH1 0x20 DUP3 ADD SWAP1 POP PUSH2 0x673 PUSH0 DUP4 ADD DUP5 PUSH2 0x651 JUMP JUMPDEST SWAP3 SWAP2 POP POP JUMP JUMPDEST PUSH0 DUP3 DUP3 MSTORE PUSH1 0x20 DUP3 ADD SWAP1 POP SWAP3 SWAP2 POP POP JUMP JUMPDEST PUSH32 0x4E6F20626F617264206D656D626572732070726F766964656400000000000000 PUSH0 DUP3 ADD MSTORE POP JUMP JUMPDEST PUSH0 PUSH2 0x6BD PUSH1 0x19 DUP4 PUSH2 0x679 JUMP JUMPDEST SWAP2 POP PUSH2 0x6C8 DUP3 PUSH2 0x689 JUMP JUMPDEST PUSH1 0x20 DUP3 ADD SWAP1 POP SWAP2 SWAP1 POP JUMP JUMPDEST PUSH0 PUSH1 0x20 DUP3 ADD SWAP1 POP DUP2 DUP2 SUB PUSH0 DUP4 ADD MSTORE PUSH2 0x6EA DUP2 PUSH2 0x6B1 JUMP JUMPDEST SWAP1 POP SWAP2 SWAP1 POP JUMP JUMPDEST PUSH32 0x4E487B7100000000000000000000000000000000000000000000000000000000 PUSH0 MSTORE PUSH1 0x32 PUSH1 0x4 MSTORE PUSH1 0x24 PUSH0 REVERT JUMPDEST PUSH32 0x416C7265616479206120626F617264206D656D62657200000000000000000000 PUSH0 DUP3 ADD MSTORE POP JUMP JUMPDEST PUSH0 PUSH2 0x752 PUSH1 0x16 DUP4 PUSH2 0x679 JUMP JUMPDEST SWAP2 POP PUSH2 0x75D DUP3 PUSH2 0x71E JUMP JUMPDEST PUSH1 0x20 DUP3 ADD SWAP1 POP SWAP2 SWAP1 POP JUMP JUMPDEST PUSH0 PUSH1 0x20 DUP3 ADD SWAP1 POP DUP2 DUP2 SUB PUSH0 DUP4 ADD MSTORE PUSH2 0x77F DUP2 PUSH2 0x746 JUMP JUMPDEST SWAP1 POP SWAP2 SWAP1 POP JUMP JUMPDEST PUSH32 0x4E487B7100000000000000000000000000000000000000000000000000000000 PUSH0 MSTORE PUSH1 0x11 PUSH1 0x4 MSTORE PUSH1 0x24 PUSH0 REVERT JUMPDEST PUSH0 DUP2 SWAP1 POP SWAP2 SWAP1 POP JUMP JUMPDEST PUSH0 PUSH2 0x7C6 DUP3 PUSH2 0x7B3 JUMP JUMPDEST SWAP2 POP PUSH32 0xFFFFFFFFFFFFFFFFFFFFFFFFFFFFFFFFFFFFFFFFFFFFFFFFFFFFFFFFFFFFFFFF DUP3 SUB PUSH2 0x7F8 JUMPI PUSH2 0x7F7 PUSH2 0x786 JUMP JUMPDEST JUMPDEST PUSH1 0x1 DUP3 ADD SWAP1 POP SWAP2 SWAP1 POP JUMP JUMPDEST PUSH1 0x80 MLOAD PUSH1 0xA0 MLOAD PUSH2 0x4911 PUSH2 0x86A PUSH0 CODECOPY PUSH0 DUP2 DUP2 PUSH2 0x877 ADD MSTORE DUP2 DUP2 PUSH2 0xE9C ADD MSTORE DUP2 DUP2 PUSH2 0x1218 ADD MSTORE DUP2 DUP2 PUSH2 0x1F95 ADD MSTORE DUP2 DUP2 PUSH2 0x2068 ADD MSTORE DUP2 DUP2 PUSH2 0x21F9 ADD MSTORE DUP2 DUP2 PUSH2 0x28F0 ADD MSTORE PUSH2 0x2BF0 ADD MSTORE PUSH0 DUP2 DUP2 PUSH2 0x719 ADD MSTORE DUP2 DUP2 PUSH2 0x1872 ADD MSTORE DUP2 DUP2 PUSH2 0x1E7E ADD MSTORE PUSH2 0x2A52 ADD MSTORE PUSH2 0x4911 PUSH0 RETURN INVALID PUSH1 0x80 PUSH1 0x40 MSTORE CALLVALUE DUP1 ISZERO PUSH2 0xF JUMPI PUSH0 PUSH0 REVERT JUMPDEST POP PUSH1 0x4 CALLDATASIZE LT PUSH2 0x1C2 JUMPI PUSH0 CALLDATALOAD PUSH1 0xE0 SHR DUP1 PUSH4 0x8C858A14 GT PUSH2 0xF7 JUMPI DUP1 PUSH4 0xC6E64E53 GT PUSH2 0x95 JUMPI DUP1 PUSH4 0xDFDC0DE2 GT PUSH2 0x6F JUMPI DUP1 PUSH4 0xDFDC0DE2 EQ PUSH2 0x521 JUMPI DUP1 PUSH4 0xE2B0608D EQ PUSH2 0x53D JUMPI DUP1 PUSH4 0xEC753515 EQ PUSH2 0x559 JUMPI DUP1 PUSH4 0xF2FDE38B EQ PUSH2 0x575 JUMPI PUSH2 0x1C2 JUMP JUMPDEST DUP1 PUSH4 0xC6E64E53 EQ PUSH2 0x4B7 JUMPI DUP1 PUSH4 0xCAE359B9 EQ PUSH2 0x4D3 JUMPI DUP1 PUSH4 0xD88150EA EQ PUSH2 0x503 JUMPI PUSH2 0x1C2 JUMP JUMPDEST DUP1 PUSH4 0x9ECEDDEA GT PUSH2 0xD1 JUMPI DUP1 PUSH4 0x9ECEDDEA EQ PUSH2 0x41D JUMPI DUP1 PUSH4 0xBC4456EB EQ PUSH2 0x439 JUMPI DUP1 PUSH4 0xBFF13785 EQ PUSH2 0x457 JUMPI DUP1 PUSH4 0xC5CAC202 EQ PUSH2 0x487 JUMPI PUSH2 0x1C2 JUMP JUMPDEST DUP1 PUSH4 0x8C858A14 EQ PUSH2 0x39A JUMPI DUP1 PUSH4 0x8DA5CB5B EQ PUSH2 0x3CA JUMPI DUP1 PUSH4 0x937B2581 EQ PUSH2 0x3E8 JUMPI PUSH2 0x1C2 JUMP JUMPDEST DUP1 PUSH4 0x3E413BEE GT PUSH2 0x164 JUMPI DUP1 PUSH4 0x6F9FB98A GT PUSH2 0x13E JUMPI DUP1 PUSH4 0x6F9FB98A EQ PUSH2 0x322 JUMPI DUP1 PUSH4 0x715018A6 EQ PUSH2 0x340 JUMPI DUP1 PUSH4 0x7205249E EQ PUSH2 0x34A JUMPI DUP1 PUSH4 0x72403A79 EQ PUSH2 0x37E JUMPI PUSH2 0x1C2 JUMP JUMPDEST DUP1 PUSH4 0x3E413BEE EQ PUSH2 0x2A4 JUMPI DUP1 PUSH4 0x5B65DA64 EQ PUSH2 0x2C2 JUMPI DUP1 PUSH4 0x6353A400 EQ PUSH2 0x2F2 JUMPI PUSH2 0x1C2 JUMP JUMPDEST DUP1 PUSH4 0x21739779 GT PUSH2 0x1A0 JUMPI DUP1 PUSH4 0x21739779 EQ PUSH2 0x232 JUMPI DUP1 PUSH4 0x24079158 EQ PUSH2 0x24E JUMPI DUP1 PUSH4 0x24F13A76 EQ PUSH2 0x26C JUMPI DUP1 PUSH4 0x359F82A3 EQ PUSH2 0x288 JUMPI PUSH2 0x1C2 JUMP JUMPDEST DUP1 PUSH4 0x55AD42E EQ PUSH2 0x1C6 JUMPI DUP1 PUSH4 0x1558BED3 EQ PUSH2 0x1E4 JUMPI DUP1 PUSH4 0x1714F2E0 EQ PUSH2 0x214 JUMPI JUMPDEST PUSH0 PUSH0 REVERT JUMPDEST PUSH2 0x1CE PUSH2 0x591 JUMP JUMPDEST PUSH1 0x40 MLOAD PUSH2 0x1DB SWAP2 SWAP1 PUSH2 0x2FC0 JUMP JUMPDEST PUSH1 0x40 MLOAD DUP1 SWAP2 SUB SWAP1 RETURN JUMPDEST PUSH2 0x1FE PUSH1 0x4 DUP1 CALLDATASIZE SUB DUP2 ADD SWAP1 PUSH2 0x1F9 SWAP2 SWAP1 PUSH2 0x3014 JUMP JUMPDEST PUSH2 0x597 JUMP JUMPDEST PUSH1 0x40 MLOAD PUSH2 0x20B SWAP2 SWAP1 PUSH2 0x2FC0 JUMP JUMPDEST PUSH1 0x40 MLOAD DUP1 SWAP2 SUB SWAP1 RETURN JUMPDEST PUSH2 0x21C PUSH2 0x717 JUMP JUMPDEST PUSH1 0x40 MLOAD PUSH2 0x229 SWAP2 SWAP1 PUSH2 0x30B9 JUMP JUMPDEST PUSH1 0x40 MLOAD DUP1 SWAP2 SUB SWAP1 RETURN JUMPDEST PUSH2 0x24C PUSH1 0x4 DUP1 CALLDATASIZE SUB DUP2 ADD SWAP1 PUSH2 0x247 SWAP2 SWAP1 PUSH2 0x310D JUMP JUMPDEST PUSH2 0x73B JUMP JUMPDEST STOP JUMPDEST PUSH2 0x256 PUSH2 0xA65 JUMP JUMPDEST PUSH1 0x40 MLOAD PUSH2 0x263 SWAP2 SWAP1 PUSH2 0x2FC0 JUMP JUMPDEST PUSH1 0x40 MLOAD DUP1 SWAP2 SUB SWAP1 RETURN JUMPDEST PUSH2 0x286 PUSH1 0x4 DUP1 CALLDATASIZE SUB DUP2 ADD SWAP1 PUSH2 0x281 SWAP2 SWAP1 PUSH2 0x3014 JUMP JUMPDEST PUSH2 0xA6B JUMP JUMPDEST STOP JUMPDEST PUSH2 0x2A2 PUSH1 0x4 DUP1 CALLDATASIZE SUB DUP2 ADD SWAP1 PUSH2 0x29D SWAP2 SWAP1 PUSH2 0x3287 JUMP JUMPDEST PUSH2 0xB84 JUMP JUMPDEST STOP JUMPDEST PUSH2 0x2AC PUSH2 0xE9A JUMP JUMPDEST PUSH1 0x40 MLOAD PUSH2 0x2B9 SWAP2 SWAP1 PUSH2 0x3327 JUMP JUMPDEST PUSH1 0x40 MLOAD DUP1 SWAP2 SUB SWAP1 RETURN JUMPDEST PUSH2 0x2DC PUSH1 0x4 DUP1 CALLDATASIZE SUB DUP2 ADD SWAP1 PUSH2 0x2D7 SWAP2 SWAP1 PUSH2 0x3014 JUMP JUMPDEST PUSH2 0xEBE JUMP JUMPDEST PUSH1 0x40 MLOAD PUSH2 0x2E9 SWAP2 SWAP1 PUSH2 0x2FC0 JUMP JUMPDEST PUSH1 0x40 MLOAD DUP1 SWAP2 SUB SWAP1 RETURN JUMPDEST PUSH2 0x30C PUSH1 0x4 DUP1 CALLDATASIZE SUB DUP2 ADD SWAP1 PUSH2 0x307 SWAP2 SWAP1 PUSH2 0x3340 JUMP JUMPDEST PUSH2 0x1018 JUMP JUMPDEST PUSH1 0x40 MLOAD PUSH2 0x319 SWAP2 SWAP1 PUSH2 0x34B7 JUMP JUMPDEST PUSH1 0x40 MLOAD DUP1 SWAP2 SUB SWAP1 RETURN JUMPDEST PUSH2 0x32A PUSH2 0x1215 JUMP JUMPDEST PUSH1 0x40 MLOAD PUSH2 0x337 SWAP2 SWAP1 PUSH2 0x2FC0 JUMP JUMPDEST PUSH1 0x40 MLOAD DUP1 SWAP2 SUB SWAP1 RETURN JUMPDEST PUSH2 0x348 PUSH2 0x12B3 JUMP JUMPDEST STOP JUMPDEST PUSH2 0x364 PUSH1 0x4 DUP1 CALLDATASIZE SUB DUP2 ADD SWAP1 PUSH2 0x35F SWAP2 SWAP1 PUSH2 0x34D1 JUMP JUMPDEST PUSH2 0x12C6 JUMP JUMPDEST PUSH1 0x40 MLOAD PUSH2 0x375 SWAP6 SWAP5 SWAP4 SWAP3 SWAP2 SWAP1 PUSH2 0x353D JUMP JUMPDEST PUSH1 0x40 MLOAD DUP1 SWAP2 SUB SWAP1 RETURN JUMPDEST PUSH2 0x398 PUSH1 0x4 DUP1 CALLDATASIZE SUB DUP2 ADD SWAP1 PUSH2 0x393 SWAP2 SWAP1 PUSH2 0x358E JUMP JUMPDEST PUSH2 0x165D JUMP JUMPDEST STOP JUMPDEST PUSH2 0x3B4 PUSH1 0x4 DUP1 CALLDATASIZE SUB DUP2 ADD SWAP1 PUSH2 0x3AF SWAP2 SWAP1 PUSH2 0x3014 JUMP JUMPDEST PUSH2 0x1828 JUMP JUMPDEST PUSH1 0x40 MLOAD PUSH2 0x3C1 SWAP2 SWAP1 PUSH2 0x2FC0 JUMP JUMPDEST PUSH1 0x40 MLOAD DUP1 SWAP2 SUB SWAP1 RETURN JUMPDEST PUSH2 0x3D2 PUSH2 0x1928 JUMP JUMPDEST PUSH1 0x40 MLOAD PUSH2 0x3DF SWAP2 SWAP1 PUSH2 0x35DB JUMP JUMPDEST PUSH1 0x40 MLOAD DUP1 SWAP2 SUB SWAP1 RETURN JUMPDEST PUSH2 0x402 PUSH1 0x4 DUP1 CALLDATASIZE SUB DUP2 ADD SWAP1 PUSH2 0x3FD SWAP2 SWAP1 PUSH2 0x3014 JUMP JUMPDEST PUSH2 0x194F JUMP JUMPDEST PUSH1 0x40 MLOAD PUSH2 0x414 SWAP7 SWAP6 SWAP5 SWAP4 SWAP3 SWAP2 SWAP1 PUSH2 0x360E JUMP JUMPDEST PUSH1 0x40 MLOAD DUP1 SWAP2 SUB SWAP1 RETURN JUMPDEST PUSH2 0x437 PUSH1 0x4 DUP1 CALLDATASIZE SUB DUP2 ADD SWAP1 PUSH2 0x432 SWAP2 SWAP1 PUSH2 0x3014 JUMP JUMPDEST PUSH2 0x19BF JUMP JUMPDEST STOP JUMPDEST PUSH2 0x441 PUSH2 0x1C5A JUMP JUMPDEST PUSH1 0x40 MLOAD PUSH2 0x44E SWAP2 SWAP1 PUSH2 0x2FC0 JUMP JUMPDEST PUSH1 0x40 MLOAD DUP1 SWAP2 SUB SWAP1 RETURN JUMPDEST PUSH2 0x471 PUSH1 0x4 DUP1 CALLDATASIZE SUB DUP2 ADD SWAP1 PUSH2 0x46C SWAP2 SWAP1 PUSH2 0x366D JUMP JUMPDEST PUSH2 0x1C61 JUMP JUMPDEST PUSH1 0x40 MLOAD PUSH2 0x47E SWAP2 SWAP1 PUSH2 0x3698 JUMP JUMPDEST PUSH1 0x40 MLOAD DUP1 SWAP2 SUB SWAP1 RETURN JUMPDEST PUSH2 0x4A1 PUSH1 0x4 DUP1 CALLDATASIZE SUB DUP2 ADD SWAP1 PUSH2 0x49C SWAP2 SWAP1 PUSH2 0x3014 JUMP JUMPDEST PUSH2 0x1C7E JUMP JUMPDEST PUSH1 0x40 MLOAD PUSH2 0x4AE SWAP2 SWAP1 PUSH2 0x2FC0 JUMP JUMPDEST PUSH1 0x40 MLOAD DUP1 SWAP2 SUB SWAP1 RETURN JUMPDEST PUSH2 0x4D1 PUSH1 0x4 DUP1 CALLDATASIZE SUB DUP2 ADD SWAP1 PUSH2 0x4CC SWAP2 SWAP1 PUSH2 0x34D1 JUMP JUMPDEST PUSH2 0x1DD8 JUMP JUMPDEST STOP JUMPDEST PUSH2 0x4ED PUSH1 0x4 DUP1 CALLDATASIZE SUB DUP2 ADD SWAP1 PUSH2 0x4E8 SWAP2 SWAP1 PUSH2 0x3014 JUMP JUMPDEST PUSH2 0x238D JUMP JUMPDEST PUSH1 0x40 MLOAD PUSH2 0x4FA SWAP2 SWAP1 PUSH2 0x2FC0 JUMP JUMPDEST PUSH1 0x40 MLOAD DUP1 SWAP2 SUB SWAP1 RETURN JUMPDEST PUSH2 0x50B PUSH2 0x24E6 JUMP JUMPDEST PUSH1 0x40 MLOAD PUSH2 0x518 SWAP2 SWAP1 PUSH2 0x2FC0 JUMP JUMPDEST PUSH1 0x40 MLOAD DUP1 SWAP2 SUB SWAP1 RETURN JUMPDEST PUSH2 0x53B PUSH1 0x4 DUP1 CALLDATASIZE SUB DUP2 ADD SWAP1 PUSH2 0x536 SWAP2 SWAP1 PUSH2 0x3014 JUMP JUMPDEST PUSH2 0x24EC JUMP JUMPDEST STOP JUMPDEST PUSH2 0x557 PUSH1 0x4 DUP1 CALLDATASIZE SUB DUP2 ADD SWAP1 PUSH2 0x552 SWAP2 SWAP1 PUSH2 0x3763 JUMP JUMPDEST PUSH2 0x2691 JUMP JUMPDEST STOP JUMPDEST PUSH2 0x573 PUSH1 0x4 DUP1 CALLDATASIZE SUB DUP2 ADD SWAP1 PUSH2 0x56E SWAP2 SWAP1 PUSH2 0x380B JUMP JUMPDEST PUSH2 0x28D6 JUMP JUMPDEST STOP JUMPDEST PUSH2 0x58F PUSH1 0x4 DUP1 CALLDATASIZE SUB DUP2 ADD SWAP1 PUSH2 0x58A SWAP2 SWAP1 PUSH2 0x366D JUMP JUMPDEST PUSH2 0x2B3A JUMP JUMPDEST STOP JUMPDEST PUSH1 0x2 SLOAD DUP2 JUMP JUMPDEST PUSH0 DUP2 PUSH1 0x5 DUP2 GT ISZERO PUSH2 0x5DD JUMPI PUSH1 0x40 MLOAD PUSH32 0x8C379A000000000000000000000000000000000000000000000000000000000 DUP2 MSTORE PUSH1 0x4 ADD PUSH2 0x5D4 SWAP1 PUSH2 0x3945 JUMP JUMPDEST PUSH1 0x40 MLOAD DUP1 SWAP2 SUB SWAP1 REVERT JUMPDEST PUSH0 PUSH1 0x3 PUSH0 PUSH1 0x2 SLOAD DUP2 MSTORE PUSH1 0x20 ADD SWAP1 DUP2 MSTORE PUSH1 0x20 ADD PUSH0 KECCAK256 PUSH1 0x40 MLOAD DUP1 PUSH1 0x60 ADD PUSH1 0x40 MSTORE SWAP1 DUP2 PUSH0 DUP3 ADD PUSH1 0x6 DUP1 PUSH1 0x20 MUL PUSH1 0x40 MLOAD SWAP1 DUP2 ADD PUSH1 0x40 MSTORE DUP1 SWAP3 SWAP2 SWAP1 DUP3 PUSH1 0x6 DUP1 ISZERO PUSH2 0x637 JUMPI PUSH1 0x20 MUL DUP3 ADD SWAP2 JUMPDEST DUP2 SLOAD DUP2 MSTORE PUSH1 0x20 ADD SWAP1 PUSH1 0x1 ADD SWAP1 DUP1 DUP4 GT PUSH2 0x623 JUMPI JUMPDEST POP POP POP POP POP DUP2 MSTORE PUSH1 0x20 ADD PUSH1 0x6 DUP3 ADD PUSH1 0x6 DUP1 PUSH1 0x20 MUL PUSH1 0x40 MLOAD SWAP1 DUP2 ADD PUSH1 0x40 MSTORE DUP1 SWAP3 SWAP2 SWAP1 DUP3 PUSH1 0x6 DUP1 ISZERO PUSH2 0x67C JUMPI PUSH1 0x20 MUL DUP3 ADD SWAP2 JUMPDEST DUP2 SLOAD DUP2 MSTORE PUSH1 0x20 ADD SWAP1 PUSH1 0x1 ADD SWAP1 DUP1 DUP4 GT PUSH2 0x668 JUMPI JUMPDEST POP POP POP POP POP DUP2 MSTORE PUSH1 0x20 ADD PUSH1 0xC DUP3 ADD PUSH1 0x6 DUP1 PUSH1 0x20 MUL PUSH1 0x40 MLOAD SWAP1 DUP2 ADD PUSH1 0x40 MSTORE DUP1 SWAP3 SWAP2 SWAP1 DUP3 PUSH1 0x6 DUP1 ISZERO PUSH2 0x6C1 JUMPI PUSH1 0x20 MUL DUP3 ADD SWAP2 JUMPDEST DUP2 SLOAD DUP2 MSTORE PUSH1 0x20 ADD SWAP1 PUSH1 0x1 ADD SWAP1 DUP1 DUP4 GT PUSH2 0x6AD JUMPI JUMPDEST POP POP POP POP POP DUP2 MSTORE POP POP SWAP1 POP DUP1 PUSH1 0x40 ADD MLOAD DUP5 PUSH1 0x6 DUP2 LT PUSH2 0x6E3 JUMPI PUSH2 0x6E2 PUSH2 0x3963 JUMP JUMPDEST JUMPDEST PUSH1 0x20 MUL ADD MLOAD DUP2 PUSH1 0x20 ADD MLOAD DUP6 PUSH1 0x6 DUP2 LT PUSH2 0x6FF JUMPI PUSH2 0x6FE PUSH2 0x3963 JUMP JUMPDEST JUMPDEST PUSH1 0x20 MUL ADD MLOAD PUSH2 0x70E SWAP2 SWAP1 PUSH2 0x39BD JUMP JUMPDEST SWAP3 POP POP POP SWAP2 SWAP1 POP JUMP JUMPDEST PUSH32 0x0 DUP2 JUMP JUMPDEST PUSH1 0x5 PUSH0 CALLER PUSH20 0xFFFFFFFFFFFFFFFFFFFFFFFFFFFFFFFFFFFFFFFF AND PUSH20 0xFFFFFFFFFFFFFFFFFFFFFFFFFFFFFFFFFFFFFFFF AND DUP2 MSTORE PUSH1 0x20 ADD SWAP1 DUP2 MSTORE PUSH1 0x20 ADD PUSH0 KECCAK256 PUSH0 SWAP1 SLOAD SWAP1 PUSH2 0x100 EXP SWAP1 DIV PUSH1 0xFF AND PUSH2 0x7C4 JUMPI PUSH1 0x40 MLOAD PUSH32 0x8C379A000000000000000000000000000000000000000000000000000000000 DUP2 MSTORE PUSH1 0x4 ADD PUSH2 0x7BB SWAP1 PUSH2 0x3A3A JUMP JUMPDEST PUSH1 0x40 MLOAD DUP1 SWAP2 SUB SWAP1 REVERT JUMPDEST PUSH0 DUP3 GT PUSH2 0x806 JUMPI PUSH1 0x40 MLOAD PUSH32 0x8C379A000000000000000000000000000000000000000000000000000000000 DUP2 MSTORE PUSH1 0x4 ADD PUSH2 0x7FD SWAP1 PUSH2 0x3AA2 JUMP JUMPDEST PUSH1 0x40 MLOAD DUP1 SWAP2 SUB SWAP1 REVERT JUMPDEST PUSH0 PUSH20 0xFFFFFFFFFFFFFFFFFFFFFFFFFFFFFFFFFFFFFFFF AND DUP2 PUSH20 0xFFFFFFFFFFFFFFFFFFFFFFFFFFFFFFFFFFFFFFFF AND SUB PUSH2 0x874 JUMPI PUSH1 0x40 MLOAD PUSH32 0x8C379A000000000000000000000000000000000000000000000000000000000 DUP2 MSTORE PUSH1 0x4 ADD PUSH2 0x86B SWAP1 PUSH2 0x3B0A JUMP JUMPDEST PUSH1 0x40 MLOAD DUP1 SWAP2 SUB SWAP1 REVERT JUMPDEST DUP2 PUSH32 0x0 PUSH20 0xFFFFFFFFFFFFFFFFFFFFFFFFFFFFFFFFFFFFFFFF AND PUSH4 0x70A08231 ADDRESS PUSH1 0x40 MLOAD DUP3 PUSH4 0xFFFFFFFF AND PUSH1 0xE0 SHL DUP2 MSTORE PUSH1 0x4 ADD PUSH2 0x8CE SWAP2 SWAP1 PUSH2 0x35DB JUMP JUMPDEST PUSH1 0x20 PUSH1 0x40 MLOAD DUP1 DUP4 SUB DUP2 DUP7 GAS STATICCALL ISZERO DUP1 ISZERO PUSH2 0x8E9 JUMPI RETURNDATASIZE PUSH0 PUSH0 RETURNDATACOPY RETURNDATASIZE PUSH0 REVERT JUMPDEST POP POP POP POP PUSH1 0x40 MLOAD RETURNDATASIZE PUSH1 0x1F NOT PUSH1 0x1F DUP3 ADD AND DUP3 ADD DUP1 PUSH1 0x40 MSTORE POP DUP2 ADD SWAP1 PUSH2 0x90D SWAP2 SWAP1 PUSH2 0x3B3C JUMP JUMPDEST LT ISZERO PUSH2 0x94E JUMPI PUSH1 0x40 MLOAD PUSH32 0x8C379A000000000000000000000000000000000000000000000000000000000 DUP2 MSTORE PUSH1 0x4 ADD PUSH2 0x945 SWAP1 PUSH2 0x3BB1 JUMP JUMPDEST PUSH1 0x40 MLOAD DUP1 SWAP2 SUB SWAP1 REVERT JUMPDEST PUSH0 PUSH1 0x8 PUSH0 DUP2 SLOAD DUP1 SWAP3 SWAP2 SWAP1 PUSH2 0x961 SWAP1 PUSH2 0x3BCF JUMP JUMPDEST SWAP2 SWAP1 POP SSTORE SWAP1 POP PUSH0 PUSH1 0x7 PUSH0 DUP4 DUP2 MSTORE PUSH1 0x20 ADD SWAP1 DUP2 MSTORE PUSH1 0x20 ADD PUSH0 KECCAK256 SWAP1 POP DUP4 DUP2 PUSH0 ADD DUP2 SWAP1 SSTORE POP DUP3 DUP2 PUSH1 0x1 ADD PUSH0 PUSH2 0x100 EXP DUP2 SLOAD DUP2 PUSH20 0xFFFFFFFFFFFFFFFFFFFFFFFFFFFFFFFFFFFFFFFF MUL NOT AND SWAP1 DUP4 PUSH20 0xFFFFFFFFFFFFFFFFFFFFFFFFFFFFFFFFFFFFFFFF AND MUL OR SWAP1 SSTORE POP TIMESTAMP DUP2 PUSH1 0x2 ADD DUP2 SWAP1 SSTORE POP PUSH0 DUP2 PUSH1 0x3 ADD DUP2 SWAP1 SSTORE POP PUSH0 DUP2 PUSH1 0x5 ADD PUSH0 PUSH2 0x100 EXP DUP2 SLOAD DUP2 PUSH1 0xFF MUL NOT AND SWAP1 DUP4 ISZERO ISZERO MUL OR SWAP1 SSTORE POP PUSH0 DUP2 PUSH1 0x5 ADD PUSH1 0x1 PUSH2 0x100 EXP DUP2 SLOAD DUP2 PUSH1 0xFF MUL NOT AND SWAP1 DUP4 ISZERO ISZERO MUL OR SWAP1 SSTORE POP CALLER PUSH20 0xFFFFFFFFFFFFFFFFFFFFFFFFFFFFFFFFFFFFFFFF AND DUP3 PUSH32 0xDDFF8E72A79F7F23C3DE5BED3C8189AABC3C85DBA0B2F1AF299D96EEF93861B1 DUP7 DUP7 PUSH1 0x40 MLOAD PUSH2 0xA57 SWAP3 SWAP2 SWAP1 PUSH2 0x3C16 JUMP JUMPDEST PUSH1 0x40 MLOAD DUP1 SWAP2 SUB SWAP1 LOG3 POP POP POP POP JUMP JUMPDEST PUSH1 0x6 SLOAD DUP2 JUMP JUMPDEST PUSH0 PUSH1 0x7 PUSH0 DUP4 DUP2 MSTORE PUSH1 0x20 ADD SWAP1 DUP2 MSTORE PUSH1 0x20 ADD PUSH0 KECCAK256 SWAP1 POP DUP1 PUSH1 0x5 ADD PUSH0 SWAP1 SLOAD SWAP1 PUSH2 0x100 EXP SWAP1 DIV PUSH1 0xFF AND ISZERO PUSH2 0xAD0 JUMPI PUSH1 0x40 MLOAD PUSH32 0x8C379A000000000000000000000000000000000000000000000000000000000 DUP2 MSTORE PUSH1 0x4 ADD PUSH2 0xAC7 SWAP1 PUSH2 0x3C87 JUMP JUMPDEST PUSH1 0x40 MLOAD DUP1 SWAP2 SUB SWAP1 REVERT JUMPDEST DUP1 PUSH1 0x5 ADD PUSH1 0x1 SWAP1 SLOAD SWAP1 PUSH2 0x100 EXP SWAP1 DIV PUSH1 0xFF AND ISZERO PUSH2 0xB22 JUMPI PUSH1 0x40 MLOAD PUSH32 0x8C379A000000000000000000000000000000000000000000000000000000000 DUP2 MSTORE PUSH1 0x4 ADD PUSH2 0xB19 SWAP1 PUSH2 0x3CEF JUMP JUMPDEST PUSH1 0x40 MLOAD DUP1 SWAP2 SUB SWAP1 REVERT JUMPDEST PUSH3 0x93A80 DUP2 PUSH1 0x2 ADD SLOAD PUSH2 0xB35 SWAP2 SWAP1 PUSH2 0x3D0D JUMP JUMPDEST TIMESTAMP LT ISZERO PUSH2 0xB77 JUMPI PUSH1 0x40 MLOAD PUSH32 0x8C379A000000000000000000000000000000000000000000000000000000000 DUP2 MSTORE PUSH1 0x4 ADD PUSH2 0xB6E SWAP1 PUSH2 0x3D8A JUMP JUMPDEST PUSH1 0x40 MLOAD DUP1 SWAP2 SUB SWAP1 REVERT JUMPDEST PUSH2 0xB80 DUP3 PUSH2 0x2BBE JUMP JUMPDEST POP POP JUMP JUMPDEST PUSH2 0xB8C PUSH2 0x2D2A JUMP JUMPDEST PUSH0 DUP5 MLOAD GT PUSH2 0xBCF JUMPI PUSH1 0x40 MLOAD PUSH32 0x8C379A000000000000000000000000000000000000000000000000000000000 DUP2 MSTORE PUSH1 0x4 ADD PUSH2 0xBC6 SWAP1 PUSH2 0x3DF2 JUMP JUMPDEST PUSH1 0x40 MLOAD DUP1 SWAP2 SUB SWAP1 REVERT JUMPDEST PUSH0 PUSH20 0xFFFFFFFFFFFFFFFFFFFFFFFFFFFFFFFFFFFFFFFF AND DUP4 PUSH20 0xFFFFFFFFFFFFFFFFFFFFFFFFFFFFFFFFFFFFFFFF AND SUB PUSH2 0xC3D JUMPI PUSH1 0x40 MLOAD PUSH32 0x8C379A000000000000000000000000000000000000000000000000000000000 DUP2 MSTORE PUSH1 0x4 ADD PUSH2 0xC34 SWAP1 PUSH2 0x3E5A JUMP JUMPDEST PUSH1 0x40 MLOAD DUP1 SWAP2 SUB SWAP1 REVERT JUMPDEST PUSH1 0x1E DUP2 GT ISZERO PUSH2 0xC81 JUMPI PUSH1 0x40 MLOAD PUSH32 0x8C379A000000000000000000000000000000000000000000000000000000000 DUP2 MSTORE PUSH1 0x4 ADD PUSH2 0xC78 SWAP1 PUSH2 0x3EC2 JUMP JUMPDEST PUSH1 0x40 MLOAD DUP1 SWAP2 SUB SWAP1 REVERT JUMPDEST PUSH0 PUSH20 0xFFFFFFFFFFFFFFFFFFFFFFFFFFFFFFFFFFFFFFFF AND PUSH1 0x4 DUP6 PUSH1 0x40 MLOAD PUSH2 0xCA8 SWAP2 SWAP1 PUSH2 0x3F32 JUMP JUMPDEST SWAP1 DUP2 MSTORE PUSH1 0x20 ADD PUSH1 0x40 MLOAD DUP1 SWAP2 SUB SWAP1 KECCAK256 PUSH0 ADD PUSH0 SWAP1 SLOAD SWAP1 PUSH2 0x100 EXP SWAP1 DIV PUSH20 0xFFFFFFFFFFFFFFFFFFFFFFFFFFFFFFFFFFFFFFFF AND PUSH20 0xFFFFFFFFFFFFFFFFFFFFFFFFFFFFFFFFFFFFFFFF AND EQ PUSH2 0xD2E JUMPI PUSH1 0x40 MLOAD PUSH32 0x8C379A000000000000000000000000000000000000000000000000000000000 DUP2 MSTORE PUSH1 0x4 ADD PUSH2 0xD25 SWAP1 PUSH2 0x3F92 JUMP JUMPDEST PUSH1 0x40 MLOAD DUP1 SWAP2 SUB SWAP1 REVERT JUMPDEST PUSH1 0x40 MLOAD DUP1 PUSH1 0xC0 ADD PUSH1 0x40 MSTORE DUP1 DUP5 PUSH20 0xFFFFFFFFFFFFFFFFFFFFFFFFFFFFFFFFFFFFFFFF AND DUP2 MSTORE PUSH1 0x20 ADD DUP4 PUSH20 0xFFFFFFFFFFFFFFFFFFFFFFFFFFFFFFFFFFFFFFFF AND DUP2 MSTORE PUSH1 0x20 ADD DUP3 DUP2 MSTORE PUSH1 0x20 ADD PUSH1 0x40 MLOAD DUP1 PUSH1 0xC0 ADD PUSH1 0x40 MSTORE DUP1 PUSH0 DUP2 MSTORE PUSH1 0x20 ADD PUSH0 DUP2 MSTORE PUSH1 0x20 ADD PUSH0 DUP2 MSTORE PUSH1 0x20 ADD PUSH0 DUP2 MSTORE PUSH1 0x20 ADD PUSH0 DUP2 MSTORE PUSH1 0x20 ADD PUSH0 DUP2 MSTORE POP DUP2 MSTORE PUSH1 0x20 ADD PUSH0 DUP2 MSTORE PUSH1 0x20 ADD PUSH0 DUP2 MSTORE POP PUSH1 0x4 DUP6 PUSH1 0x40 MLOAD PUSH2 0xDC3 SWAP2 SWAP1 PUSH2 0x3F32 JUMP JUMPDEST SWAP1 DUP2 MSTORE PUSH1 0x20 ADD PUSH1 0x40 MLOAD DUP1 SWAP2 SUB SWAP1 KECCAK256 PUSH0 DUP3 ADD MLOAD DUP2 PUSH0 ADD PUSH0 PUSH2 0x100 EXP DUP2 SLOAD DUP2 PUSH20 0xFFFFFFFFFFFFFFFFFFFFFFFFFFFFFFFFFFFFFFFF MUL NOT AND SWAP1 DUP4 PUSH20 0xFFFFFFFFFFFFFFFFFFFFFFFFFFFFFFFFFFFFFFFF AND MUL OR SWAP1 SSTORE POP PUSH1 0x20 DUP3 ADD MLOAD DUP2 PUSH1 0x1 ADD PUSH0 PUSH2 0x100 EXP DUP2 SLOAD DUP2 PUSH20 0xFFFFFFFFFFFFFFFFFFFFFFFFFFFFFFFFFFFFFFFF MUL NOT AND SWAP1 DUP4 PUSH20 0xFFFFFFFFFFFFFFFFFFFFFFFFFFFFFFFFFFFFFFFF AND MUL OR SWAP1 SSTORE POP PUSH1 0x40 DUP3 ADD MLOAD DUP2 PUSH1 0x2 ADD SSTORE PUSH1 0x60 DUP3 ADD MLOAD DUP2 PUSH1 0x3 ADD SWAP1 PUSH1 0x6 PUSH2 0xE7C SWAP3 SWAP2 SWAP1 PUSH2 0x2EC8 JUMP JUMPDEST POP PUSH1 0x80 DUP3 ADD MLOAD DUP2 PUSH1 0x9 ADD SSTORE PUSH1 0xA0 DUP3 ADD MLOAD DUP2 PUSH1 0xA ADD SSTORE SWAP1 POP POP POP POP POP POP JUMP JUMPDEST PUSH32 0x0 DUP2 JUMP JUMPDEST PUSH0 DUP2 PUSH1 0x5 DUP2 GT ISZERO PUSH2 0xF04 JUMPI PUSH1 0x40 MLOAD PUSH32 0x8C379A000000000000000000000000000000000000000000000000000000000 DUP2 MSTORE PUSH1 0x4 ADD PUSH2 0xEFB SWAP1 PUSH2 0x3945 JUMP JUMPDEST PUSH1 0x40 MLOAD DUP1 SWAP2 SUB SWAP1 REVERT JUMPDEST PUSH0 PUSH1 0x3 PUSH0 PUSH1 0x2 SLOAD DUP2 MSTORE PUSH1 0x20 ADD SWAP1 DUP2 MSTORE PUSH1 0x20 ADD PUSH0 KECCAK256 PUSH1 0x40 MLOAD DUP1 PUSH1 0x60 ADD PUSH1 0x40 MSTORE SWAP1 DUP2 PUSH0 DUP3 ADD PUSH1 0x6 DUP1 PUSH1 0x20 MUL PUSH1 0x40 MLOAD SWAP1 DUP2 ADD PUSH1 0x40 MSTORE DUP1 SWAP3 SWAP2 SWAP1 DUP3 PUSH1 0x6 DUP1 ISZERO PUSH2 0xF5E JUMPI PUSH1 0x20 MUL DUP3 ADD SWAP2 JUMPDEST DUP2 SLOAD DUP2 MSTORE PUSH1 0x20 ADD SWAP1 PUSH1 0x1 ADD SWAP1 DUP1 DUP4 GT PUSH2 0xF4A JUMPI JUMPDEST POP POP POP POP POP DUP2 MSTORE PUSH1 0x20 ADD PUSH1 0x6 DUP3 ADD PUSH1 0x6 DUP1 PUSH1 0x20 MUL PUSH1 0x40 MLOAD SWAP1 DUP2 ADD PUSH1 0x40 MSTORE DUP1 SWAP3 SWAP2 SWAP1 DUP3 PUSH1 0x6 DUP1 ISZERO PUSH2 0xFA3 JUMPI PUSH1 0x20 MUL DUP3 ADD SWAP2 JUMPDEST DUP2 SLOAD DUP2 MSTORE PUSH1 0x20 ADD SWAP1 PUSH1 0x1 ADD SWAP1 DUP1 DUP4 GT PUSH2 0xF8F JUMPI JUMPDEST POP POP POP POP POP DUP2 MSTORE PUSH1 0x20 ADD PUSH1 0xC DUP3 ADD PUSH1 0x6 DUP1 PUSH1 0x20 MUL PUSH1 0x40 MLOAD SWAP1 DUP2 ADD PUSH1 0x40 MSTORE DUP1 SWAP3 SWAP2 SWAP1 DUP3 PUSH1 0x6 DUP1 ISZERO PUSH2 0xFE8 JUMPI PUSH1 0x20 MUL DUP3 ADD SWAP2 JUMPDEST DUP2 SLOAD DUP2 MSTORE PUSH1 0x20 ADD SWAP1 PUSH1 0x1 ADD SWAP1 DUP1 DUP4 GT PUSH2 0xFD4 JUMPI JUMPDEST POP POP POP POP POP DUP2 MSTORE POP POP SWAP1 POP DUP1 PUSH1 0x20 ADD MLOAD DUP5 PUSH1 0x6 DUP2 LT PUSH2 0x100A JUMPI PUSH2 0x1009 PUSH2 0x3963 JUMP JUMPDEST JUMPDEST PUSH1 0x20 MUL ADD MLOAD SWAP3 POP POP POP SWAP2 SWAP1 POP JUMP JUMPDEST PUSH2 0x1020 PUSH2 0x2F08 JUMP JUMPDEST PUSH0 DUP3 MLOAD GT PUSH2 0x1063 JUMPI PUSH1 0x40 MLOAD PUSH32 0x8C379A000000000000000000000000000000000000000000000000000000000 DUP2 MSTORE PUSH1 0x4 ADD PUSH2 0x105A SWAP1 PUSH2 0x3FFA JUMP JUMPDEST PUSH1 0x40 MLOAD DUP1 SWAP2 SUB SWAP1 REVERT JUMPDEST PUSH0 PUSH1 0x4 DUP4 PUSH1 0x40 MLOAD PUSH2 0x1074 SWAP2 SWAP1 PUSH2 0x3F32 JUMP JUMPDEST SWAP1 DUP2 MSTORE PUSH1 0x20 ADD PUSH1 0x40 MLOAD DUP1 SWAP2 SUB SWAP1 KECCAK256 PUSH1 0x40 MLOAD DUP1 PUSH1 0xC0 ADD PUSH1 0x40 MSTORE SWAP1 DUP2 PUSH0 DUP3 ADD PUSH0 SWAP1 SLOAD SWAP1 PUSH2 0x100 EXP SWAP1 DIV PUSH20 0xFFFFFFFFFFFFFFFFFFFFFFFFFFFFFFFFFFFFFFFF AND PUSH20 0xFFFFFFFFFFFFFFFFFFFFFFFFFFFFFFFFFFFFFFFF AND PUSH20 0xFFFFFFFFFFFFFFFFFFFFFFFFFFFFFFFFFFFFFFFF AND DUP2 MSTORE PUSH1 0x20 ADD PUSH1 0x1 DUP3 ADD PUSH0 SWAP1 SLOAD SWAP1 PUSH2 0x100 EXP SWAP1 DIV PUSH20 0xFFFFFFFFFFFFFFFFFFFFFFFFFFFFFFFFFFFFFFFF AND PUSH20 0xFFFFFFFFFFFFFFFFFFFFFFFFFFFFFFFFFFFFFFFF AND PUSH20 0xFFFFFFFFFFFFFFFFFFFFFFFFFFFFFFFFFFFFFFFF AND DUP2 MSTORE PUSH1 0x20 ADD PUSH1 0x2 DUP3 ADD SLOAD DUP2 MSTORE PUSH1 0x20 ADD PUSH1 0x3 DUP3 ADD PUSH1 0x6 DUP1 PUSH1 0x20 MUL PUSH1 0x40 MLOAD SWAP1 DUP2 ADD PUSH1 0x40 MSTORE DUP1 SWAP3 SWAP2 SWAP1 DUP3 PUSH1 0x6 DUP1 ISZERO PUSH2 0x117C JUMPI PUSH1 0x20 MUL DUP3 ADD SWAP2 JUMPDEST DUP2 SLOAD DUP2 MSTORE PUSH1 0x20 ADD SWAP1 PUSH1 0x1 ADD SWAP1 DUP1 DUP4 GT PUSH2 0x1168 JUMPI JUMPDEST POP POP POP POP POP DUP2 MSTORE PUSH1 0x20 ADD PUSH1 0x9 DUP3 ADD SLOAD DUP2 MSTORE PUSH1 0x20 ADD PUSH1 0xA DUP3 ADD SLOAD DUP2 MSTORE POP POP SWAP1 POP PUSH0 PUSH20 0xFFFFFFFFFFFFFFFFFFFFFFFFFFFFFFFFFFFFFFFF AND DUP2 PUSH0 ADD MLOAD PUSH20 0xFFFFFFFFFFFFFFFFFFFFFFFFFFFFFFFFFFFFFFFF AND SUB PUSH2 0x120C JUMPI PUSH1 0x40 MLOAD PUSH32 0x8C379A000000000000000000000000000000000000000000000000000000000 DUP2 MSTORE PUSH1 0x4 ADD PUSH2 0x1203 SWAP1 PUSH2 0x4062 JUMP JUMPDEST PUSH1 0x40 MLOAD DUP1 SWAP2 SUB SWAP1 REVERT JUMPDEST DUP1 SWAP2 POP POP SWAP2 SWAP1 POP JUMP JUMPDEST PUSH0 PUSH32 0x0 PUSH20 0xFFFFFFFFFFFFFFFFFFFFFFFFFFFFFFFFFFFFFFFF AND PUSH4 0x70A08231 ADDRESS PUSH1 0x40 MLOAD DUP3 PUSH4 0xFFFFFFFF AND PUSH1 0xE0 SHL DUP2 MSTORE PUSH1 0x4 ADD PUSH2 0x126F SWAP2 SWAP1 PUSH2 0x35DB JUMP JUMPDEST PUSH1 0x20 PUSH1 0x40 MLOAD DUP1 DUP4 SUB DUP2 DUP7 GAS STATICCALL ISZERO DUP1 ISZERO PUSH2 0x128A JUMPI RETURNDATASIZE PUSH0 PUSH0 RETURNDATACOPY RETURNDATASIZE PUSH0 REVERT JUMPDEST POP POP POP POP PUSH1 0x40 MLOAD RETURNDATASIZE PUSH1 0x1F NOT PUSH1 0x1F DUP3 ADD AND DUP3 ADD DUP1 PUSH1 0x40 MSTORE POP DUP2 ADD SWAP1 PUSH2 0x12AE SWAP2 SWAP1 PUSH2 0x3B3C JUMP JUMPDEST SWAP1 POP SWAP1 JUMP JUMPDEST PUSH2 0x12BB PUSH2 0x2D2A JUMP JUMPDEST PUSH2 0x12C4 PUSH0 PUSH2 0x2DB1 JUMP JUMPDEST JUMP JUMPDEST PUSH0 PUSH0 PUSH0 PUSH0 PUSH0 DUP8 PUSH1 0x5 DUP2 GT ISZERO PUSH2 0x1310 JUMPI PUSH1 0x40 MLOAD PUSH32 0x8C379A000000000000000000000000000000000000000000000000000000000 DUP2 MSTORE PUSH1 0x4 ADD PUSH2 0x1307 SWAP1 PUSH2 0x3945 JUMP JUMPDEST PUSH1 0x40 MLOAD DUP1 SWAP2 SUB SWAP1 REVERT JUMPDEST PUSH0 DUP9 GT PUSH2 0x1352 JUMPI PUSH1 0x40 MLOAD PUSH32 0x8C379A000000000000000000000000000000000000000000000000000000000 DUP2 MSTORE PUSH1 0x4 ADD PUSH2 0x1349 SWAP1 PUSH2 0x3AA2 JUMP JUMPDEST PUSH1 0x40 MLOAD DUP1 SWAP2 SUB SWAP1 REVERT JUMPDEST PUSH0 PUSH2 0x135C DUP11 PUSH2 0x597 JUMP JUMPDEST GT PUSH2 0x139C JUMPI PUSH1 0x40 MLOAD PUSH32 0x8C379A000000000000000000000000000000000000000000000000000000000 DUP2 MSTORE PUSH1 0x4 ADD PUSH2 0x1393 SWAP1 PUSH2 0x40CA JUMP JUMPDEST PUSH1 0x40 MLOAD DUP1 SWAP2 SUB SWAP1 REVERT JUMPDEST DUP8 PUSH2 0x13A6 DUP11 PUSH2 0x597 JUMP JUMPDEST LT ISZERO PUSH2 0x13E7 JUMPI PUSH1 0x40 MLOAD PUSH32 0x8C379A000000000000000000000000000000000000000000000000000000000 DUP2 MSTORE PUSH1 0x4 ADD PUSH2 0x13DE SWAP1 PUSH2 0x4132 JUMP JUMPDEST PUSH1 0x40 MLOAD DUP1 SWAP2 SUB SWAP1 REVERT JUMPDEST DUP8 PUSH2 0x13F1 DUP11 PUSH2 0x238D JUMP JUMPDEST PUSH2 0x13FB SWAP2 SWAP1 PUSH2 0x4150 JUMP JUMPDEST SWAP6 POP PUSH0 SWAP5 POP PUSH0 SWAP4 POP PUSH0 SWAP3 POP PUSH0 DUP8 MLOAD GT ISZERO PUSH2 0x162A JUMPI PUSH0 PUSH1 0x4 DUP9 PUSH1 0x40 MLOAD PUSH2 0x1420 SWAP2 SWAP1 PUSH2 0x3F32 JUMP JUMPDEST SWAP1 DUP2 MSTORE PUSH1 0x20 ADD PUSH1 0x40 MLOAD DUP1 SWAP2 SUB SWAP1 KECCAK256 SWAP1 POP PUSH0 PUSH20 0xFFFFFFFFFFFFFFFFFFFFFFFFFFFFFFFFFFFFFFFF AND DUP2 PUSH0 ADD PUSH0 SWAP1 SLOAD SWAP1 PUSH2 0x100 EXP SWAP1 DIV PUSH20 0xFFFFFFFFFFFFFFFFFFFFFFFFFFFFFFFFFFFFFFFF AND PUSH20 0xFFFFFFFFFFFFFFFFFFFFFFFFFFFFFFFFFFFFFFFF AND SUB PUSH2 0x14C0 JUMPI PUSH1 0x40 MLOAD PUSH32 0x8C379A000000000000000000000000000000000000000000000000000000000 DUP2 MSTORE PUSH1 0x4 ADD PUSH2 0x14B7 SWAP1 PUSH2 0x4062 JUMP JUMPDEST PUSH1 0x40 MLOAD DUP1 SWAP2 SUB SWAP1 REVERT JUMPDEST PUSH1 0x19 DUP2 PUSH1 0x2 ADD SLOAD GT ISZERO DUP1 PUSH2 0x1521 JUMPI POP CALLER PUSH20 0xFFFFFFFFFFFFFFFFFFFFFFFFFFFFFFFFFFFFFFFF AND DUP2 PUSH0 ADD PUSH0 SWAP1 SLOAD SWAP1 PUSH2 0x100 EXP SWAP1 DIV PUSH20 0xFFFFFFFFFFFFFFFFFFFFFFFFFFFFFFFFFFFFFFFF AND PUSH20 0xFFFFFFFFFFFFFFFFFFFFFFFFFFFFFFFFFFFFFFFF AND EQ JUMPDEST PUSH2 0x1560 JUMPI PUSH1 0x40 MLOAD PUSH32 0x8C379A000000000000000000000000000000000000000000000000000000000 DUP2 MSTORE PUSH1 0x4 ADD PUSH2 0x1557 SWAP1 PUSH2 0x41DB JUMP JUMPDEST PUSH1 0x40 MLOAD DUP1 SWAP2 SUB SWAP1 REVERT JUMPDEST PUSH1 0x19 DUP2 PUSH1 0x2 ADD SLOAD LT ISZERO PUSH2 0x160A JUMPI PUSH1 0x64 DUP2 PUSH1 0x2 ADD SLOAD PUSH1 0x19 PUSH2 0x1580 SWAP2 SWAP1 PUSH2 0x39BD JUMP JUMPDEST DUP9 PUSH2 0x158B SWAP2 SWAP1 PUSH2 0x4150 JUMP JUMPDEST PUSH2 0x1595 SWAP2 SWAP1 PUSH2 0x4226 JUMP JUMPDEST SWAP5 POP PUSH0 PUSH20 0xFFFFFFFFFFFFFFFFFFFFFFFFFFFFFFFFFFFFFFFF AND DUP2 PUSH1 0x1 ADD PUSH0 SWAP1 SLOAD SWAP1 PUSH2 0x100 EXP SWAP1 DIV PUSH20 0xFFFFFFFFFFFFFFFFFFFFFFFFFFFFFFFFFFFFFFFF AND PUSH20 0xFFFFFFFFFFFFFFFFFFFFFFFFFFFFFFFFFFFFFFFF AND EQ PUSH2 0x1609 JUMPI PUSH1 0x64 PUSH1 0x5 DUP9 PUSH2 0x15FC SWAP2 SWAP1 PUSH2 0x4150 JUMP JUMPDEST PUSH2 0x1606 SWAP2 SWAP1 PUSH2 0x4226 JUMP JUMPDEST SWAP4 POP JUMPDEST JUMPDEST PUSH1 0x64 DUP2 PUSH1 0x2 ADD SLOAD DUP9 PUSH2 0x161C SWAP2 SWAP1 PUSH2 0x4150 JUMP JUMPDEST PUSH2 0x1626 SWAP2 SWAP1 PUSH2 0x4226 JUMP JUMPDEST SWAP6 POP POP JUMPDEST DUP5 DUP7 PUSH2 0x1636 SWAP2 SWAP1 PUSH2 0x39BD JUMP JUMPDEST SWAP6 POP DUP3 DUP5 DUP8 PUSH2 0x1645 SWAP2 SWAP1 PUSH2 0x39BD JUMP JUMPDEST PUSH2 0x164F SWAP2 SWAP1 PUSH2 0x39BD JUMP JUMPDEST SWAP2 POP POP SWAP4 SWAP8 SWAP3 SWAP7 POP SWAP4 POP SWAP4 POP JUMP JUMPDEST PUSH2 0x1665 PUSH2 0x2D2A JUMP JUMPDEST DUP2 PUSH1 0x5 DUP2 GT ISZERO PUSH2 0x16AA JUMPI PUSH1 0x40 MLOAD PUSH32 0x8C379A000000000000000000000000000000000000000000000000000000000 DUP2 MSTORE PUSH1 0x4 ADD PUSH2 0x16A1 SWAP1 PUSH2 0x3945 JUMP JUMPDEST PUSH1 0x40 MLOAD DUP1 SWAP2 SUB SWAP1 REVERT JUMPDEST PUSH0 PUSH1 0x2 SLOAD GT PUSH2 0x16EE JUMPI PUSH1 0x40 MLOAD PUSH32 0x8C379A000000000000000000000000000000000000000000000000000000000 DUP2 MSTORE PUSH1 0x4 ADD PUSH2 0x16E5 SWAP1 PUSH2 0x42A0 JUMP JUMPDEST PUSH1 0x40 MLOAD DUP1 SWAP2 SUB SWAP1 REVERT JUMPDEST PUSH0 PUSH1 0x3 PUSH0 PUSH1 0x2 SLOAD DUP2 MSTORE PUSH1 0x20 ADD SWAP1 DUP2 MSTORE PUSH1 0x20 ADD PUSH0 KECCAK256 SWAP1 POP DUP1 PUSH1 0xC ADD DUP5 PUSH1 0x6 DUP2 LT PUSH2 0x171A JUMPI PUSH2 0x1719 PUSH2 0x3963 JUMP JUMPDEST JUMPDEST ADD SLOAD DUP4 LT ISZERO PUSH2 0x175E JUMPI PUSH1 0x40 MLOAD PUSH32 0x8C379A000000000000000000000000000000000000000000000000000000000 DUP2 MSTORE PUSH1 0x4 ADD PUSH2 0x1755 SWAP1 PUSH2 0x432E JUMP JUMPDEST PUSH1 0x40 MLOAD DUP1 SWAP2 SUB SWAP1 REVERT JUMPDEST PUSH2 0x1767 DUP5 PUSH2 0x1828 JUMP JUMPDEST DUP2 PUSH1 0xC ADD DUP6 PUSH1 0x6 DUP2 LT PUSH2 0x177D JUMPI PUSH2 0x177C PUSH2 0x3963 JUMP JUMPDEST JUMPDEST ADD SLOAD DUP5 PUSH2 0x178A SWAP2 SWAP1 PUSH2 0x39BD JUMP JUMPDEST GT ISZERO PUSH2 0x17CB JUMPI PUSH1 0x40 MLOAD PUSH32 0x8C379A000000000000000000000000000000000000000000000000000000000 DUP2 MSTORE PUSH1 0x4 ADD PUSH2 0x17C2 SWAP1 PUSH2 0x43BC JUMP JUMPDEST PUSH1 0x40 MLOAD DUP1 SWAP2 SUB SWAP1 REVERT JUMPDEST DUP3 DUP2 PUSH1 0x6 ADD DUP6 PUSH1 0x6 DUP2 LT PUSH2 0x17E2 JUMPI PUSH2 0x17E1 PUSH2 0x3963 JUMP JUMPDEST JUMPDEST ADD DUP2 SWAP1 SSTORE POP DUP4 PUSH1 0x2 SLOAD PUSH32 0x8E070AE3A2DE4465C368F672C2324B17B4EC062510FE99BE064DF3727AFF1379 DUP6 PUSH1 0x40 MLOAD PUSH2 0x181A SWAP2 SWAP1 PUSH2 0x2FC0 JUMP JUMPDEST PUSH1 0x40 MLOAD DUP1 SWAP2 SUB SWAP1 LOG3 POP POP POP POP JUMP JUMPDEST PUSH0 DUP2 PUSH1 0x5 DUP2 GT ISZERO PUSH2 0x186E JUMPI PUSH1 0x40 MLOAD PUSH32 0x8C379A000000000000000000000000000000000000000000000000000000000 DUP2 MSTORE PUSH1 0x4 ADD PUSH2 0x1865 SWAP1 PUSH2 0x3945 JUMP JUMPDEST PUSH1 0x40 MLOAD DUP1 SWAP2 SUB SWAP1 REVERT JUMPDEST PUSH0 PUSH0 PUSH32 0x0 PUSH20 0xFFFFFFFFFFFFFFFFFFFFFFFFFFFFFFFFFFFFFFFF AND PUSH4 0x39AF9EB DUP7 PUSH1 0x40 MLOAD DUP3 PUSH4 0xFFFFFFFF AND PUSH1 0xE0 SHL DUP2 MSTORE PUSH1 0x4 ADD PUSH2 0x18C9 SWAP2 SWAP1 PUSH2 0x2FC0 JUMP JUMPDEST PUSH0 PUSH1 0x40 MLOAD DUP1 DUP4 SUB DUP2 DUP7 GAS STATICCALL ISZERO DUP1 ISZERO PUSH2 0x18E3 JUMPI RETURNDATASIZE PUSH0 PUSH0 RETURNDATACOPY RETURNDATASIZE PUSH0 REVERT JUMPDEST POP POP POP POP PUSH1 0x40 MLOAD RETURNDATASIZE PUSH0 DUP3 RETURNDATACOPY RETURNDATASIZE PUSH1 0x1F NOT PUSH1 0x1F DUP3 ADD AND DUP3 ADD DUP1 PUSH1 0x40 MSTORE POP DUP2 ADD SWAP1 PUSH2 0x190B SWAP2 SWAP1 PUSH2 0x4448 JUMP JUMPDEST POP SWAP4 POP SWAP4 POP POP POP DUP1 DUP3 PUSH2 0x191E SWAP2 SWAP1 PUSH2 0x39BD JUMP JUMPDEST SWAP4 POP POP POP POP SWAP2 SWAP1 POP JUMP JUMPDEST PUSH0 PUSH0 PUSH0 SWAP1 SLOAD SWAP1 PUSH2 0x100 EXP SWAP1 DIV PUSH20 0xFFFFFFFFFFFFFFFFFFFFFFFFFFFFFFFFFFFFFFFF AND SWAP1 POP SWAP1 JUMP JUMPDEST PUSH1 0x7 PUSH1 0x20 MSTORE DUP1 PUSH0 MSTORE PUSH1 0x40 PUSH0 KECCAK256 PUSH0 SWAP2 POP SWAP1 POP DUP1 PUSH0 ADD SLOAD SWAP1 DUP1 PUSH1 0x1 ADD PUSH0 SWAP1 SLOAD SWAP1 PUSH2 0x100 EXP SWAP1 DIV PUSH20 0xFFFFFFFFFFFFFFFFFFFFFFFFFFFFFFFFFFFFFFFF AND SWAP1 DUP1 PUSH1 0x2 ADD SLOAD SWAP1 DUP1 PUSH1 0x3 ADD SLOAD SWAP1 DUP1 PUSH1 0x5 ADD PUSH0 SWAP1 SLOAD SWAP1 PUSH2 0x100 EXP SWAP1 DIV PUSH1 0xFF AND SWAP1 DUP1 PUSH1 0x5 ADD PUSH1 0x1 SWAP1 SLOAD SWAP1 PUSH2 0x100 EXP SWAP1 DIV PUSH1 0xFF AND SWAP1 POP DUP7 JUMP JUMPDEST PUSH1 0x5 PUSH0 CALLER PUSH20 0xFFFFFFFFFFFFFFFFFFFFFFFFFFFFFFFFFFFFFFFF AND PUSH20 0xFFFFFFFFFFFFFFFFFFFFFFFFFFFFFFFFFFFFFFFF AND DUP2 MSTORE PUSH1 0x20 ADD SWAP1 DUP2 MSTORE PUSH1 0x20 ADD PUSH0 KECCAK256 PUSH0 SWAP1 SLOAD SWAP1 PUSH2 0x100 EXP SWAP1 DIV PUSH1 0xFF AND PUSH2 0x1A48 JUMPI PUSH1 0x40 MLOAD PUSH32 0x8C379A000000000000000000000000000000000000000000000000000000000 DUP2 MSTORE PUSH1 0x4 ADD PUSH2 0x1A3F SWAP1 PUSH2 0x3A3A JUMP JUMPDEST PUSH1 0x40 MLOAD DUP1 SWAP2 SUB SWAP1 REVERT JUMPDEST PUSH0 PUSH1 0x7 PUSH0 DUP4 DUP2 MSTORE PUSH1 0x20 ADD SWAP1 DUP2 MSTORE PUSH1 0x20 ADD PUSH0 KECCAK256 SWAP1 POP DUP1 PUSH1 0x5 ADD PUSH0 SWAP1 SLOAD SWAP1 PUSH2 0x100 EXP SWAP1 DIV PUSH1 0xFF AND ISZERO PUSH2 0x1AAD JUMPI PUSH1 0x40 MLOAD PUSH32 0x8C379A000000000000000000000000000000000000000000000000000000000 DUP2 MSTORE PUSH1 0x4 ADD PUSH2 0x1AA4 SWAP1 PUSH2 0x3C87 JUMP JUMPDEST PUSH1 0x40 MLOAD DUP1 SWAP2 SUB SWAP1 REVERT JUMPDEST DUP1 PUSH1 0x5 ADD PUSH1 0x1 SWAP1 SLOAD SWAP1 PUSH2 0x100 EXP SWAP1 DIV PUSH1 0xFF AND ISZERO PUSH2 0x1AFF JUMPI PUSH1 0x40 MLOAD PUSH32 0x8C379A000000000000000000000000000000000000000000000000000000000 DUP2 MSTORE PUSH1 0x4 ADD PUSH2 0x1AF6 SWAP1 PUSH2 0x3CEF JUMP JUMPDEST PUSH1 0x40 MLOAD DUP1 SWAP2 SUB SWAP1 REVERT JUMPDEST DUP1 PUSH1 0x4 ADD PUSH0 CALLER PUSH20 0xFFFFFFFFFFFFFFFFFFFFFFFFFFFFFFFFFFFFFFFF AND PUSH20 0xFFFFFFFFFFFFFFFFFFFFFFFFFFFFFFFFFFFFFFFF AND DUP2 MSTORE PUSH1 0x20 ADD SWAP1 DUP2 MSTORE PUSH1 0x20 ADD PUSH0 KECCAK256 PUSH0 SWAP1 SLOAD SWAP1 PUSH2 0x100 EXP SWAP1 DIV PUSH1 0xFF AND ISZERO PUSH2 0x1B8B JUMPI PUSH1 0x40 MLOAD PUSH32 0x8C379A000000000000000000000000000000000000000000000000000000000 DUP2 MSTORE PUSH1 0x4 ADD PUSH2 0x1B82 SWAP1 PUSH2 0x4541 JUMP JUMPDEST PUSH1 0x40 MLOAD DUP1 SWAP2 SUB SWAP1 REVERT JUMPDEST PUSH1 0x1 DUP2 PUSH1 0x4 ADD PUSH0 CALLER PUSH20 0xFFFFFFFFFFFFFFFFFFFFFFFFFFFFFFFFFFFFFFFF AND PUSH20 0xFFFFFFFFFFFFFFFFFFFFFFFFFFFFFFFFFFFFFFFF AND DUP2 MSTORE PUSH1 0x20 ADD SWAP1 DUP2 MSTORE PUSH1 0x20 ADD PUSH0 KECCAK256 PUSH0 PUSH2 0x100 EXP DUP2 SLOAD DUP2 PUSH1 0xFF MUL NOT AND SWAP1 DUP4 ISZERO ISZERO MUL OR SWAP1 SSTORE POP DUP1 PUSH1 0x3 ADD PUSH0 DUP2 SLOAD DUP1 SWAP3 SWAP2 SWAP1 PUSH2 0x1BF6 SWAP1 PUSH2 0x3BCF JUMP JUMPDEST SWAP2 SWAP1 POP SSTORE POP CALLER PUSH20 0xFFFFFFFFFFFFFFFFFFFFFFFFFFFFFFFFFFFFFFFF AND DUP3 PUSH32 0x7AB1DF95613019BA98DA0113A7ADF5073C9FA62D93B5F202502115266AADC06A PUSH1 0x40 MLOAD PUSH1 0x40 MLOAD DUP1 SWAP2 SUB SWAP1 LOG3 PUSH1 0x6 SLOAD DUP2 PUSH1 0x3 ADD SLOAD SUB PUSH2 0x1C56 JUMPI PUSH2 0x1C55 DUP3 PUSH2 0x2BBE JUMP JUMPDEST JUMPDEST POP POP JUMP JUMPDEST PUSH3 0x93A80 DUP2 JUMP JUMPDEST PUSH1 0x5 PUSH1 0x20 MSTORE DUP1 PUSH0 MSTORE PUSH1 0x40 PUSH0 KECCAK256 PUSH0 SWAP2 POP SLOAD SWAP1 PUSH2 0x100 EXP SWAP1 DIV PUSH1 0xFF AND DUP2 JUMP JUMPDEST PUSH0 DUP2 PUSH1 0x5 DUP2 GT ISZERO PUSH2 0x1CC4 JUMPI PUSH1 0x40 MLOAD PUSH32 0x8C379A000000000000000000000000000000000000000000000000000000000 DUP2 MSTORE PUSH1 0x4 ADD PUSH2 0x1CBB SWAP1 PUSH2 0x3945 JUMP JUMPDEST PUSH1 0x40 MLOAD DUP1 SWAP2 SUB SWAP1 REVERT JUMPDEST PUSH0 PUSH1 0x3 PUSH0 PUSH1 0x2 SLOAD DUP2 MSTORE PUSH1 0x20 ADD SWAP1 DUP2 MSTORE PUSH1 0x20 ADD PUSH0 KECCAK256 PUSH1 0x40 MLOAD DUP1 PUSH1 0x60 ADD PUSH1 0x40 MSTORE SWAP1 DUP2 PUSH0 DUP3 ADD PUSH1 0x6 DUP1 PUSH1 0x20 MUL PUSH1 0x40 MLOAD SWAP1 DUP2 ADD PUSH1 0x40 MSTORE DUP1 SWAP3 SWAP2 SWAP1 DUP3 PUSH1 0x6 DUP1 ISZERO PUSH2 0x1D1E JUMPI PUSH1 0x20 MUL DUP3 ADD SWAP2 JUMPDEST DUP2 SLOAD DUP2 MSTORE PUSH1 0x20 ADD SWAP1 PUSH1 0x1 ADD SWAP1 DUP1 DUP4 GT PUSH2 0x1D0A JUMPI JUMPDEST POP POP POP POP POP DUP2 MSTORE PUSH1 0x20 ADD PUSH1 0x6 DUP3 ADD PUSH1 0x6 DUP1 PUSH1 0x20 MUL PUSH1 0x40 MLOAD SWAP1 DUP2 ADD PUSH1 0x40 MSTORE DUP1 SWAP3 SWAP2 SWAP1 DUP3 PUSH1 0x6 DUP1 ISZERO PUSH2 0x1D63 JUMPI PUSH1 0x20 MUL DUP3 ADD SWAP2 JUMPDEST DUP2 SLOAD DUP2 MSTORE PUSH1 0x20 ADD SWAP1 PUSH1 0x1 ADD SWAP1 DUP1 DUP4 GT PUSH2 0x1D4F JUMPI JUMPDEST POP POP POP POP POP DUP2 MSTORE PUSH1 0x20 ADD PUSH1 0xC DUP3 ADD PUSH1 0x6 DUP1 PUSH1 0x20 MUL PUSH1 0x40 MLOAD SWAP1 DUP2 ADD PUSH1 0x40 MSTORE DUP1 SWAP3 SWAP2 SWAP1 DUP3 PUSH1 0x6 DUP1 ISZERO PUSH2 0x1DA8 JUMPI PUSH1 0x20 MUL DUP3 ADD SWAP2 JUMPDEST DUP2 SLOAD DUP2 MSTORE PUSH1 0x20 ADD SWAP1 PUSH1 0x1 ADD SWAP1 DUP1 DUP4 GT PUSH2 0x1D94 JUMPI JUMPDEST POP POP POP POP POP DUP2 MSTORE POP POP SWAP1 POP DUP1 PUSH1 0x40 ADD MLOAD DUP5 PUSH1 0x6 DUP2 LT PUSH2 0x1DCA JUMPI PUSH2 0x1DC9 PUSH2 0x3963 JUMP JUMPDEST JUMPDEST PUSH1 0x20 MUL ADD MLOAD SWAP3 POP POP POP SWAP2 SWAP1 POP JUMP JUMPDEST DUP3 PUSH1 0x5 DUP2 GT ISZERO PUSH2 0x1E1D JUMPI PUSH1 0x40 MLOAD PUSH32 0x8C379A000000000000000000000000000000000000000000000000000000000 DUP2 MSTORE PUSH1 0x4 ADD PUSH2 0x1E14 SWAP1 PUSH2 0x3945 JUMP JUMPDEST PUSH1 0x40 MLOAD DUP1 SWAP2 SUB SWAP1 REVERT JUMPDEST PUSH2 0x1E25 PUSH2 0x2E72 JUMP JUMPDEST PUSH0 PUSH0 PUSH0 PUSH0 PUSH2 0x1E34 DUP9 DUP9 DUP9 PUSH2 0x12C6 JUMP JUMPDEST SWAP5 POP SWAP5 POP SWAP5 POP POP SWAP4 POP DUP7 PUSH1 0x3 PUSH0 PUSH1 0x2 SLOAD DUP2 MSTORE PUSH1 0x20 ADD SWAP1 DUP2 MSTORE PUSH1 0x20 ADD PUSH0 KECCAK256 PUSH1 0xC ADD DUP10 PUSH1 0x6 DUP2 LT PUSH2 0x1E66 JUMPI PUSH2 0x1E65 PUSH2 0x3963 JUMP JUMPDEST JUMPDEST ADD PUSH0 DUP3 DUP3 SLOAD PUSH2 0x1E75 SWAP2 SWAP1 PUSH2 0x3D0D JUMP JUMPDEST SWAP3 POP POP DUP2 SWAP1 SSTORE POP PUSH32 0x0 PUSH20 0xFFFFFFFFFFFFFFFFFFFFFFFFFFFFFFFFFFFFFFFF AND PUSH4 0x156E29F6 CALLER DUP11 DUP11 PUSH1 0x40 MLOAD DUP5 PUSH4 0xFFFFFFFF AND PUSH1 0xE0 SHL DUP2 MSTORE PUSH1 0x4 ADD PUSH2 0x1ED9 SWAP4 SWAP3 SWAP2 SWAP1 PUSH2 0x455F JUMP JUMPDEST PUSH0 PUSH1 0x40 MLOAD DUP1 DUP4 SUB DUP2 PUSH0 DUP8 DUP1 EXTCODESIZE ISZERO DUP1 ISZERO PUSH2 0x1EF0 JUMPI PUSH0 PUSH0 REVERT JUMPDEST POP GAS CALL ISZERO DUP1 ISZERO PUSH2 0x1F02 JUMPI RETURNDATASIZE PUSH0 PUSH0 RETURNDATACOPY RETURNDATASIZE PUSH0 REVERT JUMPDEST POP POP POP POP PUSH0 DUP7 MLOAD GT ISZERO PUSH2 0x1F93 JUMPI PUSH0 PUSH1 0x4 DUP8 PUSH1 0x40 MLOAD PUSH2 0x1F20 SWAP2 SWAP1 PUSH2 0x3F32 JUMP JUMPDEST SWAP1 DUP2 MSTORE PUSH1 0x20 ADD PUSH1 0x40 MLOAD DUP1 SWAP2 SUB SWAP1 KECCAK256 SWAP1 POP DUP8 DUP2 PUSH1 0x3 ADD DUP11 PUSH1 0x6 DUP2 LT PUSH2 0x1F47 JUMPI PUSH2 0x1F46 PUSH2 0x3963 JUMP JUMPDEST JUMPDEST ADD PUSH0 DUP3 DUP3 SLOAD PUSH2 0x1F56 SWAP2 SWAP1 PUSH2 0x3D0D JUMP JUMPDEST SWAP3 POP POP DUP2 SWAP1 SSTORE POP DUP4 DUP2 PUSH1 0x9 ADD PUSH0 DUP3 DUP3 SLOAD PUSH2 0x1F70 SWAP2 SWAP1 PUSH2 0x3D0D JUMP JUMPDEST SWAP3 POP POP DUP2 SWAP1 SSTORE POP DUP2 DUP2 PUSH1 0xA ADD PUSH0 DUP3 DUP3 SLOAD PUSH2 0x1F8A SWAP2 SWAP1 PUSH2 0x3D0D JUMP JUMPDEST SWAP3 POP POP DUP2 SWAP1 SSTORE POP POP JUMPDEST PUSH32 0x0 PUSH20 0xFFFFFFFFFFFFFFFFFFFFFFFFFFFFFFFFFFFFFFFF AND PUSH4 0x23B872DD CALLER ADDRESS DUP8 PUSH1 0x40 MLOAD DUP5 PUSH4 0xFFFFFFFF AND PUSH1 0xE0 SHL DUP2 MSTORE PUSH1 0x4 ADD PUSH2 0x1FF0 SWAP4 SWAP3 SWAP2 SWAP1 PUSH2 0x4594 JUMP JUMPDEST PUSH1 0x20 PUSH1 0x40 MLOAD DUP1 DUP4 SUB DUP2 PUSH0 DUP8 GAS CALL ISZERO DUP1 ISZERO PUSH2 0x200C JUMPI RETURNDATASIZE PUSH0 PUSH0 RETURNDATACOPY RETURNDATASIZE PUSH0 REVERT JUMPDEST POP POP POP POP PUSH1 0x40 MLOAD RETURNDATASIZE PUSH1 0x1F NOT PUSH1 0x1F DUP3 ADD AND DUP3 ADD DUP1 PUSH1 0x40 MSTORE POP DUP2 ADD SWAP1 PUSH2 0x2030 SWAP2 SWAP1 PUSH2 0x45F3 JUMP JUMPDEST POP PUSH0 DUP7 MLOAD GT DUP1 ISZERO PUSH2 0x2040 JUMPI POP PUSH0 DUP4 GT JUMPDEST ISZERO PUSH2 0x232A JUMPI PUSH0 PUSH1 0x4 DUP8 PUSH1 0x40 MLOAD PUSH2 0x2056 SWAP2 SWAP1 PUSH2 0x3F32 JUMP JUMPDEST SWAP1 DUP2 MSTORE PUSH1 0x20 ADD PUSH1 0x40 MLOAD DUP1 SWAP2 SUB SWAP1 KECCAK256 SWAP1 POP PUSH32 0x0 PUSH20 0xFFFFFFFFFFFFFFFFFFFFFFFFFFFFFFFFFFFFFFFF AND PUSH4 0xA9059CBB DUP3 PUSH0 ADD PUSH0 SWAP1 SLOAD SWAP1 PUSH2 0x100 EXP SWAP1 DIV PUSH20 0xFFFFFFFFFFFFFFFFFFFFFFFFFFFFFFFFFFFFFFFF AND DUP7 PUSH1 0x40 MLOAD DUP4 PUSH4 0xFFFFFFFF AND PUSH1 0xE0 SHL DUP2 MSTORE PUSH1 0x4 ADD PUSH2 0x20E3 SWAP3 SWAP2 SWAP1 PUSH2 0x461E JUMP JUMPDEST PUSH1 0x20 PUSH1 0x40 MLOAD DUP1 DUP4 SUB DUP2 PUSH0 DUP8 GAS CALL ISZERO DUP1 ISZERO PUSH2 0x20FF JUMPI RETURNDATASIZE PUSH0 PUSH0 RETURNDATACOPY RETURNDATASIZE PUSH0 REVERT JUMPDEST POP POP POP POP PUSH1 0x40 MLOAD RETURNDATASIZE PUSH1 0x1F NOT PUSH1 0x1F DUP3 ADD AND DUP3 ADD DUP1 PUSH1 0x40 MSTORE POP DUP2 ADD SWAP1 PUSH2 0x2123 SWAP2 SWAP1 PUSH2 0x45F3 JUMP JUMPDEST POP DUP1 PUSH0 ADD PUSH0 SWAP1 SLOAD SWAP1 PUSH2 0x100 EXP SWAP1 DIV PUSH20 0xFFFFFFFFFFFFFFFFFFFFFFFFFFFFFFFFFFFFFFFF AND PUSH20 0xFFFFFFFFFFFFFFFFFFFFFFFFFFFFFFFFFFFFFFFF AND PUSH32 0xE940AFDE5872F4760F0AE48B728B98579E2AB7722DD8973624FA47301B0B2D2C DUP6 PUSH1 0x40 MLOAD PUSH2 0x218C SWAP2 SWAP1 PUSH2 0x2FC0 JUMP JUMPDEST PUSH1 0x40 MLOAD DUP1 SWAP2 SUB SWAP1 LOG2 PUSH0 DUP4 GT DUP1 ISZERO PUSH2 0x21F2 JUMPI POP PUSH0 PUSH20 0xFFFFFFFFFFFFFFFFFFFFFFFFFFFFFFFFFFFFFFFF AND DUP2 PUSH1 0x1 ADD PUSH0 SWAP1 SLOAD SWAP1 PUSH2 0x100 EXP SWAP1 DIV PUSH20 0xFFFFFFFFFFFFFFFFFFFFFFFFFFFFFFFFFFFFFFFF AND PUSH20 0xFFFFFFFFFFFFFFFFFFFFFFFFFFFFFFFFFFFFFFFF AND EQ ISZERO JUMPDEST ISZERO PUSH2 0x2328 JUMPI PUSH32 0x0 PUSH20 0xFFFFFFFFFFFFFFFFFFFFFFFFFFFFFFFFFFFFFFFF AND PUSH4 0xA9059CBB DUP3 PUSH1 0x1 ADD PUSH0 SWAP1 SLOAD SWAP1 PUSH2 0x100 EXP SWAP1 DIV PUSH20 0xFFFFFFFFFFFFFFFFFFFFFFFFFFFFFFFFFFFFFFFF AND DUP6 PUSH1 0x40 MLOAD DUP4 PUSH4 0xFFFFFFFF AND PUSH1 0xE0 SHL DUP2 MSTORE PUSH1 0x4 ADD PUSH2 0x2275 SWAP3 SWAP2 SWAP1 PUSH2 0x461E JUMP JUMPDEST PUSH1 0x20 PUSH1 0x40 MLOAD DUP1 DUP4 SUB DUP2 PUSH0 DUP8 GAS CALL ISZERO DUP1 ISZERO PUSH2 0x2291 JUMPI RETURNDATASIZE PUSH0 PUSH0 RETURNDATACOPY RETURNDATASIZE PUSH0 REVERT JUMPDEST POP POP POP POP PUSH1 0x40 MLOAD RETURNDATASIZE PUSH1 0x1F NOT PUSH1 0x1F DUP3 ADD AND DUP3 ADD DUP1 PUSH1 0x40 MSTORE POP DUP2 ADD SWAP1 PUSH2 0x22B5 SWAP2 SWAP1 PUSH2 0x45F3 JUMP JUMPDEST POP DUP1 PUSH1 0x1 ADD PUSH0 SWAP1 SLOAD SWAP1 PUSH2 0x100 EXP SWAP1 DIV PUSH20 0xFFFFFFFFFFFFFFFFFFFFFFFFFFFFFFFFFFFFFFFF AND PUSH20 0xFFFFFFFFFFFFFFFFFFFFFFFFFFFFFFFFFFFFFFFF AND PUSH32 0xE940AFDE5872F4760F0AE48B728B98579E2AB7722DD8973624FA47301B0B2D2C DUP5 PUSH1 0x40 MLOAD PUSH2 0x231F SWAP2 SWAP1 PUSH2 0x2FC0 JUMP JUMPDEST PUSH1 0x40 MLOAD DUP1 SWAP2 SUB SWAP1 LOG2 JUMPDEST POP JUMPDEST DUP8 CALLER PUSH20 0xFFFFFFFFFFFFFFFFFFFFFFFFFFFFFFFFFFFFFFFF AND PUSH32 0x7BC3DDF0BF2ADA973906C61001CD8F787646720BB7DA90229E5BF81FA71BAB6D DUP10 DUP8 PUSH1 0x40 MLOAD PUSH2 0x2373 SWAP3 SWAP2 SWAP1 PUSH2 0x4645 JUMP JUMPDEST PUSH1 0x40 MLOAD DUP1 SWAP2 SUB SWAP1 LOG3 POP POP POP POP PUSH2 0x2387 PUSH2 0x2EB8 JUMP JUMPDEST POP POP POP POP JUMP JUMPDEST PUSH0 DUP2 PUSH1 0x5 DUP2 GT ISZERO PUSH2 0x23D3 JUMPI PUSH1 0x40 MLOAD PUSH32 0x8C379A000000000000000000000000000000000000000000000000000000000 DUP2 MSTORE PUSH1 0x4 ADD PUSH2 0x23CA SWAP1 PUSH2 0x3945 JUMP JUMPDEST PUSH1 0x40 MLOAD DUP1 SWAP2 SUB SWAP1 REVERT JUMPDEST PUSH0 PUSH1 0x3 PUSH0 PUSH1 0x2 SLOAD DUP2 MSTORE PUSH1 0x20 ADD SWAP1 DUP2 MSTORE PUSH1 0x20 ADD PUSH0 KECCAK256 PUSH1 0x40 MLOAD DUP1 PUSH1 0x60 ADD PUSH1 0x40 MSTORE SWAP1 DUP2 PUSH0 DUP3 ADD PUSH1 0x6 DUP1 PUSH1 0x20 MUL PUSH1 0x40 MLOAD SWAP1 DUP2 ADD PUSH1 0x40 MSTORE DUP1 SWAP3 SWAP2 SWAP1 DUP3 PUSH1 0x6 DUP1 ISZERO PUSH2 0x242D JUMPI PUSH1 0x20 MUL DUP3 ADD SWAP2 JUMPDEST DUP2 SLOAD DUP2 MSTORE PUSH1 0x20 ADD SWAP1 PUSH1 0x1 ADD SWAP1 DUP1 DUP4 GT PUSH2 0x2419 JUMPI JUMPDEST POP POP POP POP POP DUP2 MSTORE PUSH1 0x20 ADD PUSH1 0x6 DUP3 ADD PUSH1 0x6 DUP1 PUSH1 0x20 MUL PUSH1 0x40 MLOAD SWAP1 DUP2 ADD PUSH1 0x40 MSTORE DUP1 SWAP3 SWAP2 SWAP1 DUP3 PUSH1 0x6 DUP1 ISZERO PUSH2 0x2472 JUMPI PUSH1 0x20 MUL DUP3 ADD SWAP2 JUMPDEST DUP2 SLOAD DUP2 MSTORE PUSH1 0x20 ADD SWAP1 PUSH1 0x1 ADD SWAP1 DUP1 DUP4 GT PUSH2 0x245E JUMPI JUMPDEST POP POP POP POP POP DUP2 MSTORE PUSH1 0x20 ADD PUSH1 0xC DUP3 ADD PUSH1 0x6 DUP1 PUSH1 0x20 MUL PUSH1 0x40 MLOAD SWAP1 DUP2 ADD PUSH1 0x40 MSTORE DUP1 SWAP3 SWAP2 SWAP1 DUP3 PUSH1 0x6 DUP1 ISZERO PUSH2 0x24B7 JUMPI PUSH1 0x20 MUL DUP3 ADD SWAP2 JUMPDEST DUP2 SLOAD DUP2 MSTORE PUSH1 0x20 ADD SWAP1 PUSH1 0x1 ADD SWAP1 DUP1 DUP4 GT PUSH2 0x24A3 JUMPI JUMPDEST POP POP POP POP POP DUP2 MSTORE POP POP SWAP1 POP DUP1 PUSH0 ADD MLOAD DUP5 PUSH1 0x6 DUP2 LT PUSH2 0x24D8 JUMPI PUSH2 0x24D7 PUSH2 0x3963 JUMP JUMPDEST JUMPDEST PUSH1 0x20 MUL ADD MLOAD SWAP3 POP POP POP SWAP2 SWAP1 POP JUMP JUMPDEST PUSH1 0x8 SLOAD DUP2 JUMP JUMPDEST PUSH1 0x5 PUSH0 CALLER PUSH20 0xFFFFFFFFFFFFFFFFFFFFFFFFFFFFFFFFFFFFFFFF AND PUSH20 0xFFFFFFFFFFFFFFFFFFFFFFFFFFFFFFFFFFFFFFFF AND DUP2 MSTORE PUSH1 0x20 ADD SWAP1 DUP2 MSTORE PUSH1 0x20 ADD PUSH0 KECCAK256 PUSH0 SWAP1 SLOAD SWAP1 PUSH2 0x100 EXP SWAP1 DIV PUSH1 0xFF AND PUSH2 0x2575 JUMPI PUSH1 0x40 MLOAD PUSH32 0x8C379A000000000000000000000000000000000000000000000000000000000 DUP2 MSTORE PUSH1 0x4 ADD PUSH2 0x256C SWAP1 PUSH2 0x3A3A JUMP JUMPDEST PUSH1 0x40 MLOAD DUP1 SWAP2 SUB SWAP1 REVERT JUMPDEST PUSH0 PUSH1 0x7 PUSH0 DUP4 DUP2 MSTORE PUSH1 0x20 ADD SWAP1 DUP2 MSTORE PUSH1 0x20 ADD PUSH0 KECCAK256 SWAP1 POP DUP1 PUSH1 0x5 ADD PUSH0 SWAP1 SLOAD SWAP1 PUSH2 0x100 EXP SWAP1 DIV PUSH1 0xFF AND ISZERO PUSH2 0x25DA JUMPI PUSH1 0x40 MLOAD PUSH32 0x8C379A000000000000000000000000000000000000000000000000000000000 DUP2 MSTORE PUSH1 0x4 ADD PUSH2 0x25D1 SWAP1 PUSH2 0x3C87 JUMP JUMPDEST PUSH1 0x40 MLOAD DUP1 SWAP2 SUB SWAP1 REVERT JUMPDEST DUP1 PUSH1 0x5 ADD PUSH1 0x1 SWAP1 SLOAD SWAP1 PUSH2 0x100 EXP SWAP1 DIV PUSH1 0xFF AND ISZERO PUSH2 0x262C JUMPI PUSH1 0x40 MLOAD PUSH32 0x8C379A000000000000000000000000000000000000000000000000000000000 DUP2 MSTORE PUSH1 0x4 ADD PUSH2 0x2623 SWAP1 PUSH2 0x46B6 JUMP JUMPDEST PUSH1 0x40 MLOAD DUP1 SWAP2 SUB SWAP1 REVERT JUMPDEST PUSH1 0x1 DUP2 PUSH1 0x5 ADD PUSH1 0x1 PUSH2 0x100 EXP DUP2 SLOAD DUP2 PUSH1 0xFF MUL NOT AND SWAP1 DUP4 ISZERO ISZERO MUL OR SWAP1 SSTORE POP CALLER PUSH20 0xFFFFFFFFFFFFFFFFFFFFFFFFFFFFFFFFFFFFFFFF AND DUP3 PUSH32 0xCD8A8ADEB6B0A0338444333E99EE6394DF82AC7E4E8132079D728B1A0E863A11 PUSH1 0x40 MLOAD PUSH1 0x40 MLOAD DUP1 SWAP2 SUB SWAP1 LOG3 POP POP JUMP JUMPDEST PUSH2 0x2699 PUSH2 0x2D2A JUMP JUMPDEST PUSH0 PUSH0 SWAP1 POP JUMPDEST PUSH1 0x6 DUP2 LT ISZERO PUSH2 0x2716 JUMPI PUSH2 0x26B0 DUP2 PUSH2 0x1828 JUMP JUMPDEST DUP3 DUP3 PUSH1 0x6 DUP2 LT PUSH2 0x26C3 JUMPI PUSH2 0x26C2 PUSH2 0x3963 JUMP JUMPDEST JUMPDEST PUSH1 0x20 MUL ADD MLOAD GT ISZERO PUSH2 0x2709 JUMPI PUSH1 0x40 MLOAD PUSH32 0x8C379A000000000000000000000000000000000000000000000000000000000 DUP2 MSTORE PUSH1 0x4 ADD PUSH2 0x2700 SWAP1 PUSH2 0x4744 JUMP JUMPDEST PUSH1 0x40 MLOAD DUP1 SWAP2 SUB SWAP1 REVERT JUMPDEST DUP1 DUP1 PUSH1 0x1 ADD SWAP2 POP POP PUSH2 0x269E JUMP JUMPDEST POP PUSH0 PUSH1 0x2 SLOAD GT ISZERO PUSH2 0x27E9 JUMPI PUSH0 PUSH0 SWAP1 POP JUMPDEST PUSH1 0x6 DUP2 LT ISZERO PUSH2 0x27E7 JUMPI PUSH0 PUSH2 0x2739 DUP3 PUSH2 0x597 JUMP JUMPDEST EQ PUSH2 0x2779 JUMPI PUSH1 0x40 MLOAD PUSH32 0x8C379A000000000000000000000000000000000000000000000000000000000 DUP2 MSTORE PUSH1 0x4 ADD PUSH2 0x2770 SWAP1 PUSH2 0x47AC JUMP JUMPDEST PUSH1 0x40 MLOAD DUP1 SWAP2 SUB SWAP1 REVERT JUMPDEST PUSH2 0x2782 DUP2 PUSH2 0x238D JUMP JUMPDEST DUP4 DUP3 PUSH1 0x6 DUP2 LT PUSH2 0x2795 JUMPI PUSH2 0x2794 PUSH2 0x3963 JUMP JUMPDEST JUMPDEST PUSH1 0x20 MUL ADD MLOAD GT PUSH2 0x27DA JUMPI PUSH1 0x40 MLOAD PUSH32 0x8C379A000000000000000000000000000000000000000000000000000000000 DUP2 MSTORE PUSH1 0x4 ADD PUSH2 0x27D1 SWAP1 PUSH2 0x4814 JUMP JUMPDEST PUSH1 0x40 MLOAD DUP1 SWAP2 SUB SWAP1 REVERT JUMPDEST DUP1 DUP1 PUSH1 0x1 ADD SWAP2 POP POP PUSH2 0x2726 JUMP JUMPDEST POP JUMPDEST PUSH1 0x2 PUSH0 DUP2 SLOAD DUP1 SWAP3 SWAP2 SWAP1 PUSH2 0x27FB SWAP1 PUSH2 0x3BCF JUMP JUMPDEST SWAP2 SWAP1 POP SSTORE POP PUSH1 0x40 MLOAD DUP1 PUSH1 0x60 ADD PUSH1 0x40 MSTORE DUP1 DUP4 DUP2 MSTORE PUSH1 0x20 ADD DUP3 DUP2 MSTORE PUSH1 0x20 ADD PUSH1 0x40 MLOAD DUP1 PUSH1 0xC0 ADD PUSH1 0x40 MSTORE DUP1 PUSH0 DUP2 MSTORE PUSH1 0x20 ADD PUSH0 DUP2 MSTORE PUSH1 0x20 ADD PUSH0 DUP2 MSTORE PUSH1 0x20 ADD PUSH0 DUP2 MSTORE PUSH1 0x20 ADD PUSH0 DUP2 MSTORE PUSH1 0x20 ADD PUSH0 DUP2 MSTORE POP DUP2 MSTORE POP PUSH1 0x3 PUSH0 PUSH1 0x2 SLOAD DUP2 MSTORE PUSH1 0x20 ADD SWAP1 DUP2 MSTORE PUSH1 0x20 ADD PUSH0 KECCAK256 PUSH0 DUP3 ADD MLOAD DUP2 PUSH0 ADD SWAP1 PUSH1 0x6 PUSH2 0x286F SWAP3 SWAP2 SWAP1 PUSH2 0x2EC8 JUMP JUMPDEST POP PUSH1 0x20 DUP3 ADD MLOAD DUP2 PUSH1 0x6 ADD SWAP1 PUSH1 0x6 PUSH2 0x2887 SWAP3 SWAP2 SWAP1 PUSH2 0x2EC8 JUMP JUMPDEST POP PUSH1 0x40 DUP3 ADD MLOAD DUP2 PUSH1 0xC ADD SWAP1 PUSH1 0x6 PUSH2 0x289F SWAP3 SWAP2 SWAP1 PUSH2 0x2EC8 JUMP JUMPDEST POP SWAP1 POP POP PUSH1 0x2 SLOAD PUSH32 0x7DED52798AB2E63AD5F4474D2273D878D5EC60F9E082CDE09A3E544EFBA93296 PUSH1 0x40 MLOAD PUSH1 0x40 MLOAD DUP1 SWAP2 SUB SWAP1 LOG2 POP POP JUMP JUMPDEST PUSH0 PUSH0 PUSH0 PUSH0 PUSH2 0x28E5 DUP14 DUP14 DUP14 PUSH2 0x12C6 JUMP JUMPDEST SWAP5 POP SWAP5 POP SWAP5 POP POP SWAP4 POP PUSH32 0x0 PUSH20 0xFFFFFFFFFFFFFFFFFFFFFFFFFFFFFFFFFFFFFFFF AND PUSH4 0xE3EE160E CALLER ADDRESS DUP8 DUP15 DUP15 DUP15 DUP13 DUP16 DUP16 PUSH1 0x40 MLOAD DUP11 PUSH4 0xFFFFFFFF AND PUSH1 0xE0 SHL DUP2 MSTORE PUSH1 0x4 ADD PUSH2 0x2957 SWAP10 SWAP9 SWAP8 SWAP7 SWAP6 SWAP5 SWAP4 SWAP3 SWAP2 SWAP1 PUSH2 0x4850 JUMP JUMPDEST PUSH0 PUSH1 0x40 MLOAD DUP1 DUP4 SUB DUP2 PUSH0 DUP8 DUP1 EXTCODESIZE ISZERO DUP1 ISZERO PUSH2 0x296E JUMPI PUSH0 PUSH0 REVERT JUMPDEST POP GAS CALL ISZERO DUP1 ISZERO PUSH2 0x2980 JUMPI RETURNDATASIZE PUSH0 PUSH0 RETURNDATACOPY RETURNDATASIZE PUSH0 REVERT JUMPDEST POP POP POP POP PUSH0 DUP12 MLOAD GT ISZERO PUSH2 0x2A11 JUMPI PUSH0 PUSH1 0x4 DUP13 PUSH1 0x40 MLOAD PUSH2 0x299E SWAP2 SWAP1 PUSH2 0x3F32 JUMP JUMPDEST SWAP1 DUP2 MSTORE PUSH1 0x20 ADD PUSH1 0x40 MLOAD DUP1 SWAP2 SUB SWAP1 KECCAK256 SWAP1 POP DUP13 DUP2 PUSH1 0x3 ADD DUP16 PUSH1 0x6 DUP2 LT PUSH2 0x29C5 JUMPI PUSH2 0x29C4 PUSH2 0x3963 JUMP JUMPDEST JUMPDEST ADD PUSH0 DUP3 DUP3 SLOAD PUSH2 0x29D4 SWAP2 SWAP1 PUSH2 0x3D0D JUMP JUMPDEST SWAP3 POP POP DUP2 SWAP1 SSTORE POP DUP4 DUP2 PUSH1 0x9 ADD PUSH0 DUP3 DUP3 SLOAD PUSH2 0x29EE SWAP2 SWAP1 PUSH2 0x3D0D JUMP JUMPDEST SWAP3 POP POP DUP2 SWAP1 SSTORE POP DUP2 DUP2 PUSH1 0xA ADD PUSH0 DUP3 DUP3 SLOAD PUSH2 0x2A08 SWAP2 SWAP1 PUSH2 0x3D0D JUMP JUMPDEST SWAP3 POP POP DUP2 SWAP1 SSTORE POP POP JUMPDEST DUP12 PUSH1 0x3 PUSH0 PUSH1 0x2 SLOAD DUP2 MSTORE PUSH1 0x20 ADD SWAP1 DUP2 MSTORE PUSH1 0x20 ADD PUSH0 KECCAK256 PUSH1 0xC ADD DUP15 PUSH1 0x6 DUP2 LT PUSH2 0x2A3A JUMPI PUSH2 0x2A39 PUSH2 0x3963 JUMP JUMPDEST JUMPDEST ADD PUSH0 DUP3 DUP3 SLOAD PUSH2 0x2A49 SWAP2 SWAP1 PUSH2 0x3D0D JUMP JUMPDEST SWAP3 POP POP DUP2 SWAP1 SSTORE POP PUSH32 0x0 PUSH20 0xFFFFFFFFFFFFFFFFFFFFFFFFFFFFFFFFFFFFFFFF AND PUSH4 0x156E29F6 CALLER DUP16 DUP16 PUSH1 0x40 MLOAD DUP5 PUSH4 0xFFFFFFFF AND PUSH1 0xE0 SHL DUP2 MSTORE PUSH1 0x4 ADD PUSH2 0x2AAD SWAP4 SWAP3 SWAP2 SWAP1 PUSH2 0x455F JUMP JUMPDEST PUSH0 PUSH1 0x40 MLOAD DUP1 DUP4 SUB DUP2 PUSH0 DUP8 DUP1 EXTCODESIZE ISZERO DUP1 ISZERO PUSH2 0x2AC4 JUMPI PUSH0 PUSH0 REVERT JUMPDEST POP GAS CALL ISZERO DUP1 ISZERO PUSH2 0x2AD6 JUMPI RETURNDATASIZE PUSH0 PUSH0 RETURNDATACOPY RETURNDATASIZE PUSH0 REVERT JUMPDEST POP POP POP POP DUP13 CALLER PUSH20 0xFFFFFFFFFFFFFFFFFFFFFFFFFFFFFFFFFFFFFFFF AND PUSH32 0x7BC3DDF0BF2ADA973906C61001CD8F787646720BB7DA90229E5BF81FA71BAB6D DUP15 DUP8 PUSH1 0x40 MLOAD PUSH2 0x2B23 SWAP3 SWAP2 SWAP1 PUSH2 0x4645 JUMP JUMPDEST PUSH1 0x40 MLOAD DUP1 SWAP2 SUB SWAP1 LOG3 POP POP POP POP POP POP POP POP POP POP POP POP POP JUMP JUMPDEST PUSH2 0x2B42 PUSH2 0x2D2A JUMP JUMPDEST PUSH0 PUSH20 0xFFFFFFFFFFFFFFFFFFFFFFFFFFFFFFFFFFFFFFFF AND DUP2 PUSH20 0xFFFFFFFFFFFFFFFFFFFFFFFFFFFFFFFFFFFFFFFF AND SUB PUSH2 0x2BB2 JUMPI PUSH0 PUSH1 0x40 MLOAD PUSH32 0x1E4FBDF700000000000000000000000000000000000000000000000000000000 DUP2 MSTORE PUSH1 0x4 ADD PUSH2 0x2BA9 SWAP2 SWAP1 PUSH2 0x35DB JUMP JUMPDEST PUSH1 0x40 MLOAD DUP1 SWAP2 SUB SWAP1 REVERT JUMPDEST PUSH2 0x2BBB DUP2 PUSH2 0x2DB1 JUMP JUMPDEST POP JUMP JUMPDEST PUSH0 PUSH1 0x7 PUSH0 DUP4 DUP2 MSTORE PUSH1 0x20 ADD SWAP1 DUP2 MSTORE PUSH1 0x20 ADD PUSH0 KECCAK256 SWAP1 POP PUSH1 0x1 DUP2 PUSH1 0x5 ADD PUSH0 PUSH2 0x100 EXP DUP2 SLOAD DUP2 PUSH1 0xFF MUL NOT AND SWAP1 DUP4 ISZERO ISZERO MUL OR SWAP1 SSTORE POP PUSH32 0x0 PUSH20 0xFFFFFFFFFFFFFFFFFFFFFFFFFFFFFFFFFFFFFFFF AND PUSH4 0xA9059CBB DUP3 PUSH1 0x1 ADD PUSH0 SWAP1 SLOAD SWAP1 PUSH2 0x100 EXP SWAP1 DIV PUSH20 0xFFFFFFFFFFFFFFFFFFFFFFFFFFFFFFFFFFFFFFFF AND DUP4 PUSH0 ADD SLOAD PUSH1 0x40 MLOAD DUP4 PUSH4 0xFFFFFFFF AND PUSH1 0xE0 SHL DUP2 MSTORE PUSH1 0x4 ADD PUSH2 0x2C6F SWAP3 SWAP2 SWAP1 PUSH2 0x461E JUMP JUMPDEST PUSH1 0x20 PUSH1 0x40 MLOAD DUP1 DUP4 SUB DUP2 PUSH0 DUP8 GAS CALL ISZERO DUP1 ISZERO PUSH2 0x2C8B JUMPI RETURNDATASIZE PUSH0 PUSH0 RETURNDATACOPY RETURNDATASIZE PUSH0 REVERT JUMPDEST POP POP POP POP PUSH1 0x40 MLOAD RETURNDATASIZE PUSH1 0x1F NOT PUSH1 0x1F DUP3 ADD AND DUP3 ADD DUP1 PUSH1 0x40 MSTORE POP DUP2 ADD SWAP1 PUSH2 0x2CAF SWAP2 SWAP1 PUSH2 0x45F3 JUMP JUMPDEST POP CALLER PUSH20 0xFFFFFFFFFFFFFFFFFFFFFFFFFFFFFFFFFFFFFFFF AND DUP3 PUSH31 0x9525D1B7630386050058876F776D3F6B7B6C79213925AEC88934FFA1678E21 DUP4 PUSH0 ADD SLOAD DUP5 PUSH1 0x1 ADD PUSH0 SWAP1 SLOAD SWAP1 PUSH2 0x100 EXP SWAP1 DIV PUSH20 0xFFFFFFFFFFFFFFFFFFFFFFFFFFFFFFFFFFFFFFFF AND PUSH1 0x40 MLOAD PUSH2 0x2D1E SWAP3 SWAP2 SWAP1 PUSH2 0x3C16 JUMP JUMPDEST PUSH1 0x40 MLOAD DUP1 SWAP2 SUB SWAP1 LOG3 POP POP JUMP JUMPDEST PUSH2 0x2D32 PUSH2 0x2EC1 JUMP JUMPDEST PUSH20 0xFFFFFFFFFFFFFFFFFFFFFFFFFFFFFFFFFFFFFFFF AND PUSH2 0x2D50 PUSH2 0x1928 JUMP JUMPDEST PUSH20 0xFFFFFFFFFFFFFFFFFFFFFFFFFFFFFFFFFFFFFFFF AND EQ PUSH2 0x2DAF JUMPI PUSH2 0x2D73 PUSH2 0x2EC1 JUMP JUMPDEST PUSH1 0x40 MLOAD PUSH32 0x118CDAA700000000000000000000000000000000000000000000000000000000 DUP2 MSTORE PUSH1 0x4 ADD PUSH2 0x2DA6 SWAP2 SWAP1 PUSH2 0x35DB JUMP JUMPDEST PUSH1 0x40 MLOAD DUP1 SWAP2 SUB SWAP1 REVERT JUMPDEST JUMP JUMPDEST PUSH0 PUSH0 PUSH0 SWAP1 SLOAD SWAP1 PUSH2 0x100 EXP SWAP1 DIV PUSH20 0xFFFFFFFFFFFFFFFFFFFFFFFFFFFFFFFFFFFFFFFF AND SWAP1 POP DUP2 PUSH0 PUSH0 PUSH2 0x100 EXP DUP2 SLOAD DUP2 PUSH20 0xFFFFFFFFFFFFFFFFFFFFFFFFFFFFFFFFFFFFFFFF MUL NOT AND SWAP1 DUP4 PUSH20 0xFFFFFFFFFFFFFFFFFFFFFFFFFFFFFFFFFFFFFFFF AND MUL OR SWAP1 SSTORE POP DUP2 PUSH20 0xFFFFFFFFFFFFFFFFFFFFFFFFFFFFFFFFFFFFFFFF AND DUP2 PUSH20 0xFFFFFFFFFFFFFFFFFFFFFFFFFFFFFFFFFFFFFFFF AND PUSH32 0x8BE0079C531659141344CD1FD0A4F28419497F9722A3DAAFE3B4186F6B6457E0 PUSH1 0x40 MLOAD PUSH1 0x40 MLOAD DUP1 SWAP2 SUB SWAP1 LOG3 POP POP JUMP JUMPDEST PUSH1 0x2 PUSH1 0x1 SLOAD SUB PUSH2 0x2EAE JUMPI PUSH1 0x40 MLOAD PUSH32 0x3EE5AEB500000000000000000000000000000000000000000000000000000000 DUP2 MSTORE PUSH1 0x4 ADD PUSH1 0x40 MLOAD DUP1 SWAP2 SUB SWAP1 REVERT JUMPDEST PUSH1 0x2 PUSH1 0x1 DUP2 SWAP1 SSTORE POP JUMP JUMPDEST PUSH1 0x1 DUP1 DUP2 SWAP1 SSTORE POP JUMP JUMPDEST PUSH0 CALLER SWAP1 POP SWAP1 JUMP JUMPDEST DUP3 PUSH1 0x6 DUP2 ADD SWAP3 DUP3 ISZERO PUSH2 0x2EF7 JUMPI SWAP2 PUSH1 0x20 MUL DUP3 ADD JUMPDEST DUP3 DUP2 GT ISZERO PUSH2 0x2EF6 JUMPI DUP3 MLOAD DUP3 SSTORE SWAP2 PUSH1 0x20 ADD SWAP2 SWAP1 PUSH1 0x1 ADD SWAP1 PUSH2 0x2EDB JUMP JUMPDEST JUMPDEST POP SWAP1 POP PUSH2 0x2F04 SWAP2 SWAP1 PUSH2 0x2F6B JUMP JUMPDEST POP SWAP1 JUMP JUMPDEST PUSH1 0x40 MLOAD DUP1 PUSH1 0xC0 ADD PUSH1 0x40 MSTORE DUP1 PUSH0 PUSH20 0xFFFFFFFFFFFFFFFFFFFFFFFFFFFFFFFFFFFFFFFF AND DUP2 MSTORE PUSH1 0x20 ADD PUSH0 PUSH20 0xFFFFFFFFFFFFFFFFFFFFFFFFFFFFFFFFFFFFFFFF AND DUP2 MSTORE PUSH1 0x20 ADD PUSH0 DUP2 MSTORE PUSH1 0x20 ADD PUSH2 0x2F59 PUSH2 0x2F86 JUMP JUMPDEST DUP2 MSTORE PUSH1 0x20 ADD PUSH0 DUP2 MSTORE PUSH1 0x20 ADD PUSH0 DUP2 MSTORE POP SWAP1 JUMP JUMPDEST JUMPDEST DUP1 DUP3 GT ISZERO PUSH2 0x2F82 JUMPI PUSH0 DUP2 PUSH0 SWAP1 SSTORE POP PUSH1 0x1 ADD PUSH2 0x2F6C JUMP JUMPDEST POP SWAP1 JUMP JUMPDEST PUSH1 0x40 MLOAD DUP1 PUSH1 0xC0 ADD PUSH1 0x40 MSTORE DUP1 PUSH1 0x6 SWAP1 PUSH1 0x20 DUP3 MUL DUP1 CALLDATASIZE DUP4 CALLDATACOPY DUP1 DUP3 ADD SWAP2 POP POP SWAP1 POP POP SWAP1 JUMP JUMPDEST PUSH0 DUP2 SWAP1 POP SWAP2 SWAP1 POP JUMP JUMPDEST PUSH2 0x2FBA DUP2 PUSH2 0x2FA8 JUMP JUMPDEST DUP3 MSTORE POP POP JUMP JUMPDEST PUSH0 PUSH1 0x20 DUP3 ADD SWAP1 POP PUSH2 0x2FD3 PUSH0 DUP4 ADD DUP5 PUSH2 0x2FB1 JUMP JUMPDEST SWAP3 SWAP2 POP POP JUMP JUMPDEST PUSH0 PUSH1 0x40 MLOAD SWAP1 POP SWAP1 JUMP JUMPDEST PUSH0 PUSH0 REVERT JUMPDEST PUSH0 PUSH0 REVERT JUMPDEST PUSH2 0x2FF3 DUP2 PUSH2 0x2FA8 JUMP JUMPDEST DUP2 EQ PUSH2 0x2FFD JUMPI PUSH0 PUSH0 REVERT JUMPDEST POP JUMP JUMPDEST PUSH0 DUP2 CALLDATALOAD SWAP1 POP PUSH2 0x300E DUP2 PUSH2 0x2FEA JUMP JUMPDEST SWAP3 SWAP2 POP POP JUMP JUMPDEST PUSH0 PUSH1 0x20 DUP3 DUP5 SUB SLT ISZERO PUSH2 0x3029 JUMPI PUSH2 0x3028 PUSH2 0x2FE2 JUMP JUMPDEST JUMPDEST PUSH0 PUSH2 0x3036 DUP5 DUP3 DUP6 ADD PUSH2 0x3000 JUMP JUMPDEST SWAP2 POP POP SWAP3 SWAP2 POP POP JUMP JUMPDEST PUSH0 PUSH20 0xFFFFFFFFFFFFFFFFFFFFFFFFFFFFFFFFFFFFFFFF DUP3 AND SWAP1 POP SWAP2 SWAP1 POP JUMP JUMPDEST PUSH0 DUP2 SWAP1 POP SWAP2 SWAP1 POP JUMP JUMPDEST PUSH0 PUSH2 0x3081 PUSH2 0x307C PUSH2 0x3077 DUP5 PUSH2 0x303F JUMP JUMPDEST PUSH2 0x305E JUMP JUMPDEST PUSH2 0x303F JUMP JUMPDEST SWAP1 POP SWAP2 SWAP1 POP JUMP JUMPDEST PUSH0 PUSH2 0x3092 DUP3 PUSH2 0x3067 JUMP JUMPDEST SWAP1 POP SWAP2 SWAP1 POP JUMP JUMPDEST PUSH0 PUSH2 0x30A3 DUP3 PUSH2 0x3088 JUMP JUMPDEST SWAP1 POP SWAP2 SWAP1 POP JUMP JUMPDEST PUSH2 0x30B3 DUP2 PUSH2 0x3099 JUMP JUMPDEST DUP3 MSTORE POP POP JUMP JUMPDEST PUSH0 PUSH1 0x20 DUP3 ADD SWAP1 POP PUSH2 0x30CC PUSH0 DUP4 ADD DUP5 PUSH2 0x30AA JUMP JUMPDEST SWAP3 SWAP2 POP POP JUMP JUMPDEST PUSH0 PUSH2 0x30DC DUP3 PUSH2 0x303F JUMP JUMPDEST SWAP1 POP SWAP2 SWAP1 POP JUMP JUMPDEST PUSH2 0x30EC DUP2 PUSH2 0x30D2 JUMP JUMPDEST DUP2 EQ PUSH2 0x30F6 JUMPI PUSH0 PUSH0 REVERT JUMPDEST POP JUMP JUMPDEST PUSH0 DUP2 CALLDATALOAD SWAP1 POP PUSH2 0x3107 DUP2 PUSH2 0x30E3 JUMP JUMPDEST SWAP3 SWAP2 POP POP JUMP JUMPDEST PUSH0 PUSH0 PUSH1 0x40 DUP4 DUP6 SUB SLT ISZERO PUSH2 0x3123 JUMPI PUSH2 0x3122 PUSH2 0x2FE2 JUMP JUMPDEST JUMPDEST PUSH0 PUSH2 0x3130 DUP6 DUP3 DUP7 ADD PUSH2 0x3000 JUMP JUMPDEST SWAP3 POP POP PUSH1 0x20 PUSH2 0x3141 DUP6 DUP3 DUP7 ADD PUSH2 0x30F9 JUMP JUMPDEST SWAP2 POP POP SWAP3 POP SWAP3 SWAP1 POP JUMP JUMPDEST PUSH0 PUSH0 REVERT JUMPDEST PUSH0 PUSH0 REVERT JUMPDEST PUSH0 PUSH1 0x1F NOT PUSH1 0x1F DUP4 ADD AND SWAP1 POP SWAP2 SWAP1 POP JUMP JUMPDEST PUSH32 0x4E487B7100000000000000000000000000000000000000000000000000000000 PUSH0 MSTORE PUSH1 0x41 PUSH1 0x4 MSTORE PUSH1 0x24 PUSH0 REVERT JUMPDEST PUSH2 0x3199 DUP3 PUSH2 0x3153 JUMP JUMPDEST DUP2 ADD DUP2 DUP2 LT PUSH8 0xFFFFFFFFFFFFFFFF DUP3 GT OR ISZERO PUSH2 0x31B8 JUMPI PUSH2 0x31B7 PUSH2 0x3163 JUMP JUMPDEST JUMPDEST DUP1 PUSH1 0x40 MSTORE POP POP POP JUMP JUMPDEST PUSH0 PUSH2 0x31CA PUSH2 0x2FD9 JUMP JUMPDEST SWAP1 POP PUSH2 0x31D6 DUP3 DUP3 PUSH2 0x3190 JUMP JUMPDEST SWAP2 SWAP1 POP JUMP JUMPDEST PUSH0 PUSH8 0xFFFFFFFFFFFFFFFF DUP3 GT ISZERO PUSH2 0x31F5 JUMPI PUSH2 0x31F4 PUSH2 0x3163 JUMP JUMPDEST JUMPDEST PUSH2 0x31FE DUP3 PUSH2 0x3153 JUMP JUMPDEST SWAP1 POP PUSH1 0x20 DUP2 ADD SWAP1 POP SWAP2 SWAP1 POP JUMP JUMPDEST DUP3 DUP2 DUP4 CALLDATACOPY PUSH0 DUP4 DUP4 ADD MSTORE POP POP POP JUMP JUMPDEST PUSH0 PUSH2 0x322B PUSH2 0x3226 DUP5 PUSH2 0x31DB JUMP JUMPDEST PUSH2 0x31C1 JUMP JUMPDEST SWAP1 POP DUP3 DUP2 MSTORE PUSH1 0x20 DUP2 ADD DUP5 DUP5 DUP5 ADD GT ISZERO PUSH2 0x3247 JUMPI PUSH2 0x3246 PUSH2 0x314F JUMP JUMPDEST JUMPDEST PUSH2 0x3252 DUP5 DUP3 DUP6 PUSH2 0x320B JUMP JUMPDEST POP SWAP4 SWAP3 POP POP POP JUMP JUMPDEST PUSH0 DUP3 PUSH1 0x1F DUP4 ADD SLT PUSH2 0x326E JUMPI PUSH2 0x326D PUSH2 0x314B JUMP JUMPDEST JUMPDEST DUP2 CALLDATALOAD PUSH2 0x327E DUP5 DUP3 PUSH1 0x20 DUP7 ADD PUSH2 0x3219 JUMP JUMPDEST SWAP2 POP POP SWAP3 SWAP2 POP POP JUMP JUMPDEST PUSH0 PUSH0 PUSH0 PUSH0 PUSH1 0x80 DUP6 DUP8 SUB SLT ISZERO PUSH2 0x329F JUMPI PUSH2 0x329E PUSH2 0x2FE2 JUMP JUMPDEST JUMPDEST PUSH0 DUP6 ADD CALLDATALOAD PUSH8 0xFFFFFFFFFFFFFFFF DUP2 GT ISZERO PUSH2 0x32BC JUMPI PUSH2 0x32BB PUSH2 0x2FE6 JUMP JUMPDEST JUMPDEST PUSH2 0x32C8 DUP8 DUP3 DUP9 ADD PUSH2 0x325A JUMP JUMPDEST SWAP5 POP POP PUSH1 0x20 PUSH2 0x32D9 DUP8 DUP3 DUP9 ADD PUSH2 0x30F9 JUMP JUMPDEST SWAP4 POP POP PUSH1 0x40 PUSH2 0x32EA DUP8 DUP3 DUP9 ADD PUSH2 0x30F9 JUMP JUMPDEST SWAP3 POP POP PUSH1 0x60 PUSH2 0x32FB DUP8 DUP3 DUP9 ADD PUSH2 0x3000 JUMP JUMPDEST SWAP2 POP POP SWAP3 SWAP6 SWAP2 SWAP5 POP SWAP3 POP JUMP JUMPDEST PUSH0 PUSH2 0x3311 DUP3 PUSH2 0x3088 JUMP JUMPDEST SWAP1 POP SWAP2 SWAP1 POP JUMP JUMPDEST PUSH2 0x3321 DUP2 PUSH2 0x3307 JUMP JUMPDEST DUP3 MSTORE POP POP JUMP JUMPDEST PUSH0 PUSH1 0x20 DUP3 ADD SWAP1 POP PUSH2 0x333A PUSH0 DUP4 ADD DUP5 PUSH2 0x3318 JUMP JUMPDEST SWAP3 SWAP2 POP POP JUMP JUMPDEST PUSH0 PUSH1 0x20 DUP3 DUP5 SUB SLT ISZERO PUSH2 0x3355 JUMPI PUSH2 0x3354 PUSH2 0x2FE2 JUMP JUMPDEST JUMPDEST PUSH0 DUP3 ADD CALLDATALOAD PUSH8 0xFFFFFFFFFFFFFFFF DUP2 GT ISZERO PUSH2 0x3372 JUMPI PUSH2 0x3371 PUSH2 0x2FE6 JUMP JUMPDEST JUMPDEST PUSH2 0x337E DUP5 DUP3 DUP6 ADD PUSH2 0x325A JUMP JUMPDEST SWAP2 POP POP SWAP3 SWAP2 POP POP JUMP JUMPDEST PUSH2 0x3390 DUP2 PUSH2 0x30D2 JUMP JUMPDEST DUP3 MSTORE POP POP JUMP JUMPDEST PUSH2 0x339F DUP2 PUSH2 0x2FA8 JUMP JUMPDEST DUP3 MSTORE POP POP JUMP JUMPDEST PUSH0 PUSH1 0x6 SWAP1 POP SWAP2 SWAP1 POP JUMP JUMPDEST PUSH0 DUP2 SWAP1 POP SWAP3 SWAP2 POP POP JUMP JUMPDEST PUSH0 DUP2 SWAP1 POP SWAP2 SWAP1 POP JUMP JUMPDEST PUSH0 PUSH2 0x33CD DUP4 DUP4 PUSH2 0x3396 JUMP JUMPDEST PUSH1 0x20 DUP4 ADD SWAP1 POP SWAP3 SWAP2 POP POP JUMP JUMPDEST PUSH0 PUSH1 0x20 DUP3 ADD SWAP1 POP SWAP2 SWAP1 POP JUMP JUMPDEST PUSH2 0x33EE DUP2 PUSH2 0x33A5 JUMP JUMPDEST PUSH2 0x33F8 DUP2 DUP5 PUSH2 0x33AF JUMP JUMPDEST SWAP3 POP PUSH2 0x3403 DUP3 PUSH2 0x33B9 JUMP JUMPDEST DUP1 PUSH0 JUMPDEST DUP4 DUP2 LT ISZERO PUSH2 0x3433 JUMPI DUP2 MLOAD PUSH2 0x341A DUP8 DUP3 PUSH2 0x33C2 JUMP JUMPDEST SWAP7 POP PUSH2 0x3425 DUP4 PUSH2 0x33D9 JUMP JUMPDEST SWAP3 POP POP PUSH1 0x1 DUP2 ADD SWAP1 POP PUSH2 0x3406 JUMP JUMPDEST POP POP POP POP POP POP JUMP JUMPDEST PUSH2 0x160 DUP3 ADD PUSH0 DUP3 ADD MLOAD PUSH2 0x3450 PUSH0 DUP6 ADD DUP3 PUSH2 0x3387 JUMP JUMPDEST POP PUSH1 0x20 DUP3 ADD MLOAD PUSH2 0x3463 PUSH1 0x20 DUP6 ADD DUP3 PUSH2 0x3387 JUMP JUMPDEST POP PUSH1 0x40 DUP3 ADD MLOAD PUSH2 0x3476 PUSH1 0x40 DUP6 ADD DUP3 PUSH2 0x3396 JUMP JUMPDEST POP PUSH1 0x60 DUP3 ADD MLOAD PUSH2 0x3489 PUSH1 0x60 DUP6 ADD DUP3 PUSH2 0x33E5 JUMP JUMPDEST POP PUSH1 0x80 DUP3 ADD MLOAD PUSH2 0x349D PUSH2 0x120 DUP6 ADD DUP3 PUSH2 0x3396 JUMP JUMPDEST POP PUSH1 0xA0 DUP3 ADD MLOAD PUSH2 0x34B1 PUSH2 0x140 DUP6 ADD DUP3 PUSH2 0x3396 JUMP JUMPDEST POP POP POP POP JUMP JUMPDEST PUSH0 PUSH2 0x160 DUP3 ADD SWAP1 POP PUSH2 0x34CB PUSH0 DUP4 ADD DUP5 PUSH2 0x343B JUMP JUMPDEST SWAP3 SWAP2 POP POP JUMP JUMPDEST PUSH0 PUSH0 PUSH0 PUSH1 0x60 DUP5 DUP7 SUB SLT ISZERO PUSH2 0x34E8 JUMPI PUSH2 0x34E7 PUSH2 0x2FE2 JUMP JUMPDEST JUMPDEST PUSH0 PUSH2 0x34F5 DUP7 DUP3 DUP8 ADD PUSH2 0x3000 JUMP JUMPDEST SWAP4 POP POP PUSH1 0x20 PUSH2 0x3506 DUP7 DUP3 DUP8 ADD PUSH2 0x3000 JUMP JUMPDEST SWAP3 POP POP PUSH1 0x40 DUP5 ADD CALLDATALOAD PUSH8 0xFFFFFFFFFFFFFFFF DUP2 GT ISZERO PUSH2 0x3527 JUMPI PUSH2 0x3526 PUSH2 0x2FE6 JUMP JUMPDEST JUMPDEST PUSH2 0x3533 DUP7 DUP3 DUP8 ADD PUSH2 0x325A JUMP JUMPDEST SWAP2 POP POP SWAP3 POP SWAP3 POP SWAP3 JUMP JUMPDEST PUSH0 PUSH1 0xA0 DUP3 ADD SWAP1 POP PUSH2 0x3550 PUSH0 DUP4 ADD DUP9 PUSH2 0x2FB1 JUMP JUMPDEST PUSH2 0x355D PUSH1 0x20 DUP4 ADD DUP8 PUSH2 0x2FB1 JUMP JUMPDEST PUSH2 0x356A PUSH1 0x40 DUP4 ADD DUP7 PUSH2 0x2FB1 JUMP JUMPDEST PUSH2 0x3577 PUSH1 0x60 DUP4 ADD DUP6 PUSH2 0x2FB1 JUMP JUMPDEST PUSH2 0x3584 PUSH1 0x80 DUP4 ADD DUP5 PUSH2 0x2FB1 JUMP JUMPDEST SWAP7 SWAP6 POP POP POP POP POP POP JUMP JUMPDEST PUSH0 PUSH0 PUSH1 0x40 DUP4 DUP6 SUB SLT ISZERO PUSH2 0x35A4 JUMPI PUSH2 0x35A3 PUSH2 0x2FE2 JUMP JUMPDEST JUMPDEST PUSH0 PUSH2 0x35B1 DUP6 DUP3 DUP7 ADD PUSH2 0x3000 JUMP JUMPDEST SWAP3 POP POP PUSH1 0x20 PUSH2 0x35C2 DUP6 DUP3 DUP7 ADD PUSH2 0x3000 JUMP JUMPDEST SWAP2 POP POP SWAP3 POP SWAP3 SWAP1 POP JUMP JUMPDEST PUSH2 0x35D5 DUP2 PUSH2 0x30D2 JUMP JUMPDEST DUP3 MSTORE POP POP JUMP JUMPDEST PUSH0 PUSH1 0x20 DUP3 ADD SWAP1 POP PUSH2 0x35EE PUSH0 DUP4 ADD DUP5 PUSH2 0x35CC JUMP JUMPDEST SWAP3 SWAP2 POP POP JUMP JUMPDEST PUSH0 DUP2 ISZERO ISZERO SWAP1 POP SWAP2 SWAP1 POP JUMP JUMPDEST PUSH2 0x3608 DUP2 PUSH2 0x35F4 JUMP JUMPDEST DUP3 MSTORE POP POP JUMP JUMPDEST PUSH0 PUSH1 0xC0 DUP3 ADD SWAP1 POP PUSH2 0x3621 PUSH0 DUP4 ADD DUP10 PUSH2 0x2FB1 JUMP JUMPDEST PUSH2 0x362E PUSH1 0x20 DUP4 ADD DUP9 PUSH2 0x35CC JUMP JUMPDEST PUSH2 0x363B PUSH1 0x40 DUP4 ADD DUP8 PUSH2 0x2FB1 JUMP JUMPDEST PUSH2 0x3648 PUSH1 0x60 DUP4 ADD DUP7 PUSH2 0x2FB1 JUMP JUMPDEST PUSH2 0x3655 PUSH1 0x80 DUP4 ADD DUP6 PUSH2 0x35FF JUMP JUMPDEST PUSH2 0x3662 PUSH1 0xA0 DUP4 ADD DUP5 PUSH2 0x35FF JUMP JUMPDEST SWAP8 SWAP7 POP POP POP POP POP POP POP JUMP JUMPDEST PUSH0 PUSH1 0x20 DUP3 DUP5 SUB SLT ISZERO PUSH2 0x3682 JUMPI PUSH2 0x3681 PUSH2 0x2FE2 JUMP JUMPDEST JUMPDEST PUSH0 PUSH2 0x368F DUP5 DUP3 DUP6 ADD PUSH2 0x30F9 JUMP JUMPDEST SWAP2 POP POP SWAP3 SWAP2 POP POP JUMP JUMPDEST PUSH0 PUSH1 0x20 DUP3 ADD SWAP1 POP PUSH2 0x36AB PUSH0 DUP4 ADD DUP5 PUSH2 0x35FF JUMP JUMPDEST SWAP3 SWAP2 POP POP JUMP JUMPDEST PUSH0 PUSH8 0xFFFFFFFFFFFFFFFF DUP3 GT ISZERO PUSH2 0x36CB JUMPI PUSH2 0x36CA PUSH2 0x3163 JUMP JUMPDEST JUMPDEST PUSH1 0x20 DUP3 MUL SWAP1 POP SWAP2 SWAP1 POP JUMP JUMPDEST PUSH0 PUSH0 REVERT JUMPDEST PUSH0 PUSH2 0x36EC PUSH2 0x36E7 DUP5 PUSH2 0x36B1 JUMP JUMPDEST PUSH2 0x31C1 JUMP JUMPDEST SWAP1 POP DUP1 PUSH1 0x20 DUP5 MUL DUP4 ADD DUP6 DUP2 GT ISZERO PUSH2 0x3706 JUMPI PUSH2 0x3705 PUSH2 0x36D6 JUMP JUMPDEST JUMPDEST DUP4 JUMPDEST DUP2 DUP2 LT ISZERO PUSH2 0x372F JUMPI DUP1 PUSH2 0x371B DUP9 DUP3 PUSH2 0x3000 JUMP JUMPDEST DUP5 MSTORE PUSH1 0x20 DUP5 ADD SWAP4 POP POP PUSH1 0x20 DUP2 ADD SWAP1 POP PUSH2 0x3708 JUMP JUMPDEST POP POP POP SWAP4 SWAP3 POP POP POP JUMP JUMPDEST PUSH0 DUP3 PUSH1 0x1F DUP4 ADD SLT PUSH2 0x374D JUMPI PUSH2 0x374C PUSH2 0x314B JUMP JUMPDEST JUMPDEST PUSH1 0x6 PUSH2 0x375A DUP5 DUP3 DUP6 PUSH2 0x36DA JUMP JUMPDEST SWAP2 POP POP SWAP3 SWAP2 POP POP JUMP JUMPDEST PUSH0 PUSH0 PUSH2 0x180 DUP4 DUP6 SUB SLT ISZERO PUSH2 0x377A JUMPI PUSH2 0x3779 PUSH2 0x2FE2 JUMP JUMPDEST JUMPDEST PUSH0 PUSH2 0x3787 DUP6 DUP3 DUP7 ADD PUSH2 0x3739 JUMP JUMPDEST SWAP3 POP POP PUSH1 0xC0 PUSH2 0x3798 DUP6 DUP3 DUP7 ADD PUSH2 0x3739 JUMP JUMPDEST SWAP2 POP POP SWAP3 POP SWAP3 SWAP1 POP JUMP JUMPDEST PUSH0 DUP2 SWAP1 POP SWAP2 SWAP1 POP JUMP JUMPDEST PUSH2 0x37B4 DUP2 PUSH2 0x37A2 JUMP JUMPDEST DUP2 EQ PUSH2 0x37BE JUMPI PUSH0 PUSH0 REVERT JUMPDEST POP JUMP JUMPDEST PUSH0 DUP2 CALLDATALOAD SWAP1 POP PUSH2 0x37CF DUP2 PUSH2 0x37AB JUMP JUMPDEST SWAP3 SWAP2 POP POP JUMP JUMPDEST PUSH0 PUSH1 0xFF DUP3 AND SWAP1 POP SWAP2 SWAP1 POP JUMP JUMPDEST PUSH2 0x37EA DUP2 PUSH2 0x37D5 JUMP JUMPDEST DUP2 EQ PUSH2 0x37F4 JUMPI PUSH0 PUSH0 REVERT JUMPDEST POP JUMP JUMPDEST PUSH0 DUP2 CALLDATALOAD SWAP1 POP PUSH2 0x3805 DUP2 PUSH2 0x37E1 JUMP JUMPDEST SWAP3 SWAP2 POP POP JUMP JUMPDEST PUSH0 PUSH0 PUSH0 PUSH0 PUSH0 PUSH0 PUSH0 PUSH0 PUSH0 PUSH2 0x120 DUP11 DUP13 SUB SLT ISZERO PUSH2 0x3829 JUMPI PUSH2 0x3828 PUSH2 0x2FE2 JUMP JUMPDEST JUMPDEST PUSH0 PUSH2 0x3836 DUP13 DUP3 DUP14 ADD PUSH2 0x3000 JUMP JUMPDEST SWAP10 POP POP PUSH1 0x20 PUSH2 0x3847 DUP13 DUP3 DUP14 ADD PUSH2 0x3000 JUMP JUMPDEST SWAP9 POP POP PUSH1 0x40 DUP11 ADD CALLDATALOAD PUSH8 0xFFFFFFFFFFFFFFFF DUP2 GT ISZERO PUSH2 0x3868 JUMPI PUSH2 0x3867 PUSH2 0x2FE6 JUMP JUMPDEST JUMPDEST PUSH2 0x3874 DUP13 DUP3 DUP14 ADD PUSH2 0x325A JUMP JUMPDEST SWAP8 POP POP PUSH1 0x60 PUSH2 0x3885 DUP13 DUP3 DUP14 ADD PUSH2 0x3000 JUMP JUMPDEST SWAP7 POP POP PUSH1 0x80 PUSH2 0x3896 DUP13 DUP3 DUP14 ADD PUSH2 0x3000 JUMP JUMPDEST SWAP6 POP POP PUSH1 0xA0 PUSH2 0x38A7 DUP13 DUP3 DUP14 ADD PUSH2 0x37C1 JUMP JUMPDEST SWAP5 POP POP PUSH1 0xC0 PUSH2 0x38B8 DUP13 DUP3 DUP14 ADD PUSH2 0x37C1 JUMP JUMPDEST SWAP4 POP POP PUSH1 0xE0 PUSH2 0x38C9 DUP13 DUP3 DUP14 ADD PUSH2 0x37C1 JUMP JUMPDEST SWAP3 POP POP PUSH2 0x100 PUSH2 0x38DB DUP13 DUP3 DUP14 ADD PUSH2 0x37F7 JUMP JUMPDEST SWAP2 POP POP SWAP3 SWAP6 SWAP9 POP SWAP3 SWAP6 SWAP9 POP SWAP3 SWAP6 SWAP9 JUMP JUMPDEST PUSH0 DUP3 DUP3 MSTORE PUSH1 0x20 DUP3 ADD SWAP1 POP SWAP3 SWAP2 POP POP JUMP JUMPDEST PUSH32 0x496E76616C696420726172697479204944000000000000000000000000000000 PUSH0 DUP3 ADD MSTORE POP JUMP JUMPDEST PUSH0 PUSH2 0x392F PUSH1 0x11 DUP4 PUSH2 0x38EB JUMP JUMPDEST SWAP2 POP PUSH2 0x393A DUP3 PUSH2 0x38FB JUMP JUMPDEST PUSH1 0x20 DUP3 ADD SWAP1 POP SWAP2 SWAP1 POP JUMP JUMPDEST PUSH0 PUSH1 0x20 DUP3 ADD SWAP1 POP DUP2 DUP2 SUB PUSH0 DUP4 ADD MSTORE PUSH2 0x395C DUP2 PUSH2 0x3923 JUMP JUMPDEST SWAP1 POP SWAP2 SWAP1 POP JUMP JUMPDEST PUSH32 0x4E487B7100000000000000000000000000000000000000000000000000000000 PUSH0 MSTORE PUSH1 0x32 PUSH1 0x4 MSTORE PUSH1 0x24 PUSH0 REVERT JUMPDEST PUSH32 0x4E487B7100000000000000000000000000000000000000000000000000000000 PUSH0 MSTORE PUSH1 0x11 PUSH1 0x4 MSTORE PUSH1 0x24 PUSH0 REVERT JUMPDEST PUSH0 PUSH2 0x39C7 DUP3 PUSH2 0x2FA8 JUMP JUMPDEST SWAP2 POP PUSH2 0x39D2 DUP4 PUSH2 0x2FA8 JUMP JUMPDEST SWAP3 POP DUP3 DUP3 SUB SWAP1 POP DUP2 DUP2 GT ISZERO PUSH2 0x39EA JUMPI PUSH2 0x39E9 PUSH2 0x3990 JUMP JUMPDEST JUMPDEST SWAP3 SWAP2 POP POP JUMP JUMPDEST PUSH32 0x4E6F74206120626F617264206D656D6265720000000000000000000000000000 PUSH0 DUP3 ADD MSTORE POP JUMP JUMPDEST PUSH0 PUSH2 0x3A24 PUSH1 0x12 DUP4 PUSH2 0x38EB JUMP JUMPDEST SWAP2 POP PUSH2 0x3A2F DUP3 PUSH2 0x39F0 JUMP JUMPDEST PUSH1 0x20 DUP3 ADD SWAP1 POP SWAP2 SWAP1 POP JUMP JUMPDEST PUSH0 PUSH1 0x20 DUP3 ADD SWAP1 POP DUP2 DUP2 SUB PUSH0 DUP4 ADD MSTORE PUSH2 0x3A51 DUP2 PUSH2 0x3A18 JUMP JUMPDEST SWAP1 POP SWAP2 SWAP1 POP JUMP JUMPDEST PUSH32 0x416D6F756E74206D7573742062652067726561746572207468616E207A65726F PUSH0 DUP3 ADD MSTORE POP JUMP JUMPDEST PUSH0 PUSH2 0x3A8C PUSH1 0x20 DUP4 PUSH2 0x38EB JUMP JUMPDEST SWAP2 POP PUSH2 0x3A97 DUP3 PUSH2 0x3A58 JUMP JUMPDEST PUSH1 0x20 DUP3 ADD SWAP1 POP SWAP2 SWAP1 POP JUMP JUMPDEST PUSH0 PUSH1 0x20 DUP3 ADD SWAP1 POP DUP2 DUP2 SUB PUSH0 DUP4 ADD MSTORE PUSH2 0x3AB9 DUP2 PUSH2 0x3A80 JUMP JUMPDEST SWAP1 POP SWAP2 SWAP1 POP JUMP JUMPDEST PUSH32 0x496E76616C696420726563697069656E74000000000000000000000000000000 PUSH0 DUP3 ADD MSTORE POP JUMP JUMPDEST PUSH0 PUSH2 0x3AF4 PUSH1 0x11 DUP4 PUSH2 0x38EB JUMP JUMPDEST SWAP2 POP PUSH2 0x3AFF DUP3 PUSH2 0x3AC0 JUMP JUMPDEST PUSH1 0x20 DUP3 ADD SWAP1 POP SWAP2 SWAP1 POP JUMP JUMPDEST PUSH0 PUSH1 0x20 DUP3 ADD SWAP1 POP DUP2 DUP2 SUB PUSH0 DUP4 ADD MSTORE PUSH2 0x3B21 DUP2 PUSH2 0x3AE8 JUMP JUMPDEST SWAP1 POP SWAP2 SWAP1 POP JUMP JUMPDEST PUSH0 DUP2 MLOAD SWAP1 POP PUSH2 0x3B36 DUP2 PUSH2 0x2FEA JUMP JUMPDEST SWAP3 SWAP2 POP POP JUMP JUMPDEST PUSH0 PUSH1 0x20 DUP3 DUP5 SUB SLT ISZERO PUSH2 0x3B51 JUMPI PUSH2 0x3B50 PUSH2 0x2FE2 JUMP JUMPDEST JUMPDEST PUSH0 PUSH2 0x3B5E DUP5 DUP3 DUP6 ADD PUSH2 0x3B28 JUMP JUMPDEST SWAP2 POP POP SWAP3 SWAP2 POP POP JUMP JUMPDEST PUSH32 0x496E73756666696369656E742062616C616E6365000000000000000000000000 PUSH0 DUP3 ADD MSTORE POP JUMP JUMPDEST PUSH0 PUSH2 0x3B9B PUSH1 0x14 DUP4 PUSH2 0x38EB JUMP JUMPDEST SWAP2 POP PUSH2 0x3BA6 DUP3 PUSH2 0x3B67 JUMP JUMPDEST PUSH1 0x20 DUP3 ADD SWAP1 POP SWAP2 SWAP1 POP JUMP JUMPDEST PUSH0 PUSH1 0x20 DUP3 ADD SWAP1 POP DUP2 DUP2 SUB PUSH0 DUP4 ADD MSTORE PUSH2 0x3BC8 DUP2 PUSH2 0x3B8F JUMP JUMPDEST SWAP1 POP SWAP2 SWAP1 POP JUMP JUMPDEST PUSH0 PUSH2 0x3BD9 DUP3 PUSH2 0x2FA8 JUMP JUMPDEST SWAP2 POP PUSH32 0xFFFFFFFFFFFFFFFFFFFFFFFFFFFFFFFFFFFFFFFFFFFFFFFFFFFFFFFFFFFFFFFF DUP3 SUB PUSH2 0x3C0B JUMPI PUSH2 0x3C0A PUSH2 0x3990 JUMP JUMPDEST JUMPDEST PUSH1 0x1 DUP3 ADD SWAP1 POP SWAP2 SWAP1 POP JUMP JUMPDEST PUSH0 PUSH1 0x40 DUP3 ADD SWAP1 POP PUSH2 0x3C29 PUSH0 DUP4 ADD DUP6 PUSH2 0x2FB1 JUMP JUMPDEST PUSH2 0x3C36 PUSH1 0x20 DUP4 ADD DUP5 PUSH2 0x35CC JUMP JUMPDEST SWAP4 SWAP3 POP POP POP JUMP JUMPDEST PUSH32 0x416C726561647920657865637574656400000000000000000000000000000000 PUSH0 DUP3 ADD MSTORE POP JUMP JUMPDEST PUSH0 PUSH2 0x3C71 PUSH1 0x10 DUP4 PUSH2 0x38EB JUMP JUMPDEST SWAP2 POP PUSH2 0x3C7C DUP3 PUSH2 0x3C3D JUMP JUMPDEST PUSH1 0x20 DUP3 ADD SWAP1 POP SWAP2 SWAP1 POP JUMP JUMPDEST PUSH0 PUSH1 0x20 DUP3 ADD SWAP1 POP DUP2 DUP2 SUB PUSH0 DUP4 ADD MSTORE PUSH2 0x3C9E DUP2 PUSH2 0x3C65 JUMP JUMPDEST SWAP1 POP SWAP2 SWAP1 POP JUMP JUMPDEST PUSH32 0x5265717565737420626C6F636B65640000000000000000000000000000000000 PUSH0 DUP3 ADD MSTORE POP JUMP JUMPDEST PUSH0 PUSH2 0x3CD9 PUSH1 0xF DUP4 PUSH2 0x38EB JUMP JUMPDEST SWAP2 POP PUSH2 0x3CE4 DUP3 PUSH2 0x3CA5 JUMP JUMPDEST PUSH1 0x20 DUP3 ADD SWAP1 POP SWAP2 SWAP1 POP JUMP JUMPDEST PUSH0 PUSH1 0x20 DUP3 ADD SWAP1 POP DUP2 DUP2 SUB PUSH0 DUP4 ADD MSTORE PUSH2 0x3D06 DUP2 PUSH2 0x3CCD JUMP JUMPDEST SWAP1 POP SWAP2 SWAP1 POP JUMP JUMPDEST PUSH0 PUSH2 0x3D17 DUP3 PUSH2 0x2FA8 JUMP JUMPDEST SWAP2 POP PUSH2 0x3D22 DUP4 PUSH2 0x2FA8 JUMP JUMPDEST SWAP3 POP DUP3 DUP3 ADD SWAP1 POP DUP1 DUP3 GT ISZERO PUSH2 0x3D3A JUMPI PUSH2 0x3D39 PUSH2 0x3990 JUMP JUMPDEST JUMPDEST SWAP3 SWAP2 POP POP JUMP JUMPDEST PUSH32 0x54696D656F7574206E6F74207265616368656400000000000000000000000000 PUSH0 DUP3 ADD MSTORE POP JUMP JUMPDEST PUSH0 PUSH2 0x3D74 PUSH1 0x13 DUP4 PUSH2 0x38EB JUMP JUMPDEST SWAP2 POP PUSH2 0x3D7F DUP3 PUSH2 0x3D40 JUMP JUMPDEST PUSH1 0x20 DUP3 ADD SWAP1 POP SWAP2 SWAP1 POP JUMP JUMPDEST PUSH0 PUSH1 0x20 DUP3 ADD SWAP1 POP DUP2 DUP2 SUB PUSH0 DUP4 ADD MSTORE PUSH2 0x3DA1 DUP2 PUSH2 0x3D68 JUMP JUMPDEST SWAP1 POP SWAP2 SWAP1 POP JUMP JUMPDEST PUSH32 0x456D70747920636F646500000000000000000000000000000000000000000000 PUSH0 DUP3 ADD MSTORE POP JUMP JUMPDEST PUSH0 PUSH2 0x3DDC PUSH1 0xA DUP4 PUSH2 0x38EB JUMP JUMPDEST SWAP2 POP PUSH2 0x3DE7 DUP3 PUSH2 0x3DA8 JUMP JUMPDEST PUSH1 0x20 DUP3 ADD SWAP1 POP SWAP2 SWAP1 POP JUMP JUMPDEST PUSH0 PUSH1 0x20 DUP3 ADD SWAP1 POP DUP2 DUP2 SUB PUSH0 DUP4 ADD MSTORE PUSH2 0x3E09 DUP2 PUSH2 0x3DD0 JUMP JUMPDEST SWAP1 POP SWAP2 SWAP1 POP JUMP JUMPDEST PUSH32 0x496E76616C696420616D6261737361646F722061646472657373000000000000 PUSH0 DUP3 ADD MSTORE POP JUMP JUMPDEST PUSH0 PUSH2 0x3E44 PUSH1 0x1A DUP4 PUSH2 0x38EB JUMP JUMPDEST SWAP2 POP PUSH2 0x3E4F DUP3 PUSH2 0x3E10 JUMP JUMPDEST PUSH1 0x20 DUP3 ADD SWAP1 POP SWAP2 SWAP1 POP JUMP JUMPDEST PUSH0 PUSH1 0x20 DUP3 ADD SWAP1 POP DUP2 DUP2 SUB PUSH0 DUP4 ADD MSTORE PUSH2 0x3E71 DUP2 PUSH2 0x3E38 JUMP JUMPDEST SWAP1 POP SWAP2 SWAP1 POP JUMP JUMPDEST PUSH32 0x446973636F756E7420746F6F2068696768000000000000000000000000000000 PUSH0 DUP3 ADD MSTORE POP JUMP JUMPDEST PUSH0 PUSH2 0x3EAC PUSH1 0x11 DUP4 PUSH2 0x38EB JUMP JUMPDEST SWAP2 POP PUSH2 0x3EB7 DUP3 PUSH2 0x3E78 JUMP JUMPDEST PUSH1 0x20 DUP3 ADD SWAP1 POP SWAP2 SWAP1 POP JUMP JUMPDEST PUSH0 PUSH1 0x20 DUP3 ADD SWAP1 POP DUP2 DUP2 SUB PUSH0 DUP4 ADD MSTORE PUSH2 0x3ED9 DUP2 PUSH2 0x3EA0 JUMP JUMPDEST SWAP1 POP SWAP2 SWAP1 POP JUMP JUMPDEST PUSH0 DUP2 MLOAD SWAP1 POP SWAP2 SWAP1 POP JUMP JUMPDEST PUSH0 DUP2 SWAP1 POP SWAP3 SWAP2 POP POP JUMP JUMPDEST DUP3 DUP2 DUP4 MCOPY PUSH0 DUP4 DUP4 ADD MSTORE POP POP POP JUMP JUMPDEST PUSH0 PUSH2 0x3F0C DUP3 PUSH2 0x3EE0 JUMP JUMPDEST PUSH2 0x3F16 DUP2 DUP6 PUSH2 0x3EEA JUMP JUMPDEST SWAP4 POP PUSH2 0x3F26 DUP2 DUP6 PUSH1 0x20 DUP7 ADD PUSH2 0x3EF4 JUMP JUMPDEST DUP1 DUP5 ADD SWAP2 POP POP SWAP3 SWAP2 POP POP JUMP JUMPDEST PUSH0 PUSH2 0x3F3D DUP3 DUP5 PUSH2 0x3F02 JUMP JUMPDEST SWAP2 POP DUP2 SWAP1 POP SWAP3 SWAP2 POP POP JUMP JUMPDEST PUSH32 0x436F646520616C72656164792065786973747300000000000000000000000000 PUSH0 DUP3 ADD MSTORE POP JUMP JUMPDEST PUSH0 PUSH2 0x3F7C PUSH1 0x13 DUP4 PUSH2 0x38EB JUMP JUMPDEST SWAP2 POP PUSH2 0x3F87 DUP3 PUSH2 0x3F48 JUMP JUMPDEST PUSH1 0x20 DUP3 ADD SWAP1 POP SWAP2 SWAP1 POP JUMP JUMPDEST PUSH0 PUSH1 0x20 DUP3 ADD SWAP1 POP DUP2 DUP2 SUB PUSH0 DUP4 ADD MSTORE PUSH2 0x3FA9 DUP2 PUSH2 0x3F70 JUMP JUMPDEST SWAP1 POP SWAP2 SWAP1 POP JUMP JUMPDEST PUSH32 0x4E6F20636F64652070726F766964656400000000000000000000000000000000 PUSH0 DUP3 ADD MSTORE POP JUMP JUMPDEST PUSH0 PUSH2 0x3FE4 PUSH1 0x10 DUP4 PUSH2 0x38EB JUMP JUMPDEST SWAP2 POP PUSH2 0x3FEF DUP3 PUSH2 0x3FB0 JUMP JUMPDEST PUSH1 0x20 DUP3 ADD SWAP1 POP SWAP2 SWAP1 POP JUMP JUMPDEST PUSH0 PUSH1 0x20 DUP3 ADD SWAP1 POP DUP2 DUP2 SUB PUSH0 DUP4 ADD MSTORE PUSH2 0x4011 DUP2 PUSH2 0x3FD8 JUMP JUMPDEST SWAP1 POP SWAP2 SWAP1 POP JUMP JUMPDEST PUSH32 0x496E76616C696420636F64650000000000000000000000000000000000000000 PUSH0 DUP3 ADD MSTORE POP JUMP JUMPDEST PUSH0 PUSH2 0x404C PUSH1 0xC DUP4 PUSH2 0x38EB JUMP JUMPDEST SWAP2 POP PUSH2 0x4057 DUP3 PUSH2 0x4018 JUMP JUMPDEST PUSH1 0x20 DUP3 ADD SWAP1 POP SWAP2 SWAP1 POP JUMP JUMPDEST PUSH0 PUSH1 0x20 DUP3 ADD SWAP1 POP DUP2 DUP2 SUB PUSH0 DUP4 ADD MSTORE PUSH2 0x4079 DUP2 PUSH2 0x4040 JUMP JUMPDEST SWAP1 POP SWAP2 SWAP1 POP JUMP JUMPDEST PUSH32 0x4E6F204E465473206C65667420696E2074686973207068617365000000000000 PUSH0 DUP3 ADD MSTORE POP JUMP JUMPDEST PUSH0 PUSH2 0x40B4 PUSH1 0x1A DUP4 PUSH2 0x38EB JUMP JUMPDEST SWAP2 POP PUSH2 0x40BF DUP3 PUSH2 0x4080 JUMP JUMPDEST PUSH1 0x20 DUP3 ADD SWAP1 POP SWAP2 SWAP1 POP JUMP JUMPDEST PUSH0 PUSH1 0x20 DUP3 ADD SWAP1 POP DUP2 DUP2 SUB PUSH0 DUP4 ADD MSTORE PUSH2 0x40E1 DUP2 PUSH2 0x40A8 JUMP JUMPDEST SWAP1 POP SWAP2 SWAP1 POP JUMP JUMPDEST PUSH32 0x457863656564732070686173652072656D61696E696E6720737570706C790000 PUSH0 DUP3 ADD MSTORE POP JUMP JUMPDEST PUSH0 PUSH2 0x411C PUSH1 0x1E DUP4 PUSH2 0x38EB JUMP JUMPDEST SWAP2 POP PUSH2 0x4127 DUP3 PUSH2 0x40E8 JUMP JUMPDEST PUSH1 0x20 DUP3 ADD SWAP1 POP SWAP2 SWAP1 POP JUMP JUMPDEST PUSH0 PUSH1 0x20 DUP3 ADD SWAP1 POP DUP2 DUP2 SUB PUSH0 DUP4 ADD MSTORE PUSH2 0x4149 DUP2 PUSH2 0x4110 JUMP JUMPDEST SWAP1 POP SWAP2 SWAP1 POP JUMP JUMPDEST PUSH0 PUSH2 0x415A DUP3 PUSH2 0x2FA8 JUMP JUMPDEST SWAP2 POP PUSH2 0x4165 DUP4 PUSH2 0x2FA8 JUMP JUMPDEST SWAP3 POP DUP3 DUP3 MUL PUSH2 0x4173 DUP2 PUSH2 0x2FA8 JUMP JUMPDEST SWAP2 POP DUP3 DUP3 DIV DUP5 EQ DUP4 ISZERO OR PUSH2 0x418A JUMPI PUSH2 0x4189 PUSH2 0x3990 JUMP JUMPDEST JUMPDEST POP SWAP3 SWAP2 POP POP JUMP JUMPDEST PUSH32 0x5468697320636F6465206973206F6E6C7920666F722073656C662D7573616765 PUSH0 DUP3 ADD MSTORE POP JUMP JUMPDEST PUSH0 PUSH2 0x41C5 PUSH1 0x20 DUP4 PUSH2 0x38EB JUMP JUMPDEST SWAP2 POP PUSH2 0x41D0 DUP3 PUSH2 0x4191 JUMP JUMPDEST PUSH1 0x20 DUP3 ADD SWAP1 POP SWAP2 SWAP1 POP JUMP JUMPDEST PUSH0 PUSH1 0x20 DUP3 ADD SWAP1 POP DUP2 DUP2 SUB PUSH0 DUP4 ADD MSTORE PUSH2 0x41F2 DUP2 PUSH2 0x41B9 JUMP JUMPDEST SWAP1 POP SWAP2 SWAP1 POP JUMP JUMPDEST PUSH32 0x4E487B7100000000000000000000000000000000000000000000000000000000 PUSH0 MSTORE PUSH1 0x12 PUSH1 0x4 MSTORE PUSH1 0x24 PUSH0 REVERT JUMPDEST PUSH0 PUSH2 0x4230 DUP3 PUSH2 0x2FA8 JUMP JUMPDEST SWAP2 POP PUSH2 0x423B DUP4 PUSH2 0x2FA8 JUMP JUMPDEST SWAP3 POP DUP3 PUSH2 0x424B JUMPI PUSH2 0x424A PUSH2 0x41F9 JUMP JUMPDEST JUMPDEST DUP3 DUP3 DIV SWAP1 POP SWAP3 SWAP2 POP POP JUMP JUMPDEST PUSH32 0x4E6F206163746976652070686173650000000000000000000000000000000000 PUSH0 DUP3 ADD MSTORE POP JUMP JUMPDEST PUSH0 PUSH2 0x428A PUSH1 0xF DUP4 PUSH2 0x38EB JUMP JUMPDEST SWAP2 POP PUSH2 0x4295 DUP3 PUSH2 0x4256 JUMP JUMPDEST PUSH1 0x20 DUP3 ADD SWAP1 POP SWAP2 SWAP1 POP JUMP JUMPDEST PUSH0 PUSH1 0x20 DUP3 ADD SWAP1 POP DUP2 DUP2 SUB PUSH0 DUP4 ADD MSTORE PUSH2 0x42B7 DUP2 PUSH2 0x427E JUMP JUMPDEST SWAP1 POP SWAP2 SWAP1 POP JUMP JUMPDEST PUSH32 0x4E657720737570706C79206C657373207468616E20616C7265616479206D696E PUSH0 DUP3 ADD MSTORE PUSH32 0x7465640000000000000000000000000000000000000000000000000000000000 PUSH1 0x20 DUP3 ADD MSTORE POP JUMP JUMPDEST PUSH0 PUSH2 0x4318 PUSH1 0x23 DUP4 PUSH2 0x38EB JUMP JUMPDEST SWAP2 POP PUSH2 0x4323 DUP3 PUSH2 0x42BE JUMP JUMPDEST PUSH1 0x40 DUP3 ADD SWAP1 POP SWAP2 SWAP1 POP JUMP JUMPDEST PUSH0 PUSH1 0x20 DUP3 ADD SWAP1 POP DUP2 DUP2 SUB PUSH0 DUP4 ADD MSTORE PUSH2 0x4345 DUP2 PUSH2 0x430C JUMP JUMPDEST SWAP1 POP SWAP2 SWAP1 POP JUMP JUMPDEST PUSH32 0x4E657720737570706C7920657863656564732072656D61696E696E67204E4654 PUSH0 DUP3 ADD MSTORE PUSH32 0x20737570706C7900000000000000000000000000000000000000000000000000 PUSH1 0x20 DUP3 ADD MSTORE POP JUMP JUMPDEST PUSH0 PUSH2 0x43A6 PUSH1 0x27 DUP4 PUSH2 0x38EB JUMP JUMPDEST SWAP2 POP PUSH2 0x43B1 DUP3 PUSH2 0x434C JUMP JUMPDEST PUSH1 0x40 DUP3 ADD SWAP1 POP SWAP2 SWAP1 POP JUMP JUMPDEST PUSH0 PUSH1 0x20 DUP3 ADD SWAP1 POP DUP2 DUP2 SUB PUSH0 DUP4 ADD MSTORE PUSH2 0x43D3 DUP2 PUSH2 0x439A JUMP JUMPDEST SWAP1 POP SWAP2 SWAP1 POP JUMP JUMPDEST PUSH0 PUSH2 0x43EC PUSH2 0x43E7 DUP5 PUSH2 0x31DB JUMP JUMPDEST PUSH2 0x31C1 JUMP JUMPDEST SWAP1 POP DUP3 DUP2 MSTORE PUSH1 0x20 DUP2 ADD DUP5 DUP5 DUP5 ADD GT ISZERO PUSH2 0x4408 JUMPI PUSH2 0x4407 PUSH2 0x314F JUMP JUMPDEST JUMPDEST PUSH2 0x4413 DUP5 DUP3 DUP6 PUSH2 0x3EF4 JUMP JUMPDEST POP SWAP4 SWAP3 POP POP POP JUMP JUMPDEST PUSH0 DUP3 PUSH1 0x1F DUP4 ADD SLT PUSH2 0x442F JUMPI PUSH2 0x442E PUSH2 0x314B JUMP JUMPDEST JUMPDEST DUP2 MLOAD PUSH2 0x443F DUP5 DUP3 PUSH1 0x20 DUP7 ADD PUSH2 0x43DA JUMP JUMPDEST SWAP2 POP POP SWAP3 SWAP2 POP POP JUMP JUMPDEST PUSH0 PUSH0 PUSH0 PUSH0 PUSH0 PUSH1 0xA0 DUP7 DUP9 SUB SLT ISZERO PUSH2 0x4461 JUMPI PUSH2 0x4460 PUSH2 0x2FE2 JUMP JUMPDEST JUMPDEST PUSH0 DUP7 ADD MLOAD PUSH8 0xFFFFFFFFFFFFFFFF DUP2 GT ISZERO PUSH2 0x447E JUMPI PUSH2 0x447D PUSH2 0x2FE6 JUMP JUMPDEST JUMPDEST PUSH2 0x448A DUP9 DUP3 DUP10 ADD PUSH2 0x441B JUMP JUMPDEST SWAP6 POP POP PUSH1 0x20 DUP7 ADD MLOAD PUSH8 0xFFFFFFFFFFFFFFFF DUP2 GT ISZERO PUSH2 0x44AB JUMPI PUSH2 0x44AA PUSH2 0x2FE6 JUMP JUMPDEST JUMPDEST PUSH2 0x44B7 DUP9 DUP3 DUP10 ADD PUSH2 0x441B JUMP JUMPDEST SWAP5 POP POP PUSH1 0x40 PUSH2 0x44C8 DUP9 DUP3 DUP10 ADD PUSH2 0x3B28 JUMP JUMPDEST SWAP4 POP POP PUSH1 0x60 PUSH2 0x44D9 DUP9 DUP3 DUP10 ADD PUSH2 0x3B28 JUMP JUMPDEST SWAP3 POP POP PUSH1 0x80 PUSH2 0x44EA DUP9 DUP3 DUP10 ADD PUSH2 0x3B28 JUMP JUMPDEST SWAP2 POP POP SWAP3 SWAP6 POP SWAP3 SWAP6 SWAP1 SWAP4 POP JUMP JUMPDEST PUSH32 0x416C726561647920617070726F76656400000000000000000000000000000000 PUSH0 DUP3 ADD MSTORE POP JUMP JUMPDEST PUSH0 PUSH2 0x452B PUSH1 0x10 DUP4 PUSH2 0x38EB JUMP JUMPDEST SWAP2 POP PUSH2 0x4536 DUP3 PUSH2 0x44F7 JUMP JUMPDEST PUSH1 0x20 DUP3 ADD SWAP1 POP SWAP2 SWAP1 POP JUMP JUMPDEST PUSH0 PUSH1 0x20 DUP3 ADD SWAP1 POP DUP2 DUP2 SUB PUSH0 DUP4 ADD MSTORE PUSH2 0x4558 DUP2 PUSH2 0x451F JUMP JUMPDEST SWAP1 POP SWAP2 SWAP1 POP JUMP JUMPDEST PUSH0 PUSH1 0x60 DUP3 ADD SWAP1 POP PUSH2 0x4572 PUSH0 DUP4 ADD DUP7 PUSH2 0x35CC JUMP JUMPDEST PUSH2 0x457F PUSH1 0x20 DUP4 ADD DUP6 PUSH2 0x2FB1 JUMP JUMPDEST PUSH2 0x458C PUSH1 0x40 DUP4 ADD DUP5 PUSH2 0x2FB1 JUMP JUMPDEST SWAP5 SWAP4 POP POP POP POP JUMP JUMPDEST PUSH0 PUSH1 0x60 DUP3 ADD SWAP1 POP PUSH2 0x45A7 PUSH0 DUP4 ADD DUP7 PUSH2 0x35CC JUMP JUMPDEST PUSH2 0x45B4 PUSH1 0x20 DUP4 ADD DUP6 PUSH2 0x35CC JUMP JUMPDEST PUSH2 0x45C1 PUSH1 0x40 DUP4 ADD DUP5 PUSH2 0x2FB1 JUMP JUMPDEST SWAP5 SWAP4 POP POP POP POP JUMP JUMPDEST PUSH2 0x45D2 DUP2 PUSH2 0x35F4 JUMP JUMPDEST DUP2 EQ PUSH2 0x45DC JUMPI PUSH0 PUSH0 REVERT JUMPDEST POP JUMP JUMPDEST PUSH0 DUP2 MLOAD SWAP1 POP PUSH2 0x45ED DUP2 PUSH2 0x45C9 JUMP JUMPDEST SWAP3 SWAP2 POP POP JUMP JUMPDEST PUSH0 PUSH1 0x20 DUP3 DUP5 SUB SLT ISZERO PUSH2 0x4608 JUMPI PUSH2 0x4607 PUSH2 0x2FE2 JUMP JUMPDEST JUMPDEST PUSH0 PUSH2 0x4615 DUP5 DUP3 DUP6 ADD PUSH2 0x45DF JUMP JUMPDEST SWAP2 POP POP SWAP3 SWAP2 POP POP JUMP JUMPDEST PUSH0 PUSH1 0x40 DUP3 ADD SWAP1 POP PUSH2 0x4631 PUSH0 DUP4 ADD DUP6 PUSH2 0x35CC JUMP JUMPDEST PUSH2 0x463E PUSH1 0x20 DUP4 ADD DUP5 PUSH2 0x2FB1 JUMP JUMPDEST SWAP4 SWAP3 POP POP POP JUMP JUMPDEST PUSH0 PUSH1 0x40 DUP3 ADD SWAP1 POP PUSH2 0x4658 PUSH0 DUP4 ADD DUP6 PUSH2 0x2FB1 JUMP JUMPDEST PUSH2 0x4665 PUSH1 0x20 DUP4 ADD DUP5 PUSH2 0x2FB1 JUMP JUMPDEST SWAP4 SWAP3 POP POP POP JUMP JUMPDEST PUSH32 0x416C726561647920626C6F636B65640000000000000000000000000000000000 PUSH0 DUP3 ADD MSTORE POP JUMP JUMPDEST PUSH0 PUSH2 0x46A0 PUSH1 0xF DUP4 PUSH2 0x38EB JUMP JUMPDEST SWAP2 POP PUSH2 0x46AB DUP3 PUSH2 0x466C JUMP JUMPDEST PUSH1 0x20 DUP3 ADD SWAP1 POP SWAP2 SWAP1 POP JUMP JUMPDEST PUSH0 PUSH1 0x20 DUP3 ADD SWAP1 POP DUP2 DUP2 SUB PUSH0 DUP4 ADD MSTORE PUSH2 0x46CD DUP2 PUSH2 0x4694 JUMP JUMPDEST SWAP1 POP SWAP2 SWAP1 POP JUMP JUMPDEST PUSH32 0x506861736520737570706C7920657863656564732072656D61696E696E67204E PUSH0 DUP3 ADD MSTORE PUSH32 0x465420737570706C790000000000000000000000000000000000000000000000 PUSH1 0x20 DUP3 ADD MSTORE POP JUMP JUMPDEST PUSH0 PUSH2 0x472E PUSH1 0x29 DUP4 PUSH2 0x38EB JUMP JUMPDEST SWAP2 POP PUSH2 0x4739 DUP3 PUSH2 0x46D4 JUMP JUMPDEST PUSH1 0x40 DUP3 ADD SWAP1 POP SWAP2 SWAP1 POP JUMP JUMPDEST PUSH0 PUSH1 0x20 DUP3 ADD SWAP1 POP DUP2 DUP2 SUB PUSH0 DUP4 ADD MSTORE PUSH2 0x475B DUP2 PUSH2 0x4722 JUMP JUMPDEST SWAP1 POP SWAP2 SWAP1 POP JUMP JUMPDEST PUSH32 0x50726576696F7573207068617365206E6F742066756C6C79206D696E74656400 PUSH0 DUP3 ADD MSTORE POP JUMP JUMPDEST PUSH0 PUSH2 0x4796 PUSH1 0x1F DUP4 PUSH2 0x38EB JUMP JUMPDEST SWAP2 POP PUSH2 0x47A1 DUP3 PUSH2 0x4762 JUMP JUMPDEST PUSH1 0x20 DUP3 ADD SWAP1 POP SWAP2 SWAP1 POP JUMP JUMPDEST PUSH0 PUSH1 0x20 DUP3 ADD SWAP1 POP DUP2 DUP2 SUB PUSH0 DUP4 ADD MSTORE PUSH2 0x47C3 DUP2 PUSH2 0x478A JUMP JUMPDEST SWAP1 POP SWAP2 SWAP1 POP JUMP JUMPDEST PUSH32 0x4E6577207072696365206D757374206265206869676865720000000000000000 PUSH0 DUP3 ADD MSTORE POP JUMP JUMPDEST PUSH0 PUSH2 0x47FE PUSH1 0x18 DUP4 PUSH2 0x38EB JUMP JUMPDEST SWAP2 POP PUSH2 0x4809 DUP3 PUSH2 0x47CA JUMP JUMPDEST PUSH1 0x20 DUP3 ADD SWAP1 POP SWAP2 SWAP1 POP JUMP JUMPDEST PUSH0 PUSH1 0x20 DUP3 ADD SWAP1 POP DUP2 DUP2 SUB PUSH0 DUP4 ADD MSTORE PUSH2 0x482B DUP2 PUSH2 0x47F2 JUMP JUMPDEST SWAP1 POP SWAP2 SWAP1 POP JUMP JUMPDEST PUSH2 0x483B DUP2 PUSH2 0x37A2 JUMP JUMPDEST DUP3 MSTORE POP POP JUMP JUMPDEST PUSH2 0x484A DUP2 PUSH2 0x37D5 JUMP JUMPDEST DUP3 MSTORE POP POP JUMP JUMPDEST PUSH0 PUSH2 0x120 DUP3 ADD SWAP1 POP PUSH2 0x4864 PUSH0 DUP4 ADD DUP13 PUSH2 0x35CC JUMP JUMPDEST PUSH2 0x4871 PUSH1 0x20 DUP4 ADD DUP12 PUSH2 0x35CC JUMP JUMPDEST PUSH2 0x487E PUSH1 0x40 DUP4 ADD DUP11 PUSH2 0x2FB1 JUMP JUMPDEST PUSH2 0x488B PUSH1 0x60 DUP4 ADD DUP10 PUSH2 0x2FB1 JUMP JUMPDEST PUSH2 0x4898 PUSH1 0x80 DUP4 ADD DUP9 PUSH2 0x2FB1 JUMP JUMPDEST PUSH2 0x48A5 PUSH1 0xA0 DUP4 ADD DUP8 PUSH2 0x4832 JUMP JUMPDEST PUSH2 0x48B2 PUSH1 0xC0 DUP4 ADD DUP7 PUSH2 0x4841 JUMP JUMPDEST PUSH2 0x48BF PUSH1 0xE0 DUP4 ADD DUP6 PUSH2 0x4832 JUMP JUMPDEST PUSH2 0x48CD PUSH2 0x100 DUP4 ADD DUP5 PUSH2 0x4832 JUMP JUMPDEST SWAP11 SWAP10 POP POP POP POP POP POP POP POP POP POP JUMP INVALID LOG2 PUSH5 0x6970667358 0x22 SLT KECCAK256 NOT DUP6 MSTORE8 TIMESTAMP CHAINID 0xDD CODECOPY SUB 0xE ADDMOD 0xC4 SHL 0x26 BLOCKHASH 0xB6 AND 0xB9 EXTCALL GT PREVRANDAO PC BLOBHASH 0xB4 PUSH28 0xBDEB74AFAE1B6E2C64736F6C634300081E0033000000000000000000 "
		},
		"gasEstimates": {
			"creation": {
				"codeDepositCost": "3741000",
				"executionCost": "infinite",
				"totalCost": "infinite"
			},
			"external": {
				"WITHDRAWAL_TIMEOUT()": "392",
				"approveWithdrawal(uint256)": "infinite",
				"blockWithdrawal(uint256)": "33006",
				"boardMemberCount()": "2493",
				"boardMembers(address)": "2922",
				"createAmbassadorCode(string,address,address,uint256)": "infinite",
				"currentPhase()": "2472",
				"executeWithdrawal(uint256)": "infinite",
				"getAmbassador(string)": "infinite",
				"getAvailableNFTs(uint256)": "infinite",
				"getContractBalance()": "infinite",
				"getPaymentDetails(uint256,uint256,string)": "infinite",
				"getPhaseMinted(uint256)": "infinite",
				"getPhasePrice(uint256)": "infinite",
				"getPhaseSupply(uint256)": "infinite",
				"getRemainingSupply(uint256)": "infinite",
				"mint(uint256,uint256,string)": "infinite",
				"mintWithAuth(uint256,uint256,string,uint256,uint256,bytes32,bytes32,bytes32,uint8)": "infinite",
				"nfts()": "infinite",
				"owner()": "2582",
				"renounceOwnership()": "infinite",
				"requestWithdrawal(uint256,address)": "infinite",
				"startPhase(uint256[6],uint256[6])": "infinite",
				"transferOwnership(address)": "infinite",
				"updatePhaseSupply(uint256,uint256)": "infinite",
				"usdc()": "infinite",
				"withdrawalRequestCounter()": "2514",
				"withdrawalRequests(uint256)": "infinite"
			},
			"internal": {
				"_executeWithdrawal(uint256)": "infinite",
				"addBoardMember(address)": "infinite"
			}
		},
		"methodIdentifiers": {
			"WITHDRAWAL_TIMEOUT()": "bc4456eb",
			"approveWithdrawal(uint256)": "9eceddea",
			"blockWithdrawal(uint256)": "dfdc0de2",
			"boardMemberCount()": "24079158",
			"boardMembers(address)": "bff13785",
			"createAmbassadorCode(string,address,address,uint256)": "359f82a3",
			"currentPhase()": "055ad42e",
			"executeWithdrawal(uint256)": "24f13a76",
			"getAmbassador(string)": "6353a400",
			"getAvailableNFTs(uint256)": "1558bed3",
			"getContractBalance()": "6f9fb98a",
			"getPaymentDetails(uint256,uint256,string)": "7205249e",
			"getPhaseMinted(uint256)": "c5cac202",
			"getPhasePrice(uint256)": "cae359b9",
			"getPhaseSupply(uint256)": "5b65da64",
			"getRemainingSupply(uint256)": "8c858a14",
			"mint(uint256,uint256,string)": "c6e64e53",
			"mintWithAuth(uint256,uint256,string,uint256,uint256,bytes32,bytes32,bytes32,uint8)": "ec753515",
			"nfts()": "1714f2e0",
			"owner()": "8da5cb5b",
			"renounceOwnership()": "715018a6",
			"requestWithdrawal(uint256,address)": "21739779",
			"startPhase(uint256[6],uint256[6])": "e2b0608d",
			"transferOwnership(address)": "f2fde38b",
			"updatePhaseSupply(uint256,uint256)": "72403a79",
			"usdc()": "3e413bee",
			"withdrawalRequestCounter()": "d88150ea",
			"withdrawalRequests(uint256)": "937b2581"
		}
	},
	"abi": [
		{
			"inputs": [
				{
					"internalType": "address",
					"name": "_nfts",
					"type": "address"
				},
				{
					"internalType": "address",
					"name": "_usdc",
					"type": "address"
				},
				{
					"internalType": "address[]",
					"name": "_members",
					"type": "address[]"
				}
			],
			"stateMutability": "nonpayable",
			"type": "constructor"
		},
		{
			"inputs": [
				{
					"internalType": "address",
					"name": "owner",
					"type": "address"
				}
			],
			"name": "OwnableInvalidOwner",
			"type": "error"
		},
		{
			"inputs": [
				{
					"internalType": "address",
					"name": "account",
					"type": "address"
				}
			],
			"name": "OwnableUnauthorizedAccount",
			"type": "error"
		},
		{
			"inputs": [],
			"name": "ReentrancyGuardReentrantCall",
			"type": "error"
		},
		{
			"anonymous": false,
			"inputs": [
				{
					"indexed": true,
					"internalType": "address",
					"name": "ambassador",
					"type": "address"
				},
				{
					"indexed": false,
					"internalType": "uint256",
					"name": "amount",
					"type": "uint256"
				}
			],
			"name": "AmbassadorRewardPaid",
			"type": "event"
		},
		{
			"anonymous": false,
			"inputs": [
				{
					"indexed": true,
					"internalType": "address",
					"name": "member",
					"type": "address"
				}
			],
			"name": "BoardMemberAdded",
			"type": "event"
		},
		{
			"anonymous": false,
			"inputs": [
				{
					"indexed": true,
					"internalType": "address",
					"name": "buyer",
					"type": "address"
				},
				{
					"indexed": true,
					"internalType": "uint256",
					"name": "rarityId",
					"type": "uint256"
				},
				{
					"indexed": false,
					"internalType": "uint256",
					"name": "amount",
					"type": "uint256"
				},
				{
					"indexed": false,
					"internalType": "uint256",
					"name": "paid",
					"type": "uint256"
				}
			],
			"name": "NFTMinted",
			"type": "event"
		},
		{
			"anonymous": false,
			"inputs": [
				{
					"indexed": true,
					"internalType": "address",
					"name": "previousOwner",
					"type": "address"
				},
				{
					"indexed": true,
					"internalType": "address",
					"name": "newOwner",
					"type": "address"
				}
			],
			"name": "OwnershipTransferred",
			"type": "event"
		},
		{
			"anonymous": false,
			"inputs": [
				{
					"indexed": true,
					"internalType": "uint256",
					"name": "phaseId",
					"type": "uint256"
				}
			],
			"name": "PhaseStarted",
			"type": "event"
		},
		{
			"anonymous": false,
			"inputs": [
				{
					"indexed": true,
					"internalType": "uint256",
					"name": "phaseId",
					"type": "uint256"
				},
				{
					"indexed": true,
					"internalType": "uint256",
					"name": "rarityId",
					"type": "uint256"
				},
				{
					"indexed": false,
					"internalType": "uint256",
					"name": "newSupply",
					"type": "uint256"
				}
			],
			"name": "PhaseSupplyUpdated",
			"type": "event"
		},
		{
			"anonymous": false,
			"inputs": [
				{
					"indexed": true,
					"internalType": "uint256",
					"name": "requestId",
					"type": "uint256"
				},
				{
					"indexed": true,
					"internalType": "address",
					"name": "boardMember",
					"type": "address"
				}
			],
			"name": "WithdrawalApproved",
			"type": "event"
		},
		{
			"anonymous": false,
			"inputs": [
				{
					"indexed": true,
					"internalType": "uint256",
					"name": "requestId",
					"type": "uint256"
				},
				{
					"indexed": true,
					"internalType": "address",
					"name": "boardMember",
					"type": "address"
				}
			],
			"name": "WithdrawalBlocked",
			"type": "event"
		},
		{
			"anonymous": false,
			"inputs": [
				{
					"indexed": true,
					"internalType": "uint256",
					"name": "requestId",
					"type": "uint256"
				},
				{
					"indexed": true,
					"internalType": "address",
					"name": "boardMember",
					"type": "address"
				},
				{
					"indexed": false,
					"internalType": "uint256",
					"name": "amount",
					"type": "uint256"
				},
				{
					"indexed": false,
					"internalType": "address",
					"name": "recipient",
					"type": "address"
				}
			],
			"name": "WithdrawalExecuted",
			"type": "event"
		},
		{
			"anonymous": false,
			"inputs": [
				{
					"indexed": true,
					"internalType": "uint256",
					"name": "requestId",
					"type": "uint256"
				},
				{
					"indexed": true,
					"internalType": "address",
					"name": "boardMember",
					"type": "address"
				},
				{
					"indexed": false,
					"internalType": "uint256",
					"name": "amount",
					"type": "uint256"
				},
				{
					"indexed": false,
					"internalType": "address",
					"name": "recipient",
					"type": "address"
				}
			],
			"name": "WithdrawalRequested",
			"type": "event"
		},
		{
			"inputs": [],
			"name": "WITHDRAWAL_TIMEOUT",
			"outputs": [
				{
					"internalType": "uint256",
					"name": "",
					"type": "uint256"
				}
			],
			"stateMutability": "view",
			"type": "function"
		},
		{
			"inputs": [
				{
					"internalType": "uint256",
					"name": "requestId",
					"type": "uint256"
				}
			],
			"name": "approveWithdrawal",
			"outputs": [],
			"stateMutability": "nonpayable",
			"type": "function"
		},
		{
			"inputs": [
				{
					"internalType": "uint256",
					"name": "requestId",
					"type": "uint256"
				}
			],
			"name": "blockWithdrawal",
			"outputs": [],
			"stateMutability": "nonpayable",
			"type": "function"
		},
		{
			"inputs": [],
			"name": "boardMemberCount",
			"outputs": [
				{
					"internalType": "uint256",
					"name": "",
					"type": "uint256"
				}
			],
			"stateMutability": "view",
			"type": "function"
		},
		{
			"inputs": [
				{
					"internalType": "address",
					"name": "",
					"type": "address"
				}
			],
			"name": "boardMembers",
			"outputs": [
				{
					"internalType": "bool",
					"name": "",
					"type": "bool"
				}
			],
			"stateMutability": "view",
			"type": "function"
		},
		{
			"inputs": [
				{
					"internalType": "string",
					"name": "code",
					"type": "string"
				},
				{
					"internalType": "address",
					"name": "ambassador",
					"type": "address"
				},
				{
					"internalType": "address",
					"name": "manager",
					"type": "address"
				},
				{
					"internalType": "uint256",
					"name": "discount",
					"type": "uint256"
				}
			],
			"name": "createAmbassadorCode",
			"outputs": [],
			"stateMutability": "nonpayable",
			"type": "function"
		},
		{
			"inputs": [],
			"name": "currentPhase",
			"outputs": [
				{
					"internalType": "uint256",
					"name": "",
					"type": "uint256"
				}
			],
			"stateMutability": "view",
			"type": "function"
		},
		{
			"inputs": [
				{
					"internalType": "uint256",
					"name": "requestId",
					"type": "uint256"
				}
			],
			"name": "executeWithdrawal",
			"outputs": [],
			"stateMutability": "nonpayable",
			"type": "function"
		},
		{
			"inputs": [
				{
					"internalType": "string",
					"name": "refCode",
					"type": "string"
				}
			],
			"name": "getAmbassador",
			"outputs": [
				{
					"components": [
						{
							"internalType": "address",
							"name": "ambassador",
							"type": "address"
						},
						{
							"internalType": "address",
							"name": "manager",
							"type": "address"
						},
						{
							"internalType": "uint256",
							"name": "discount",
							"type": "uint256"
						},
						{
							"internalType": "uint256[6]",
							"name": "minted",
							"type": "uint256[6]"
						},
						{
							"internalType": "uint256",
							"name": "earned",
							"type": "uint256"
						},
						{
							"internalType": "uint256",
							"name": "raised",
							"type": "uint256"
						}
					],
					"internalType": "struct FounderNFTMinter.AmbassadorCode",
					"name": "",
					"type": "tuple"
				}
			],
			"stateMutability": "view",
			"type": "function"
		},
		{
			"inputs": [
				{
					"internalType": "uint256",
					"name": "rarityId",
					"type": "uint256"
				}
			],
			"name": "getAvailableNFTs",
			"outputs": [
				{
					"internalType": "uint256",
					"name": "",
					"type": "uint256"
				}
			],
			"stateMutability": "view",
			"type": "function"
		},
		{
			"inputs": [],
			"name": "getContractBalance",
			"outputs": [
				{
					"internalType": "uint256",
					"name": "",
					"type": "uint256"
				}
			],
			"stateMutability": "view",
			"type": "function"
		},
		{
			"inputs": [
				{
					"internalType": "uint256",
					"name": "rarityId",
					"type": "uint256"
				},
				{
					"internalType": "uint256",
					"name": "amount",
					"type": "uint256"
				},
				{
					"internalType": "string",
					"name": "refCode",
					"type": "string"
				}
			],
			"name": "getPaymentDetails",
			"outputs": [
				{
					"internalType": "uint256",
					"name": "payment",
					"type": "uint256"
				},
				{
					"internalType": "uint256",
					"name": "discount",
					"type": "uint256"
				},
				{
					"internalType": "uint256",
					"name": "ambassador",
					"type": "uint256"
				},
				{
					"internalType": "uint256",
					"name": "manager",
					"type": "uint256"
				},
				{
					"internalType": "uint256",
					"name": "team",
					"type": "uint256"
				}
			],
			"stateMutability": "view",
			"type": "function"
		},
		{
			"inputs": [
				{
					"internalType": "uint256",
					"name": "rarityId",
					"type": "uint256"
				}
			],
			"name": "getPhaseMinted",
			"outputs": [
				{
					"internalType": "uint256",
					"name": "",
					"type": "uint256"
				}
			],
			"stateMutability": "view",
			"type": "function"
		},
		{
			"inputs": [
				{
					"internalType": "uint256",
					"name": "rarityId",
					"type": "uint256"
				}
			],
			"name": "getPhasePrice",
			"outputs": [
				{
					"internalType": "uint256",
					"name": "",
					"type": "uint256"
				}
			],
			"stateMutability": "view",
			"type": "function"
		},
		{
			"inputs": [
				{
					"internalType": "uint256",
					"name": "rarityId",
					"type": "uint256"
				}
			],
			"name": "getPhaseSupply",
			"outputs": [
				{
					"internalType": "uint256",
					"name": "",
					"type": "uint256"
				}
			],
			"stateMutability": "view",
			"type": "function"
		},
		{
			"inputs": [
				{
					"internalType": "uint256",
					"name": "rarityId",
					"type": "uint256"
				}
			],
			"name": "getRemainingSupply",
			"outputs": [
				{
					"internalType": "uint256",
					"name": "",
					"type": "uint256"
				}
			],
			"stateMutability": "view",
			"type": "function"
		},
		{
			"inputs": [
				{
					"internalType": "uint256",
					"name": "rarityId",
					"type": "uint256"
				},
				{
					"internalType": "uint256",
					"name": "amount",
					"type": "uint256"
				},
				{
					"internalType": "string",
					"name": "refCode",
					"type": "string"
				}
			],
			"name": "mint",
			"outputs": [],
			"stateMutability": "nonpayable",
			"type": "function"
		},
		{
			"inputs": [
				{
					"internalType": "uint256",
					"name": "rarityId",
					"type": "uint256"
				},
				{
					"internalType": "uint256",
					"name": "quantity",
					"type": "uint256"
				},
				{
					"internalType": "string",
					"name": "refCode",
					"type": "string"
				},
				{
					"internalType": "uint256",
					"name": "validAfter",
					"type": "uint256"
				},
				{
					"internalType": "uint256",
					"name": "validBefore",
					"type": "uint256"
				},
				{
					"internalType": "bytes32",
					"name": "nonce",
					"type": "bytes32"
				},
				{
					"internalType": "bytes32",
					"name": "r",
					"type": "bytes32"
				},
				{
					"internalType": "bytes32",
					"name": "s",
					"type": "bytes32"
				},
				{
					"internalType": "uint8",
					"name": "v",
					"type": "uint8"
				}
			],
			"name": "mintWithAuth",
			"outputs": [],
			"stateMutability": "nonpayable",
			"type": "function"
		},
		{
			"inputs": [],
			"name": "nfts",
			"outputs": [
				{
					"internalType": "contract IFounderNFT",
					"name": "",
					"type": "address"
				}
			],
			"stateMutability": "view",
			"type": "function"
		},
		{
			"inputs": [],
			"name": "owner",
			"outputs": [
				{
					"internalType": "address",
					"name": "",
					"type": "address"
				}
			],
			"stateMutability": "view",
			"type": "function"
		},
		{
			"inputs": [],
			"name": "renounceOwnership",
			"outputs": [],
			"stateMutability": "nonpayable",
			"type": "function"
		},
		{
			"inputs": [
				{
					"internalType": "uint256",
					"name": "amount",
					"type": "uint256"
				},
				{
					"internalType": "address",
					"name": "recipient",
					"type": "address"
				}
			],
			"name": "requestWithdrawal",
			"outputs": [],
			"stateMutability": "nonpayable",
			"type": "function"
		},
		{
			"inputs": [
				{
					"internalType": "uint256[6]",
					"name": "prices",
					"type": "uint256[6]"
				},
				{
					"internalType": "uint256[6]",
					"name": "supply",
					"type": "uint256[6]"
				}
			],
			"name": "startPhase",
			"outputs": [],
			"stateMutability": "nonpayable",
			"type": "function"
		},
		{
			"inputs": [
				{
					"internalType": "address",
					"name": "newOwner",
					"type": "address"
				}
			],
			"name": "transferOwnership",
			"outputs": [],
			"stateMutability": "nonpayable",
			"type": "function"
		},
		{
			"inputs": [
				{
					"internalType": "uint256",
					"name": "rarityId",
					"type": "uint256"
				},
				{
					"internalType": "uint256",
					"name": "newSupply",
					"type": "uint256"
				}
			],
			"name": "updatePhaseSupply",
			"outputs": [],
			"stateMutability": "nonpayable",
			"type": "function"
		},
		{
			"inputs": [],
			"name": "usdc",
			"outputs": [
				{
					"internalType": "contract IAuthERC20",
					"name": "",
					"type": "address"
				}
			],
			"stateMutability": "view",
			"type": "function"
		},
		{
			"inputs": [],
			"name": "withdrawalRequestCounter",
			"outputs": [
				{
					"internalType": "uint256",
					"name": "",
					"type": "uint256"
				}
			],
			"stateMutability": "view",
			"type": "function"
		},
		{
			"inputs": [
				{
					"internalType": "uint256",
					"name": "",
					"type": "uint256"
				}
			],
			"name": "withdrawalRequests",
			"outputs": [
				{
					"internalType": "uint256",
					"name": "amount",
					"type": "uint256"
				},
				{
					"internalType": "address",
					"name": "recipient",
					"type": "address"
				},
				{
					"internalType": "uint256",
					"name": "requestTime",
					"type": "uint256"
				},
				{
					"internalType": "uint256",
					"name": "approvals",
					"type": "uint256"
				},
				{
					"internalType": "bool",
					"name": "executed",
					"type": "bool"
				},
				{
					"internalType": "bool",
					"name": "blocked",
					"type": "bool"
				}
			],
			"stateMutability": "view",
			"type": "function"
		}
	]
}