{
	"data": {
		"bytecode": {
			"linkReferences": {},
			"object": "60c06040525f6002555f6006555f60085534801561001b575f5ffd5b50604051614cac380380614cac833981810160405281019061003d91906105e5565b335f73ffffffffffffffffffffffffffffffffffffffff168173ffffffffffffffffffffffffffffffffffffffff16036100ae575f6040517f1e4fbdf70000000000000000000000000000000000000000000000000000000081526004016100a59190610660565b60405180910390fd5b6100bd8161022d60201b60201c565b50600180819055505f73ffffffffffffffffffffffffffffffffffffffff168373ffffffffffffffffffffffffffffffffffffffff161415801561012d57505f73ffffffffffffffffffffffffffffffffffffffff168273ffffffffffffffffffffffffffffffffffffffff1614155b610135575f5ffd5b5f815111610178576040517f08c379a000000000000000000000000000000000000000000000000000000000815260040161016f906106d3565b60405180910390fd5b8273ffffffffffffffffffffffffffffffffffffffff1660808173ffffffffffffffffffffffffffffffffffffffff16815250508173ffffffffffffffffffffffffffffffffffffffff1660a08173ffffffffffffffffffffffffffffffffffffffff16815250505f5f90505b815181101561022457610217828281518110610204576102036106f1565b5b60200260200101516102ee60201b60201c565b80806001019150506101e5565b50505050610803565b5f5f5f9054906101000a900473ffffffffffffffffffffffffffffffffffffffff169050815f5f6101000a81548173ffffffffffffffffffffffffffffffffffffffff021916908373ffffffffffffffffffffffffffffffffffffffff1602179055508173ffffffffffffffffffffffffffffffffffffffff168173ffffffffffffffffffffffffffffffffffffffff167f8be0079c531659141344cd1fd0a4f28419497f9722a3daafe3b4186f6b6457e060405160405180910390a35050565b60055f8273ffffffffffffffffffffffffffffffffffffffff1673ffffffffffffffffffffffffffffffffffffffff1681526020019081526020015f205f9054906101000a900460ff1615610378576040517f08c379a000000000000000000000000000000000000000000000000000000000815260040161036f90610768565b60405180910390fd5b600160055f8373ffffffffffffffffffffffffffffffffffffffff1673ffffffffffffffffffffffffffffffffffffffff1681526020019081526020015f205f6101000a81548160ff02191690831515021790555060065f8154809291906103df906107bc565b91905055508073ffffffffffffffffffffffffffffffffffffffff167f956f4b06f20eda3aa4f6be9e72e8fc77beb3f95f4f2a95a796b2af742583d74360405160405180910390a250565b5f604051905090565b5f5ffd5b5f5ffd5b5f73ffffffffffffffffffffffffffffffffffffffff82169050919050565b5f6104648261043b565b9050919050565b6104748161045a565b811461047e575f5ffd5b50565b5f8151905061048f8161046b565b92915050565b5f5ffd5b5f601f19601f8301169050919050565b7f4e487b71000000000000000000000000000000000000000000000000000000005f52604160045260245ffd5b6104df82610499565b810181811067ffffffffffffffff821117156104fe576104fd6104a9565b5b80604052505050565b5f61051061042a565b905061051c82826104d6565b919050565b5f67ffffffffffffffff82111561053b5761053a6104a9565b5b602082029050602081019050919050565b5f5ffd5b5f61056261055d84610521565b610507565b905080838252602082019050602084028301858111156105855761058461054c565b5b835b818110156105ae578061059a8882610481565b845260208401935050602081019050610587565b5050509392505050565b5f82601f8301126105cc576105cb610495565b5b81516105dc848260208601610550565b91505092915050565b5f5f5f606084860312156105fc576105fb610433565b5b5f61060986828701610481565b935050602061061a86828701610481565b925050604084015167ffffffffffffffff81111561063b5761063a610437565b5b610647868287016105b8565b9150509250925092565b61065a8161045a565b82525050565b5f6020820190506106735f830184610651565b92915050565b5f82825260208201905092915050565b7f4e6f20626f617264206d656d626572732070726f7669646564000000000000005f82015250565b5f6106bd601983610679565b91506106c882610689565b602082019050919050565b5f6020820190508181035f8301526106ea816106b1565b9050919050565b7f4e487b71000000000000000000000000000000000000000000000000000000005f52603260045260245ffd5b7f416c7265616479206120626f617264206d656d626572000000000000000000005f82015250565b5f610752601683610679565b915061075d8261071e565b602082019050919050565b5f6020820190508181035f83015261077f81610746565b9050919050565b7f4e487b71000000000000000000000000000000000000000000000000000000005f52601160045260245ffd5b5f819050919050565b5f6107c6826107b3565b91507fffffffffffffffffffffffffffffffffffffffffffffffffffffffffffffffff82036107f8576107f7610786565b5b600182019050919050565b60805160a05161445061085c5f395f818161084001528181610e65015281816111e101528181611f620152818161200501528181612146015261288b01525f81816106e20152818161183b0152611e4701526144505ff3fe608060405234801561000f575f5ffd5b50600436106101a7575f3560e01c806372403a79116100f7578063c5cac20211610095578063d88150ea1161006f578063d88150ea146104e8578063dfdc0de214610506578063e2b0608d14610522578063f2fde38b1461053e576101a7565b8063c5cac2021461046c578063c6e64e531461049c578063cae359b9146104b8576101a7565b8063937b2581116100d1578063937b2581146103cd5780639eceddea14610402578063bc4456eb1461041e578063bff137851461043c576101a7565b806372403a79146103635780638c858a141461037f5780638da5cb5b146103af576101a7565b8063359f82a3116101645780636353a4001161013e5780636353a400146102d75780636f9fb98a14610307578063715018a6146103255780637205249e1461032f576101a7565b8063359f82a31461026d5780633e413bee146102895780635b65da64146102a7576101a7565b8063055ad42e146101ab5780631558bed3146101c95780631714f2e0146101f95780632173977914610217578063240791581461023357806324f13a7614610251575b5f5ffd5b6101b361055a565b6040516101c09190612d7b565b60405180910390f35b6101e360048036038101906101de9190612dcf565b610560565b6040516101f09190612d7b565b60405180910390f35b6102016106e0565b60405161020e9190612e74565b60405180910390f35b610231600480360381019061022c9190612ec8565b610704565b005b61023b610a2e565b6040516102489190612d7b565b60405180910390f35b61026b60048036038101906102669190612dcf565b610a34565b005b61028760048036038101906102829190613042565b610b4d565b005b610291610e63565b60405161029e91906130e2565b60405180910390f35b6102c160048036038101906102bc9190612dcf565b610e87565b6040516102ce9190612d7b565b60405180910390f35b6102f160048036038101906102ec91906130fb565b610fe1565b6040516102fe9190613272565b60405180910390f35b61030f6111de565b60405161031c9190612d7b565b60405180910390f35b61032d61127c565b005b6103496004803603810190610344919061328c565b61128f565b60405161035a9594939291906132f8565b60405180910390f35b61037d60048036038101906103789190613349565b611626565b005b61039960048036038101906103949190612dcf565b6117f1565b6040516103a69190612d7b565b60405180910390f35b6103b76118f1565b6040516103c49190613396565b60405180910390f35b6103e760048036038101906103e29190612dcf565b611918565b6040516103f9969594939291906133c9565b60405180910390f35b61041c60048036038101906104179190612dcf565b611988565b005b610426611c23565b6040516104339190612d7b565b60405180910390f35b61045660048036038101906104519190613428565b611c2a565b6040516104639190613453565b60405180910390f35b61048660048036038101906104819190612dcf565b611c47565b6040516104939190612d7b565b60405180910390f35b6104b660048036038101906104b1919061328c565b611da1565b005b6104d260048036038101906104cd9190612dcf565b612261565b6040516104df9190612d7b565b60405180910390f35b6104f06123ba565b6040516104fd9190612d7b565b60405180910390f35b610520600480360381019061051b9190612dcf565b6123c0565b005b61053c6004803603810190610537919061351e565b612565565b005b61055860048036038101906105539190613428565b6127aa565b005b60025481565b5f8160058111156105a6576040517f08c379a000000000000000000000000000000000000000000000000000000000815260040161059d906135b7565b60405180910390fd5b5f60035f60025481526020019081526020015f206040518060600160405290815f8201600680602002604051908101604052809291908260068015610600576020028201915b8154815260200190600101908083116105ec575b5050505050815260200160068201600680602002604051908101604052809291908260068015610645576020028201915b815481526020019060010190808311610631575b50505050508152602001600c820160068060200260405190810160405280929190826006801561068a576020028201915b815481526020019060010190808311610676575b5050505050815250509050806040015184600681106106ac576106ab6135d5565b5b6020020151816020015185600681106106c8576106c76135d5565b5b60200201516106d7919061362f565b92505050919050565b7f000000000000000000000000000000000000000000000000000000000000000081565b60055f3373ffffffffffffffffffffffffffffffffffffffff1673ffffffffffffffffffffffffffffffffffffffff1681526020019081526020015f205f9054906101000a900460ff1661078d576040517f08c379a0000000000000000000000000000000000000000000000000000000008152600401610784906136ac565b60405180910390fd5b5f82116107cf576040517f08c379a00000000000000000000000000000000000000000000000000000000081526004016107c690613714565b60405180910390fd5b5f73ffffffffffffffffffffffffffffffffffffffff168173ffffffffffffffffffffffffffffffffffffffff160361083d576040517f08c379a00000000000000000000000000000000000000000000000000000000081526004016108349061377c565b60405180910390fd5b817f000000000000000000000000000000000000000000000000000000000000000073ffffffffffffffffffffffffffffffffffffffff166370a08231306040518263ffffffff1660e01b81526004016108979190613396565b602060405180830381865afa1580156108b2573d5f5f3e3d5ffd5b505050506040513d601f19601f820116820180604052508101906108d691906137ae565b1015610917576040517f08c379a000000000000000000000000000000000000000000000000000000000815260040161090e90613823565b60405180910390fd5b5f60085f81548092919061092a90613841565b9190505590505f60075f8381526020019081526020015f20905083815f018190555082816001015f6101000a81548173ffffffffffffffffffffffffffffffffffffffff021916908373ffffffffffffffffffffffffffffffffffffffff1602179055504281600201819055505f81600301819055505f816005015f6101000a81548160ff0219169083151502179055505f8160050160016101000a81548160ff0219169083151502179055503373ffffffffffffffffffffffffffffffffffffffff16827fddff8e72a79f7f23c3de5bed3c8189aabc3c85dba0b2f1af299d96eef93861b18686604051610a20929190613888565b60405180910390a350505050565b60065481565b5f60075f8381526020019081526020015f209050806005015f9054906101000a900460ff1615610a99576040517f08c379a0000000000000000000000000000000000000000000000000000000008152600401610a90906138f9565b60405180910390fd5b8060050160019054906101000a900460ff1615610aeb576040517f08c379a0000000000000000000000000000000000000000000000000000000008152600401610ae290613961565b60405180910390fd5b62093a808160020154610afe919061397f565b421015610b40576040517f08c379a0000000000000000000000000000000000000000000000000000000008152600401610b37906139fc565b60405180910390fd5b610b498261282e565b5050565b610b55612949565b5f845111610b98576040517f08c379a0000000000000000000000000000000000000000000000000000000008152600401610b8f90613a64565b60405180910390fd5b5f73ffffffffffffffffffffffffffffffffffffffff168373ffffffffffffffffffffffffffffffffffffffff1603610c06576040517f08c379a0000000000000000000000000000000000000000000000000000000008152600401610bfd90613acc565b60405180910390fd5b601e811115610c4a576040517f08c379a0000000000000000000000000000000000000000000000000000000008152600401610c4190613b34565b60405180910390fd5b5f73ffffffffffffffffffffffffffffffffffffffff16600485604051610c719190613ba4565b90815260200160405180910390205f015f9054906101000a900473ffffffffffffffffffffffffffffffffffffffff1673ffffffffffffffffffffffffffffffffffffffff1614610cf7576040517f08c379a0000000000000000000000000000000000000000000000000000000008152600401610cee90613c04565b60405180910390fd5b6040518060c001604052808473ffffffffffffffffffffffffffffffffffffffff1681526020018373ffffffffffffffffffffffffffffffffffffffff1681526020018281526020016040518060c001604052805f81526020015f81526020015f81526020015f81526020015f81526020015f81525081526020015f81526020015f815250600485604051610d8c9190613ba4565b90815260200160405180910390205f820151815f015f6101000a81548173ffffffffffffffffffffffffffffffffffffffff021916908373ffffffffffffffffffffffffffffffffffffffff1602179055506020820151816001015f6101000a81548173ffffffffffffffffffffffffffffffffffffffff021916908373ffffffffffffffffffffffffffffffffffffffff16021790555060408201518160020155606082015181600301906006610e45929190612c83565b506080820151816009015560a082015181600a015590505050505050565b7f000000000000000000000000000000000000000000000000000000000000000081565b5f816005811115610ecd576040517f08c379a0000000000000000000000000000000000000000000000000000000008152600401610ec4906135b7565b60405180910390fd5b5f60035f60025481526020019081526020015f206040518060600160405290815f8201600680602002604051908101604052809291908260068015610f27576020028201915b815481526020019060010190808311610f13575b5050505050815260200160068201600680602002604051908101604052809291908260068015610f6c576020028201915b815481526020019060010190808311610f58575b50505050508152602001600c8201600680602002604051908101604052809291908260068015610fb1576020028201915b815481526020019060010190808311610f9d575b505050505081525050905080602001518460068110610fd357610fd26135d5565b5b602002015192505050919050565b610fe9612cc3565b5f82511161102c576040517f08c379a000000000000000000000000000000000000000000000000000000000815260040161102390613c6c565b60405180910390fd5b5f60048360405161103d9190613ba4565b90815260200160405180910390206040518060c00160405290815f82015f9054906101000a900473ffffffffffffffffffffffffffffffffffffffff1673ffffffffffffffffffffffffffffffffffffffff1673ffffffffffffffffffffffffffffffffffffffff168152602001600182015f9054906101000a900473ffffffffffffffffffffffffffffffffffffffff1673ffffffffffffffffffffffffffffffffffffffff1673ffffffffffffffffffffffffffffffffffffffff1681526020016002820154815260200160038201600680602002604051908101604052809291908260068015611145576020028201915b815481526020019060010190808311611131575b5050505050815260200160098201548152602001600a8201548152505090505f73ffffffffffffffffffffffffffffffffffffffff16815f015173ffffffffffffffffffffffffffffffffffffffff16036111d5576040517f08c379a00000000000000000000000000000000000000000000000000000000081526004016111cc90613cd4565b60405180910390fd5b80915050919050565b5f7f000000000000000000000000000000000000000000000000000000000000000073ffffffffffffffffffffffffffffffffffffffff166370a08231306040518263ffffffff1660e01b81526004016112389190613396565b602060405180830381865afa158015611253573d5f5f3e3d5ffd5b505050506040513d601f19601f8201168201806040525081019061127791906137ae565b905090565b611284612949565b61128d5f6129d0565b565b5f5f5f5f5f8760058111156112d9576040517f08c379a00000000000000000000000000000000000000000000000000000000081526004016112d0906135b7565b60405180910390fd5b5f881161131b576040517f08c379a000000000000000000000000000000000000000000000000000000000815260040161131290613714565b60405180910390fd5b5f6113258a610560565b11611365576040517f08c379a000000000000000000000000000000000000000000000000000000000815260040161135c90613d3c565b60405180910390fd5b8761136f8a610560565b10156113b0576040517f08c379a00000000000000000000000000000000000000000000000000000000081526004016113a790613da4565b60405180910390fd5b876113ba8a612261565b6113c49190613dc2565b95505f94505f93505f92505f875111156115f3575f6004886040516113e99190613ba4565b908152602001604051809103902090505f73ffffffffffffffffffffffffffffffffffffffff16815f015f9054906101000a900473ffffffffffffffffffffffffffffffffffffffff1673ffffffffffffffffffffffffffffffffffffffff1603611489576040517f08c379a000000000000000000000000000000000000000000000000000000000815260040161148090613cd4565b60405180910390fd5b601981600201541115806114ea57503373ffffffffffffffffffffffffffffffffffffffff16815f015f9054906101000a900473ffffffffffffffffffffffffffffffffffffffff1673ffffffffffffffffffffffffffffffffffffffff16145b611529576040517f08c379a000000000000000000000000000000000000000000000000000000000815260040161152090613e4d565b60405180910390fd5b6019816002015410156115d357606481600201546019611549919061362f565b886115549190613dc2565b61155e9190613e98565b94505f73ffffffffffffffffffffffffffffffffffffffff16816001015f9054906101000a900473ffffffffffffffffffffffffffffffffffffffff1673ffffffffffffffffffffffffffffffffffffffff16146115d25760646005886115c59190613dc2565b6115cf9190613e98565b93505b5b60648160020154886115e59190613dc2565b6115ef9190613e98565b9550505b84866115ff919061362f565b955082848761160e919061362f565b611618919061362f565b915050939792965093509350565b61162e612949565b816005811115611673576040517f08c379a000000000000000000000000000000000000000000000000000000000815260040161166a906135b7565b60405180910390fd5b5f600254116116b7576040517f08c379a00000000000000000000000000000000000000000000000000000000081526004016116ae90613f12565b60405180910390fd5b5f60035f60025481526020019081526020015f20905080600c0184600681106116e3576116e26135d5565b5b0154831015611727576040517f08c379a000000000000000000000000000000000000000000000000000000000815260040161171e90613fa0565b60405180910390fd5b611730846117f1565b81600c018560068110611746576117456135d5565b5b015484611753919061362f565b1115611794576040517f08c379a000000000000000000000000000000000000000000000000000000000815260040161178b9061402e565b60405180910390fd5b828160060185600681106117ab576117aa6135d5565b5b0181905550836002547f8e070ae3a2de4465c368f672c2324b17b4ec062510fe99be064df3727aff1379856040516117e39190612d7b565b60405180910390a350505050565b5f816005811115611837576040517f08c379a000000000000000000000000000000000000000000000000000000000815260040161182e906135b7565b60405180910390fd5b5f5f7f000000000000000000000000000000000000000000000000000000000000000073ffffffffffffffffffffffffffffffffffffffff1663039af9eb866040518263ffffffff1660e01b81526004016118929190612d7b565b5f60405180830381865afa1580156118ac573d5f5f3e3d5ffd5b505050506040513d5f823e3d601f19601f820116820180604052508101906118d491906140ba565b5093509350505080826118e7919061362f565b9350505050919050565b5f5f5f9054906101000a900473ffffffffffffffffffffffffffffffffffffffff16905090565b6007602052805f5260405f205f91509050805f015490806001015f9054906101000a900473ffffffffffffffffffffffffffffffffffffffff1690806002015490806003015490806005015f9054906101000a900460ff16908060050160019054906101000a900460ff16905086565b60055f3373ffffffffffffffffffffffffffffffffffffffff1673ffffffffffffffffffffffffffffffffffffffff1681526020019081526020015f205f9054906101000a900460ff16611a11576040517f08c379a0000000000000000000000000000000000000000000000000000000008152600401611a08906136ac565b60405180910390fd5b5f60075f8381526020019081526020015f209050806005015f9054906101000a900460ff1615611a76576040517f08c379a0000000000000000000000000000000000000000000000000000000008152600401611a6d906138f9565b60405180910390fd5b8060050160019054906101000a900460ff1615611ac8576040517f08c379a0000000000000000000000000000000000000000000000000000000008152600401611abf90613961565b60405180910390fd5b806004015f3373ffffffffffffffffffffffffffffffffffffffff1673ffffffffffffffffffffffffffffffffffffffff1681526020019081526020015f205f9054906101000a900460ff1615611b54576040517f08c379a0000000000000000000000000000000000000000000000000000000008152600401611b4b906141b3565b60405180910390fd5b6001816004015f3373ffffffffffffffffffffffffffffffffffffffff1673ffffffffffffffffffffffffffffffffffffffff1681526020019081526020015f205f6101000a81548160ff021916908315150217905550806003015f815480929190611bbf90613841565b91905055503373ffffffffffffffffffffffffffffffffffffffff16827f7ab1df95613019ba98da0113a7adf5073c9fa62d93b5f202502115266aadc06a60405160405180910390a3600654816003015403611c1f57611c1e8261282e565b5b5050565b62093a8081565b6005602052805f5260405f205f915054906101000a900460ff1681565b5f816005811115611c8d576040517f08c379a0000000000000000000000000000000000000000000000000000000008152600401611c84906135b7565b60405180910390fd5b5f60035f60025481526020019081526020015f206040518060600160405290815f8201600680602002604051908101604052809291908260068015611ce7576020028201915b815481526020019060010190808311611cd3575b5050505050815260200160068201600680602002604051908101604052809291908260068015611d2c576020028201915b815481526020019060010190808311611d18575b50505050508152602001600c8201600680602002604051908101604052809291908260068015611d71576020028201915b815481526020019060010190808311611d5d575b505050505081525050905080604001518460068110611d9357611d926135d5565b5b602002015192505050919050565b826005811115611de6576040517f08c379a0000000000000000000000000000000000000000000000000000000008152600401611ddd906135b7565b60405180910390fd5b611dee612a91565b5f5f5f5f611dfd88888861128f565b9450945094505093508660035f60025481526020019081526020015f20600c018960068110611e2f57611e2e6135d5565b5b015f828254611e3e919061397f565b925050819055507f000000000000000000000000000000000000000000000000000000000000000073ffffffffffffffffffffffffffffffffffffffff16631b2ef1ca89896040518363ffffffff1660e01b8152600401611ea09291906141d1565b5f604051808303815f87803b158015611eb7575f5ffd5b505af1158015611ec9573d5f5f3e3d5ffd5b505050505f86511115611f5a575f600487604051611ee79190613ba4565b9081526020016040518091039020905087816003018a60068110611f0e57611f0d6135d5565b5b015f828254611f1d919061397f565b9250508190555083816009015f828254611f37919061397f565b925050819055508181600a015f828254611f51919061397f565b92505081905550505b611fa73330867f000000000000000000000000000000000000000000000000000000000000000073ffffffffffffffffffffffffffffffffffffffff16612ad7909392919063ffffffff16565b5f8651118015611fb657505f83115b156121fe575f600487604051611fcc9190613ba4565b90815260200160405180910390209050612049815f015f9054906101000a900473ffffffffffffffffffffffffffffffffffffffff16857f000000000000000000000000000000000000000000000000000000000000000073ffffffffffffffffffffffffffffffffffffffff16612b599092919063ffffffff16565b805f015f9054906101000a900473ffffffffffffffffffffffffffffffffffffffff1673ffffffffffffffffffffffffffffffffffffffff167fe940afde5872f4760f0ae48b728b98579e2ab7722dd8973624fa47301b0b2d2c856040516120b19190612d7b565b60405180910390a25f8311801561211757505f73ffffffffffffffffffffffffffffffffffffffff16816001015f9054906101000a900473ffffffffffffffffffffffffffffffffffffffff1673ffffffffffffffffffffffffffffffffffffffff1614155b156121fc5761218a816001015f9054906101000a900473ffffffffffffffffffffffffffffffffffffffff16847f000000000000000000000000000000000000000000000000000000000000000073ffffffffffffffffffffffffffffffffffffffff16612b599092919063ffffffff16565b806001015f9054906101000a900473ffffffffffffffffffffffffffffffffffffffff1673ffffffffffffffffffffffffffffffffffffffff167fe940afde5872f4760f0ae48b728b98579e2ab7722dd8973624fa47301b0b2d2c846040516121f39190612d7b565b60405180910390a25b505b873373ffffffffffffffffffffffffffffffffffffffff167f7bc3ddf0bf2ada973906c61001cd8f787646720bb7da90229e5bf81fa71bab6d89876040516122479291906141d1565b60405180910390a35050505061225b612bd8565b50505050565b5f8160058111156122a7576040517f08c379a000000000000000000000000000000000000000000000000000000000815260040161229e906135b7565b60405180910390fd5b5f60035f60025481526020019081526020015f206040518060600160405290815f8201600680602002604051908101604052809291908260068015612301576020028201915b8154815260200190600101908083116122ed575b5050505050815260200160068201600680602002604051908101604052809291908260068015612346576020028201915b815481526020019060010190808311612332575b50505050508152602001600c820160068060200260405190810160405280929190826006801561238b576020028201915b815481526020019060010190808311612377575b5050505050815250509050805f015184600681106123ac576123ab6135d5565b5b602002015192505050919050565b60085481565b60055f3373ffffffffffffffffffffffffffffffffffffffff1673ffffffffffffffffffffffffffffffffffffffff1681526020019081526020015f205f9054906101000a900460ff16612449576040517f08c379a0000000000000000000000000000000000000000000000000000000008152600401612440906136ac565b60405180910390fd5b5f60075f8381526020019081526020015f209050806005015f9054906101000a900460ff16156124ae576040517f08c379a00000000000000000000000000000000000000000000000000000000081526004016124a5906138f9565b60405180910390fd5b8060050160019054906101000a900460ff1615612500576040517f08c379a00000000000000000000000000000000000000000000000000000000081526004016124f790614242565b60405180910390fd5b60018160050160016101000a81548160ff0219169083151502179055503373ffffffffffffffffffffffffffffffffffffffff16827fcd8a8adeb6b0a0338444333e99ee6394df82ac7e4e8132079d728b1a0e863a1160405160405180910390a35050565b61256d612949565b5f5f90505b60068110156125ea57612584816117f1565b828260068110612597576125966135d5565b5b602002015111156125dd576040517f08c379a00000000000000000000000000000000000000000000000000000000081526004016125d4906142d0565b60405180910390fd5b8080600101915050612572565b505f60025411156126bd575f5f90505b60068110156126bb575f61260d82610560565b1461264d576040517f08c379a000000000000000000000000000000000000000000000000000000000815260040161264490614338565b60405180910390fd5b61265681612261565b838260068110612669576126686135d5565b5b6020020151116126ae576040517f08c379a00000000000000000000000000000000000000000000000000000000081526004016126a5906143a0565b60405180910390fd5b80806001019150506125fa565b505b60025f8154809291906126cf90613841565b919050555060405180606001604052808381526020018281526020016040518060c001604052805f81526020015f81526020015f81526020015f81526020015f81526020015f81525081525060035f60025481526020019081526020015f205f820151815f01906006612743929190612c83565b5060208201518160060190600661275b929190612c83565b50604082015181600c01906006612773929190612c83565b509050506002547f7ded52798ab2e63ad5f4474d2273d878d5ec60f9e082cde09a3e544efba9329660405160405180910390a25050565b6127b2612949565b5f73ffffffffffffffffffffffffffffffffffffffff168173ffffffffffffffffffffffffffffffffffffffff1603612822575f6040517f1e4fbdf70000000000000000000000000000000000000000000000000000000081526004016128199190613396565b60405180910390fd5b61282b816129d0565b50565b5f60075f8381526020019081526020015f2090506001816005015f6101000a81548160ff0219169083151502179055506128cf816001015f9054906101000a900473ffffffffffffffffffffffffffffffffffffffff16825f01547f000000000000000000000000000000000000000000000000000000000000000073ffffffffffffffffffffffffffffffffffffffff16612b599092919063ffffffff16565b3373ffffffffffffffffffffffffffffffffffffffff16827e9525d1b7630386050058876f776d3f6b7b6c79213925aec88934ffa1678e21835f0154846001015f9054906101000a900473ffffffffffffffffffffffffffffffffffffffff1660405161293d929190613888565b60405180910390a35050565b612951612be1565b73ffffffffffffffffffffffffffffffffffffffff1661296f6118f1565b73ffffffffffffffffffffffffffffffffffffffff16146129ce57612992612be1565b6040517f118cdaa70000000000000000000000000000000000000000000000000000000081526004016129c59190613396565b60405180910390fd5b565b5f5f5f9054906101000a900473ffffffffffffffffffffffffffffffffffffffff169050815f5f6101000a81548173ffffffffffffffffffffffffffffffffffffffff021916908373ffffffffffffffffffffffffffffffffffffffff1602179055508173ffffffffffffffffffffffffffffffffffffffff168173ffffffffffffffffffffffffffffffffffffffff167f8be0079c531659141344cd1fd0a4f28419497f9722a3daafe3b4186f6b6457e060405160405180910390a35050565b600260015403612acd576040517f3ee5aeb500000000000000000000000000000000000000000000000000000000815260040160405180910390fd5b6002600181905550565b612b53848573ffffffffffffffffffffffffffffffffffffffff166323b872dd868686604051602401612b0c939291906143be565b604051602081830303815290604052915060e01b6020820180517bffffffffffffffffffffffffffffffffffffffffffffffffffffffff8381831617835250505050612be8565b50505050565b612bd3838473ffffffffffffffffffffffffffffffffffffffff1663a9059cbb8585604051602401612b8c9291906143f3565b604051602081830303815290604052915060e01b6020820180517bffffffffffffffffffffffffffffffffffffffffffffffffffffffff8381831617835250505050612be8565b505050565b60018081905550565b5f33905090565b5f5f60205f8451602086015f885af180612c07576040513d5f823e3d81fd5b3d92505f519150505f8214612c20576001811415612c3b565b5f8473ffffffffffffffffffffffffffffffffffffffff163b145b15612c7d57836040517f5274afe7000000000000000000000000000000000000000000000000000000008152600401612c749190613396565b60405180910390fd5b50505050565b8260068101928215612cb2579160200282015b82811115612cb1578251825591602001919060010190612c96565b5b509050612cbf9190612d26565b5090565b6040518060c001604052805f73ffffffffffffffffffffffffffffffffffffffff1681526020015f73ffffffffffffffffffffffffffffffffffffffff1681526020015f8152602001612d14612d41565b81526020015f81526020015f81525090565b5b80821115612d3d575f815f905550600101612d27565b5090565b6040518060c00160405280600690602082028036833780820191505090505090565b5f819050919050565b612d7581612d63565b82525050565b5f602082019050612d8e5f830184612d6c565b92915050565b5f604051905090565b5f5ffd5b5f5ffd5b612dae81612d63565b8114612db8575f5ffd5b50565b5f81359050612dc981612da5565b92915050565b5f60208284031215612de457612de3612d9d565b5b5f612df184828501612dbb565b91505092915050565b5f73ffffffffffffffffffffffffffffffffffffffff82169050919050565b5f819050919050565b5f612e3c612e37612e3284612dfa565b612e19565b612dfa565b9050919050565b5f612e4d82612e22565b9050919050565b5f612e5e82612e43565b9050919050565b612e6e81612e54565b82525050565b5f602082019050612e875f830184612e65565b92915050565b5f612e9782612dfa565b9050919050565b612ea781612e8d565b8114612eb1575f5ffd5b50565b5f81359050612ec281612e9e565b92915050565b5f5f60408385031215612ede57612edd612d9d565b5b5f612eeb85828601612dbb565b9250506020612efc85828601612eb4565b9150509250929050565b5f5ffd5b5f5ffd5b5f601f19601f8301169050919050565b7f4e487b71000000000000000000000000000000000000000000000000000000005f52604160045260245ffd5b612f5482612f0e565b810181811067ffffffffffffffff82111715612f7357612f72612f1e565b5b80604052505050565b5f612f85612d94565b9050612f918282612f4b565b919050565b5f67ffffffffffffffff821115612fb057612faf612f1e565b5b612fb982612f0e565b9050602081019050919050565b828183375f83830152505050565b5f612fe6612fe184612f96565b612f7c565b90508281526020810184848401111561300257613001612f0a565b5b61300d848285612fc6565b509392505050565b5f82601f83011261302957613028612f06565b5b8135613039848260208601612fd4565b91505092915050565b5f5f5f5f6080858703121561305a57613059612d9d565b5b5f85013567ffffffffffffffff81111561307757613076612da1565b5b61308387828801613015565b945050602061309487828801612eb4565b93505060406130a587828801612eb4565b92505060606130b687828801612dbb565b91505092959194509250565b5f6130cc82612e43565b9050919050565b6130dc816130c2565b82525050565b5f6020820190506130f55f8301846130d3565b92915050565b5f602082840312156131105761310f612d9d565b5b5f82013567ffffffffffffffff81111561312d5761312c612da1565b5b61313984828501613015565b91505092915050565b61314b81612e8d565b82525050565b61315a81612d63565b82525050565b5f60069050919050565b5f81905092915050565b5f819050919050565b5f6131888383613151565b60208301905092915050565b5f602082019050919050565b6131a981613160565b6131b3818461316a565b92506131be82613174565b805f5b838110156131ee5781516131d5878261317d565b96506131e083613194565b9250506001810190506131c1565b505050505050565b61016082015f82015161320b5f850182613142565b50602082015161321e6020850182613142565b5060408201516132316040850182613151565b50606082015161324460608501826131a0565b506080820151613258610120850182613151565b5060a082015161326c610140850182613151565b50505050565b5f610160820190506132865f8301846131f6565b92915050565b5f5f5f606084860312156132a3576132a2612d9d565b5b5f6132b086828701612dbb565b93505060206132c186828701612dbb565b925050604084013567ffffffffffffffff8111156132e2576132e1612da1565b5b6132ee86828701613015565b9150509250925092565b5f60a08201905061330b5f830188612d6c565b6133186020830187612d6c565b6133256040830186612d6c565b6133326060830185612d6c565b61333f6080830184612d6c565b9695505050505050565b5f5f6040838503121561335f5761335e612d9d565b5b5f61336c85828601612dbb565b925050602061337d85828601612dbb565b9150509250929050565b61339081612e8d565b82525050565b5f6020820190506133a95f830184613387565b92915050565b5f8115159050919050565b6133c3816133af565b82525050565b5f60c0820190506133dc5f830189612d6c565b6133e96020830188613387565b6133f66040830187612d6c565b6134036060830186612d6c565b61341060808301856133ba565b61341d60a08301846133ba565b979650505050505050565b5f6020828403121561343d5761343c612d9d565b5b5f61344a84828501612eb4565b91505092915050565b5f6020820190506134665f8301846133ba565b92915050565b5f67ffffffffffffffff82111561348657613485612f1e565b5b602082029050919050565b5f5ffd5b5f6134a76134a28461346c565b612f7c565b905080602084028301858111156134c1576134c0613491565b5b835b818110156134ea57806134d68882612dbb565b8452602084019350506020810190506134c3565b5050509392505050565b5f82601f83011261350857613507612f06565b5b6006613515848285613495565b91505092915050565b5f5f610180838503121561353557613534612d9d565b5b5f613542858286016134f4565b92505060c0613553858286016134f4565b9150509250929050565b5f82825260208201905092915050565b7f496e76616c6964207261726974792049440000000000000000000000000000005f82015250565b5f6135a160118361355d565b91506135ac8261356d565b602082019050919050565b5f6020820190508181035f8301526135ce81613595565b9050919050565b7f4e487b71000000000000000000000000000000000000000000000000000000005f52603260045260245ffd5b7f4e487b71000000000000000000000000000000000000000000000000000000005f52601160045260245ffd5b5f61363982612d63565b915061364483612d63565b925082820390508181111561365c5761365b613602565b5b92915050565b7f4e6f74206120626f617264206d656d62657200000000000000000000000000005f82015250565b5f61369660128361355d565b91506136a182613662565b602082019050919050565b5f6020820190508181035f8301526136c38161368a565b9050919050565b7f416d6f756e74206d7573742062652067726561746572207468616e207a65726f5f82015250565b5f6136fe60208361355d565b9150613709826136ca565b602082019050919050565b5f6020820190508181035f83015261372b816136f2565b9050919050565b7f496e76616c696420726563697069656e740000000000000000000000000000005f82015250565b5f61376660118361355d565b915061377182613732565b602082019050919050565b5f6020820190508181035f8301526137938161375a565b9050919050565b5f815190506137a881612da5565b92915050565b5f602082840312156137c3576137c2612d9d565b5b5f6137d08482850161379a565b91505092915050565b7f496e73756666696369656e742062616c616e63650000000000000000000000005f82015250565b5f61380d60148361355d565b9150613818826137d9565b602082019050919050565b5f6020820190508181035f83015261383a81613801565b9050919050565b5f61384b82612d63565b91507fffffffffffffffffffffffffffffffffffffffffffffffffffffffffffffffff820361387d5761387c613602565b5b600182019050919050565b5f60408201905061389b5f830185612d6c565b6138a86020830184613387565b9392505050565b7f416c7265616479206578656375746564000000000000000000000000000000005f82015250565b5f6138e360108361355d565b91506138ee826138af565b602082019050919050565b5f6020820190508181035f830152613910816138d7565b9050919050565b7f5265717565737420626c6f636b656400000000000000000000000000000000005f82015250565b5f61394b600f8361355d565b915061395682613917565b602082019050919050565b5f6020820190508181035f8301526139788161393f565b9050919050565b5f61398982612d63565b915061399483612d63565b92508282019050808211156139ac576139ab613602565b5b92915050565b7f54696d656f7574206e6f742072656163686564000000000000000000000000005f82015250565b5f6139e660138361355d565b91506139f1826139b2565b602082019050919050565b5f6020820190508181035f830152613a13816139da565b9050919050565b7f456d70747920636f6465000000000000000000000000000000000000000000005f82015250565b5f613a4e600a8361355d565b9150613a5982613a1a565b602082019050919050565b5f6020820190508181035f830152613a7b81613a42565b9050919050565b7f496e76616c696420616d6261737361646f7220616464726573730000000000005f82015250565b5f613ab6601a8361355d565b9150613ac182613a82565b602082019050919050565b5f6020820190508181035f830152613ae381613aaa565b9050919050565b7f446973636f756e7420746f6f20686967680000000000000000000000000000005f82015250565b5f613b1e60118361355d565b9150613b2982613aea565b602082019050919050565b5f6020820190508181035f830152613b4b81613b12565b9050919050565b5f81519050919050565b5f81905092915050565b8281835e5f83830152505050565b5f613b7e82613b52565b613b888185613b5c565b9350613b98818560208601613b66565b80840191505092915050565b5f613baf8284613b74565b915081905092915050565b7f436f646520616c726561647920657869737473000000000000000000000000005f82015250565b5f613bee60138361355d565b9150613bf982613bba565b602082019050919050565b5f6020820190508181035f830152613c1b81613be2565b9050919050565b7f4e6f20636f64652070726f7669646564000000000000000000000000000000005f82015250565b5f613c5660108361355d565b9150613c6182613c22565b602082019050919050565b5f6020820190508181035f830152613c8381613c4a565b9050919050565b7f496e76616c696420636f646500000000000000000000000000000000000000005f82015250565b5f613cbe600c8361355d565b9150613cc982613c8a565b602082019050919050565b5f6020820190508181035f830152613ceb81613cb2565b9050919050565b7f4e6f204e465473206c65667420696e20746869732070686173650000000000005f82015250565b5f613d26601a8361355d565b9150613d3182613cf2565b602082019050919050565b5f6020820190508181035f830152613d5381613d1a565b9050919050565b7f457863656564732070686173652072656d61696e696e6720737570706c7900005f82015250565b5f613d8e601e8361355d565b9150613d9982613d5a565b602082019050919050565b5f6020820190508181035f830152613dbb81613d82565b9050919050565b5f613dcc82612d63565b9150613dd783612d63565b9250828202613de581612d63565b91508282048414831517613dfc57613dfb613602565b5b5092915050565b7f5468697320636f6465206973206f6e6c7920666f722073656c662d75736167655f82015250565b5f613e3760208361355d565b9150613e4282613e03565b602082019050919050565b5f6020820190508181035f830152613e6481613e2b565b9050919050565b7f4e487b71000000000000000000000000000000000000000000000000000000005f52601260045260245ffd5b5f613ea282612d63565b9150613ead83612d63565b925082613ebd57613ebc613e6b565b5b828204905092915050565b7f4e6f2061637469766520706861736500000000000000000000000000000000005f82015250565b5f613efc600f8361355d565b9150613f0782613ec8565b602082019050919050565b5f6020820190508181035f830152613f2981613ef0565b9050919050565b7f4e657720737570706c79206c657373207468616e20616c7265616479206d696e5f8201527f7465640000000000000000000000000000000000000000000000000000000000602082015250565b5f613f8a60238361355d565b9150613f9582613f30565b604082019050919050565b5f6020820190508181035f830152613fb781613f7e565b9050919050565b7f4e657720737570706c7920657863656564732072656d61696e696e67204e46545f8201527f20737570706c7900000000000000000000000000000000000000000000000000602082015250565b5f61401860278361355d565b915061402382613fbe565b604082019050919050565b5f6020820190508181035f8301526140458161400c565b9050919050565b5f61405e61405984612f96565b612f7c565b90508281526020810184848401111561407a57614079612f0a565b5b614085848285613b66565b509392505050565b5f82601f8301126140a1576140a0612f06565b5b81516140b184826020860161404c565b91505092915050565b5f5f5f5f5f60a086880312156140d3576140d2612d9d565b5b5f86015167ffffffffffffffff8111156140f0576140ef612da1565b5b6140fc8882890161408d565b955050602086015167ffffffffffffffff81111561411d5761411c612da1565b5b6141298882890161408d565b945050604061413a8882890161379a565b935050606061414b8882890161379a565b925050608061415c8882890161379a565b9150509295509295909350565b7f416c726561647920617070726f766564000000000000000000000000000000005f82015250565b5f61419d60108361355d565b91506141a882614169565b602082019050919050565b5f6020820190508181035f8301526141ca81614191565b9050919050565b5f6040820190506141e45f830185612d6c565b6141f16020830184612d6c565b9392505050565b7f416c726561647920626c6f636b656400000000000000000000000000000000005f82015250565b5f61422c600f8361355d565b9150614237826141f8565b602082019050919050565b5f6020820190508181035f83015261425981614220565b9050919050565b7f506861736520737570706c7920657863656564732072656d61696e696e67204e5f8201527f465420737570706c790000000000000000000000000000000000000000000000602082015250565b5f6142ba60298361355d565b91506142c582614260565b604082019050919050565b5f6020820190508181035f8301526142e7816142ae565b9050919050565b7f50726576696f7573207068617365206e6f742066756c6c79206d696e746564005f82015250565b5f614322601f8361355d565b915061432d826142ee565b602082019050919050565b5f6020820190508181035f83015261434f81614316565b9050919050565b7f4e6577207072696365206d7573742062652068696768657200000000000000005f82015250565b5f61438a60188361355d565b915061439582614356565b602082019050919050565b5f6020820190508181035f8301526143b78161437e565b9050919050565b5f6060820190506143d15f830186613387565b6143de6020830185613387565b6143eb6040830184612d6c565b949350505050565b5f6040820190506144065f830185613387565b6144136020830184612d6c565b939250505056fea26469706673582212201f1ad2e6de49d67f843d99bc3341208cb189232b2331ee0df701d097cc300b6f64736f6c634300081e0033",
			"opcodes": "PUSH1 0xC0 PUSH1 0x40 MSTORE PUSH0 PUSH1 0x2 SSTORE PUSH0 PUSH1 0x6 SSTORE PUSH0 PUSH1 0x8 SSTORE CALLVALUE DUP1 ISZERO PUSH2 0x1B JUMPI PUSH0 PUSH0 REVERT JUMPDEST POP PUSH1 0x40 MLOAD PUSH2 0x4CAC CODESIZE SUB DUP1 PUSH2 0x4CAC DUP4 CODECOPY DUP2 DUP2 ADD PUSH1 0x40 MSTORE DUP2 ADD SWAP1 PUSH2 0x3D SWAP2 SWAP1 PUSH2 0x5E5 JUMP JUMPDEST CALLER PUSH0 PUSH20 0xFFFFFFFFFFFFFFFFFFFFFFFFFFFFFFFFFFFFFFFF AND DUP2 PUSH20 0xFFFFFFFFFFFFFFFFFFFFFFFFFFFFFFFFFFFFFFFF AND SUB PUSH2 0xAE JUMPI PUSH0 PUSH1 0x40 MLOAD PUSH32 0x1E4FBDF700000000000000000000000000000000000000000000000000000000 DUP2 MSTORE PUSH1 0x4 ADD PUSH2 0xA5 SWAP2 SWAP1 PUSH2 0x660 JUMP JUMPDEST PUSH1 0x40 MLOAD DUP1 SWAP2 SUB SWAP1 REVERT JUMPDEST PUSH2 0xBD DUP2 PUSH2 0x22D PUSH1 0x20 SHL PUSH1 0x20 SHR JUMP JUMPDEST POP PUSH1 0x1 DUP1 DUP2 SWAP1 SSTORE POP PUSH0 PUSH20 0xFFFFFFFFFFFFFFFFFFFFFFFFFFFFFFFFFFFFFFFF AND DUP4 PUSH20 0xFFFFFFFFFFFFFFFFFFFFFFFFFFFFFFFFFFFFFFFF AND EQ ISZERO DUP1 ISZERO PUSH2 0x12D JUMPI POP PUSH0 PUSH20 0xFFFFFFFFFFFFFFFFFFFFFFFFFFFFFFFFFFFFFFFF AND DUP3 PUSH20 0xFFFFFFFFFFFFFFFFFFFFFFFFFFFFFFFFFFFFFFFF AND EQ ISZERO JUMPDEST PUSH2 0x135 JUMPI PUSH0 PUSH0 REVERT JUMPDEST PUSH0 DUP2 MLOAD GT PUSH2 0x178 JUMPI PUSH1 0x40 MLOAD PUSH32 0x8C379A000000000000000000000000000000000000000000000000000000000 DUP2 MSTORE PUSH1 0x4 ADD PUSH2 0x16F SWAP1 PUSH2 0x6D3 JUMP JUMPDEST PUSH1 0x40 MLOAD DUP1 SWAP2 SUB SWAP1 REVERT JUMPDEST DUP3 PUSH20 0xFFFFFFFFFFFFFFFFFFFFFFFFFFFFFFFFFFFFFFFF AND PUSH1 0x80 DUP2 PUSH20 0xFFFFFFFFFFFFFFFFFFFFFFFFFFFFFFFFFFFFFFFF AND DUP2 MSTORE POP POP DUP2 PUSH20 0xFFFFFFFFFFFFFFFFFFFFFFFFFFFFFFFFFFFFFFFF AND PUSH1 0xA0 DUP2 PUSH20 0xFFFFFFFFFFFFFFFFFFFFFFFFFFFFFFFFFFFFFFFF AND DUP2 MSTORE POP POP PUSH0 PUSH0 SWAP1 POP JUMPDEST DUP2 MLOAD DUP2 LT ISZERO PUSH2 0x224 JUMPI PUSH2 0x217 DUP3 DUP3 DUP2 MLOAD DUP2 LT PUSH2 0x204 JUMPI PUSH2 0x203 PUSH2 0x6F1 JUMP JUMPDEST JUMPDEST PUSH1 0x20 MUL PUSH1 0x20 ADD ADD MLOAD PUSH2 0x2EE PUSH1 0x20 SHL PUSH1 0x20 SHR JUMP JUMPDEST DUP1 DUP1 PUSH1 0x1 ADD SWAP2 POP POP PUSH2 0x1E5 JUMP JUMPDEST POP POP POP POP PUSH2 0x803 JUMP JUMPDEST PUSH0 PUSH0 PUSH0 SWAP1 SLOAD SWAP1 PUSH2 0x100 EXP SWAP1 DIV PUSH20 0xFFFFFFFFFFFFFFFFFFFFFFFFFFFFFFFFFFFFFFFF AND SWAP1 POP DUP2 PUSH0 PUSH0 PUSH2 0x100 EXP DUP2 SLOAD DUP2 PUSH20 0xFFFFFFFFFFFFFFFFFFFFFFFFFFFFFFFFFFFFFFFF MUL NOT AND SWAP1 DUP4 PUSH20 0xFFFFFFFFFFFFFFFFFFFFFFFFFFFFFFFFFFFFFFFF AND MUL OR SWAP1 SSTORE POP DUP2 PUSH20 0xFFFFFFFFFFFFFFFFFFFFFFFFFFFFFFFFFFFFFFFF AND DUP2 PUSH20 0xFFFFFFFFFFFFFFFFFFFFFFFFFFFFFFFFFFFFFFFF AND PUSH32 0x8BE0079C531659141344CD1FD0A4F28419497F9722A3DAAFE3B4186F6B6457E0 PUSH1 0x40 MLOAD PUSH1 0x40 MLOAD DUP1 SWAP2 SUB SWAP1 LOG3 POP POP JUMP JUMPDEST PUSH1 0x5 PUSH0 DUP3 PUSH20 0xFFFFFFFFFFFFFFFFFFFFFFFFFFFFFFFFFFFFFFFF AND PUSH20 0xFFFFFFFFFFFFFFFFFFFFFFFFFFFFFFFFFFFFFFFF AND DUP2 MSTORE PUSH1 0x20 ADD SWAP1 DUP2 MSTORE PUSH1 0x20 ADD PUSH0 KECCAK256 PUSH0 SWAP1 SLOAD SWAP1 PUSH2 0x100 EXP SWAP1 DIV PUSH1 0xFF AND ISZERO PUSH2 0x378 JUMPI PUSH1 0x40 MLOAD PUSH32 0x8C379A000000000000000000000000000000000000000000000000000000000 DUP2 MSTORE PUSH1 0x4 ADD PUSH2 0x36F SWAP1 PUSH2 0x768 JUMP JUMPDEST PUSH1 0x40 MLOAD DUP1 SWAP2 SUB SWAP1 REVERT JUMPDEST PUSH1 0x1 PUSH1 0x5 PUSH0 DUP4 PUSH20 0xFFFFFFFFFFFFFFFFFFFFFFFFFFFFFFFFFFFFFFFF AND PUSH20 0xFFFFFFFFFFFFFFFFFFFFFFFFFFFFFFFFFFFFFFFF AND DUP2 MSTORE PUSH1 0x20 ADD SWAP1 DUP2 MSTORE PUSH1 0x20 ADD PUSH0 KECCAK256 PUSH0 PUSH2 0x100 EXP DUP2 SLOAD DUP2 PUSH1 0xFF MUL NOT AND SWAP1 DUP4 ISZERO ISZERO MUL OR SWAP1 SSTORE POP PUSH1 0x6 PUSH0 DUP2 SLOAD DUP1 SWAP3 SWAP2 SWAP1 PUSH2 0x3DF SWAP1 PUSH2 0x7BC JUMP JUMPDEST SWAP2 SWAP1 POP SSTORE POP DUP1 PUSH20 0xFFFFFFFFFFFFFFFFFFFFFFFFFFFFFFFFFFFFFFFF AND PUSH32 0x956F4B06F20EDA3AA4F6BE9E72E8FC77BEB3F95F4F2A95A796B2AF742583D743 PUSH1 0x40 MLOAD PUSH1 0x40 MLOAD DUP1 SWAP2 SUB SWAP1 LOG2 POP JUMP JUMPDEST PUSH0 PUSH1 0x40 MLOAD SWAP1 POP SWAP1 JUMP JUMPDEST PUSH0 PUSH0 REVERT JUMPDEST PUSH0 PUSH0 REVERT JUMPDEST PUSH0 PUSH20 0xFFFFFFFFFFFFFFFFFFFFFFFFFFFFFFFFFFFFFFFF DUP3 AND SWAP1 POP SWAP2 SWAP1 POP JUMP JUMPDEST PUSH0 PUSH2 0x464 DUP3 PUSH2 0x43B JUMP JUMPDEST SWAP1 POP SWAP2 SWAP1 POP JUMP JUMPDEST PUSH2 0x474 DUP2 PUSH2 0x45A JUMP JUMPDEST DUP2 EQ PUSH2 0x47E JUMPI PUSH0 PUSH0 REVERT JUMPDEST POP JUMP JUMPDEST PUSH0 DUP2 MLOAD SWAP1 POP PUSH2 0x48F DUP2 PUSH2 0x46B JUMP JUMPDEST SWAP3 SWAP2 POP POP JUMP JUMPDEST PUSH0 PUSH0 REVERT JUMPDEST PUSH0 PUSH1 0x1F NOT PUSH1 0x1F DUP4 ADD AND SWAP1 POP SWAP2 SWAP1 POP JUMP JUMPDEST PUSH32 0x4E487B7100000000000000000000000000000000000000000000000000000000 PUSH0 MSTORE PUSH1 0x41 PUSH1 0x4 MSTORE PUSH1 0x24 PUSH0 REVERT JUMPDEST PUSH2 0x4DF DUP3 PUSH2 0x499 JUMP JUMPDEST DUP2 ADD DUP2 DUP2 LT PUSH8 0xFFFFFFFFFFFFFFFF DUP3 GT OR ISZERO PUSH2 0x4FE JUMPI PUSH2 0x4FD PUSH2 0x4A9 JUMP JUMPDEST JUMPDEST DUP1 PUSH1 0x40 MSTORE POP POP POP JUMP JUMPDEST PUSH0 PUSH2 0x510 PUSH2 0x42A JUMP JUMPDEST SWAP1 POP PUSH2 0x51C DUP3 DUP3 PUSH2 0x4D6 JUMP JUMPDEST SWAP2 SWAP1 POP JUMP JUMPDEST PUSH0 PUSH8 0xFFFFFFFFFFFFFFFF DUP3 GT ISZERO PUSH2 0x53B JUMPI PUSH2 0x53A PUSH2 0x4A9 JUMP JUMPDEST JUMPDEST PUSH1 0x20 DUP3 MUL SWAP1 POP PUSH1 0x20 DUP2 ADD SWAP1 POP SWAP2 SWAP1 POP JUMP JUMPDEST PUSH0 PUSH0 REVERT JUMPDEST PUSH0 PUSH2 0x562 PUSH2 0x55D DUP5 PUSH2 0x521 JUMP JUMPDEST PUSH2 0x507 JUMP JUMPDEST SWAP1 POP DUP1 DUP4 DUP3 MSTORE PUSH1 0x20 DUP3 ADD SWAP1 POP PUSH1 0x20 DUP5 MUL DUP4 ADD DUP6 DUP2 GT ISZERO PUSH2 0x585 JUMPI PUSH2 0x584 PUSH2 0x54C JUMP JUMPDEST JUMPDEST DUP4 JUMPDEST DUP2 DUP2 LT ISZERO PUSH2 0x5AE JUMPI DUP1 PUSH2 0x59A DUP9 DUP3 PUSH2 0x481 JUMP JUMPDEST DUP5 MSTORE PUSH1 0x20 DUP5 ADD SWAP4 POP POP PUSH1 0x20 DUP2 ADD SWAP1 POP PUSH2 0x587 JUMP JUMPDEST POP POP POP SWAP4 SWAP3 POP POP POP JUMP JUMPDEST PUSH0 DUP3 PUSH1 0x1F DUP4 ADD SLT PUSH2 0x5CC JUMPI PUSH2 0x5CB PUSH2 0x495 JUMP JUMPDEST JUMPDEST DUP2 MLOAD PUSH2 0x5DC DUP5 DUP3 PUSH1 0x20 DUP7 ADD PUSH2 0x550 JUMP JUMPDEST SWAP2 POP POP SWAP3 SWAP2 POP POP JUMP JUMPDEST PUSH0 PUSH0 PUSH0 PUSH1 0x60 DUP5 DUP7 SUB SLT ISZERO PUSH2 0x5FC JUMPI PUSH2 0x5FB PUSH2 0x433 JUMP JUMPDEST JUMPDEST PUSH0 PUSH2 0x609 DUP7 DUP3 DUP8 ADD PUSH2 0x481 JUMP JUMPDEST SWAP4 POP POP PUSH1 0x20 PUSH2 0x61A DUP7 DUP3 DUP8 ADD PUSH2 0x481 JUMP JUMPDEST SWAP3 POP POP PUSH1 0x40 DUP5 ADD MLOAD PUSH8 0xFFFFFFFFFFFFFFFF DUP2 GT ISZERO PUSH2 0x63B JUMPI PUSH2 0x63A PUSH2 0x437 JUMP JUMPDEST JUMPDEST PUSH2 0x647 DUP7 DUP3 DUP8 ADD PUSH2 0x5B8 JUMP JUMPDEST SWAP2 POP POP SWAP3 POP SWAP3 POP SWAP3 JUMP JUMPDEST PUSH2 0x65A DUP2 PUSH2 0x45A JUMP JUMPDEST DUP3 MSTORE POP POP JUMP JUMPDEST PUSH0 PUSH1 0x20 DUP3 ADD SWAP1 POP PUSH2 0x673 PUSH0 DUP4 ADD DUP5 PUSH2 0x651 JUMP JUMPDEST SWAP3 SWAP2 POP POP JUMP JUMPDEST PUSH0 DUP3 DUP3 MSTORE PUSH1 0x20 DUP3 ADD SWAP1 POP SWAP3 SWAP2 POP POP JUMP JUMPDEST PUSH32 0x4E6F20626F617264206D656D626572732070726F766964656400000000000000 PUSH0 DUP3 ADD MSTORE POP JUMP JUMPDEST PUSH0 PUSH2 0x6BD PUSH1 0x19 DUP4 PUSH2 0x679 JUMP JUMPDEST SWAP2 POP PUSH2 0x6C8 DUP3 PUSH2 0x689 JUMP JUMPDEST PUSH1 0x20 DUP3 ADD SWAP1 POP SWAP2 SWAP1 POP JUMP JUMPDEST PUSH0 PUSH1 0x20 DUP3 ADD SWAP1 POP DUP2 DUP2 SUB PUSH0 DUP4 ADD MSTORE PUSH2 0x6EA DUP2 PUSH2 0x6B1 JUMP JUMPDEST SWAP1 POP SWAP2 SWAP1 POP JUMP JUMPDEST PUSH32 0x4E487B7100000000000000000000000000000000000000000000000000000000 PUSH0 MSTORE PUSH1 0x32 PUSH1 0x4 MSTORE PUSH1 0x24 PUSH0 REVERT JUMPDEST PUSH32 0x416C7265616479206120626F617264206D656D62657200000000000000000000 PUSH0 DUP3 ADD MSTORE POP JUMP JUMPDEST PUSH0 PUSH2 0x752 PUSH1 0x16 DUP4 PUSH2 0x679 JUMP JUMPDEST SWAP2 POP PUSH2 0x75D DUP3 PUSH2 0x71E JUMP JUMPDEST PUSH1 0x20 DUP3 ADD SWAP1 POP SWAP2 SWAP1 POP JUMP JUMPDEST PUSH0 PUSH1 0x20 DUP3 ADD SWAP1 POP DUP2 DUP2 SUB PUSH0 DUP4 ADD MSTORE PUSH2 0x77F DUP2 PUSH2 0x746 JUMP JUMPDEST SWAP1 POP SWAP2 SWAP1 POP JUMP JUMPDEST PUSH32 0x4E487B7100000000000000000000000000000000000000000000000000000000 PUSH0 MSTORE PUSH1 0x11 PUSH1 0x4 MSTORE PUSH1 0x24 PUSH0 REVERT JUMPDEST PUSH0 DUP2 SWAP1 POP SWAP2 SWAP1 POP JUMP JUMPDEST PUSH0 PUSH2 0x7C6 DUP3 PUSH2 0x7B3 JUMP JUMPDEST SWAP2 POP PUSH32 0xFFFFFFFFFFFFFFFFFFFFFFFFFFFFFFFFFFFFFFFFFFFFFFFFFFFFFFFFFFFFFFFF DUP3 SUB PUSH2 0x7F8 JUMPI PUSH2 0x7F7 PUSH2 0x786 JUMP JUMPDEST JUMPDEST PUSH1 0x1 DUP3 ADD SWAP1 POP SWAP2 SWAP1 POP JUMP JUMPDEST PUSH1 0x80 MLOAD PUSH1 0xA0 MLOAD PUSH2 0x4450 PUSH2 0x85C PUSH0 CODECOPY PUSH0 DUP2 DUP2 PUSH2 0x840 ADD MSTORE DUP2 DUP2 PUSH2 0xE65 ADD MSTORE DUP2 DUP2 PUSH2 0x11E1 ADD MSTORE DUP2 DUP2 PUSH2 0x1F62 ADD MSTORE DUP2 DUP2 PUSH2 0x2005 ADD MSTORE DUP2 DUP2 PUSH2 0x2146 ADD MSTORE PUSH2 0x288B ADD MSTORE PUSH0 DUP2 DUP2 PUSH2 0x6E2 ADD MSTORE DUP2 DUP2 PUSH2 0x183B ADD MSTORE PUSH2 0x1E47 ADD MSTORE PUSH2 0x4450 PUSH0 RETURN INVALID PUSH1 0x80 PUSH1 0x40 MSTORE CALLVALUE DUP1 ISZERO PUSH2 0xF JUMPI PUSH0 PUSH0 REVERT JUMPDEST POP PUSH1 0x4 CALLDATASIZE LT PUSH2 0x1A7 JUMPI PUSH0 CALLDATALOAD PUSH1 0xE0 SHR DUP1 PUSH4 0x72403A79 GT PUSH2 0xF7 JUMPI DUP1 PUSH4 0xC5CAC202 GT PUSH2 0x95 JUMPI DUP1 PUSH4 0xD88150EA GT PUSH2 0x6F JUMPI DUP1 PUSH4 0xD88150EA EQ PUSH2 0x4E8 JUMPI DUP1 PUSH4 0xDFDC0DE2 EQ PUSH2 0x506 JUMPI DUP1 PUSH4 0xE2B0608D EQ PUSH2 0x522 JUMPI DUP1 PUSH4 0xF2FDE38B EQ PUSH2 0x53E JUMPI PUSH2 0x1A7 JUMP JUMPDEST DUP1 PUSH4 0xC5CAC202 EQ PUSH2 0x46C JUMPI DUP1 PUSH4 0xC6E64E53 EQ PUSH2 0x49C JUMPI DUP1 PUSH4 0xCAE359B9 EQ PUSH2 0x4B8 JUMPI PUSH2 0x1A7 JUMP JUMPDEST DUP1 PUSH4 0x937B2581 GT PUSH2 0xD1 JUMPI DUP1 PUSH4 0x937B2581 EQ PUSH2 0x3CD JUMPI DUP1 PUSH4 0x9ECEDDEA EQ PUSH2 0x402 JUMPI DUP1 PUSH4 0xBC4456EB EQ PUSH2 0x41E JUMPI DUP1 PUSH4 0xBFF13785 EQ PUSH2 0x43C JUMPI PUSH2 0x1A7 JUMP JUMPDEST DUP1 PUSH4 0x72403A79 EQ PUSH2 0x363 JUMPI DUP1 PUSH4 0x8C858A14 EQ PUSH2 0x37F JUMPI DUP1 PUSH4 0x8DA5CB5B EQ PUSH2 0x3AF JUMPI PUSH2 0x1A7 JUMP JUMPDEST DUP1 PUSH4 0x359F82A3 GT PUSH2 0x164 JUMPI DUP1 PUSH4 0x6353A400 GT PUSH2 0x13E JUMPI DUP1 PUSH4 0x6353A400 EQ PUSH2 0x2D7 JUMPI DUP1 PUSH4 0x6F9FB98A EQ PUSH2 0x307 JUMPI DUP1 PUSH4 0x715018A6 EQ PUSH2 0x325 JUMPI DUP1 PUSH4 0x7205249E EQ PUSH2 0x32F JUMPI PUSH2 0x1A7 JUMP JUMPDEST DUP1 PUSH4 0x359F82A3 EQ PUSH2 0x26D JUMPI DUP1 PUSH4 0x3E413BEE EQ PUSH2 0x289 JUMPI DUP1 PUSH4 0x5B65DA64 EQ PUSH2 0x2A7 JUMPI PUSH2 0x1A7 JUMP JUMPDEST DUP1 PUSH4 0x55AD42E EQ PUSH2 0x1AB JUMPI DUP1 PUSH4 0x1558BED3 EQ PUSH2 0x1C9 JUMPI DUP1 PUSH4 0x1714F2E0 EQ PUSH2 0x1F9 JUMPI DUP1 PUSH4 0x21739779 EQ PUSH2 0x217 JUMPI DUP1 PUSH4 0x24079158 EQ PUSH2 0x233 JUMPI DUP1 PUSH4 0x24F13A76 EQ PUSH2 0x251 JUMPI JUMPDEST PUSH0 PUSH0 REVERT JUMPDEST PUSH2 0x1B3 PUSH2 0x55A JUMP JUMPDEST PUSH1 0x40 MLOAD PUSH2 0x1C0 SWAP2 SWAP1 PUSH2 0x2D7B JUMP JUMPDEST PUSH1 0x40 MLOAD DUP1 SWAP2 SUB SWAP1 RETURN JUMPDEST PUSH2 0x1E3 PUSH1 0x4 DUP1 CALLDATASIZE SUB DUP2 ADD SWAP1 PUSH2 0x1DE SWAP2 SWAP1 PUSH2 0x2DCF JUMP JUMPDEST PUSH2 0x560 JUMP JUMPDEST PUSH1 0x40 MLOAD PUSH2 0x1F0 SWAP2 SWAP1 PUSH2 0x2D7B JUMP JUMPDEST PUSH1 0x40 MLOAD DUP1 SWAP2 SUB SWAP1 RETURN JUMPDEST PUSH2 0x201 PUSH2 0x6E0 JUMP JUMPDEST PUSH1 0x40 MLOAD PUSH2 0x20E SWAP2 SWAP1 PUSH2 0x2E74 JUMP JUMPDEST PUSH1 0x40 MLOAD DUP1 SWAP2 SUB SWAP1 RETURN JUMPDEST PUSH2 0x231 PUSH1 0x4 DUP1 CALLDATASIZE SUB DUP2 ADD SWAP1 PUSH2 0x22C SWAP2 SWAP1 PUSH2 0x2EC8 JUMP JUMPDEST PUSH2 0x704 JUMP JUMPDEST STOP JUMPDEST PUSH2 0x23B PUSH2 0xA2E JUMP JUMPDEST PUSH1 0x40 MLOAD PUSH2 0x248 SWAP2 SWAP1 PUSH2 0x2D7B JUMP JUMPDEST PUSH1 0x40 MLOAD DUP1 SWAP2 SUB SWAP1 RETURN JUMPDEST PUSH2 0x26B PUSH1 0x4 DUP1 CALLDATASIZE SUB DUP2 ADD SWAP1 PUSH2 0x266 SWAP2 SWAP1 PUSH2 0x2DCF JUMP JUMPDEST PUSH2 0xA34 JUMP JUMPDEST STOP JUMPDEST PUSH2 0x287 PUSH1 0x4 DUP1 CALLDATASIZE SUB DUP2 ADD SWAP1 PUSH2 0x282 SWAP2 SWAP1 PUSH2 0x3042 JUMP JUMPDEST PUSH2 0xB4D JUMP JUMPDEST STOP JUMPDEST PUSH2 0x291 PUSH2 0xE63 JUMP JUMPDEST PUSH1 0x40 MLOAD PUSH2 0x29E SWAP2 SWAP1 PUSH2 0x30E2 JUMP JUMPDEST PUSH1 0x40 MLOAD DUP1 SWAP2 SUB SWAP1 RETURN JUMPDEST PUSH2 0x2C1 PUSH1 0x4 DUP1 CALLDATASIZE SUB DUP2 ADD SWAP1 PUSH2 0x2BC SWAP2 SWAP1 PUSH2 0x2DCF JUMP JUMPDEST PUSH2 0xE87 JUMP JUMPDEST PUSH1 0x40 MLOAD PUSH2 0x2CE SWAP2 SWAP1 PUSH2 0x2D7B JUMP JUMPDEST PUSH1 0x40 MLOAD DUP1 SWAP2 SUB SWAP1 RETURN JUMPDEST PUSH2 0x2F1 PUSH1 0x4 DUP1 CALLDATASIZE SUB DUP2 ADD SWAP1 PUSH2 0x2EC SWAP2 SWAP1 PUSH2 0x30FB JUMP JUMPDEST PUSH2 0xFE1 JUMP JUMPDEST PUSH1 0x40 MLOAD PUSH2 0x2FE SWAP2 SWAP1 PUSH2 0x3272 JUMP JUMPDEST PUSH1 0x40 MLOAD DUP1 SWAP2 SUB SWAP1 RETURN JUMPDEST PUSH2 0x30F PUSH2 0x11DE JUMP JUMPDEST PUSH1 0x40 MLOAD PUSH2 0x31C SWAP2 SWAP1 PUSH2 0x2D7B JUMP JUMPDEST PUSH1 0x40 MLOAD DUP1 SWAP2 SUB SWAP1 RETURN JUMPDEST PUSH2 0x32D PUSH2 0x127C JUMP JUMPDEST STOP JUMPDEST PUSH2 0x349 PUSH1 0x4 DUP1 CALLDATASIZE SUB DUP2 ADD SWAP1 PUSH2 0x344 SWAP2 SWAP1 PUSH2 0x328C JUMP JUMPDEST PUSH2 0x128F JUMP JUMPDEST PUSH1 0x40 MLOAD PUSH2 0x35A SWAP6 SWAP5 SWAP4 SWAP3 SWAP2 SWAP1 PUSH2 0x32F8 JUMP JUMPDEST PUSH1 0x40 MLOAD DUP1 SWAP2 SUB SWAP1 RETURN JUMPDEST PUSH2 0x37D PUSH1 0x4 DUP1 CALLDATASIZE SUB DUP2 ADD SWAP1 PUSH2 0x378 SWAP2 SWAP1 PUSH2 0x3349 JUMP JUMPDEST PUSH2 0x1626 JUMP JUMPDEST STOP JUMPDEST PUSH2 0x399 PUSH1 0x4 DUP1 CALLDATASIZE SUB DUP2 ADD SWAP1 PUSH2 0x394 SWAP2 SWAP1 PUSH2 0x2DCF JUMP JUMPDEST PUSH2 0x17F1 JUMP JUMPDEST PUSH1 0x40 MLOAD PUSH2 0x3A6 SWAP2 SWAP1 PUSH2 0x2D7B JUMP JUMPDEST PUSH1 0x40 MLOAD DUP1 SWAP2 SUB SWAP1 RETURN JUMPDEST PUSH2 0x3B7 PUSH2 0x18F1 JUMP JUMPDEST PUSH1 0x40 MLOAD PUSH2 0x3C4 SWAP2 SWAP1 PUSH2 0x3396 JUMP JUMPDEST PUSH1 0x40 MLOAD DUP1 SWAP2 SUB SWAP1 RETURN JUMPDEST PUSH2 0x3E7 PUSH1 0x4 DUP1 CALLDATASIZE SUB DUP2 ADD SWAP1 PUSH2 0x3E2 SWAP2 SWAP1 PUSH2 0x2DCF JUMP JUMPDEST PUSH2 0x1918 JUMP JUMPDEST PUSH1 0x40 MLOAD PUSH2 0x3F9 SWAP7 SWAP6 SWAP5 SWAP4 SWAP3 SWAP2 SWAP1 PUSH2 0x33C9 JUMP JUMPDEST PUSH1 0x40 MLOAD DUP1 SWAP2 SUB SWAP1 RETURN JUMPDEST PUSH2 0x41C PUSH1 0x4 DUP1 CALLDATASIZE SUB DUP2 ADD SWAP1 PUSH2 0x417 SWAP2 SWAP1 PUSH2 0x2DCF JUMP JUMPDEST PUSH2 0x1988 JUMP JUMPDEST STOP JUMPDEST PUSH2 0x426 PUSH2 0x1C23 JUMP JUMPDEST PUSH1 0x40 MLOAD PUSH2 0x433 SWAP2 SWAP1 PUSH2 0x2D7B JUMP JUMPDEST PUSH1 0x40 MLOAD DUP1 SWAP2 SUB SWAP1 RETURN JUMPDEST PUSH2 0x456 PUSH1 0x4 DUP1 CALLDATASIZE SUB DUP2 ADD SWAP1 PUSH2 0x451 SWAP2 SWAP1 PUSH2 0x3428 JUMP JUMPDEST PUSH2 0x1C2A JUMP JUMPDEST PUSH1 0x40 MLOAD PUSH2 0x463 SWAP2 SWAP1 PUSH2 0x3453 JUMP JUMPDEST PUSH1 0x40 MLOAD DUP1 SWAP2 SUB SWAP1 RETURN JUMPDEST PUSH2 0x486 PUSH1 0x4 DUP1 CALLDATASIZE SUB DUP2 ADD SWAP1 PUSH2 0x481 SWAP2 SWAP1 PUSH2 0x2DCF JUMP JUMPDEST PUSH2 0x1C47 JUMP JUMPDEST PUSH1 0x40 MLOAD PUSH2 0x493 SWAP2 SWAP1 PUSH2 0x2D7B JUMP JUMPDEST PUSH1 0x40 MLOAD DUP1 SWAP2 SUB SWAP1 RETURN JUMPDEST PUSH2 0x4B6 PUSH1 0x4 DUP1 CALLDATASIZE SUB DUP2 ADD SWAP1 PUSH2 0x4B1 SWAP2 SWAP1 PUSH2 0x328C JUMP JUMPDEST PUSH2 0x1DA1 JUMP JUMPDEST STOP JUMPDEST PUSH2 0x4D2 PUSH1 0x4 DUP1 CALLDATASIZE SUB DUP2 ADD SWAP1 PUSH2 0x4CD SWAP2 SWAP1 PUSH2 0x2DCF JUMP JUMPDEST PUSH2 0x2261 JUMP JUMPDEST PUSH1 0x40 MLOAD PUSH2 0x4DF SWAP2 SWAP1 PUSH2 0x2D7B JUMP JUMPDEST PUSH1 0x40 MLOAD DUP1 SWAP2 SUB SWAP1 RETURN JUMPDEST PUSH2 0x4F0 PUSH2 0x23BA JUMP JUMPDEST PUSH1 0x40 MLOAD PUSH2 0x4FD SWAP2 SWAP1 PUSH2 0x2D7B JUMP JUMPDEST PUSH1 0x40 MLOAD DUP1 SWAP2 SUB SWAP1 RETURN JUMPDEST PUSH2 0x520 PUSH1 0x4 DUP1 CALLDATASIZE SUB DUP2 ADD SWAP1 PUSH2 0x51B SWAP2 SWAP1 PUSH2 0x2DCF JUMP JUMPDEST PUSH2 0x23C0 JUMP JUMPDEST STOP JUMPDEST PUSH2 0x53C PUSH1 0x4 DUP1 CALLDATASIZE SUB DUP2 ADD SWAP1 PUSH2 0x537 SWAP2 SWAP1 PUSH2 0x351E JUMP JUMPDEST PUSH2 0x2565 JUMP JUMPDEST STOP JUMPDEST PUSH2 0x558 PUSH1 0x4 DUP1 CALLDATASIZE SUB DUP2 ADD SWAP1 PUSH2 0x553 SWAP2 SWAP1 PUSH2 0x3428 JUMP JUMPDEST PUSH2 0x27AA JUMP JUMPDEST STOP JUMPDEST PUSH1 0x2 SLOAD DUP2 JUMP JUMPDEST PUSH0 DUP2 PUSH1 0x5 DUP2 GT ISZERO PUSH2 0x5A6 JUMPI PUSH1 0x40 MLOAD PUSH32 0x8C379A000000000000000000000000000000000000000000000000000000000 DUP2 MSTORE PUSH1 0x4 ADD PUSH2 0x59D SWAP1 PUSH2 0x35B7 JUMP JUMPDEST PUSH1 0x40 MLOAD DUP1 SWAP2 SUB SWAP1 REVERT JUMPDEST PUSH0 PUSH1 0x3 PUSH0 PUSH1 0x2 SLOAD DUP2 MSTORE PUSH1 0x20 ADD SWAP1 DUP2 MSTORE PUSH1 0x20 ADD PUSH0 KECCAK256 PUSH1 0x40 MLOAD DUP1 PUSH1 0x60 ADD PUSH1 0x40 MSTORE SWAP1 DUP2 PUSH0 DUP3 ADD PUSH1 0x6 DUP1 PUSH1 0x20 MUL PUSH1 0x40 MLOAD SWAP1 DUP2 ADD PUSH1 0x40 MSTORE DUP1 SWAP3 SWAP2 SWAP1 DUP3 PUSH1 0x6 DUP1 ISZERO PUSH2 0x600 JUMPI PUSH1 0x20 MUL DUP3 ADD SWAP2 JUMPDEST DUP2 SLOAD DUP2 MSTORE PUSH1 0x20 ADD SWAP1 PUSH1 0x1 ADD SWAP1 DUP1 DUP4 GT PUSH2 0x5EC JUMPI JUMPDEST POP POP POP POP POP DUP2 MSTORE PUSH1 0x20 ADD PUSH1 0x6 DUP3 ADD PUSH1 0x6 DUP1 PUSH1 0x20 MUL PUSH1 0x40 MLOAD SWAP1 DUP2 ADD PUSH1 0x40 MSTORE DUP1 SWAP3 SWAP2 SWAP1 DUP3 PUSH1 0x6 DUP1 ISZERO PUSH2 0x645 JUMPI PUSH1 0x20 MUL DUP3 ADD SWAP2 JUMPDEST DUP2 SLOAD DUP2 MSTORE PUSH1 0x20 ADD SWAP1 PUSH1 0x1 ADD SWAP1 DUP1 DUP4 GT PUSH2 0x631 JUMPI JUMPDEST POP POP POP POP POP DUP2 MSTORE PUSH1 0x20 ADD PUSH1 0xC DUP3 ADD PUSH1 0x6 DUP1 PUSH1 0x20 MUL PUSH1 0x40 MLOAD SWAP1 DUP2 ADD PUSH1 0x40 MSTORE DUP1 SWAP3 SWAP2 SWAP1 DUP3 PUSH1 0x6 DUP1 ISZERO PUSH2 0x68A JUMPI PUSH1 0x20 MUL DUP3 ADD SWAP2 JUMPDEST DUP2 SLOAD DUP2 MSTORE PUSH1 0x20 ADD SWAP1 PUSH1 0x1 ADD SWAP1 DUP1 DUP4 GT PUSH2 0x676 JUMPI JUMPDEST POP POP POP POP POP DUP2 MSTORE POP POP SWAP1 POP DUP1 PUSH1 0x40 ADD MLOAD DUP5 PUSH1 0x6 DUP2 LT PUSH2 0x6AC JUMPI PUSH2 0x6AB PUSH2 0x35D5 JUMP JUMPDEST JUMPDEST PUSH1 0x20 MUL ADD MLOAD DUP2 PUSH1 0x20 ADD MLOAD DUP6 PUSH1 0x6 DUP2 LT PUSH2 0x6C8 JUMPI PUSH2 0x6C7 PUSH2 0x35D5 JUMP JUMPDEST JUMPDEST PUSH1 0x20 MUL ADD MLOAD PUSH2 0x6D7 SWAP2 SWAP1 PUSH2 0x362F JUMP JUMPDEST SWAP3 POP POP POP SWAP2 SWAP1 POP JUMP JUMPDEST PUSH32 0x0 DUP2 JUMP JUMPDEST PUSH1 0x5 PUSH0 CALLER PUSH20 0xFFFFFFFFFFFFFFFFFFFFFFFFFFFFFFFFFFFFFFFF AND PUSH20 0xFFFFFFFFFFFFFFFFFFFFFFFFFFFFFFFFFFFFFFFF AND DUP2 MSTORE PUSH1 0x20 ADD SWAP1 DUP2 MSTORE PUSH1 0x20 ADD PUSH0 KECCAK256 PUSH0 SWAP1 SLOAD SWAP1 PUSH2 0x100 EXP SWAP1 DIV PUSH1 0xFF AND PUSH2 0x78D JUMPI PUSH1 0x40 MLOAD PUSH32 0x8C379A000000000000000000000000000000000000000000000000000000000 DUP2 MSTORE PUSH1 0x4 ADD PUSH2 0x784 SWAP1 PUSH2 0x36AC JUMP JUMPDEST PUSH1 0x40 MLOAD DUP1 SWAP2 SUB SWAP1 REVERT JUMPDEST PUSH0 DUP3 GT PUSH2 0x7CF JUMPI PUSH1 0x40 MLOAD PUSH32 0x8C379A000000000000000000000000000000000000000000000000000000000 DUP2 MSTORE PUSH1 0x4 ADD PUSH2 0x7C6 SWAP1 PUSH2 0x3714 JUMP JUMPDEST PUSH1 0x40 MLOAD DUP1 SWAP2 SUB SWAP1 REVERT JUMPDEST PUSH0 PUSH20 0xFFFFFFFFFFFFFFFFFFFFFFFFFFFFFFFFFFFFFFFF AND DUP2 PUSH20 0xFFFFFFFFFFFFFFFFFFFFFFFFFFFFFFFFFFFFFFFF AND SUB PUSH2 0x83D JUMPI PUSH1 0x40 MLOAD PUSH32 0x8C379A000000000000000000000000000000000000000000000000000000000 DUP2 MSTORE PUSH1 0x4 ADD PUSH2 0x834 SWAP1 PUSH2 0x377C JUMP JUMPDEST PUSH1 0x40 MLOAD DUP1 SWAP2 SUB SWAP1 REVERT JUMPDEST DUP2 PUSH32 0x0 PUSH20 0xFFFFFFFFFFFFFFFFFFFFFFFFFFFFFFFFFFFFFFFF AND PUSH4 0x70A08231 ADDRESS PUSH1 0x40 MLOAD DUP3 PUSH4 0xFFFFFFFF AND PUSH1 0xE0 SHL DUP2 MSTORE PUSH1 0x4 ADD PUSH2 0x897 SWAP2 SWAP1 PUSH2 0x3396 JUMP JUMPDEST PUSH1 0x20 PUSH1 0x40 MLOAD DUP1 DUP4 SUB DUP2 DUP7 GAS STATICCALL ISZERO DUP1 ISZERO PUSH2 0x8B2 JUMPI RETURNDATASIZE PUSH0 PUSH0 RETURNDATACOPY RETURNDATASIZE PUSH0 REVERT JUMPDEST POP POP POP POP PUSH1 0x40 MLOAD RETURNDATASIZE PUSH1 0x1F NOT PUSH1 0x1F DUP3 ADD AND DUP3 ADD DUP1 PUSH1 0x40 MSTORE POP DUP2 ADD SWAP1 PUSH2 0x8D6 SWAP2 SWAP1 PUSH2 0x37AE JUMP JUMPDEST LT ISZERO PUSH2 0x917 JUMPI PUSH1 0x40 MLOAD PUSH32 0x8C379A000000000000000000000000000000000000000000000000000000000 DUP2 MSTORE PUSH1 0x4 ADD PUSH2 0x90E SWAP1 PUSH2 0x3823 JUMP JUMPDEST PUSH1 0x40 MLOAD DUP1 SWAP2 SUB SWAP1 REVERT JUMPDEST PUSH0 PUSH1 0x8 PUSH0 DUP2 SLOAD DUP1 SWAP3 SWAP2 SWAP1 PUSH2 0x92A SWAP1 PUSH2 0x3841 JUMP JUMPDEST SWAP2 SWAP1 POP SSTORE SWAP1 POP PUSH0 PUSH1 0x7 PUSH0 DUP4 DUP2 MSTORE PUSH1 0x20 ADD SWAP1 DUP2 MSTORE PUSH1 0x20 ADD PUSH0 KECCAK256 SWAP1 POP DUP4 DUP2 PUSH0 ADD DUP2 SWAP1 SSTORE POP DUP3 DUP2 PUSH1 0x1 ADD PUSH0 PUSH2 0x100 EXP DUP2 SLOAD DUP2 PUSH20 0xFFFFFFFFFFFFFFFFFFFFFFFFFFFFFFFFFFFFFFFF MUL NOT AND SWAP1 DUP4 PUSH20 0xFFFFFFFFFFFFFFFFFFFFFFFFFFFFFFFFFFFFFFFF AND MUL OR SWAP1 SSTORE POP TIMESTAMP DUP2 PUSH1 0x2 ADD DUP2 SWAP1 SSTORE POP PUSH0 DUP2 PUSH1 0x3 ADD DUP2 SWAP1 SSTORE POP PUSH0 DUP2 PUSH1 0x5 ADD PUSH0 PUSH2 0x100 EXP DUP2 SLOAD DUP2 PUSH1 0xFF MUL NOT AND SWAP1 DUP4 ISZERO ISZERO MUL OR SWAP1 SSTORE POP PUSH0 DUP2 PUSH1 0x5 ADD PUSH1 0x1 PUSH2 0x100 EXP DUP2 SLOAD DUP2 PUSH1 0xFF MUL NOT AND SWAP1 DUP4 ISZERO ISZERO MUL OR SWAP1 SSTORE POP CALLER PUSH20 0xFFFFFFFFFFFFFFFFFFFFFFFFFFFFFFFFFFFFFFFF AND DUP3 PUSH32 0xDDFF8E72A79F7F23C3DE5BED3C8189AABC3C85DBA0B2F1AF299D96EEF93861B1 DUP7 DUP7 PUSH1 0x40 MLOAD PUSH2 0xA20 SWAP3 SWAP2 SWAP1 PUSH2 0x3888 JUMP JUMPDEST PUSH1 0x40 MLOAD DUP1 SWAP2 SUB SWAP1 LOG3 POP POP POP POP JUMP JUMPDEST PUSH1 0x6 SLOAD DUP2 JUMP JUMPDEST PUSH0 PUSH1 0x7 PUSH0 DUP4 DUP2 MSTORE PUSH1 0x20 ADD SWAP1 DUP2 MSTORE PUSH1 0x20 ADD PUSH0 KECCAK256 SWAP1 POP DUP1 PUSH1 0x5 ADD PUSH0 SWAP1 SLOAD SWAP1 PUSH2 0x100 EXP SWAP1 DIV PUSH1 0xFF AND ISZERO PUSH2 0xA99 JUMPI PUSH1 0x40 MLOAD PUSH32 0x8C379A000000000000000000000000000000000000000000000000000000000 DUP2 MSTORE PUSH1 0x4 ADD PUSH2 0xA90 SWAP1 PUSH2 0x38F9 JUMP JUMPDEST PUSH1 0x40 MLOAD DUP1 SWAP2 SUB SWAP1 REVERT JUMPDEST DUP1 PUSH1 0x5 ADD PUSH1 0x1 SWAP1 SLOAD SWAP1 PUSH2 0x100 EXP SWAP1 DIV PUSH1 0xFF AND ISZERO PUSH2 0xAEB JUMPI PUSH1 0x40 MLOAD PUSH32 0x8C379A000000000000000000000000000000000000000000000000000000000 DUP2 MSTORE PUSH1 0x4 ADD PUSH2 0xAE2 SWAP1 PUSH2 0x3961 JUMP JUMPDEST PUSH1 0x40 MLOAD DUP1 SWAP2 SUB SWAP1 REVERT JUMPDEST PUSH3 0x93A80 DUP2 PUSH1 0x2 ADD SLOAD PUSH2 0xAFE SWAP2 SWAP1 PUSH2 0x397F JUMP JUMPDEST TIMESTAMP LT ISZERO PUSH2 0xB40 JUMPI PUSH1 0x40 MLOAD PUSH32 0x8C379A000000000000000000000000000000000000000000000000000000000 DUP2 MSTORE PUSH1 0x4 ADD PUSH2 0xB37 SWAP1 PUSH2 0x39FC JUMP JUMPDEST PUSH1 0x40 MLOAD DUP1 SWAP2 SUB SWAP1 REVERT JUMPDEST PUSH2 0xB49 DUP3 PUSH2 0x282E JUMP JUMPDEST POP POP JUMP JUMPDEST PUSH2 0xB55 PUSH2 0x2949 JUMP JUMPDEST PUSH0 DUP5 MLOAD GT PUSH2 0xB98 JUMPI PUSH1 0x40 MLOAD PUSH32 0x8C379A000000000000000000000000000000000000000000000000000000000 DUP2 MSTORE PUSH1 0x4 ADD PUSH2 0xB8F SWAP1 PUSH2 0x3A64 JUMP JUMPDEST PUSH1 0x40 MLOAD DUP1 SWAP2 SUB SWAP1 REVERT JUMPDEST PUSH0 PUSH20 0xFFFFFFFFFFFFFFFFFFFFFFFFFFFFFFFFFFFFFFFF AND DUP4 PUSH20 0xFFFFFFFFFFFFFFFFFFFFFFFFFFFFFFFFFFFFFFFF AND SUB PUSH2 0xC06 JUMPI PUSH1 0x40 MLOAD PUSH32 0x8C379A000000000000000000000000000000000000000000000000000000000 DUP2 MSTORE PUSH1 0x4 ADD PUSH2 0xBFD SWAP1 PUSH2 0x3ACC JUMP JUMPDEST PUSH1 0x40 MLOAD DUP1 SWAP2 SUB SWAP1 REVERT JUMPDEST PUSH1 0x1E DUP2 GT ISZERO PUSH2 0xC4A JUMPI PUSH1 0x40 MLOAD PUSH32 0x8C379A000000000000000000000000000000000000000000000000000000000 DUP2 MSTORE PUSH1 0x4 ADD PUSH2 0xC41 SWAP1 PUSH2 0x3B34 JUMP JUMPDEST PUSH1 0x40 MLOAD DUP1 SWAP2 SUB SWAP1 REVERT JUMPDEST PUSH0 PUSH20 0xFFFFFFFFFFFFFFFFFFFFFFFFFFFFFFFFFFFFFFFF AND PUSH1 0x4 DUP6 PUSH1 0x40 MLOAD PUSH2 0xC71 SWAP2 SWAP1 PUSH2 0x3BA4 JUMP JUMPDEST SWAP1 DUP2 MSTORE PUSH1 0x20 ADD PUSH1 0x40 MLOAD DUP1 SWAP2 SUB SWAP1 KECCAK256 PUSH0 ADD PUSH0 SWAP1 SLOAD SWAP1 PUSH2 0x100 EXP SWAP1 DIV PUSH20 0xFFFFFFFFFFFFFFFFFFFFFFFFFFFFFFFFFFFFFFFF AND PUSH20 0xFFFFFFFFFFFFFFFFFFFFFFFFFFFFFFFFFFFFFFFF AND EQ PUSH2 0xCF7 JUMPI PUSH1 0x40 MLOAD PUSH32 0x8C379A000000000000000000000000000000000000000000000000000000000 DUP2 MSTORE PUSH1 0x4 ADD PUSH2 0xCEE SWAP1 PUSH2 0x3C04 JUMP JUMPDEST PUSH1 0x40 MLOAD DUP1 SWAP2 SUB SWAP1 REVERT JUMPDEST PUSH1 0x40 MLOAD DUP1 PUSH1 0xC0 ADD PUSH1 0x40 MSTORE DUP1 DUP5 PUSH20 0xFFFFFFFFFFFFFFFFFFFFFFFFFFFFFFFFFFFFFFFF AND DUP2 MSTORE PUSH1 0x20 ADD DUP4 PUSH20 0xFFFFFFFFFFFFFFFFFFFFFFFFFFFFFFFFFFFFFFFF AND DUP2 MSTORE PUSH1 0x20 ADD DUP3 DUP2 MSTORE PUSH1 0x20 ADD PUSH1 0x40 MLOAD DUP1 PUSH1 0xC0 ADD PUSH1 0x40 MSTORE DUP1 PUSH0 DUP2 MSTORE PUSH1 0x20 ADD PUSH0 DUP2 MSTORE PUSH1 0x20 ADD PUSH0 DUP2 MSTORE PUSH1 0x20 ADD PUSH0 DUP2 MSTORE PUSH1 0x20 ADD PUSH0 DUP2 MSTORE PUSH1 0x20 ADD PUSH0 DUP2 MSTORE POP DUP2 MSTORE PUSH1 0x20 ADD PUSH0 DUP2 MSTORE PUSH1 0x20 ADD PUSH0 DUP2 MSTORE POP PUSH1 0x4 DUP6 PUSH1 0x40 MLOAD PUSH2 0xD8C SWAP2 SWAP1 PUSH2 0x3BA4 JUMP JUMPDEST SWAP1 DUP2 MSTORE PUSH1 0x20 ADD PUSH1 0x40 MLOAD DUP1 SWAP2 SUB SWAP1 KECCAK256 PUSH0 DUP3 ADD MLOAD DUP2 PUSH0 ADD PUSH0 PUSH2 0x100 EXP DUP2 SLOAD DUP2 PUSH20 0xFFFFFFFFFFFFFFFFFFFFFFFFFFFFFFFFFFFFFFFF MUL NOT AND SWAP1 DUP4 PUSH20 0xFFFFFFFFFFFFFFFFFFFFFFFFFFFFFFFFFFFFFFFF AND MUL OR SWAP1 SSTORE POP PUSH1 0x20 DUP3 ADD MLOAD DUP2 PUSH1 0x1 ADD PUSH0 PUSH2 0x100 EXP DUP2 SLOAD DUP2 PUSH20 0xFFFFFFFFFFFFFFFFFFFFFFFFFFFFFFFFFFFFFFFF MUL NOT AND SWAP1 DUP4 PUSH20 0xFFFFFFFFFFFFFFFFFFFFFFFFFFFFFFFFFFFFFFFF AND MUL OR SWAP1 SSTORE POP PUSH1 0x40 DUP3 ADD MLOAD DUP2 PUSH1 0x2 ADD SSTORE PUSH1 0x60 DUP3 ADD MLOAD DUP2 PUSH1 0x3 ADD SWAP1 PUSH1 0x6 PUSH2 0xE45 SWAP3 SWAP2 SWAP1 PUSH2 0x2C83 JUMP JUMPDEST POP PUSH1 0x80 DUP3 ADD MLOAD DUP2 PUSH1 0x9 ADD SSTORE PUSH1 0xA0 DUP3 ADD MLOAD DUP2 PUSH1 0xA ADD SSTORE SWAP1 POP POP POP POP POP POP JUMP JUMPDEST PUSH32 0x0 DUP2 JUMP JUMPDEST PUSH0 DUP2 PUSH1 0x5 DUP2 GT ISZERO PUSH2 0xECD JUMPI PUSH1 0x40 MLOAD PUSH32 0x8C379A000000000000000000000000000000000000000000000000000000000 DUP2 MSTORE PUSH1 0x4 ADD PUSH2 0xEC4 SWAP1 PUSH2 0x35B7 JUMP JUMPDEST PUSH1 0x40 MLOAD DUP1 SWAP2 SUB SWAP1 REVERT JUMPDEST PUSH0 PUSH1 0x3 PUSH0 PUSH1 0x2 SLOAD DUP2 MSTORE PUSH1 0x20 ADD SWAP1 DUP2 MSTORE PUSH1 0x20 ADD PUSH0 KECCAK256 PUSH1 0x40 MLOAD DUP1 PUSH1 0x60 ADD PUSH1 0x40 MSTORE SWAP1 DUP2 PUSH0 DUP3 ADD PUSH1 0x6 DUP1 PUSH1 0x20 MUL PUSH1 0x40 MLOAD SWAP1 DUP2 ADD PUSH1 0x40 MSTORE DUP1 SWAP3 SWAP2 SWAP1 DUP3 PUSH1 0x6 DUP1 ISZERO PUSH2 0xF27 JUMPI PUSH1 0x20 MUL DUP3 ADD SWAP2 JUMPDEST DUP2 SLOAD DUP2 MSTORE PUSH1 0x20 ADD SWAP1 PUSH1 0x1 ADD SWAP1 DUP1 DUP4 GT PUSH2 0xF13 JUMPI JUMPDEST POP POP POP POP POP DUP2 MSTORE PUSH1 0x20 ADD PUSH1 0x6 DUP3 ADD PUSH1 0x6 DUP1 PUSH1 0x20 MUL PUSH1 0x40 MLOAD SWAP1 DUP2 ADD PUSH1 0x40 MSTORE DUP1 SWAP3 SWAP2 SWAP1 DUP3 PUSH1 0x6 DUP1 ISZERO PUSH2 0xF6C JUMPI PUSH1 0x20 MUL DUP3 ADD SWAP2 JUMPDEST DUP2 SLOAD DUP2 MSTORE PUSH1 0x20 ADD SWAP1 PUSH1 0x1 ADD SWAP1 DUP1 DUP4 GT PUSH2 0xF58 JUMPI JUMPDEST POP POP POP POP POP DUP2 MSTORE PUSH1 0x20 ADD PUSH1 0xC DUP3 ADD PUSH1 0x6 DUP1 PUSH1 0x20 MUL PUSH1 0x40 MLOAD SWAP1 DUP2 ADD PUSH1 0x40 MSTORE DUP1 SWAP3 SWAP2 SWAP1 DUP3 PUSH1 0x6 DUP1 ISZERO PUSH2 0xFB1 JUMPI PUSH1 0x20 MUL DUP3 ADD SWAP2 JUMPDEST DUP2 SLOAD DUP2 MSTORE PUSH1 0x20 ADD SWAP1 PUSH1 0x1 ADD SWAP1 DUP1 DUP4 GT PUSH2 0xF9D JUMPI JUMPDEST POP POP POP POP POP DUP2 MSTORE POP POP SWAP1 POP DUP1 PUSH1 0x20 ADD MLOAD DUP5 PUSH1 0x6 DUP2 LT PUSH2 0xFD3 JUMPI PUSH2 0xFD2 PUSH2 0x35D5 JUMP JUMPDEST JUMPDEST PUSH1 0x20 MUL ADD MLOAD SWAP3 POP POP POP SWAP2 SWAP1 POP JUMP JUMPDEST PUSH2 0xFE9 PUSH2 0x2CC3 JUMP JUMPDEST PUSH0 DUP3 MLOAD GT PUSH2 0x102C JUMPI PUSH1 0x40 MLOAD PUSH32 0x8C379A000000000000000000000000000000000000000000000000000000000 DUP2 MSTORE PUSH1 0x4 ADD PUSH2 0x1023 SWAP1 PUSH2 0x3C6C JUMP JUMPDEST PUSH1 0x40 MLOAD DUP1 SWAP2 SUB SWAP1 REVERT JUMPDEST PUSH0 PUSH1 0x4 DUP4 PUSH1 0x40 MLOAD PUSH2 0x103D SWAP2 SWAP1 PUSH2 0x3BA4 JUMP JUMPDEST SWAP1 DUP2 MSTORE PUSH1 0x20 ADD PUSH1 0x40 MLOAD DUP1 SWAP2 SUB SWAP1 KECCAK256 PUSH1 0x40 MLOAD DUP1 PUSH1 0xC0 ADD PUSH1 0x40 MSTORE SWAP1 DUP2 PUSH0 DUP3 ADD PUSH0 SWAP1 SLOAD SWAP1 PUSH2 0x100 EXP SWAP1 DIV PUSH20 0xFFFFFFFFFFFFFFFFFFFFFFFFFFFFFFFFFFFFFFFF AND PUSH20 0xFFFFFFFFFFFFFFFFFFFFFFFFFFFFFFFFFFFFFFFF AND PUSH20 0xFFFFFFFFFFFFFFFFFFFFFFFFFFFFFFFFFFFFFFFF AND DUP2 MSTORE PUSH1 0x20 ADD PUSH1 0x1 DUP3 ADD PUSH0 SWAP1 SLOAD SWAP1 PUSH2 0x100 EXP SWAP1 DIV PUSH20 0xFFFFFFFFFFFFFFFFFFFFFFFFFFFFFFFFFFFFFFFF AND PUSH20 0xFFFFFFFFFFFFFFFFFFFFFFFFFFFFFFFFFFFFFFFF AND PUSH20 0xFFFFFFFFFFFFFFFFFFFFFFFFFFFFFFFFFFFFFFFF AND DUP2 MSTORE PUSH1 0x20 ADD PUSH1 0x2 DUP3 ADD SLOAD DUP2 MSTORE PUSH1 0x20 ADD PUSH1 0x3 DUP3 ADD PUSH1 0x6 DUP1 PUSH1 0x20 MUL PUSH1 0x40 MLOAD SWAP1 DUP2 ADD PUSH1 0x40 MSTORE DUP1 SWAP3 SWAP2 SWAP1 DUP3 PUSH1 0x6 DUP1 ISZERO PUSH2 0x1145 JUMPI PUSH1 0x20 MUL DUP3 ADD SWAP2 JUMPDEST DUP2 SLOAD DUP2 MSTORE PUSH1 0x20 ADD SWAP1 PUSH1 0x1 ADD SWAP1 DUP1 DUP4 GT PUSH2 0x1131 JUMPI JUMPDEST POP POP POP POP POP DUP2 MSTORE PUSH1 0x20 ADD PUSH1 0x9 DUP3 ADD SLOAD DUP2 MSTORE PUSH1 0x20 ADD PUSH1 0xA DUP3 ADD SLOAD DUP2 MSTORE POP POP SWAP1 POP PUSH0 PUSH20 0xFFFFFFFFFFFFFFFFFFFFFFFFFFFFFFFFFFFFFFFF AND DUP2 PUSH0 ADD MLOAD PUSH20 0xFFFFFFFFFFFFFFFFFFFFFFFFFFFFFFFFFFFFFFFF AND SUB PUSH2 0x11D5 JUMPI PUSH1 0x40 MLOAD PUSH32 0x8C379A000000000000000000000000000000000000000000000000000000000 DUP2 MSTORE PUSH1 0x4 ADD PUSH2 0x11CC SWAP1 PUSH2 0x3CD4 JUMP JUMPDEST PUSH1 0x40 MLOAD DUP1 SWAP2 SUB SWAP1 REVERT JUMPDEST DUP1 SWAP2 POP POP SWAP2 SWAP1 POP JUMP JUMPDEST PUSH0 PUSH32 0x0 PUSH20 0xFFFFFFFFFFFFFFFFFFFFFFFFFFFFFFFFFFFFFFFF AND PUSH4 0x70A08231 ADDRESS PUSH1 0x40 MLOAD DUP3 PUSH4 0xFFFFFFFF AND PUSH1 0xE0 SHL DUP2 MSTORE PUSH1 0x4 ADD PUSH2 0x1238 SWAP2 SWAP1 PUSH2 0x3396 JUMP JUMPDEST PUSH1 0x20 PUSH1 0x40 MLOAD DUP1 DUP4 SUB DUP2 DUP7 GAS STATICCALL ISZERO DUP1 ISZERO PUSH2 0x1253 JUMPI RETURNDATASIZE PUSH0 PUSH0 RETURNDATACOPY RETURNDATASIZE PUSH0 REVERT JUMPDEST POP POP POP POP PUSH1 0x40 MLOAD RETURNDATASIZE PUSH1 0x1F NOT PUSH1 0x1F DUP3 ADD AND DUP3 ADD DUP1 PUSH1 0x40 MSTORE POP DUP2 ADD SWAP1 PUSH2 0x1277 SWAP2 SWAP1 PUSH2 0x37AE JUMP JUMPDEST SWAP1 POP SWAP1 JUMP JUMPDEST PUSH2 0x1284 PUSH2 0x2949 JUMP JUMPDEST PUSH2 0x128D PUSH0 PUSH2 0x29D0 JUMP JUMPDEST JUMP JUMPDEST PUSH0 PUSH0 PUSH0 PUSH0 PUSH0 DUP8 PUSH1 0x5 DUP2 GT ISZERO PUSH2 0x12D9 JUMPI PUSH1 0x40 MLOAD PUSH32 0x8C379A000000000000000000000000000000000000000000000000000000000 DUP2 MSTORE PUSH1 0x4 ADD PUSH2 0x12D0 SWAP1 PUSH2 0x35B7 JUMP JUMPDEST PUSH1 0x40 MLOAD DUP1 SWAP2 SUB SWAP1 REVERT JUMPDEST PUSH0 DUP9 GT PUSH2 0x131B JUMPI PUSH1 0x40 MLOAD PUSH32 0x8C379A000000000000000000000000000000000000000000000000000000000 DUP2 MSTORE PUSH1 0x4 ADD PUSH2 0x1312 SWAP1 PUSH2 0x3714 JUMP JUMPDEST PUSH1 0x40 MLOAD DUP1 SWAP2 SUB SWAP1 REVERT JUMPDEST PUSH0 PUSH2 0x1325 DUP11 PUSH2 0x560 JUMP JUMPDEST GT PUSH2 0x1365 JUMPI PUSH1 0x40 MLOAD PUSH32 0x8C379A000000000000000000000000000000000000000000000000000000000 DUP2 MSTORE PUSH1 0x4 ADD PUSH2 0x135C SWAP1 PUSH2 0x3D3C JUMP JUMPDEST PUSH1 0x40 MLOAD DUP1 SWAP2 SUB SWAP1 REVERT JUMPDEST DUP8 PUSH2 0x136F DUP11 PUSH2 0x560 JUMP JUMPDEST LT ISZERO PUSH2 0x13B0 JUMPI PUSH1 0x40 MLOAD PUSH32 0x8C379A000000000000000000000000000000000000000000000000000000000 DUP2 MSTORE PUSH1 0x4 ADD PUSH2 0x13A7 SWAP1 PUSH2 0x3DA4 JUMP JUMPDEST PUSH1 0x40 MLOAD DUP1 SWAP2 SUB SWAP1 REVERT JUMPDEST DUP8 PUSH2 0x13BA DUP11 PUSH2 0x2261 JUMP JUMPDEST PUSH2 0x13C4 SWAP2 SWAP1 PUSH2 0x3DC2 JUMP JUMPDEST SWAP6 POP PUSH0 SWAP5 POP PUSH0 SWAP4 POP PUSH0 SWAP3 POP PUSH0 DUP8 MLOAD GT ISZERO PUSH2 0x15F3 JUMPI PUSH0 PUSH1 0x4 DUP9 PUSH1 0x40 MLOAD PUSH2 0x13E9 SWAP2 SWAP1 PUSH2 0x3BA4 JUMP JUMPDEST SWAP1 DUP2 MSTORE PUSH1 0x20 ADD PUSH1 0x40 MLOAD DUP1 SWAP2 SUB SWAP1 KECCAK256 SWAP1 POP PUSH0 PUSH20 0xFFFFFFFFFFFFFFFFFFFFFFFFFFFFFFFFFFFFFFFF AND DUP2 PUSH0 ADD PUSH0 SWAP1 SLOAD SWAP1 PUSH2 0x100 EXP SWAP1 DIV PUSH20 0xFFFFFFFFFFFFFFFFFFFFFFFFFFFFFFFFFFFFFFFF AND PUSH20 0xFFFFFFFFFFFFFFFFFFFFFFFFFFFFFFFFFFFFFFFF AND SUB PUSH2 0x1489 JUMPI PUSH1 0x40 MLOAD PUSH32 0x8C379A000000000000000000000000000000000000000000000000000000000 DUP2 MSTORE PUSH1 0x4 ADD PUSH2 0x1480 SWAP1 PUSH2 0x3CD4 JUMP JUMPDEST PUSH1 0x40 MLOAD DUP1 SWAP2 SUB SWAP1 REVERT JUMPDEST PUSH1 0x19 DUP2 PUSH1 0x2 ADD SLOAD GT ISZERO DUP1 PUSH2 0x14EA JUMPI POP CALLER PUSH20 0xFFFFFFFFFFFFFFFFFFFFFFFFFFFFFFFFFFFFFFFF AND DUP2 PUSH0 ADD PUSH0 SWAP1 SLOAD SWAP1 PUSH2 0x100 EXP SWAP1 DIV PUSH20 0xFFFFFFFFFFFFFFFFFFFFFFFFFFFFFFFFFFFFFFFF AND PUSH20 0xFFFFFFFFFFFFFFFFFFFFFFFFFFFFFFFFFFFFFFFF AND EQ JUMPDEST PUSH2 0x1529 JUMPI PUSH1 0x40 MLOAD PUSH32 0x8C379A000000000000000000000000000000000000000000000000000000000 DUP2 MSTORE PUSH1 0x4 ADD PUSH2 0x1520 SWAP1 PUSH2 0x3E4D JUMP JUMPDEST PUSH1 0x40 MLOAD DUP1 SWAP2 SUB SWAP1 REVERT JUMPDEST PUSH1 0x19 DUP2 PUSH1 0x2 ADD SLOAD LT ISZERO PUSH2 0x15D3 JUMPI PUSH1 0x64 DUP2 PUSH1 0x2 ADD SLOAD PUSH1 0x19 PUSH2 0x1549 SWAP2 SWAP1 PUSH2 0x362F JUMP JUMPDEST DUP9 PUSH2 0x1554 SWAP2 SWAP1 PUSH2 0x3DC2 JUMP JUMPDEST PUSH2 0x155E SWAP2 SWAP1 PUSH2 0x3E98 JUMP JUMPDEST SWAP5 POP PUSH0 PUSH20 0xFFFFFFFFFFFFFFFFFFFFFFFFFFFFFFFFFFFFFFFF AND DUP2 PUSH1 0x1 ADD PUSH0 SWAP1 SLOAD SWAP1 PUSH2 0x100 EXP SWAP1 DIV PUSH20 0xFFFFFFFFFFFFFFFFFFFFFFFFFFFFFFFFFFFFFFFF AND PUSH20 0xFFFFFFFFFFFFFFFFFFFFFFFFFFFFFFFFFFFFFFFF AND EQ PUSH2 0x15D2 JUMPI PUSH1 0x64 PUSH1 0x5 DUP9 PUSH2 0x15C5 SWAP2 SWAP1 PUSH2 0x3DC2 JUMP JUMPDEST PUSH2 0x15CF SWAP2 SWAP1 PUSH2 0x3E98 JUMP JUMPDEST SWAP4 POP JUMPDEST JUMPDEST PUSH1 0x64 DUP2 PUSH1 0x2 ADD SLOAD DUP9 PUSH2 0x15E5 SWAP2 SWAP1 PUSH2 0x3DC2 JUMP JUMPDEST PUSH2 0x15EF SWAP2 SWAP1 PUSH2 0x3E98 JUMP JUMPDEST SWAP6 POP POP JUMPDEST DUP5 DUP7 PUSH2 0x15FF SWAP2 SWAP1 PUSH2 0x362F JUMP JUMPDEST SWAP6 POP DUP3 DUP5 DUP8 PUSH2 0x160E SWAP2 SWAP1 PUSH2 0x362F JUMP JUMPDEST PUSH2 0x1618 SWAP2 SWAP1 PUSH2 0x362F JUMP JUMPDEST SWAP2 POP POP SWAP4 SWAP8 SWAP3 SWAP7 POP SWAP4 POP SWAP4 POP JUMP JUMPDEST PUSH2 0x162E PUSH2 0x2949 JUMP JUMPDEST DUP2 PUSH1 0x5 DUP2 GT ISZERO PUSH2 0x1673 JUMPI PUSH1 0x40 MLOAD PUSH32 0x8C379A000000000000000000000000000000000000000000000000000000000 DUP2 MSTORE PUSH1 0x4 ADD PUSH2 0x166A SWAP1 PUSH2 0x35B7 JUMP JUMPDEST PUSH1 0x40 MLOAD DUP1 SWAP2 SUB SWAP1 REVERT JUMPDEST PUSH0 PUSH1 0x2 SLOAD GT PUSH2 0x16B7 JUMPI PUSH1 0x40 MLOAD PUSH32 0x8C379A000000000000000000000000000000000000000000000000000000000 DUP2 MSTORE PUSH1 0x4 ADD PUSH2 0x16AE SWAP1 PUSH2 0x3F12 JUMP JUMPDEST PUSH1 0x40 MLOAD DUP1 SWAP2 SUB SWAP1 REVERT JUMPDEST PUSH0 PUSH1 0x3 PUSH0 PUSH1 0x2 SLOAD DUP2 MSTORE PUSH1 0x20 ADD SWAP1 DUP2 MSTORE PUSH1 0x20 ADD PUSH0 KECCAK256 SWAP1 POP DUP1 PUSH1 0xC ADD DUP5 PUSH1 0x6 DUP2 LT PUSH2 0x16E3 JUMPI PUSH2 0x16E2 PUSH2 0x35D5 JUMP JUMPDEST JUMPDEST ADD SLOAD DUP4 LT ISZERO PUSH2 0x1727 JUMPI PUSH1 0x40 MLOAD PUSH32 0x8C379A000000000000000000000000000000000000000000000000000000000 DUP2 MSTORE PUSH1 0x4 ADD PUSH2 0x171E SWAP1 PUSH2 0x3FA0 JUMP JUMPDEST PUSH1 0x40 MLOAD DUP1 SWAP2 SUB SWAP1 REVERT JUMPDEST PUSH2 0x1730 DUP5 PUSH2 0x17F1 JUMP JUMPDEST DUP2 PUSH1 0xC ADD DUP6 PUSH1 0x6 DUP2 LT PUSH2 0x1746 JUMPI PUSH2 0x1745 PUSH2 0x35D5 JUMP JUMPDEST JUMPDEST ADD SLOAD DUP5 PUSH2 0x1753 SWAP2 SWAP1 PUSH2 0x362F JUMP JUMPDEST GT ISZERO PUSH2 0x1794 JUMPI PUSH1 0x40 MLOAD PUSH32 0x8C379A000000000000000000000000000000000000000000000000000000000 DUP2 MSTORE PUSH1 0x4 ADD PUSH2 0x178B SWAP1 PUSH2 0x402E JUMP JUMPDEST PUSH1 0x40 MLOAD DUP1 SWAP2 SUB SWAP1 REVERT JUMPDEST DUP3 DUP2 PUSH1 0x6 ADD DUP6 PUSH1 0x6 DUP2 LT PUSH2 0x17AB JUMPI PUSH2 0x17AA PUSH2 0x35D5 JUMP JUMPDEST JUMPDEST ADD DUP2 SWAP1 SSTORE POP DUP4 PUSH1 0x2 SLOAD PUSH32 0x8E070AE3A2DE4465C368F672C2324B17B4EC062510FE99BE064DF3727AFF1379 DUP6 PUSH1 0x40 MLOAD PUSH2 0x17E3 SWAP2 SWAP1 PUSH2 0x2D7B JUMP JUMPDEST PUSH1 0x40 MLOAD DUP1 SWAP2 SUB SWAP1 LOG3 POP POP POP POP JUMP JUMPDEST PUSH0 DUP2 PUSH1 0x5 DUP2 GT ISZERO PUSH2 0x1837 JUMPI PUSH1 0x40 MLOAD PUSH32 0x8C379A000000000000000000000000000000000000000000000000000000000 DUP2 MSTORE PUSH1 0x4 ADD PUSH2 0x182E SWAP1 PUSH2 0x35B7 JUMP JUMPDEST PUSH1 0x40 MLOAD DUP1 SWAP2 SUB SWAP1 REVERT JUMPDEST PUSH0 PUSH0 PUSH32 0x0 PUSH20 0xFFFFFFFFFFFFFFFFFFFFFFFFFFFFFFFFFFFFFFFF AND PUSH4 0x39AF9EB DUP7 PUSH1 0x40 MLOAD DUP3 PUSH4 0xFFFFFFFF AND PUSH1 0xE0 SHL DUP2 MSTORE PUSH1 0x4 ADD PUSH2 0x1892 SWAP2 SWAP1 PUSH2 0x2D7B JUMP JUMPDEST PUSH0 PUSH1 0x40 MLOAD DUP1 DUP4 SUB DUP2 DUP7 GAS STATICCALL ISZERO DUP1 ISZERO PUSH2 0x18AC JUMPI RETURNDATASIZE PUSH0 PUSH0 RETURNDATACOPY RETURNDATASIZE PUSH0 REVERT JUMPDEST POP POP POP POP PUSH1 0x40 MLOAD RETURNDATASIZE PUSH0 DUP3 RETURNDATACOPY RETURNDATASIZE PUSH1 0x1F NOT PUSH1 0x1F DUP3 ADD AND DUP3 ADD DUP1 PUSH1 0x40 MSTORE POP DUP2 ADD SWAP1 PUSH2 0x18D4 SWAP2 SWAP1 PUSH2 0x40BA JUMP JUMPDEST POP SWAP4 POP SWAP4 POP POP POP DUP1 DUP3 PUSH2 0x18E7 SWAP2 SWAP1 PUSH2 0x362F JUMP JUMPDEST SWAP4 POP POP POP POP SWAP2 SWAP1 POP JUMP JUMPDEST PUSH0 PUSH0 PUSH0 SWAP1 SLOAD SWAP1 PUSH2 0x100 EXP SWAP1 DIV PUSH20 0xFFFFFFFFFFFFFFFFFFFFFFFFFFFFFFFFFFFFFFFF AND SWAP1 POP SWAP1 JUMP JUMPDEST PUSH1 0x7 PUSH1 0x20 MSTORE DUP1 PUSH0 MSTORE PUSH1 0x40 PUSH0 KECCAK256 PUSH0 SWAP2 POP SWAP1 POP DUP1 PUSH0 ADD SLOAD SWAP1 DUP1 PUSH1 0x1 ADD PUSH0 SWAP1 SLOAD SWAP1 PUSH2 0x100 EXP SWAP1 DIV PUSH20 0xFFFFFFFFFFFFFFFFFFFFFFFFFFFFFFFFFFFFFFFF AND SWAP1 DUP1 PUSH1 0x2 ADD SLOAD SWAP1 DUP1 PUSH1 0x3 ADD SLOAD SWAP1 DUP1 PUSH1 0x5 ADD PUSH0 SWAP1 SLOAD SWAP1 PUSH2 0x100 EXP SWAP1 DIV PUSH1 0xFF AND SWAP1 DUP1 PUSH1 0x5 ADD PUSH1 0x1 SWAP1 SLOAD SWAP1 PUSH2 0x100 EXP SWAP1 DIV PUSH1 0xFF AND SWAP1 POP DUP7 JUMP JUMPDEST PUSH1 0x5 PUSH0 CALLER PUSH20 0xFFFFFFFFFFFFFFFFFFFFFFFFFFFFFFFFFFFFFFFF AND PUSH20 0xFFFFFFFFFFFFFFFFFFFFFFFFFFFFFFFFFFFFFFFF AND DUP2 MSTORE PUSH1 0x20 ADD SWAP1 DUP2 MSTORE PUSH1 0x20 ADD PUSH0 KECCAK256 PUSH0 SWAP1 SLOAD SWAP1 PUSH2 0x100 EXP SWAP1 DIV PUSH1 0xFF AND PUSH2 0x1A11 JUMPI PUSH1 0x40 MLOAD PUSH32 0x8C379A000000000000000000000000000000000000000000000000000000000 DUP2 MSTORE PUSH1 0x4 ADD PUSH2 0x1A08 SWAP1 PUSH2 0x36AC JUMP JUMPDEST PUSH1 0x40 MLOAD DUP1 SWAP2 SUB SWAP1 REVERT JUMPDEST PUSH0 PUSH1 0x7 PUSH0 DUP4 DUP2 MSTORE PUSH1 0x20 ADD SWAP1 DUP2 MSTORE PUSH1 0x20 ADD PUSH0 KECCAK256 SWAP1 POP DUP1 PUSH1 0x5 ADD PUSH0 SWAP1 SLOAD SWAP1 PUSH2 0x100 EXP SWAP1 DIV PUSH1 0xFF AND ISZERO PUSH2 0x1A76 JUMPI PUSH1 0x40 MLOAD PUSH32 0x8C379A000000000000000000000000000000000000000000000000000000000 DUP2 MSTORE PUSH1 0x4 ADD PUSH2 0x1A6D SWAP1 PUSH2 0x38F9 JUMP JUMPDEST PUSH1 0x40 MLOAD DUP1 SWAP2 SUB SWAP1 REVERT JUMPDEST DUP1 PUSH1 0x5 ADD PUSH1 0x1 SWAP1 SLOAD SWAP1 PUSH2 0x100 EXP SWAP1 DIV PUSH1 0xFF AND ISZERO PUSH2 0x1AC8 JUMPI PUSH1 0x40 MLOAD PUSH32 0x8C379A000000000000000000000000000000000000000000000000000000000 DUP2 MSTORE PUSH1 0x4 ADD PUSH2 0x1ABF SWAP1 PUSH2 0x3961 JUMP JUMPDEST PUSH1 0x40 MLOAD DUP1 SWAP2 SUB SWAP1 REVERT JUMPDEST DUP1 PUSH1 0x4 ADD PUSH0 CALLER PUSH20 0xFFFFFFFFFFFFFFFFFFFFFFFFFFFFFFFFFFFFFFFF AND PUSH20 0xFFFFFFFFFFFFFFFFFFFFFFFFFFFFFFFFFFFFFFFF AND DUP2 MSTORE PUSH1 0x20 ADD SWAP1 DUP2 MSTORE PUSH1 0x20 ADD PUSH0 KECCAK256 PUSH0 SWAP1 SLOAD SWAP1 PUSH2 0x100 EXP SWAP1 DIV PUSH1 0xFF AND ISZERO PUSH2 0x1B54 JUMPI PUSH1 0x40 MLOAD PUSH32 0x8C379A000000000000000000000000000000000000000000000000000000000 DUP2 MSTORE PUSH1 0x4 ADD PUSH2 0x1B4B SWAP1 PUSH2 0x41B3 JUMP JUMPDEST PUSH1 0x40 MLOAD DUP1 SWAP2 SUB SWAP1 REVERT JUMPDEST PUSH1 0x1 DUP2 PUSH1 0x4 ADD PUSH0 CALLER PUSH20 0xFFFFFFFFFFFFFFFFFFFFFFFFFFFFFFFFFFFFFFFF AND PUSH20 0xFFFFFFFFFFFFFFFFFFFFFFFFFFFFFFFFFFFFFFFF AND DUP2 MSTORE PUSH1 0x20 ADD SWAP1 DUP2 MSTORE PUSH1 0x20 ADD PUSH0 KECCAK256 PUSH0 PUSH2 0x100 EXP DUP2 SLOAD DUP2 PUSH1 0xFF MUL NOT AND SWAP1 DUP4 ISZERO ISZERO MUL OR SWAP1 SSTORE POP DUP1 PUSH1 0x3 ADD PUSH0 DUP2 SLOAD DUP1 SWAP3 SWAP2 SWAP1 PUSH2 0x1BBF SWAP1 PUSH2 0x3841 JUMP JUMPDEST SWAP2 SWAP1 POP SSTORE POP CALLER PUSH20 0xFFFFFFFFFFFFFFFFFFFFFFFFFFFFFFFFFFFFFFFF AND DUP3 PUSH32 0x7AB1DF95613019BA98DA0113A7ADF5073C9FA62D93B5F202502115266AADC06A PUSH1 0x40 MLOAD PUSH1 0x40 MLOAD DUP1 SWAP2 SUB SWAP1 LOG3 PUSH1 0x6 SLOAD DUP2 PUSH1 0x3 ADD SLOAD SUB PUSH2 0x1C1F JUMPI PUSH2 0x1C1E DUP3 PUSH2 0x282E JUMP JUMPDEST JUMPDEST POP POP JUMP JUMPDEST PUSH3 0x93A80 DUP2 JUMP JUMPDEST PUSH1 0x5 PUSH1 0x20 MSTORE DUP1 PUSH0 MSTORE PUSH1 0x40 PUSH0 KECCAK256 PUSH0 SWAP2 POP SLOAD SWAP1 PUSH2 0x100 EXP SWAP1 DIV PUSH1 0xFF AND DUP2 JUMP JUMPDEST PUSH0 DUP2 PUSH1 0x5 DUP2 GT ISZERO PUSH2 0x1C8D JUMPI PUSH1 0x40 MLOAD PUSH32 0x8C379A000000000000000000000000000000000000000000000000000000000 DUP2 MSTORE PUSH1 0x4 ADD PUSH2 0x1C84 SWAP1 PUSH2 0x35B7 JUMP JUMPDEST PUSH1 0x40 MLOAD DUP1 SWAP2 SUB SWAP1 REVERT JUMPDEST PUSH0 PUSH1 0x3 PUSH0 PUSH1 0x2 SLOAD DUP2 MSTORE PUSH1 0x20 ADD SWAP1 DUP2 MSTORE PUSH1 0x20 ADD PUSH0 KECCAK256 PUSH1 0x40 MLOAD DUP1 PUSH1 0x60 ADD PUSH1 0x40 MSTORE SWAP1 DUP2 PUSH0 DUP3 ADD PUSH1 0x6 DUP1 PUSH1 0x20 MUL PUSH1 0x40 MLOAD SWAP1 DUP2 ADD PUSH1 0x40 MSTORE DUP1 SWAP3 SWAP2 SWAP1 DUP3 PUSH1 0x6 DUP1 ISZERO PUSH2 0x1CE7 JUMPI PUSH1 0x20 MUL DUP3 ADD SWAP2 JUMPDEST DUP2 SLOAD DUP2 MSTORE PUSH1 0x20 ADD SWAP1 PUSH1 0x1 ADD SWAP1 DUP1 DUP4 GT PUSH2 0x1CD3 JUMPI JUMPDEST POP POP POP POP POP DUP2 MSTORE PUSH1 0x20 ADD PUSH1 0x6 DUP3 ADD PUSH1 0x6 DUP1 PUSH1 0x20 MUL PUSH1 0x40 MLOAD SWAP1 DUP2 ADD PUSH1 0x40 MSTORE DUP1 SWAP3 SWAP2 SWAP1 DUP3 PUSH1 0x6 DUP1 ISZERO PUSH2 0x1D2C JUMPI PUSH1 0x20 MUL DUP3 ADD SWAP2 JUMPDEST DUP2 SLOAD DUP2 MSTORE PUSH1 0x20 ADD SWAP1 PUSH1 0x1 ADD SWAP1 DUP1 DUP4 GT PUSH2 0x1D18 JUMPI JUMPDEST POP POP POP POP POP DUP2 MSTORE PUSH1 0x20 ADD PUSH1 0xC DUP3 ADD PUSH1 0x6 DUP1 PUSH1 0x20 MUL PUSH1 0x40 MLOAD SWAP1 DUP2 ADD PUSH1 0x40 MSTORE DUP1 SWAP3 SWAP2 SWAP1 DUP3 PUSH1 0x6 DUP1 ISZERO PUSH2 0x1D71 JUMPI PUSH1 0x20 MUL DUP3 ADD SWAP2 JUMPDEST DUP2 SLOAD DUP2 MSTORE PUSH1 0x20 ADD SWAP1 PUSH1 0x1 ADD SWAP1 DUP1 DUP4 GT PUSH2 0x1D5D JUMPI JUMPDEST POP POP POP POP POP DUP2 MSTORE POP POP SWAP1 POP DUP1 PUSH1 0x40 ADD MLOAD DUP5 PUSH1 0x6 DUP2 LT PUSH2 0x1D93 JUMPI PUSH2 0x1D92 PUSH2 0x35D5 JUMP JUMPDEST JUMPDEST PUSH1 0x20 MUL ADD MLOAD SWAP3 POP POP POP SWAP2 SWAP1 POP JUMP JUMPDEST DUP3 PUSH1 0x5 DUP2 GT ISZERO PUSH2 0x1DE6 JUMPI PUSH1 0x40 MLOAD PUSH32 0x8C379A000000000000000000000000000000000000000000000000000000000 DUP2 MSTORE PUSH1 0x4 ADD PUSH2 0x1DDD SWAP1 PUSH2 0x35B7 JUMP JUMPDEST PUSH1 0x40 MLOAD DUP1 SWAP2 SUB SWAP1 REVERT JUMPDEST PUSH2 0x1DEE PUSH2 0x2A91 JUMP JUMPDEST PUSH0 PUSH0 PUSH0 PUSH0 PUSH2 0x1DFD DUP9 DUP9 DUP9 PUSH2 0x128F JUMP JUMPDEST SWAP5 POP SWAP5 POP SWAP5 POP POP SWAP4 POP DUP7 PUSH1 0x3 PUSH0 PUSH1 0x2 SLOAD DUP2 MSTORE PUSH1 0x20 ADD SWAP1 DUP2 MSTORE PUSH1 0x20 ADD PUSH0 KECCAK256 PUSH1 0xC ADD DUP10 PUSH1 0x6 DUP2 LT PUSH2 0x1E2F JUMPI PUSH2 0x1E2E PUSH2 0x35D5 JUMP JUMPDEST JUMPDEST ADD PUSH0 DUP3 DUP3 SLOAD PUSH2 0x1E3E SWAP2 SWAP1 PUSH2 0x397F JUMP JUMPDEST SWAP3 POP POP DUP2 SWAP1 SSTORE POP PUSH32 0x0 PUSH20 0xFFFFFFFFFFFFFFFFFFFFFFFFFFFFFFFFFFFFFFFF AND PUSH4 0x1B2EF1CA DUP10 DUP10 PUSH1 0x40 MLOAD DUP4 PUSH4 0xFFFFFFFF AND PUSH1 0xE0 SHL DUP2 MSTORE PUSH1 0x4 ADD PUSH2 0x1EA0 SWAP3 SWAP2 SWAP1 PUSH2 0x41D1 JUMP JUMPDEST PUSH0 PUSH1 0x40 MLOAD DUP1 DUP4 SUB DUP2 PUSH0 DUP8 DUP1 EXTCODESIZE ISZERO DUP1 ISZERO PUSH2 0x1EB7 JUMPI PUSH0 PUSH0 REVERT JUMPDEST POP GAS CALL ISZERO DUP1 ISZERO PUSH2 0x1EC9 JUMPI RETURNDATASIZE PUSH0 PUSH0 RETURNDATACOPY RETURNDATASIZE PUSH0 REVERT JUMPDEST POP POP POP POP PUSH0 DUP7 MLOAD GT ISZERO PUSH2 0x1F5A JUMPI PUSH0 PUSH1 0x4 DUP8 PUSH1 0x40 MLOAD PUSH2 0x1EE7 SWAP2 SWAP1 PUSH2 0x3BA4 JUMP JUMPDEST SWAP1 DUP2 MSTORE PUSH1 0x20 ADD PUSH1 0x40 MLOAD DUP1 SWAP2 SUB SWAP1 KECCAK256 SWAP1 POP DUP8 DUP2 PUSH1 0x3 ADD DUP11 PUSH1 0x6 DUP2 LT PUSH2 0x1F0E JUMPI PUSH2 0x1F0D PUSH2 0x35D5 JUMP JUMPDEST JUMPDEST ADD PUSH0 DUP3 DUP3 SLOAD PUSH2 0x1F1D SWAP2 SWAP1 PUSH2 0x397F JUMP JUMPDEST SWAP3 POP POP DUP2 SWAP1 SSTORE POP DUP4 DUP2 PUSH1 0x9 ADD PUSH0 DUP3 DUP3 SLOAD PUSH2 0x1F37 SWAP2 SWAP1 PUSH2 0x397F JUMP JUMPDEST SWAP3 POP POP DUP2 SWAP1 SSTORE POP DUP2 DUP2 PUSH1 0xA ADD PUSH0 DUP3 DUP3 SLOAD PUSH2 0x1F51 SWAP2 SWAP1 PUSH2 0x397F JUMP JUMPDEST SWAP3 POP POP DUP2 SWAP1 SSTORE POP POP JUMPDEST PUSH2 0x1FA7 CALLER ADDRESS DUP7 PUSH32 0x0 PUSH20 0xFFFFFFFFFFFFFFFFFFFFFFFFFFFFFFFFFFFFFFFF AND PUSH2 0x2AD7 SWAP1 SWAP4 SWAP3 SWAP2 SWAP1 PUSH4 0xFFFFFFFF AND JUMP JUMPDEST PUSH0 DUP7 MLOAD GT DUP1 ISZERO PUSH2 0x1FB6 JUMPI POP PUSH0 DUP4 GT JUMPDEST ISZERO PUSH2 0x21FE JUMPI PUSH0 PUSH1 0x4 DUP8 PUSH1 0x40 MLOAD PUSH2 0x1FCC SWAP2 SWAP1 PUSH2 0x3BA4 JUMP JUMPDEST SWAP1 DUP2 MSTORE PUSH1 0x20 ADD PUSH1 0x40 MLOAD DUP1 SWAP2 SUB SWAP1 KECCAK256 SWAP1 POP PUSH2 0x2049 DUP2 PUSH0 ADD PUSH0 SWAP1 SLOAD SWAP1 PUSH2 0x100 EXP SWAP1 DIV PUSH20 0xFFFFFFFFFFFFFFFFFFFFFFFFFFFFFFFFFFFFFFFF AND DUP6 PUSH32 0x0 PUSH20 0xFFFFFFFFFFFFFFFFFFFFFFFFFFFFFFFFFFFFFFFF AND PUSH2 0x2B59 SWAP1 SWAP3 SWAP2 SWAP1 PUSH4 0xFFFFFFFF AND JUMP JUMPDEST DUP1 PUSH0 ADD PUSH0 SWAP1 SLOAD SWAP1 PUSH2 0x100 EXP SWAP1 DIV PUSH20 0xFFFFFFFFFFFFFFFFFFFFFFFFFFFFFFFFFFFFFFFF AND PUSH20 0xFFFFFFFFFFFFFFFFFFFFFFFFFFFFFFFFFFFFFFFF AND PUSH32 0xE940AFDE5872F4760F0AE48B728B98579E2AB7722DD8973624FA47301B0B2D2C DUP6 PUSH1 0x40 MLOAD PUSH2 0x20B1 SWAP2 SWAP1 PUSH2 0x2D7B JUMP JUMPDEST PUSH1 0x40 MLOAD DUP1 SWAP2 SUB SWAP1 LOG2 PUSH0 DUP4 GT DUP1 ISZERO PUSH2 0x2117 JUMPI POP PUSH0 PUSH20 0xFFFFFFFFFFFFFFFFFFFFFFFFFFFFFFFFFFFFFFFF AND DUP2 PUSH1 0x1 ADD PUSH0 SWAP1 SLOAD SWAP1 PUSH2 0x100 EXP SWAP1 DIV PUSH20 0xFFFFFFFFFFFFFFFFFFFFFFFFFFFFFFFFFFFFFFFF AND PUSH20 0xFFFFFFFFFFFFFFFFFFFFFFFFFFFFFFFFFFFFFFFF AND EQ ISZERO JUMPDEST ISZERO PUSH2 0x21FC JUMPI PUSH2 0x218A DUP2 PUSH1 0x1 ADD PUSH0 SWAP1 SLOAD SWAP1 PUSH2 0x100 EXP SWAP1 DIV PUSH20 0xFFFFFFFFFFFFFFFFFFFFFFFFFFFFFFFFFFFFFFFF AND DUP5 PUSH32 0x0 PUSH20 0xFFFFFFFFFFFFFFFFFFFFFFFFFFFFFFFFFFFFFFFF AND PUSH2 0x2B59 SWAP1 SWAP3 SWAP2 SWAP1 PUSH4 0xFFFFFFFF AND JUMP JUMPDEST DUP1 PUSH1 0x1 ADD PUSH0 SWAP1 SLOAD SWAP1 PUSH2 0x100 EXP SWAP1 DIV PUSH20 0xFFFFFFFFFFFFFFFFFFFFFFFFFFFFFFFFFFFFFFFF AND PUSH20 0xFFFFFFFFFFFFFFFFFFFFFFFFFFFFFFFFFFFFFFFF AND PUSH32 0xE940AFDE5872F4760F0AE48B728B98579E2AB7722DD8973624FA47301B0B2D2C DUP5 PUSH1 0x40 MLOAD PUSH2 0x21F3 SWAP2 SWAP1 PUSH2 0x2D7B JUMP JUMPDEST PUSH1 0x40 MLOAD DUP1 SWAP2 SUB SWAP1 LOG2 JUMPDEST POP JUMPDEST DUP8 CALLER PUSH20 0xFFFFFFFFFFFFFFFFFFFFFFFFFFFFFFFFFFFFFFFF AND PUSH32 0x7BC3DDF0BF2ADA973906C61001CD8F787646720BB7DA90229E5BF81FA71BAB6D DUP10 DUP8 PUSH1 0x40 MLOAD PUSH2 0x2247 SWAP3 SWAP2 SWAP1 PUSH2 0x41D1 JUMP JUMPDEST PUSH1 0x40 MLOAD DUP1 SWAP2 SUB SWAP1 LOG3 POP POP POP POP PUSH2 0x225B PUSH2 0x2BD8 JUMP JUMPDEST POP POP POP POP JUMP JUMPDEST PUSH0 DUP2 PUSH1 0x5 DUP2 GT ISZERO PUSH2 0x22A7 JUMPI PUSH1 0x40 MLOAD PUSH32 0x8C379A000000000000000000000000000000000000000000000000000000000 DUP2 MSTORE PUSH1 0x4 ADD PUSH2 0x229E SWAP1 PUSH2 0x35B7 JUMP JUMPDEST PUSH1 0x40 MLOAD DUP1 SWAP2 SUB SWAP1 REVERT JUMPDEST PUSH0 PUSH1 0x3 PUSH0 PUSH1 0x2 SLOAD DUP2 MSTORE PUSH1 0x20 ADD SWAP1 DUP2 MSTORE PUSH1 0x20 ADD PUSH0 KECCAK256 PUSH1 0x40 MLOAD DUP1 PUSH1 0x60 ADD PUSH1 0x40 MSTORE SWAP1 DUP2 PUSH0 DUP3 ADD PUSH1 0x6 DUP1 PUSH1 0x20 MUL PUSH1 0x40 MLOAD SWAP1 DUP2 ADD PUSH1 0x40 MSTORE DUP1 SWAP3 SWAP2 SWAP1 DUP3 PUSH1 0x6 DUP1 ISZERO PUSH2 0x2301 JUMPI PUSH1 0x20 MUL DUP3 ADD SWAP2 JUMPDEST DUP2 SLOAD DUP2 MSTORE PUSH1 0x20 ADD SWAP1 PUSH1 0x1 ADD SWAP1 DUP1 DUP4 GT PUSH2 0x22ED JUMPI JUMPDEST POP POP POP POP POP DUP2 MSTORE PUSH1 0x20 ADD PUSH1 0x6 DUP3 ADD PUSH1 0x6 DUP1 PUSH1 0x20 MUL PUSH1 0x40 MLOAD SWAP1 DUP2 ADD PUSH1 0x40 MSTORE DUP1 SWAP3 SWAP2 SWAP1 DUP3 PUSH1 0x6 DUP1 ISZERO PUSH2 0x2346 JUMPI PUSH1 0x20 MUL DUP3 ADD SWAP2 JUMPDEST DUP2 SLOAD DUP2 MSTORE PUSH1 0x20 ADD SWAP1 PUSH1 0x1 ADD SWAP1 DUP1 DUP4 GT PUSH2 0x2332 JUMPI JUMPDEST POP POP POP POP POP DUP2 MSTORE PUSH1 0x20 ADD PUSH1 0xC DUP3 ADD PUSH1 0x6 DUP1 PUSH1 0x20 MUL PUSH1 0x40 MLOAD SWAP1 DUP2 ADD PUSH1 0x40 MSTORE DUP1 SWAP3 SWAP2 SWAP1 DUP3 PUSH1 0x6 DUP1 ISZERO PUSH2 0x238B JUMPI PUSH1 0x20 MUL DUP3 ADD SWAP2 JUMPDEST DUP2 SLOAD DUP2 MSTORE PUSH1 0x20 ADD SWAP1 PUSH1 0x1 ADD SWAP1 DUP1 DUP4 GT PUSH2 0x2377 JUMPI JUMPDEST POP POP POP POP POP DUP2 MSTORE POP POP SWAP1 POP DUP1 PUSH0 ADD MLOAD DUP5 PUSH1 0x6 DUP2 LT PUSH2 0x23AC JUMPI PUSH2 0x23AB PUSH2 0x35D5 JUMP JUMPDEST JUMPDEST PUSH1 0x20 MUL ADD MLOAD SWAP3 POP POP POP SWAP2 SWAP1 POP JUMP JUMPDEST PUSH1 0x8 SLOAD DUP2 JUMP JUMPDEST PUSH1 0x5 PUSH0 CALLER PUSH20 0xFFFFFFFFFFFFFFFFFFFFFFFFFFFFFFFFFFFFFFFF AND PUSH20 0xFFFFFFFFFFFFFFFFFFFFFFFFFFFFFFFFFFFFFFFF AND DUP2 MSTORE PUSH1 0x20 ADD SWAP1 DUP2 MSTORE PUSH1 0x20 ADD PUSH0 KECCAK256 PUSH0 SWAP1 SLOAD SWAP1 PUSH2 0x100 EXP SWAP1 DIV PUSH1 0xFF AND PUSH2 0x2449 JUMPI PUSH1 0x40 MLOAD PUSH32 0x8C379A000000000000000000000000000000000000000000000000000000000 DUP2 MSTORE PUSH1 0x4 ADD PUSH2 0x2440 SWAP1 PUSH2 0x36AC JUMP JUMPDEST PUSH1 0x40 MLOAD DUP1 SWAP2 SUB SWAP1 REVERT JUMPDEST PUSH0 PUSH1 0x7 PUSH0 DUP4 DUP2 MSTORE PUSH1 0x20 ADD SWAP1 DUP2 MSTORE PUSH1 0x20 ADD PUSH0 KECCAK256 SWAP1 POP DUP1 PUSH1 0x5 ADD PUSH0 SWAP1 SLOAD SWAP1 PUSH2 0x100 EXP SWAP1 DIV PUSH1 0xFF AND ISZERO PUSH2 0x24AE JUMPI PUSH1 0x40 MLOAD PUSH32 0x8C379A000000000000000000000000000000000000000000000000000000000 DUP2 MSTORE PUSH1 0x4 ADD PUSH2 0x24A5 SWAP1 PUSH2 0x38F9 JUMP JUMPDEST PUSH1 0x40 MLOAD DUP1 SWAP2 SUB SWAP1 REVERT JUMPDEST DUP1 PUSH1 0x5 ADD PUSH1 0x1 SWAP1 SLOAD SWAP1 PUSH2 0x100 EXP SWAP1 DIV PUSH1 0xFF AND ISZERO PUSH2 0x2500 JUMPI PUSH1 0x40 MLOAD PUSH32 0x8C379A000000000000000000000000000000000000000000000000000000000 DUP2 MSTORE PUSH1 0x4 ADD PUSH2 0x24F7 SWAP1 PUSH2 0x4242 JUMP JUMPDEST PUSH1 0x40 MLOAD DUP1 SWAP2 SUB SWAP1 REVERT JUMPDEST PUSH1 0x1 DUP2 PUSH1 0x5 ADD PUSH1 0x1 PUSH2 0x100 EXP DUP2 SLOAD DUP2 PUSH1 0xFF MUL NOT AND SWAP1 DUP4 ISZERO ISZERO MUL OR SWAP1 SSTORE POP CALLER PUSH20 0xFFFFFFFFFFFFFFFFFFFFFFFFFFFFFFFFFFFFFFFF AND DUP3 PUSH32 0xCD8A8ADEB6B0A0338444333E99EE6394DF82AC7E4E8132079D728B1A0E863A11 PUSH1 0x40 MLOAD PUSH1 0x40 MLOAD DUP1 SWAP2 SUB SWAP1 LOG3 POP POP JUMP JUMPDEST PUSH2 0x256D PUSH2 0x2949 JUMP JUMPDEST PUSH0 PUSH0 SWAP1 POP JUMPDEST PUSH1 0x6 DUP2 LT ISZERO PUSH2 0x25EA JUMPI PUSH2 0x2584 DUP2 PUSH2 0x17F1 JUMP JUMPDEST DUP3 DUP3 PUSH1 0x6 DUP2 LT PUSH2 0x2597 JUMPI PUSH2 0x2596 PUSH2 0x35D5 JUMP JUMPDEST JUMPDEST PUSH1 0x20 MUL ADD MLOAD GT ISZERO PUSH2 0x25DD JUMPI PUSH1 0x40 MLOAD PUSH32 0x8C379A000000000000000000000000000000000000000000000000000000000 DUP2 MSTORE PUSH1 0x4 ADD PUSH2 0x25D4 SWAP1 PUSH2 0x42D0 JUMP JUMPDEST PUSH1 0x40 MLOAD DUP1 SWAP2 SUB SWAP1 REVERT JUMPDEST DUP1 DUP1 PUSH1 0x1 ADD SWAP2 POP POP PUSH2 0x2572 JUMP JUMPDEST POP PUSH0 PUSH1 0x2 SLOAD GT ISZERO PUSH2 0x26BD JUMPI PUSH0 PUSH0 SWAP1 POP JUMPDEST PUSH1 0x6 DUP2 LT ISZERO PUSH2 0x26BB JUMPI PUSH0 PUSH2 0x260D DUP3 PUSH2 0x560 JUMP JUMPDEST EQ PUSH2 0x264D JUMPI PUSH1 0x40 MLOAD PUSH32 0x8C379A000000000000000000000000000000000000000000000000000000000 DUP2 MSTORE PUSH1 0x4 ADD PUSH2 0x2644 SWAP1 PUSH2 0x4338 JUMP JUMPDEST PUSH1 0x40 MLOAD DUP1 SWAP2 SUB SWAP1 REVERT JUMPDEST PUSH2 0x2656 DUP2 PUSH2 0x2261 JUMP JUMPDEST DUP4 DUP3 PUSH1 0x6 DUP2 LT PUSH2 0x2669 JUMPI PUSH2 0x2668 PUSH2 0x35D5 JUMP JUMPDEST JUMPDEST PUSH1 0x20 MUL ADD MLOAD GT PUSH2 0x26AE JUMPI PUSH1 0x40 MLOAD PUSH32 0x8C379A000000000000000000000000000000000000000000000000000000000 DUP2 MSTORE PUSH1 0x4 ADD PUSH2 0x26A5 SWAP1 PUSH2 0x43A0 JUMP JUMPDEST PUSH1 0x40 MLOAD DUP1 SWAP2 SUB SWAP1 REVERT JUMPDEST DUP1 DUP1 PUSH1 0x1 ADD SWAP2 POP POP PUSH2 0x25FA JUMP JUMPDEST POP JUMPDEST PUSH1 0x2 PUSH0 DUP2 SLOAD DUP1 SWAP3 SWAP2 SWAP1 PUSH2 0x26CF SWAP1 PUSH2 0x3841 JUMP JUMPDEST SWAP2 SWAP1 POP SSTORE POP PUSH1 0x40 MLOAD DUP1 PUSH1 0x60 ADD PUSH1 0x40 MSTORE DUP1 DUP4 DUP2 MSTORE PUSH1 0x20 ADD DUP3 DUP2 MSTORE PUSH1 0x20 ADD PUSH1 0x40 MLOAD DUP1 PUSH1 0xC0 ADD PUSH1 0x40 MSTORE DUP1 PUSH0 DUP2 MSTORE PUSH1 0x20 ADD PUSH0 DUP2 MSTORE PUSH1 0x20 ADD PUSH0 DUP2 MSTORE PUSH1 0x20 ADD PUSH0 DUP2 MSTORE PUSH1 0x20 ADD PUSH0 DUP2 MSTORE PUSH1 0x20 ADD PUSH0 DUP2 MSTORE POP DUP2 MSTORE POP PUSH1 0x3 PUSH0 PUSH1 0x2 SLOAD DUP2 MSTORE PUSH1 0x20 ADD SWAP1 DUP2 MSTORE PUSH1 0x20 ADD PUSH0 KECCAK256 PUSH0 DUP3 ADD MLOAD DUP2 PUSH0 ADD SWAP1 PUSH1 0x6 PUSH2 0x2743 SWAP3 SWAP2 SWAP1 PUSH2 0x2C83 JUMP JUMPDEST POP PUSH1 0x20 DUP3 ADD MLOAD DUP2 PUSH1 0x6 ADD SWAP1 PUSH1 0x6 PUSH2 0x275B SWAP3 SWAP2 SWAP1 PUSH2 0x2C83 JUMP JUMPDEST POP PUSH1 0x40 DUP3 ADD MLOAD DUP2 PUSH1 0xC ADD SWAP1 PUSH1 0x6 PUSH2 0x2773 SWAP3 SWAP2 SWAP1 PUSH2 0x2C83 JUMP JUMPDEST POP SWAP1 POP POP PUSH1 0x2 SLOAD PUSH32 0x7DED52798AB2E63AD5F4474D2273D878D5EC60F9E082CDE09A3E544EFBA93296 PUSH1 0x40 MLOAD PUSH1 0x40 MLOAD DUP1 SWAP2 SUB SWAP1 LOG2 POP POP JUMP JUMPDEST PUSH2 0x27B2 PUSH2 0x2949 JUMP JUMPDEST PUSH0 PUSH20 0xFFFFFFFFFFFFFFFFFFFFFFFFFFFFFFFFFFFFFFFF AND DUP2 PUSH20 0xFFFFFFFFFFFFFFFFFFFFFFFFFFFFFFFFFFFFFFFF AND SUB PUSH2 0x2822 JUMPI PUSH0 PUSH1 0x40 MLOAD PUSH32 0x1E4FBDF700000000000000000000000000000000000000000000000000000000 DUP2 MSTORE PUSH1 0x4 ADD PUSH2 0x2819 SWAP2 SWAP1 PUSH2 0x3396 JUMP JUMPDEST PUSH1 0x40 MLOAD DUP1 SWAP2 SUB SWAP1 REVERT JUMPDEST PUSH2 0x282B DUP2 PUSH2 0x29D0 JUMP JUMPDEST POP JUMP JUMPDEST PUSH0 PUSH1 0x7 PUSH0 DUP4 DUP2 MSTORE PUSH1 0x20 ADD SWAP1 DUP2 MSTORE PUSH1 0x20 ADD PUSH0 KECCAK256 SWAP1 POP PUSH1 0x1 DUP2 PUSH1 0x5 ADD PUSH0 PUSH2 0x100 EXP DUP2 SLOAD DUP2 PUSH1 0xFF MUL NOT AND SWAP1 DUP4 ISZERO ISZERO MUL OR SWAP1 SSTORE POP PUSH2 0x28CF DUP2 PUSH1 0x1 ADD PUSH0 SWAP1 SLOAD SWAP1 PUSH2 0x100 EXP SWAP1 DIV PUSH20 0xFFFFFFFFFFFFFFFFFFFFFFFFFFFFFFFFFFFFFFFF AND DUP3 PUSH0 ADD SLOAD PUSH32 0x0 PUSH20 0xFFFFFFFFFFFFFFFFFFFFFFFFFFFFFFFFFFFFFFFF AND PUSH2 0x2B59 SWAP1 SWAP3 SWAP2 SWAP1 PUSH4 0xFFFFFFFF AND JUMP JUMPDEST CALLER PUSH20 0xFFFFFFFFFFFFFFFFFFFFFFFFFFFFFFFFFFFFFFFF AND DUP3 PUSH31 0x9525D1B7630386050058876F776D3F6B7B6C79213925AEC88934FFA1678E21 DUP4 PUSH0 ADD SLOAD DUP5 PUSH1 0x1 ADD PUSH0 SWAP1 SLOAD SWAP1 PUSH2 0x100 EXP SWAP1 DIV PUSH20 0xFFFFFFFFFFFFFFFFFFFFFFFFFFFFFFFFFFFFFFFF AND PUSH1 0x40 MLOAD PUSH2 0x293D SWAP3 SWAP2 SWAP1 PUSH2 0x3888 JUMP JUMPDEST PUSH1 0x40 MLOAD DUP1 SWAP2 SUB SWAP1 LOG3 POP POP JUMP JUMPDEST PUSH2 0x2951 PUSH2 0x2BE1 JUMP JUMPDEST PUSH20 0xFFFFFFFFFFFFFFFFFFFFFFFFFFFFFFFFFFFFFFFF AND PUSH2 0x296F PUSH2 0x18F1 JUMP JUMPDEST PUSH20 0xFFFFFFFFFFFFFFFFFFFFFFFFFFFFFFFFFFFFFFFF AND EQ PUSH2 0x29CE JUMPI PUSH2 0x2992 PUSH2 0x2BE1 JUMP JUMPDEST PUSH1 0x40 MLOAD PUSH32 0x118CDAA700000000000000000000000000000000000000000000000000000000 DUP2 MSTORE PUSH1 0x4 ADD PUSH2 0x29C5 SWAP2 SWAP1 PUSH2 0x3396 JUMP JUMPDEST PUSH1 0x40 MLOAD DUP1 SWAP2 SUB SWAP1 REVERT JUMPDEST JUMP JUMPDEST PUSH0 PUSH0 PUSH0 SWAP1 SLOAD SWAP1 PUSH2 0x100 EXP SWAP1 DIV PUSH20 0xFFFFFFFFFFFFFFFFFFFFFFFFFFFFFFFFFFFFFFFF AND SWAP1 POP DUP2 PUSH0 PUSH0 PUSH2 0x100 EXP DUP2 SLOAD DUP2 PUSH20 0xFFFFFFFFFFFFFFFFFFFFFFFFFFFFFFFFFFFFFFFF MUL NOT AND SWAP1 DUP4 PUSH20 0xFFFFFFFFFFFFFFFFFFFFFFFFFFFFFFFFFFFFFFFF AND MUL OR SWAP1 SSTORE POP DUP2 PUSH20 0xFFFFFFFFFFFFFFFFFFFFFFFFFFFFFFFFFFFFFFFF AND DUP2 PUSH20 0xFFFFFFFFFFFFFFFFFFFFFFFFFFFFFFFFFFFFFFFF AND PUSH32 0x8BE0079C531659141344CD1FD0A4F28419497F9722A3DAAFE3B4186F6B6457E0 PUSH1 0x40 MLOAD PUSH1 0x40 MLOAD DUP1 SWAP2 SUB SWAP1 LOG3 POP POP JUMP JUMPDEST PUSH1 0x2 PUSH1 0x1 SLOAD SUB PUSH2 0x2ACD JUMPI PUSH1 0x40 MLOAD PUSH32 0x3EE5AEB500000000000000000000000000000000000000000000000000000000 DUP2 MSTORE PUSH1 0x4 ADD PUSH1 0x40 MLOAD DUP1 SWAP2 SUB SWAP1 REVERT JUMPDEST PUSH1 0x2 PUSH1 0x1 DUP2 SWAP1 SSTORE POP JUMP JUMPDEST PUSH2 0x2B53 DUP5 DUP6 PUSH20 0xFFFFFFFFFFFFFFFFFFFFFFFFFFFFFFFFFFFFFFFF AND PUSH4 0x23B872DD DUP7 DUP7 DUP7 PUSH1 0x40 MLOAD PUSH1 0x24 ADD PUSH2 0x2B0C SWAP4 SWAP3 SWAP2 SWAP1 PUSH2 0x43BE JUMP JUMPDEST PUSH1 0x40 MLOAD PUSH1 0x20 DUP2 DUP4 SUB SUB DUP2 MSTORE SWAP1 PUSH1 0x40 MSTORE SWAP2 POP PUSH1 0xE0 SHL PUSH1 0x20 DUP3 ADD DUP1 MLOAD PUSH28 0xFFFFFFFFFFFFFFFFFFFFFFFFFFFFFFFFFFFFFFFFFFFFFFFFFFFFFFFF DUP4 DUP2 DUP4 AND OR DUP4 MSTORE POP POP POP POP PUSH2 0x2BE8 JUMP JUMPDEST POP POP POP POP JUMP JUMPDEST PUSH2 0x2BD3 DUP4 DUP5 PUSH20 0xFFFFFFFFFFFFFFFFFFFFFFFFFFFFFFFFFFFFFFFF AND PUSH4 0xA9059CBB DUP6 DUP6 PUSH1 0x40 MLOAD PUSH1 0x24 ADD PUSH2 0x2B8C SWAP3 SWAP2 SWAP1 PUSH2 0x43F3 JUMP JUMPDEST PUSH1 0x40 MLOAD PUSH1 0x20 DUP2 DUP4 SUB SUB DUP2 MSTORE SWAP1 PUSH1 0x40 MSTORE SWAP2 POP PUSH1 0xE0 SHL PUSH1 0x20 DUP3 ADD DUP1 MLOAD PUSH28 0xFFFFFFFFFFFFFFFFFFFFFFFFFFFFFFFFFFFFFFFFFFFFFFFFFFFFFFFF DUP4 DUP2 DUP4 AND OR DUP4 MSTORE POP POP POP POP PUSH2 0x2BE8 JUMP JUMPDEST POP POP POP JUMP JUMPDEST PUSH1 0x1 DUP1 DUP2 SWAP1 SSTORE POP JUMP JUMPDEST PUSH0 CALLER SWAP1 POP SWAP1 JUMP JUMPDEST PUSH0 PUSH0 PUSH1 0x20 PUSH0 DUP5 MLOAD PUSH1 0x20 DUP7 ADD PUSH0 DUP9 GAS CALL DUP1 PUSH2 0x2C07 JUMPI PUSH1 0x40 MLOAD RETURNDATASIZE PUSH0 DUP3 RETURNDATACOPY RETURNDATASIZE DUP2 REVERT JUMPDEST RETURNDATASIZE SWAP3 POP PUSH0 MLOAD SWAP2 POP POP PUSH0 DUP3 EQ PUSH2 0x2C20 JUMPI PUSH1 0x1 DUP2 EQ ISZERO PUSH2 0x2C3B JUMP JUMPDEST PUSH0 DUP5 PUSH20 0xFFFFFFFFFFFFFFFFFFFFFFFFFFFFFFFFFFFFFFFF AND EXTCODESIZE EQ JUMPDEST ISZERO PUSH2 0x2C7D JUMPI DUP4 PUSH1 0x40 MLOAD PUSH32 0x5274AFE700000000000000000000000000000000000000000000000000000000 DUP2 MSTORE PUSH1 0x4 ADD PUSH2 0x2C74 SWAP2 SWAP1 PUSH2 0x3396 JUMP JUMPDEST PUSH1 0x40 MLOAD DUP1 SWAP2 SUB SWAP1 REVERT JUMPDEST POP POP POP POP JUMP JUMPDEST DUP3 PUSH1 0x6 DUP2 ADD SWAP3 DUP3 ISZERO PUSH2 0x2CB2 JUMPI SWAP2 PUSH1 0x20 MUL DUP3 ADD JUMPDEST DUP3 DUP2 GT ISZERO PUSH2 0x2CB1 JUMPI DUP3 MLOAD DUP3 SSTORE SWAP2 PUSH1 0x20 ADD SWAP2 SWAP1 PUSH1 0x1 ADD SWAP1 PUSH2 0x2C96 JUMP JUMPDEST JUMPDEST POP SWAP1 POP PUSH2 0x2CBF SWAP2 SWAP1 PUSH2 0x2D26 JUMP JUMPDEST POP SWAP1 JUMP JUMPDEST PUSH1 0x40 MLOAD DUP1 PUSH1 0xC0 ADD PUSH1 0x40 MSTORE DUP1 PUSH0 PUSH20 0xFFFFFFFFFFFFFFFFFFFFFFFFFFFFFFFFFFFFFFFF AND DUP2 MSTORE PUSH1 0x20 ADD PUSH0 PUSH20 0xFFFFFFFFFFFFFFFFFFFFFFFFFFFFFFFFFFFFFFFF AND DUP2 MSTORE PUSH1 0x20 ADD PUSH0 DUP2 MSTORE PUSH1 0x20 ADD PUSH2 0x2D14 PUSH2 0x2D41 JUMP JUMPDEST DUP2 MSTORE PUSH1 0x20 ADD PUSH0 DUP2 MSTORE PUSH1 0x20 ADD PUSH0 DUP2 MSTORE POP SWAP1 JUMP JUMPDEST JUMPDEST DUP1 DUP3 GT ISZERO PUSH2 0x2D3D JUMPI PUSH0 DUP2 PUSH0 SWAP1 SSTORE POP PUSH1 0x1 ADD PUSH2 0x2D27 JUMP JUMPDEST POP SWAP1 JUMP JUMPDEST PUSH1 0x40 MLOAD DUP1 PUSH1 0xC0 ADD PUSH1 0x40 MSTORE DUP1 PUSH1 0x6 SWAP1 PUSH1 0x20 DUP3 MUL DUP1 CALLDATASIZE DUP4 CALLDATACOPY DUP1 DUP3 ADD SWAP2 POP POP SWAP1 POP POP SWAP1 JUMP JUMPDEST PUSH0 DUP2 SWAP1 POP SWAP2 SWAP1 POP JUMP JUMPDEST PUSH2 0x2D75 DUP2 PUSH2 0x2D63 JUMP JUMPDEST DUP3 MSTORE POP POP JUMP JUMPDEST PUSH0 PUSH1 0x20 DUP3 ADD SWAP1 POP PUSH2 0x2D8E PUSH0 DUP4 ADD DUP5 PUSH2 0x2D6C JUMP JUMPDEST SWAP3 SWAP2 POP POP JUMP JUMPDEST PUSH0 PUSH1 0x40 MLOAD SWAP1 POP SWAP1 JUMP JUMPDEST PUSH0 PUSH0 REVERT JUMPDEST PUSH0 PUSH0 REVERT JUMPDEST PUSH2 0x2DAE DUP2 PUSH2 0x2D63 JUMP JUMPDEST DUP2 EQ PUSH2 0x2DB8 JUMPI PUSH0 PUSH0 REVERT JUMPDEST POP JUMP JUMPDEST PUSH0 DUP2 CALLDATALOAD SWAP1 POP PUSH2 0x2DC9 DUP2 PUSH2 0x2DA5 JUMP JUMPDEST SWAP3 SWAP2 POP POP JUMP JUMPDEST PUSH0 PUSH1 0x20 DUP3 DUP5 SUB SLT ISZERO PUSH2 0x2DE4 JUMPI PUSH2 0x2DE3 PUSH2 0x2D9D JUMP JUMPDEST JUMPDEST PUSH0 PUSH2 0x2DF1 DUP5 DUP3 DUP6 ADD PUSH2 0x2DBB JUMP JUMPDEST SWAP2 POP POP SWAP3 SWAP2 POP POP JUMP JUMPDEST PUSH0 PUSH20 0xFFFFFFFFFFFFFFFFFFFFFFFFFFFFFFFFFFFFFFFF DUP3 AND SWAP1 POP SWAP2 SWAP1 POP JUMP JUMPDEST PUSH0 DUP2 SWAP1 POP SWAP2 SWAP1 POP JUMP JUMPDEST PUSH0 PUSH2 0x2E3C PUSH2 0x2E37 PUSH2 0x2E32 DUP5 PUSH2 0x2DFA JUMP JUMPDEST PUSH2 0x2E19 JUMP JUMPDEST PUSH2 0x2DFA JUMP JUMPDEST SWAP1 POP SWAP2 SWAP1 POP JUMP JUMPDEST PUSH0 PUSH2 0x2E4D DUP3 PUSH2 0x2E22 JUMP JUMPDEST SWAP1 POP SWAP2 SWAP1 POP JUMP JUMPDEST PUSH0 PUSH2 0x2E5E DUP3 PUSH2 0x2E43 JUMP JUMPDEST SWAP1 POP SWAP2 SWAP1 POP JUMP JUMPDEST PUSH2 0x2E6E DUP2 PUSH2 0x2E54 JUMP JUMPDEST DUP3 MSTORE POP POP JUMP JUMPDEST PUSH0 PUSH1 0x20 DUP3 ADD SWAP1 POP PUSH2 0x2E87 PUSH0 DUP4 ADD DUP5 PUSH2 0x2E65 JUMP JUMPDEST SWAP3 SWAP2 POP POP JUMP JUMPDEST PUSH0 PUSH2 0x2E97 DUP3 PUSH2 0x2DFA JUMP JUMPDEST SWAP1 POP SWAP2 SWAP1 POP JUMP JUMPDEST PUSH2 0x2EA7 DUP2 PUSH2 0x2E8D JUMP JUMPDEST DUP2 EQ PUSH2 0x2EB1 JUMPI PUSH0 PUSH0 REVERT JUMPDEST POP JUMP JUMPDEST PUSH0 DUP2 CALLDATALOAD SWAP1 POP PUSH2 0x2EC2 DUP2 PUSH2 0x2E9E JUMP JUMPDEST SWAP3 SWAP2 POP POP JUMP JUMPDEST PUSH0 PUSH0 PUSH1 0x40 DUP4 DUP6 SUB SLT ISZERO PUSH2 0x2EDE JUMPI PUSH2 0x2EDD PUSH2 0x2D9D JUMP JUMPDEST JUMPDEST PUSH0 PUSH2 0x2EEB DUP6 DUP3 DUP7 ADD PUSH2 0x2DBB JUMP JUMPDEST SWAP3 POP POP PUSH1 0x20 PUSH2 0x2EFC DUP6 DUP3 DUP7 ADD PUSH2 0x2EB4 JUMP JUMPDEST SWAP2 POP POP SWAP3 POP SWAP3 SWAP1 POP JUMP JUMPDEST PUSH0 PUSH0 REVERT JUMPDEST PUSH0 PUSH0 REVERT JUMPDEST PUSH0 PUSH1 0x1F NOT PUSH1 0x1F DUP4 ADD AND SWAP1 POP SWAP2 SWAP1 POP JUMP JUMPDEST PUSH32 0x4E487B7100000000000000000000000000000000000000000000000000000000 PUSH0 MSTORE PUSH1 0x41 PUSH1 0x4 MSTORE PUSH1 0x24 PUSH0 REVERT JUMPDEST PUSH2 0x2F54 DUP3 PUSH2 0x2F0E JUMP JUMPDEST DUP2 ADD DUP2 DUP2 LT PUSH8 0xFFFFFFFFFFFFFFFF DUP3 GT OR ISZERO PUSH2 0x2F73 JUMPI PUSH2 0x2F72 PUSH2 0x2F1E JUMP JUMPDEST JUMPDEST DUP1 PUSH1 0x40 MSTORE POP POP POP JUMP JUMPDEST PUSH0 PUSH2 0x2F85 PUSH2 0x2D94 JUMP JUMPDEST SWAP1 POP PUSH2 0x2F91 DUP3 DUP3 PUSH2 0x2F4B JUMP JUMPDEST SWAP2 SWAP1 POP JUMP JUMPDEST PUSH0 PUSH8 0xFFFFFFFFFFFFFFFF DUP3 GT ISZERO PUSH2 0x2FB0 JUMPI PUSH2 0x2FAF PUSH2 0x2F1E JUMP JUMPDEST JUMPDEST PUSH2 0x2FB9 DUP3 PUSH2 0x2F0E JUMP JUMPDEST SWAP1 POP PUSH1 0x20 DUP2 ADD SWAP1 POP SWAP2 SWAP1 POP JUMP JUMPDEST DUP3 DUP2 DUP4 CALLDATACOPY PUSH0 DUP4 DUP4 ADD MSTORE POP POP POP JUMP JUMPDEST PUSH0 PUSH2 0x2FE6 PUSH2 0x2FE1 DUP5 PUSH2 0x2F96 JUMP JUMPDEST PUSH2 0x2F7C JUMP JUMPDEST SWAP1 POP DUP3 DUP2 MSTORE PUSH1 0x20 DUP2 ADD DUP5 DUP5 DUP5 ADD GT ISZERO PUSH2 0x3002 JUMPI PUSH2 0x3001 PUSH2 0x2F0A JUMP JUMPDEST JUMPDEST PUSH2 0x300D DUP5 DUP3 DUP6 PUSH2 0x2FC6 JUMP JUMPDEST POP SWAP4 SWAP3 POP POP POP JUMP JUMPDEST PUSH0 DUP3 PUSH1 0x1F DUP4 ADD SLT PUSH2 0x3029 JUMPI PUSH2 0x3028 PUSH2 0x2F06 JUMP JUMPDEST JUMPDEST DUP2 CALLDATALOAD PUSH2 0x3039 DUP5 DUP3 PUSH1 0x20 DUP7 ADD PUSH2 0x2FD4 JUMP JUMPDEST SWAP2 POP POP SWAP3 SWAP2 POP POP JUMP JUMPDEST PUSH0 PUSH0 PUSH0 PUSH0 PUSH1 0x80 DUP6 DUP8 SUB SLT ISZERO PUSH2 0x305A JUMPI PUSH2 0x3059 PUSH2 0x2D9D JUMP JUMPDEST JUMPDEST PUSH0 DUP6 ADD CALLDATALOAD PUSH8 0xFFFFFFFFFFFFFFFF DUP2 GT ISZERO PUSH2 0x3077 JUMPI PUSH2 0x3076 PUSH2 0x2DA1 JUMP JUMPDEST JUMPDEST PUSH2 0x3083 DUP8 DUP3 DUP9 ADD PUSH2 0x3015 JUMP JUMPDEST SWAP5 POP POP PUSH1 0x20 PUSH2 0x3094 DUP8 DUP3 DUP9 ADD PUSH2 0x2EB4 JUMP JUMPDEST SWAP4 POP POP PUSH1 0x40 PUSH2 0x30A5 DUP8 DUP3 DUP9 ADD PUSH2 0x2EB4 JUMP JUMPDEST SWAP3 POP POP PUSH1 0x60 PUSH2 0x30B6 DUP8 DUP3 DUP9 ADD PUSH2 0x2DBB JUMP JUMPDEST SWAP2 POP POP SWAP3 SWAP6 SWAP2 SWAP5 POP SWAP3 POP JUMP JUMPDEST PUSH0 PUSH2 0x30CC DUP3 PUSH2 0x2E43 JUMP JUMPDEST SWAP1 POP SWAP2 SWAP1 POP JUMP JUMPDEST PUSH2 0x30DC DUP2 PUSH2 0x30C2 JUMP JUMPDEST DUP3 MSTORE POP POP JUMP JUMPDEST PUSH0 PUSH1 0x20 DUP3 ADD SWAP1 POP PUSH2 0x30F5 PUSH0 DUP4 ADD DUP5 PUSH2 0x30D3 JUMP JUMPDEST SWAP3 SWAP2 POP POP JUMP JUMPDEST PUSH0 PUSH1 0x20 DUP3 DUP5 SUB SLT ISZERO PUSH2 0x3110 JUMPI PUSH2 0x310F PUSH2 0x2D9D JUMP JUMPDEST JUMPDEST PUSH0 DUP3 ADD CALLDATALOAD PUSH8 0xFFFFFFFFFFFFFFFF DUP2 GT ISZERO PUSH2 0x312D JUMPI PUSH2 0x312C PUSH2 0x2DA1 JUMP JUMPDEST JUMPDEST PUSH2 0x3139 DUP5 DUP3 DUP6 ADD PUSH2 0x3015 JUMP JUMPDEST SWAP2 POP POP SWAP3 SWAP2 POP POP JUMP JUMPDEST PUSH2 0x314B DUP2 PUSH2 0x2E8D JUMP JUMPDEST DUP3 MSTORE POP POP JUMP JUMPDEST PUSH2 0x315A DUP2 PUSH2 0x2D63 JUMP JUMPDEST DUP3 MSTORE POP POP JUMP JUMPDEST PUSH0 PUSH1 0x6 SWAP1 POP SWAP2 SWAP1 POP JUMP JUMPDEST PUSH0 DUP2 SWAP1 POP SWAP3 SWAP2 POP POP JUMP JUMPDEST PUSH0 DUP2 SWAP1 POP SWAP2 SWAP1 POP JUMP JUMPDEST PUSH0 PUSH2 0x3188 DUP4 DUP4 PUSH2 0x3151 JUMP JUMPDEST PUSH1 0x20 DUP4 ADD SWAP1 POP SWAP3 SWAP2 POP POP JUMP JUMPDEST PUSH0 PUSH1 0x20 DUP3 ADD SWAP1 POP SWAP2 SWAP1 POP JUMP JUMPDEST PUSH2 0x31A9 DUP2 PUSH2 0x3160 JUMP JUMPDEST PUSH2 0x31B3 DUP2 DUP5 PUSH2 0x316A JUMP JUMPDEST SWAP3 POP PUSH2 0x31BE DUP3 PUSH2 0x3174 JUMP JUMPDEST DUP1 PUSH0 JUMPDEST DUP4 DUP2 LT ISZERO PUSH2 0x31EE JUMPI DUP2 MLOAD PUSH2 0x31D5 DUP8 DUP3 PUSH2 0x317D JUMP JUMPDEST SWAP7 POP PUSH2 0x31E0 DUP4 PUSH2 0x3194 JUMP JUMPDEST SWAP3 POP POP PUSH1 0x1 DUP2 ADD SWAP1 POP PUSH2 0x31C1 JUMP JUMPDEST POP POP POP POP POP POP JUMP JUMPDEST PUSH2 0x160 DUP3 ADD PUSH0 DUP3 ADD MLOAD PUSH2 0x320B PUSH0 DUP6 ADD DUP3 PUSH2 0x3142 JUMP JUMPDEST POP PUSH1 0x20 DUP3 ADD MLOAD PUSH2 0x321E PUSH1 0x20 DUP6 ADD DUP3 PUSH2 0x3142 JUMP JUMPDEST POP PUSH1 0x40 DUP3 ADD MLOAD PUSH2 0x3231 PUSH1 0x40 DUP6 ADD DUP3 PUSH2 0x3151 JUMP JUMPDEST POP PUSH1 0x60 DUP3 ADD MLOAD PUSH2 0x3244 PUSH1 0x60 DUP6 ADD DUP3 PUSH2 0x31A0 JUMP JUMPDEST POP PUSH1 0x80 DUP3 ADD MLOAD PUSH2 0x3258 PUSH2 0x120 DUP6 ADD DUP3 PUSH2 0x3151 JUMP JUMPDEST POP PUSH1 0xA0 DUP3 ADD MLOAD PUSH2 0x326C PUSH2 0x140 DUP6 ADD DUP3 PUSH2 0x3151 JUMP JUMPDEST POP POP POP POP JUMP JUMPDEST PUSH0 PUSH2 0x160 DUP3 ADD SWAP1 POP PUSH2 0x3286 PUSH0 DUP4 ADD DUP5 PUSH2 0x31F6 JUMP JUMPDEST SWAP3 SWAP2 POP POP JUMP JUMPDEST PUSH0 PUSH0 PUSH0 PUSH1 0x60 DUP5 DUP7 SUB SLT ISZERO PUSH2 0x32A3 JUMPI PUSH2 0x32A2 PUSH2 0x2D9D JUMP JUMPDEST JUMPDEST PUSH0 PUSH2 0x32B0 DUP7 DUP3 DUP8 ADD PUSH2 0x2DBB JUMP JUMPDEST SWAP4 POP POP PUSH1 0x20 PUSH2 0x32C1 DUP7 DUP3 DUP8 ADD PUSH2 0x2DBB JUMP JUMPDEST SWAP3 POP POP PUSH1 0x40 DUP5 ADD CALLDATALOAD PUSH8 0xFFFFFFFFFFFFFFFF DUP2 GT ISZERO PUSH2 0x32E2 JUMPI PUSH2 0x32E1 PUSH2 0x2DA1 JUMP JUMPDEST JUMPDEST PUSH2 0x32EE DUP7 DUP3 DUP8 ADD PUSH2 0x3015 JUMP JUMPDEST SWAP2 POP POP SWAP3 POP SWAP3 POP SWAP3 JUMP JUMPDEST PUSH0 PUSH1 0xA0 DUP3 ADD SWAP1 POP PUSH2 0x330B PUSH0 DUP4 ADD DUP9 PUSH2 0x2D6C JUMP JUMPDEST PUSH2 0x3318 PUSH1 0x20 DUP4 ADD DUP8 PUSH2 0x2D6C JUMP JUMPDEST PUSH2 0x3325 PUSH1 0x40 DUP4 ADD DUP7 PUSH2 0x2D6C JUMP JUMPDEST PUSH2 0x3332 PUSH1 0x60 DUP4 ADD DUP6 PUSH2 0x2D6C JUMP JUMPDEST PUSH2 0x333F PUSH1 0x80 DUP4 ADD DUP5 PUSH2 0x2D6C JUMP JUMPDEST SWAP7 SWAP6 POP POP POP POP POP POP JUMP JUMPDEST PUSH0 PUSH0 PUSH1 0x40 DUP4 DUP6 SUB SLT ISZERO PUSH2 0x335F JUMPI PUSH2 0x335E PUSH2 0x2D9D JUMP JUMPDEST JUMPDEST PUSH0 PUSH2 0x336C DUP6 DUP3 DUP7 ADD PUSH2 0x2DBB JUMP JUMPDEST SWAP3 POP POP PUSH1 0x20 PUSH2 0x337D DUP6 DUP3 DUP7 ADD PUSH2 0x2DBB JUMP JUMPDEST SWAP2 POP POP SWAP3 POP SWAP3 SWAP1 POP JUMP JUMPDEST PUSH2 0x3390 DUP2 PUSH2 0x2E8D JUMP JUMPDEST DUP3 MSTORE POP POP JUMP JUMPDEST PUSH0 PUSH1 0x20 DUP3 ADD SWAP1 POP PUSH2 0x33A9 PUSH0 DUP4 ADD DUP5 PUSH2 0x3387 JUMP JUMPDEST SWAP3 SWAP2 POP POP JUMP JUMPDEST PUSH0 DUP2 ISZERO ISZERO SWAP1 POP SWAP2 SWAP1 POP JUMP JUMPDEST PUSH2 0x33C3 DUP2 PUSH2 0x33AF JUMP JUMPDEST DUP3 MSTORE POP POP JUMP JUMPDEST PUSH0 PUSH1 0xC0 DUP3 ADD SWAP1 POP PUSH2 0x33DC PUSH0 DUP4 ADD DUP10 PUSH2 0x2D6C JUMP JUMPDEST PUSH2 0x33E9 PUSH1 0x20 DUP4 ADD DUP9 PUSH2 0x3387 JUMP JUMPDEST PUSH2 0x33F6 PUSH1 0x40 DUP4 ADD DUP8 PUSH2 0x2D6C JUMP JUMPDEST PUSH2 0x3403 PUSH1 0x60 DUP4 ADD DUP7 PUSH2 0x2D6C JUMP JUMPDEST PUSH2 0x3410 PUSH1 0x80 DUP4 ADD DUP6 PUSH2 0x33BA JUMP JUMPDEST PUSH2 0x341D PUSH1 0xA0 DUP4 ADD DUP5 PUSH2 0x33BA JUMP JUMPDEST SWAP8 SWAP7 POP POP POP POP POP POP POP JUMP JUMPDEST PUSH0 PUSH1 0x20 DUP3 DUP5 SUB SLT ISZERO PUSH2 0x343D JUMPI PUSH2 0x343C PUSH2 0x2D9D JUMP JUMPDEST JUMPDEST PUSH0 PUSH2 0x344A DUP5 DUP3 DUP6 ADD PUSH2 0x2EB4 JUMP JUMPDEST SWAP2 POP POP SWAP3 SWAP2 POP POP JUMP JUMPDEST PUSH0 PUSH1 0x20 DUP3 ADD SWAP1 POP PUSH2 0x3466 PUSH0 DUP4 ADD DUP5 PUSH2 0x33BA JUMP JUMPDEST SWAP3 SWAP2 POP POP JUMP JUMPDEST PUSH0 PUSH8 0xFFFFFFFFFFFFFFFF DUP3 GT ISZERO PUSH2 0x3486 JUMPI PUSH2 0x3485 PUSH2 0x2F1E JUMP JUMPDEST JUMPDEST PUSH1 0x20 DUP3 MUL SWAP1 POP SWAP2 SWAP1 POP JUMP JUMPDEST PUSH0 PUSH0 REVERT JUMPDEST PUSH0 PUSH2 0x34A7 PUSH2 0x34A2 DUP5 PUSH2 0x346C JUMP JUMPDEST PUSH2 0x2F7C JUMP JUMPDEST SWAP1 POP DUP1 PUSH1 0x20 DUP5 MUL DUP4 ADD DUP6 DUP2 GT ISZERO PUSH2 0x34C1 JUMPI PUSH2 0x34C0 PUSH2 0x3491 JUMP JUMPDEST JUMPDEST DUP4 JUMPDEST DUP2 DUP2 LT ISZERO PUSH2 0x34EA JUMPI DUP1 PUSH2 0x34D6 DUP9 DUP3 PUSH2 0x2DBB JUMP JUMPDEST DUP5 MSTORE PUSH1 0x20 DUP5 ADD SWAP4 POP POP PUSH1 0x20 DUP2 ADD SWAP1 POP PUSH2 0x34C3 JUMP JUMPDEST POP POP POP SWAP4 SWAP3 POP POP POP JUMP JUMPDEST PUSH0 DUP3 PUSH1 0x1F DUP4 ADD SLT PUSH2 0x3508 JUMPI PUSH2 0x3507 PUSH2 0x2F06 JUMP JUMPDEST JUMPDEST PUSH1 0x6 PUSH2 0x3515 DUP5 DUP3 DUP6 PUSH2 0x3495 JUMP JUMPDEST SWAP2 POP POP SWAP3 SWAP2 POP POP JUMP JUMPDEST PUSH0 PUSH0 PUSH2 0x180 DUP4 DUP6 SUB SLT ISZERO PUSH2 0x3535 JUMPI PUSH2 0x3534 PUSH2 0x2D9D JUMP JUMPDEST JUMPDEST PUSH0 PUSH2 0x3542 DUP6 DUP3 DUP7 ADD PUSH2 0x34F4 JUMP JUMPDEST SWAP3 POP POP PUSH1 0xC0 PUSH2 0x3553 DUP6 DUP3 DUP7 ADD PUSH2 0x34F4 JUMP JUMPDEST SWAP2 POP POP SWAP3 POP SWAP3 SWAP1 POP JUMP JUMPDEST PUSH0 DUP3 DUP3 MSTORE PUSH1 0x20 DUP3 ADD SWAP1 POP SWAP3 SWAP2 POP POP JUMP JUMPDEST PUSH32 0x496E76616C696420726172697479204944000000000000000000000000000000 PUSH0 DUP3 ADD MSTORE POP JUMP JUMPDEST PUSH0 PUSH2 0x35A1 PUSH1 0x11 DUP4 PUSH2 0x355D JUMP JUMPDEST SWAP2 POP PUSH2 0x35AC DUP3 PUSH2 0x356D JUMP JUMPDEST PUSH1 0x20 DUP3 ADD SWAP1 POP SWAP2 SWAP1 POP JUMP JUMPDEST PUSH0 PUSH1 0x20 DUP3 ADD SWAP1 POP DUP2 DUP2 SUB PUSH0 DUP4 ADD MSTORE PUSH2 0x35CE DUP2 PUSH2 0x3595 JUMP JUMPDEST SWAP1 POP SWAP2 SWAP1 POP JUMP JUMPDEST PUSH32 0x4E487B7100000000000000000000000000000000000000000000000000000000 PUSH0 MSTORE PUSH1 0x32 PUSH1 0x4 MSTORE PUSH1 0x24 PUSH0 REVERT JUMPDEST PUSH32 0x4E487B7100000000000000000000000000000000000000000000000000000000 PUSH0 MSTORE PUSH1 0x11 PUSH1 0x4 MSTORE PUSH1 0x24 PUSH0 REVERT JUMPDEST PUSH0 PUSH2 0x3639 DUP3 PUSH2 0x2D63 JUMP JUMPDEST SWAP2 POP PUSH2 0x3644 DUP4 PUSH2 0x2D63 JUMP JUMPDEST SWAP3 POP DUP3 DUP3 SUB SWAP1 POP DUP2 DUP2 GT ISZERO PUSH2 0x365C JUMPI PUSH2 0x365B PUSH2 0x3602 JUMP JUMPDEST JUMPDEST SWAP3 SWAP2 POP POP JUMP JUMPDEST PUSH32 0x4E6F74206120626F617264206D656D6265720000000000000000000000000000 PUSH0 DUP3 ADD MSTORE POP JUMP JUMPDEST PUSH0 PUSH2 0x3696 PUSH1 0x12 DUP4 PUSH2 0x355D JUMP JUMPDEST SWAP2 POP PUSH2 0x36A1 DUP3 PUSH2 0x3662 JUMP JUMPDEST PUSH1 0x20 DUP3 ADD SWAP1 POP SWAP2 SWAP1 POP JUMP JUMPDEST PUSH0 PUSH1 0x20 DUP3 ADD SWAP1 POP DUP2 DUP2 SUB PUSH0 DUP4 ADD MSTORE PUSH2 0x36C3 DUP2 PUSH2 0x368A JUMP JUMPDEST SWAP1 POP SWAP2 SWAP1 POP JUMP JUMPDEST PUSH32 0x416D6F756E74206D7573742062652067726561746572207468616E207A65726F PUSH0 DUP3 ADD MSTORE POP JUMP JUMPDEST PUSH0 PUSH2 0x36FE PUSH1 0x20 DUP4 PUSH2 0x355D JUMP JUMPDEST SWAP2 POP PUSH2 0x3709 DUP3 PUSH2 0x36CA JUMP JUMPDEST PUSH1 0x20 DUP3 ADD SWAP1 POP SWAP2 SWAP1 POP JUMP JUMPDEST PUSH0 PUSH1 0x20 DUP3 ADD SWAP1 POP DUP2 DUP2 SUB PUSH0 DUP4 ADD MSTORE PUSH2 0x372B DUP2 PUSH2 0x36F2 JUMP JUMPDEST SWAP1 POP SWAP2 SWAP1 POP JUMP JUMPDEST PUSH32 0x496E76616C696420726563697069656E74000000000000000000000000000000 PUSH0 DUP3 ADD MSTORE POP JUMP JUMPDEST PUSH0 PUSH2 0x3766 PUSH1 0x11 DUP4 PUSH2 0x355D JUMP JUMPDEST SWAP2 POP PUSH2 0x3771 DUP3 PUSH2 0x3732 JUMP JUMPDEST PUSH1 0x20 DUP3 ADD SWAP1 POP SWAP2 SWAP1 POP JUMP JUMPDEST PUSH0 PUSH1 0x20 DUP3 ADD SWAP1 POP DUP2 DUP2 SUB PUSH0 DUP4 ADD MSTORE PUSH2 0x3793 DUP2 PUSH2 0x375A JUMP JUMPDEST SWAP1 POP SWAP2 SWAP1 POP JUMP JUMPDEST PUSH0 DUP2 MLOAD SWAP1 POP PUSH2 0x37A8 DUP2 PUSH2 0x2DA5 JUMP JUMPDEST SWAP3 SWAP2 POP POP JUMP JUMPDEST PUSH0 PUSH1 0x20 DUP3 DUP5 SUB SLT ISZERO PUSH2 0x37C3 JUMPI PUSH2 0x37C2 PUSH2 0x2D9D JUMP JUMPDEST JUMPDEST PUSH0 PUSH2 0x37D0 DUP5 DUP3 DUP6 ADD PUSH2 0x379A JUMP JUMPDEST SWAP2 POP POP SWAP3 SWAP2 POP POP JUMP JUMPDEST PUSH32 0x496E73756666696369656E742062616C616E6365000000000000000000000000 PUSH0 DUP3 ADD MSTORE POP JUMP JUMPDEST PUSH0 PUSH2 0x380D PUSH1 0x14 DUP4 PUSH2 0x355D JUMP JUMPDEST SWAP2 POP PUSH2 0x3818 DUP3 PUSH2 0x37D9 JUMP JUMPDEST PUSH1 0x20 DUP3 ADD SWAP1 POP SWAP2 SWAP1 POP JUMP JUMPDEST PUSH0 PUSH1 0x20 DUP3 ADD SWAP1 POP DUP2 DUP2 SUB PUSH0 DUP4 ADD MSTORE PUSH2 0x383A DUP2 PUSH2 0x3801 JUMP JUMPDEST SWAP1 POP SWAP2 SWAP1 POP JUMP JUMPDEST PUSH0 PUSH2 0x384B DUP3 PUSH2 0x2D63 JUMP JUMPDEST SWAP2 POP PUSH32 0xFFFFFFFFFFFFFFFFFFFFFFFFFFFFFFFFFFFFFFFFFFFFFFFFFFFFFFFFFFFFFFFF DUP3 SUB PUSH2 0x387D JUMPI PUSH2 0x387C PUSH2 0x3602 JUMP JUMPDEST JUMPDEST PUSH1 0x1 DUP3 ADD SWAP1 POP SWAP2 SWAP1 POP JUMP JUMPDEST PUSH0 PUSH1 0x40 DUP3 ADD SWAP1 POP PUSH2 0x389B PUSH0 DUP4 ADD DUP6 PUSH2 0x2D6C JUMP JUMPDEST PUSH2 0x38A8 PUSH1 0x20 DUP4 ADD DUP5 PUSH2 0x3387 JUMP JUMPDEST SWAP4 SWAP3 POP POP POP JUMP JUMPDEST PUSH32 0x416C726561647920657865637574656400000000000000000000000000000000 PUSH0 DUP3 ADD MSTORE POP JUMP JUMPDEST PUSH0 PUSH2 0x38E3 PUSH1 0x10 DUP4 PUSH2 0x355D JUMP JUMPDEST SWAP2 POP PUSH2 0x38EE DUP3 PUSH2 0x38AF JUMP JUMPDEST PUSH1 0x20 DUP3 ADD SWAP1 POP SWAP2 SWAP1 POP JUMP JUMPDEST PUSH0 PUSH1 0x20 DUP3 ADD SWAP1 POP DUP2 DUP2 SUB PUSH0 DUP4 ADD MSTORE PUSH2 0x3910 DUP2 PUSH2 0x38D7 JUMP JUMPDEST SWAP1 POP SWAP2 SWAP1 POP JUMP JUMPDEST PUSH32 0x5265717565737420626C6F636B65640000000000000000000000000000000000 PUSH0 DUP3 ADD MSTORE POP JUMP JUMPDEST PUSH0 PUSH2 0x394B PUSH1 0xF DUP4 PUSH2 0x355D JUMP JUMPDEST SWAP2 POP PUSH2 0x3956 DUP3 PUSH2 0x3917 JUMP JUMPDEST PUSH1 0x20 DUP3 ADD SWAP1 POP SWAP2 SWAP1 POP JUMP JUMPDEST PUSH0 PUSH1 0x20 DUP3 ADD SWAP1 POP DUP2 DUP2 SUB PUSH0 DUP4 ADD MSTORE PUSH2 0x3978 DUP2 PUSH2 0x393F JUMP JUMPDEST SWAP1 POP SWAP2 SWAP1 POP JUMP JUMPDEST PUSH0 PUSH2 0x3989 DUP3 PUSH2 0x2D63 JUMP JUMPDEST SWAP2 POP PUSH2 0x3994 DUP4 PUSH2 0x2D63 JUMP JUMPDEST SWAP3 POP DUP3 DUP3 ADD SWAP1 POP DUP1 DUP3 GT ISZERO PUSH2 0x39AC JUMPI PUSH2 0x39AB PUSH2 0x3602 JUMP JUMPDEST JUMPDEST SWAP3 SWAP2 POP POP JUMP JUMPDEST PUSH32 0x54696D656F7574206E6F74207265616368656400000000000000000000000000 PUSH0 DUP3 ADD MSTORE POP JUMP JUMPDEST PUSH0 PUSH2 0x39E6 PUSH1 0x13 DUP4 PUSH2 0x355D JUMP JUMPDEST SWAP2 POP PUSH2 0x39F1 DUP3 PUSH2 0x39B2 JUMP JUMPDEST PUSH1 0x20 DUP3 ADD SWAP1 POP SWAP2 SWAP1 POP JUMP JUMPDEST PUSH0 PUSH1 0x20 DUP3 ADD SWAP1 POP DUP2 DUP2 SUB PUSH0 DUP4 ADD MSTORE PUSH2 0x3A13 DUP2 PUSH2 0x39DA JUMP JUMPDEST SWAP1 POP SWAP2 SWAP1 POP JUMP JUMPDEST PUSH32 0x456D70747920636F646500000000000000000000000000000000000000000000 PUSH0 DUP3 ADD MSTORE POP JUMP JUMPDEST PUSH0 PUSH2 0x3A4E PUSH1 0xA DUP4 PUSH2 0x355D JUMP JUMPDEST SWAP2 POP PUSH2 0x3A59 DUP3 PUSH2 0x3A1A JUMP JUMPDEST PUSH1 0x20 DUP3 ADD SWAP1 POP SWAP2 SWAP1 POP JUMP JUMPDEST PUSH0 PUSH1 0x20 DUP3 ADD SWAP1 POP DUP2 DUP2 SUB PUSH0 DUP4 ADD MSTORE PUSH2 0x3A7B DUP2 PUSH2 0x3A42 JUMP JUMPDEST SWAP1 POP SWAP2 SWAP1 POP JUMP JUMPDEST PUSH32 0x496E76616C696420616D6261737361646F722061646472657373000000000000 PUSH0 DUP3 ADD MSTORE POP JUMP JUMPDEST PUSH0 PUSH2 0x3AB6 PUSH1 0x1A DUP4 PUSH2 0x355D JUMP JUMPDEST SWAP2 POP PUSH2 0x3AC1 DUP3 PUSH2 0x3A82 JUMP JUMPDEST PUSH1 0x20 DUP3 ADD SWAP1 POP SWAP2 SWAP1 POP JUMP JUMPDEST PUSH0 PUSH1 0x20 DUP3 ADD SWAP1 POP DUP2 DUP2 SUB PUSH0 DUP4 ADD MSTORE PUSH2 0x3AE3 DUP2 PUSH2 0x3AAA JUMP JUMPDEST SWAP1 POP SWAP2 SWAP1 POP JUMP JUMPDEST PUSH32 0x446973636F756E7420746F6F2068696768000000000000000000000000000000 PUSH0 DUP3 ADD MSTORE POP JUMP JUMPDEST PUSH0 PUSH2 0x3B1E PUSH1 0x11 DUP4 PUSH2 0x355D JUMP JUMPDEST SWAP2 POP PUSH2 0x3B29 DUP3 PUSH2 0x3AEA JUMP JUMPDEST PUSH1 0x20 DUP3 ADD SWAP1 POP SWAP2 SWAP1 POP JUMP JUMPDEST PUSH0 PUSH1 0x20 DUP3 ADD SWAP1 POP DUP2 DUP2 SUB PUSH0 DUP4 ADD MSTORE PUSH2 0x3B4B DUP2 PUSH2 0x3B12 JUMP JUMPDEST SWAP1 POP SWAP2 SWAP1 POP JUMP JUMPDEST PUSH0 DUP2 MLOAD SWAP1 POP SWAP2 SWAP1 POP JUMP JUMPDEST PUSH0 DUP2 SWAP1 POP SWAP3 SWAP2 POP POP JUMP JUMPDEST DUP3 DUP2 DUP4 MCOPY PUSH0 DUP4 DUP4 ADD MSTORE POP POP POP JUMP JUMPDEST PUSH0 PUSH2 0x3B7E DUP3 PUSH2 0x3B52 JUMP JUMPDEST PUSH2 0x3B88 DUP2 DUP6 PUSH2 0x3B5C JUMP JUMPDEST SWAP4 POP PUSH2 0x3B98 DUP2 DUP6 PUSH1 0x20 DUP7 ADD PUSH2 0x3B66 JUMP JUMPDEST DUP1 DUP5 ADD SWAP2 POP POP SWAP3 SWAP2 POP POP JUMP JUMPDEST PUSH0 PUSH2 0x3BAF DUP3 DUP5 PUSH2 0x3B74 JUMP JUMPDEST SWAP2 POP DUP2 SWAP1 POP SWAP3 SWAP2 POP POP JUMP JUMPDEST PUSH32 0x436F646520616C72656164792065786973747300000000000000000000000000 PUSH0 DUP3 ADD MSTORE POP JUMP JUMPDEST PUSH0 PUSH2 0x3BEE PUSH1 0x13 DUP4 PUSH2 0x355D JUMP JUMPDEST SWAP2 POP PUSH2 0x3BF9 DUP3 PUSH2 0x3BBA JUMP JUMPDEST PUSH1 0x20 DUP3 ADD SWAP1 POP SWAP2 SWAP1 POP JUMP JUMPDEST PUSH0 PUSH1 0x20 DUP3 ADD SWAP1 POP DUP2 DUP2 SUB PUSH0 DUP4 ADD MSTORE PUSH2 0x3C1B DUP2 PUSH2 0x3BE2 JUMP JUMPDEST SWAP1 POP SWAP2 SWAP1 POP JUMP JUMPDEST PUSH32 0x4E6F20636F64652070726F766964656400000000000000000000000000000000 PUSH0 DUP3 ADD MSTORE POP JUMP JUMPDEST PUSH0 PUSH2 0x3C56 PUSH1 0x10 DUP4 PUSH2 0x355D JUMP JUMPDEST SWAP2 POP PUSH2 0x3C61 DUP3 PUSH2 0x3C22 JUMP JUMPDEST PUSH1 0x20 DUP3 ADD SWAP1 POP SWAP2 SWAP1 POP JUMP JUMPDEST PUSH0 PUSH1 0x20 DUP3 ADD SWAP1 POP DUP2 DUP2 SUB PUSH0 DUP4 ADD MSTORE PUSH2 0x3C83 DUP2 PUSH2 0x3C4A JUMP JUMPDEST SWAP1 POP SWAP2 SWAP1 POP JUMP JUMPDEST PUSH32 0x496E76616C696420636F64650000000000000000000000000000000000000000 PUSH0 DUP3 ADD MSTORE POP JUMP JUMPDEST PUSH0 PUSH2 0x3CBE PUSH1 0xC DUP4 PUSH2 0x355D JUMP JUMPDEST SWAP2 POP PUSH2 0x3CC9 DUP3 PUSH2 0x3C8A JUMP JUMPDEST PUSH1 0x20 DUP3 ADD SWAP1 POP SWAP2 SWAP1 POP JUMP JUMPDEST PUSH0 PUSH1 0x20 DUP3 ADD SWAP1 POP DUP2 DUP2 SUB PUSH0 DUP4 ADD MSTORE PUSH2 0x3CEB DUP2 PUSH2 0x3CB2 JUMP JUMPDEST SWAP1 POP SWAP2 SWAP1 POP JUMP JUMPDEST PUSH32 0x4E6F204E465473206C65667420696E2074686973207068617365000000000000 PUSH0 DUP3 ADD MSTORE POP JUMP JUMPDEST PUSH0 PUSH2 0x3D26 PUSH1 0x1A DUP4 PUSH2 0x355D JUMP JUMPDEST SWAP2 POP PUSH2 0x3D31 DUP3 PUSH2 0x3CF2 JUMP JUMPDEST PUSH1 0x20 DUP3 ADD SWAP1 POP SWAP2 SWAP1 POP JUMP JUMPDEST PUSH0 PUSH1 0x20 DUP3 ADD SWAP1 POP DUP2 DUP2 SUB PUSH0 DUP4 ADD MSTORE PUSH2 0x3D53 DUP2 PUSH2 0x3D1A JUMP JUMPDEST SWAP1 POP SWAP2 SWAP1 POP JUMP JUMPDEST PUSH32 0x457863656564732070686173652072656D61696E696E6720737570706C790000 PUSH0 DUP3 ADD MSTORE POP JUMP JUMPDEST PUSH0 PUSH2 0x3D8E PUSH1 0x1E DUP4 PUSH2 0x355D JUMP JUMPDEST SWAP2 POP PUSH2 0x3D99 DUP3 PUSH2 0x3D5A JUMP JUMPDEST PUSH1 0x20 DUP3 ADD SWAP1 POP SWAP2 SWAP1 POP JUMP JUMPDEST PUSH0 PUSH1 0x20 DUP3 ADD SWAP1 POP DUP2 DUP2 SUB PUSH0 DUP4 ADD MSTORE PUSH2 0x3DBB DUP2 PUSH2 0x3D82 JUMP JUMPDEST SWAP1 POP SWAP2 SWAP1 POP JUMP JUMPDEST PUSH0 PUSH2 0x3DCC DUP3 PUSH2 0x2D63 JUMP JUMPDEST SWAP2 POP PUSH2 0x3DD7 DUP4 PUSH2 0x2D63 JUMP JUMPDEST SWAP3 POP DUP3 DUP3 MUL PUSH2 0x3DE5 DUP2 PUSH2 0x2D63 JUMP JUMPDEST SWAP2 POP DUP3 DUP3 DIV DUP5 EQ DUP4 ISZERO OR PUSH2 0x3DFC JUMPI PUSH2 0x3DFB PUSH2 0x3602 JUMP JUMPDEST JUMPDEST POP SWAP3 SWAP2 POP POP JUMP JUMPDEST PUSH32 0x5468697320636F6465206973206F6E6C7920666F722073656C662D7573616765 PUSH0 DUP3 ADD MSTORE POP JUMP JUMPDEST PUSH0 PUSH2 0x3E37 PUSH1 0x20 DUP4 PUSH2 0x355D JUMP JUMPDEST SWAP2 POP PUSH2 0x3E42 DUP3 PUSH2 0x3E03 JUMP JUMPDEST PUSH1 0x20 DUP3 ADD SWAP1 POP SWAP2 SWAP1 POP JUMP JUMPDEST PUSH0 PUSH1 0x20 DUP3 ADD SWAP1 POP DUP2 DUP2 SUB PUSH0 DUP4 ADD MSTORE PUSH2 0x3E64 DUP2 PUSH2 0x3E2B JUMP JUMPDEST SWAP1 POP SWAP2 SWAP1 POP JUMP JUMPDEST PUSH32 0x4E487B7100000000000000000000000000000000000000000000000000000000 PUSH0 MSTORE PUSH1 0x12 PUSH1 0x4 MSTORE PUSH1 0x24 PUSH0 REVERT JUMPDEST PUSH0 PUSH2 0x3EA2 DUP3 PUSH2 0x2D63 JUMP JUMPDEST SWAP2 POP PUSH2 0x3EAD DUP4 PUSH2 0x2D63 JUMP JUMPDEST SWAP3 POP DUP3 PUSH2 0x3EBD JUMPI PUSH2 0x3EBC PUSH2 0x3E6B JUMP JUMPDEST JUMPDEST DUP3 DUP3 DIV SWAP1 POP SWAP3 SWAP2 POP POP JUMP JUMPDEST PUSH32 0x4E6F206163746976652070686173650000000000000000000000000000000000 PUSH0 DUP3 ADD MSTORE POP JUMP JUMPDEST PUSH0 PUSH2 0x3EFC PUSH1 0xF DUP4 PUSH2 0x355D JUMP JUMPDEST SWAP2 POP PUSH2 0x3F07 DUP3 PUSH2 0x3EC8 JUMP JUMPDEST PUSH1 0x20 DUP3 ADD SWAP1 POP SWAP2 SWAP1 POP JUMP JUMPDEST PUSH0 PUSH1 0x20 DUP3 ADD SWAP1 POP DUP2 DUP2 SUB PUSH0 DUP4 ADD MSTORE PUSH2 0x3F29 DUP2 PUSH2 0x3EF0 JUMP JUMPDEST SWAP1 POP SWAP2 SWAP1 POP JUMP JUMPDEST PUSH32 0x4E657720737570706C79206C657373207468616E20616C7265616479206D696E PUSH0 DUP3 ADD MSTORE PUSH32 0x7465640000000000000000000000000000000000000000000000000000000000 PUSH1 0x20 DUP3 ADD MSTORE POP JUMP JUMPDEST PUSH0 PUSH2 0x3F8A PUSH1 0x23 DUP4 PUSH2 0x355D JUMP JUMPDEST SWAP2 POP PUSH2 0x3F95 DUP3 PUSH2 0x3F30 JUMP JUMPDEST PUSH1 0x40 DUP3 ADD SWAP1 POP SWAP2 SWAP1 POP JUMP JUMPDEST PUSH0 PUSH1 0x20 DUP3 ADD SWAP1 POP DUP2 DUP2 SUB PUSH0 DUP4 ADD MSTORE PUSH2 0x3FB7 DUP2 PUSH2 0x3F7E JUMP JUMPDEST SWAP1 POP SWAP2 SWAP1 POP JUMP JUMPDEST PUSH32 0x4E657720737570706C7920657863656564732072656D61696E696E67204E4654 PUSH0 DUP3 ADD MSTORE PUSH32 0x20737570706C7900000000000000000000000000000000000000000000000000 PUSH1 0x20 DUP3 ADD MSTORE POP JUMP JUMPDEST PUSH0 PUSH2 0x4018 PUSH1 0x27 DUP4 PUSH2 0x355D JUMP JUMPDEST SWAP2 POP PUSH2 0x4023 DUP3 PUSH2 0x3FBE JUMP JUMPDEST PUSH1 0x40 DUP3 ADD SWAP1 POP SWAP2 SWAP1 POP JUMP JUMPDEST PUSH0 PUSH1 0x20 DUP3 ADD SWAP1 POP DUP2 DUP2 SUB PUSH0 DUP4 ADD MSTORE PUSH2 0x4045 DUP2 PUSH2 0x400C JUMP JUMPDEST SWAP1 POP SWAP2 SWAP1 POP JUMP JUMPDEST PUSH0 PUSH2 0x405E PUSH2 0x4059 DUP5 PUSH2 0x2F96 JUMP JUMPDEST PUSH2 0x2F7C JUMP JUMPDEST SWAP1 POP DUP3 DUP2 MSTORE PUSH1 0x20 DUP2 ADD DUP5 DUP5 DUP5 ADD GT ISZERO PUSH2 0x407A JUMPI PUSH2 0x4079 PUSH2 0x2F0A JUMP JUMPDEST JUMPDEST PUSH2 0x4085 DUP5 DUP3 DUP6 PUSH2 0x3B66 JUMP JUMPDEST POP SWAP4 SWAP3 POP POP POP JUMP JUMPDEST PUSH0 DUP3 PUSH1 0x1F DUP4 ADD SLT PUSH2 0x40A1 JUMPI PUSH2 0x40A0 PUSH2 0x2F06 JUMP JUMPDEST JUMPDEST DUP2 MLOAD PUSH2 0x40B1 DUP5 DUP3 PUSH1 0x20 DUP7 ADD PUSH2 0x404C JUMP JUMPDEST SWAP2 POP POP SWAP3 SWAP2 POP POP JUMP JUMPDEST PUSH0 PUSH0 PUSH0 PUSH0 PUSH0 PUSH1 0xA0 DUP7 DUP9 SUB SLT ISZERO PUSH2 0x40D3 JUMPI PUSH2 0x40D2 PUSH2 0x2D9D JUMP JUMPDEST JUMPDEST PUSH0 DUP7 ADD MLOAD PUSH8 0xFFFFFFFFFFFFFFFF DUP2 GT ISZERO PUSH2 0x40F0 JUMPI PUSH2 0x40EF PUSH2 0x2DA1 JUMP JUMPDEST JUMPDEST PUSH2 0x40FC DUP9 DUP3 DUP10 ADD PUSH2 0x408D JUMP JUMPDEST SWAP6 POP POP PUSH1 0x20 DUP7 ADD MLOAD PUSH8 0xFFFFFFFFFFFFFFFF DUP2 GT ISZERO PUSH2 0x411D JUMPI PUSH2 0x411C PUSH2 0x2DA1 JUMP JUMPDEST JUMPDEST PUSH2 0x4129 DUP9 DUP3 DUP10 ADD PUSH2 0x408D JUMP JUMPDEST SWAP5 POP POP PUSH1 0x40 PUSH2 0x413A DUP9 DUP3 DUP10 ADD PUSH2 0x379A JUMP JUMPDEST SWAP4 POP POP PUSH1 0x60 PUSH2 0x414B DUP9 DUP3 DUP10 ADD PUSH2 0x379A JUMP JUMPDEST SWAP3 POP POP PUSH1 0x80 PUSH2 0x415C DUP9 DUP3 DUP10 ADD PUSH2 0x379A JUMP JUMPDEST SWAP2 POP POP SWAP3 SWAP6 POP SWAP3 SWAP6 SWAP1 SWAP4 POP JUMP JUMPDEST PUSH32 0x416C726561647920617070726F76656400000000000000000000000000000000 PUSH0 DUP3 ADD MSTORE POP JUMP JUMPDEST PUSH0 PUSH2 0x419D PUSH1 0x10 DUP4 PUSH2 0x355D JUMP JUMPDEST SWAP2 POP PUSH2 0x41A8 DUP3 PUSH2 0x4169 JUMP JUMPDEST PUSH1 0x20 DUP3 ADD SWAP1 POP SWAP2 SWAP1 POP JUMP JUMPDEST PUSH0 PUSH1 0x20 DUP3 ADD SWAP1 POP DUP2 DUP2 SUB PUSH0 DUP4 ADD MSTORE PUSH2 0x41CA DUP2 PUSH2 0x4191 JUMP JUMPDEST SWAP1 POP SWAP2 SWAP1 POP JUMP JUMPDEST PUSH0 PUSH1 0x40 DUP3 ADD SWAP1 POP PUSH2 0x41E4 PUSH0 DUP4 ADD DUP6 PUSH2 0x2D6C JUMP JUMPDEST PUSH2 0x41F1 PUSH1 0x20 DUP4 ADD DUP5 PUSH2 0x2D6C JUMP JUMPDEST SWAP4 SWAP3 POP POP POP JUMP JUMPDEST PUSH32 0x416C726561647920626C6F636B65640000000000000000000000000000000000 PUSH0 DUP3 ADD MSTORE POP JUMP JUMPDEST PUSH0 PUSH2 0x422C PUSH1 0xF DUP4 PUSH2 0x355D JUMP JUMPDEST SWAP2 POP PUSH2 0x4237 DUP3 PUSH2 0x41F8 JUMP JUMPDEST PUSH1 0x20 DUP3 ADD SWAP1 POP SWAP2 SWAP1 POP JUMP JUMPDEST PUSH0 PUSH1 0x20 DUP3 ADD SWAP1 POP DUP2 DUP2 SUB PUSH0 DUP4 ADD MSTORE PUSH2 0x4259 DUP2 PUSH2 0x4220 JUMP JUMPDEST SWAP1 POP SWAP2 SWAP1 POP JUMP JUMPDEST PUSH32 0x506861736520737570706C7920657863656564732072656D61696E696E67204E PUSH0 DUP3 ADD MSTORE PUSH32 0x465420737570706C790000000000000000000000000000000000000000000000 PUSH1 0x20 DUP3 ADD MSTORE POP JUMP JUMPDEST PUSH0 PUSH2 0x42BA PUSH1 0x29 DUP4 PUSH2 0x355D JUMP JUMPDEST SWAP2 POP PUSH2 0x42C5 DUP3 PUSH2 0x4260 JUMP JUMPDEST PUSH1 0x40 DUP3 ADD SWAP1 POP SWAP2 SWAP1 POP JUMP JUMPDEST PUSH0 PUSH1 0x20 DUP3 ADD SWAP1 POP DUP2 DUP2 SUB PUSH0 DUP4 ADD MSTORE PUSH2 0x42E7 DUP2 PUSH2 0x42AE JUMP JUMPDEST SWAP1 POP SWAP2 SWAP1 POP JUMP JUMPDEST PUSH32 0x50726576696F7573207068617365206E6F742066756C6C79206D696E74656400 PUSH0 DUP3 ADD MSTORE POP JUMP JUMPDEST PUSH0 PUSH2 0x4322 PUSH1 0x1F DUP4 PUSH2 0x355D JUMP JUMPDEST SWAP2 POP PUSH2 0x432D DUP3 PUSH2 0x42EE JUMP JUMPDEST PUSH1 0x20 DUP3 ADD SWAP1 POP SWAP2 SWAP1 POP JUMP JUMPDEST PUSH0 PUSH1 0x20 DUP3 ADD SWAP1 POP DUP2 DUP2 SUB PUSH0 DUP4 ADD MSTORE PUSH2 0x434F DUP2 PUSH2 0x4316 JUMP JUMPDEST SWAP1 POP SWAP2 SWAP1 POP JUMP JUMPDEST PUSH32 0x4E6577207072696365206D757374206265206869676865720000000000000000 PUSH0 DUP3 ADD MSTORE POP JUMP JUMPDEST PUSH0 PUSH2 0x438A PUSH1 0x18 DUP4 PUSH2 0x355D JUMP JUMPDEST SWAP2 POP PUSH2 0x4395 DUP3 PUSH2 0x4356 JUMP JUMPDEST PUSH1 0x20 DUP3 ADD SWAP1 POP SWAP2 SWAP1 POP JUMP JUMPDEST PUSH0 PUSH1 0x20 DUP3 ADD SWAP1 POP DUP2 DUP2 SUB PUSH0 DUP4 ADD MSTORE PUSH2 0x43B7 DUP2 PUSH2 0x437E JUMP JUMPDEST SWAP1 POP SWAP2 SWAP1 POP JUMP JUMPDEST PUSH0 PUSH1 0x60 DUP3 ADD SWAP1 POP PUSH2 0x43D1 PUSH0 DUP4 ADD DUP7 PUSH2 0x3387 JUMP JUMPDEST PUSH2 0x43DE PUSH1 0x20 DUP4 ADD DUP6 PUSH2 0x3387 JUMP JUMPDEST PUSH2 0x43EB PUSH1 0x40 DUP4 ADD DUP5 PUSH2 0x2D6C JUMP JUMPDEST SWAP5 SWAP4 POP POP POP POP JUMP JUMPDEST PUSH0 PUSH1 0x40 DUP3 ADD SWAP1 POP PUSH2 0x4406 PUSH0 DUP4 ADD DUP6 PUSH2 0x3387 JUMP JUMPDEST PUSH2 0x4413 PUSH1 0x20 DUP4 ADD DUP5 PUSH2 0x2D6C JUMP JUMPDEST SWAP4 SWAP3 POP POP POP JUMP INVALID LOG2 PUSH5 0x6970667358 0x22 SLT KECCAK256 0x1F BYTE 0xD2 DUPN 0xDE BLOBHASH 0xD6 PUSH32 0x843D99BC3341208CB189232B2331EE0DF701D097CC300B6F64736F6C63430008 0x1E STOP CALLER "
		},
		"gasEstimates": {
			"creation": {
				"codeDepositCost": "3497600",
				"executionCost": "infinite",
				"totalCost": "infinite"
			},
			"external": {
				"WITHDRAWAL_TIMEOUT()": "414",
				"approveWithdrawal(uint256)": "infinite",
				"blockWithdrawal(uint256)": "33028",
				"boardMemberCount()": "2537",
				"boardMembers(address)": "2944",
				"createAmbassadorCode(string,address,address,uint256)": "infinite",
				"currentPhase()": "2449",
				"executeWithdrawal(uint256)": "infinite",
				"getAmbassador(string)": "infinite",
				"getAvailableNFTs(uint256)": "infinite",
				"getContractBalance()": "infinite",
				"getPaymentDetails(uint256,uint256,string)": "infinite",
				"getPhaseMinted(uint256)": "infinite",
				"getPhasePrice(uint256)": "infinite",
				"getPhaseSupply(uint256)": "infinite",
				"getRemainingSupply(uint256)": "infinite",
				"mint(uint256,uint256,string)": "infinite",
				"nfts()": "infinite",
				"owner()": "2604",
				"renounceOwnership()": "infinite",
				"requestWithdrawal(uint256,address)": "infinite",
				"startPhase(uint256[6],uint256[6])": "infinite",
				"transferOwnership(address)": "infinite",
				"updatePhaseSupply(uint256,uint256)": "infinite",
				"usdc()": "infinite",
				"withdrawalRequestCounter()": "2469",
				"withdrawalRequests(uint256)": "infinite"
			},
			"internal": {
				"_executeWithdrawal(uint256)": "infinite",
				"addBoardMember(address)": "infinite"
			}
		},
		"methodIdentifiers": {
			"WITHDRAWAL_TIMEOUT()": "bc4456eb",
			"approveWithdrawal(uint256)": "9eceddea",
			"blockWithdrawal(uint256)": "dfdc0de2",
			"boardMemberCount()": "24079158",
			"boardMembers(address)": "bff13785",
			"createAmbassadorCode(string,address,address,uint256)": "359f82a3",
			"currentPhase()": "055ad42e",
			"executeWithdrawal(uint256)": "24f13a76",
			"getAmbassador(string)": "6353a400",
			"getAvailableNFTs(uint256)": "1558bed3",
			"getContractBalance()": "6f9fb98a",
			"getPaymentDetails(uint256,uint256,string)": "7205249e",
			"getPhaseMinted(uint256)": "c5cac202",
			"getPhasePrice(uint256)": "cae359b9",
			"getPhaseSupply(uint256)": "5b65da64",
			"getRemainingSupply(uint256)": "8c858a14",
			"mint(uint256,uint256,string)": "c6e64e53",
			"nfts()": "1714f2e0",
			"owner()": "8da5cb5b",
			"renounceOwnership()": "715018a6",
			"requestWithdrawal(uint256,address)": "21739779",
			"startPhase(uint256[6],uint256[6])": "e2b0608d",
			"transferOwnership(address)": "f2fde38b",
			"updatePhaseSupply(uint256,uint256)": "72403a79",
			"usdc()": "3e413bee",
			"withdrawalRequestCounter()": "d88150ea",
			"withdrawalRequests(uint256)": "937b2581"
		}
	},
	"abi": [
		{
			"inputs": [
				{
					"internalType": "address",
					"name": "_nfts",
					"type": "address"
				},
				{
					"internalType": "address",
					"name": "_usdc",
					"type": "address"
				},
				{
					"internalType": "address[]",
					"name": "_members",
					"type": "address[]"
				}
			],
			"stateMutability": "nonpayable",
			"type": "constructor"
		},
		{
			"inputs": [
				{
					"internalType": "address",
					"name": "owner",
					"type": "address"
				}
			],
			"name": "OwnableInvalidOwner",
			"type": "error"
		},
		{
			"inputs": [
				{
					"internalType": "address",
					"name": "account",
					"type": "address"
				}
			],
			"name": "OwnableUnauthorizedAccount",
			"type": "error"
		},
		{
			"inputs": [],
			"name": "ReentrancyGuardReentrantCall",
			"type": "error"
		},
		{
			"inputs": [
				{
					"internalType": "address",
					"name": "token",
					"type": "address"
				}
			],
			"name": "SafeERC20FailedOperation",
			"type": "error"
		},
		{
			"anonymous": false,
			"inputs": [
				{
					"indexed": true,
					"internalType": "address",
					"name": "ambassador",
					"type": "address"
				},
				{
					"indexed": false,
					"internalType": "uint256",
					"name": "amount",
					"type": "uint256"
				}
			],
			"name": "AmbassadorRewardPaid",
			"type": "event"
		},
		{
			"anonymous": false,
			"inputs": [
				{
					"indexed": true,
					"internalType": "address",
					"name": "member",
					"type": "address"
				}
			],
			"name": "BoardMemberAdded",
			"type": "event"
		},
		{
			"anonymous": false,
			"inputs": [
				{
					"indexed": true,
					"internalType": "address",
					"name": "buyer",
					"type": "address"
				},
				{
					"indexed": true,
					"internalType": "uint256",
					"name": "rarityId",
					"type": "uint256"
				},
				{
					"indexed": false,
					"internalType": "uint256",
					"name": "amount",
					"type": "uint256"
				},
				{
					"indexed": false,
					"internalType": "uint256",
					"name": "paid",
					"type": "uint256"
				}
			],
			"name": "NFTMinted",
			"type": "event"
		},
		{
			"anonymous": false,
			"inputs": [
				{
					"indexed": true,
					"internalType": "address",
					"name": "previousOwner",
					"type": "address"
				},
				{
					"indexed": true,
					"internalType": "address",
					"name": "newOwner",
					"type": "address"
				}
			],
			"name": "OwnershipTransferred",
			"type": "event"
		},
		{
			"anonymous": false,
			"inputs": [
				{
					"indexed": true,
					"internalType": "uint256",
					"name": "phaseId",
					"type": "uint256"
				}
			],
			"name": "PhaseStarted",
			"type": "event"
		},
		{
			"anonymous": false,
			"inputs": [
				{
					"indexed": true,
					"internalType": "uint256",
					"name": "phaseId",
					"type": "uint256"
				},
				{
					"indexed": true,
					"internalType": "uint256",
					"name": "rarityId",
					"type": "uint256"
				},
				{
					"indexed": false,
					"internalType": "uint256",
					"name": "newSupply",
					"type": "uint256"
				}
			],
			"name": "PhaseSupplyUpdated",
			"type": "event"
		},
		{
			"anonymous": false,
			"inputs": [
				{
					"indexed": true,
					"internalType": "uint256",
					"name": "requestId",
					"type": "uint256"
				},
				{
					"indexed": true,
					"internalType": "address",
					"name": "boardMember",
					"type": "address"
				}
			],
			"name": "WithdrawalApproved",
			"type": "event"
		},
		{
			"anonymous": false,
			"inputs": [
				{
					"indexed": true,
					"internalType": "uint256",
					"name": "requestId",
					"type": "uint256"
				},
				{
					"indexed": true,
					"internalType": "address",
					"name": "boardMember",
					"type": "address"
				}
			],
			"name": "WithdrawalBlocked",
			"type": "event"
		},
		{
			"anonymous": false,
			"inputs": [
				{
					"indexed": true,
					"internalType": "uint256",
					"name": "requestId",
					"type": "uint256"
				},
				{
					"indexed": true,
					"internalType": "address",
					"name": "boardMember",
					"type": "address"
				},
				{
					"indexed": false,
					"internalType": "uint256",
					"name": "amount",
					"type": "uint256"
				},
				{
					"indexed": false,
					"internalType": "address",
					"name": "recipient",
					"type": "address"
				}
			],
			"name": "WithdrawalExecuted",
			"type": "event"
		},
		{
			"anonymous": false,
			"inputs": [
				{
					"indexed": true,
					"internalType": "uint256",
					"name": "requestId",
					"type": "uint256"
				},
				{
					"indexed": true,
					"internalType": "address",
					"name": "boardMember",
					"type": "address"
				},
				{
					"indexed": false,
					"internalType": "uint256",
					"name": "amount",
					"type": "uint256"
				},
				{
					"indexed": false,
					"internalType": "address",
					"name": "recipient",
					"type": "address"
				}
			],
			"name": "WithdrawalRequested",
			"type": "event"
		},
		{
			"inputs": [],
			"name": "WITHDRAWAL_TIMEOUT",
			"outputs": [
				{
					"internalType": "uint256",
					"name": "",
					"type": "uint256"
				}
			],
			"stateMutability": "view",
			"type": "function"
		},
		{
			"inputs": [
				{
					"internalType": "uint256",
					"name": "requestId",
					"type": "uint256"
				}
			],
			"name": "approveWithdrawal",
			"outputs": [],
			"stateMutability": "nonpayable",
			"type": "function"
		},
		{
			"inputs": [
				{
					"internalType": "uint256",
					"name": "requestId",
					"type": "uint256"
				}
			],
			"name": "blockWithdrawal",
			"outputs": [],
			"stateMutability": "nonpayable",
			"type": "function"
		},
		{
			"inputs": [],
			"name": "boardMemberCount",
			"outputs": [
				{
					"internalType": "uint256",
					"name": "",
					"type": "uint256"
				}
			],
			"stateMutability": "view",
			"type": "function"
		},
		{
			"inputs": [
				{
					"internalType": "address",
					"name": "",
					"type": "address"
				}
			],
			"name": "boardMembers",
			"outputs": [
				{
					"internalType": "bool",
					"name": "",
					"type": "bool"
				}
			],
			"stateMutability": "view",
			"type": "function"
		},
		{
			"inputs": [
				{
					"internalType": "string",
					"name": "code",
					"type": "string"
				},
				{
					"internalType": "address",
					"name": "ambassador",
					"type": "address"
				},
				{
					"internalType": "address",
					"name": "manager",
					"type": "address"
				},
				{
					"internalType": "uint256",
					"name": "discount",
					"type": "uint256"
				}
			],
			"name": "createAmbassadorCode",
			"outputs": [],
			"stateMutability": "nonpayable",
			"type": "function"
		},
		{
			"inputs": [],
			"name": "currentPhase",
			"outputs": [
				{
					"internalType": "uint256",
					"name": "",
					"type": "uint256"
				}
			],
			"stateMutability": "view",
			"type": "function"
		},
		{
			"inputs": [
				{
					"internalType": "uint256",
					"name": "requestId",
					"type": "uint256"
				}
			],
			"name": "executeWithdrawal",
			"outputs": [],
			"stateMutability": "nonpayable",
			"type": "function"
		},
		{
			"inputs": [
				{
					"internalType": "string",
					"name": "refCode",
					"type": "string"
				}
			],
			"name": "getAmbassador",
			"outputs": [
				{
					"components": [
						{
							"internalType": "address",
							"name": "ambassador",
							"type": "address"
						},
						{
							"internalType": "address",
							"name": "manager",
							"type": "address"
						},
						{
							"internalType": "uint256",
							"name": "discount",
							"type": "uint256"
						},
						{
							"internalType": "uint256[6]",
							"name": "minted",
							"type": "uint256[6]"
						},
						{
							"internalType": "uint256",
							"name": "earned",
							"type": "uint256"
						},
						{
							"internalType": "uint256",
							"name": "raised",
							"type": "uint256"
						}
					],
					"internalType": "struct FounderNFTMinter.AmbassadorCode",
					"name": "",
					"type": "tuple"
				}
			],
			"stateMutability": "view",
			"type": "function"
		},
		{
			"inputs": [
				{
					"internalType": "uint256",
					"name": "rarityId",
					"type": "uint256"
				}
			],
			"name": "getAvailableNFTs",
			"outputs": [
				{
					"internalType": "uint256",
					"name": "",
					"type": "uint256"
				}
			],
			"stateMutability": "view",
			"type": "function"
		},
		{
			"inputs": [],
			"name": "getContractBalance",
			"outputs": [
				{
					"internalType": "uint256",
					"name": "",
					"type": "uint256"
				}
			],
			"stateMutability": "view",
			"type": "function"
		},
		{
			"inputs": [
				{
					"internalType": "uint256",
					"name": "rarityId",
					"type": "uint256"
				},
				{
					"internalType": "uint256",
					"name": "amount",
					"type": "uint256"
				},
				{
					"internalType": "string",
					"name": "refCode",
					"type": "string"
				}
			],
			"name": "getPaymentDetails",
			"outputs": [
				{
					"internalType": "uint256",
					"name": "payment",
					"type": "uint256"
				},
				{
					"internalType": "uint256",
					"name": "discount",
					"type": "uint256"
				},
				{
					"internalType": "uint256",
					"name": "ambassador",
					"type": "uint256"
				},
				{
					"internalType": "uint256",
					"name": "manager",
					"type": "uint256"
				},
				{
					"internalType": "uint256",
					"name": "team",
					"type": "uint256"
				}
			],
			"stateMutability": "view",
			"type": "function"
		},
		{
			"inputs": [
				{
					"internalType": "uint256",
					"name": "rarityId",
					"type": "uint256"
				}
			],
			"name": "getPhaseMinted",
			"outputs": [
				{
					"internalType": "uint256",
					"name": "",
					"type": "uint256"
				}
			],
			"stateMutability": "view",
			"type": "function"
		},
		{
			"inputs": [
				{
					"internalType": "uint256",
					"name": "rarityId",
					"type": "uint256"
				}
			],
			"name": "getPhasePrice",
			"outputs": [
				{
					"internalType": "uint256",
					"name": "",
					"type": "uint256"
				}
			],
			"stateMutability": "view",
			"type": "function"
		},
		{
			"inputs": [
				{
					"internalType": "uint256",
					"name": "rarityId",
					"type": "uint256"
				}
			],
			"name": "getPhaseSupply",
			"outputs": [
				{
					"internalType": "uint256",
					"name": "",
					"type": "uint256"
				}
			],
			"stateMutability": "view",
			"type": "function"
		},
		{
			"inputs": [
				{
					"internalType": "uint256",
					"name": "rarityId",
					"type": "uint256"
				}
			],
			"name": "getRemainingSupply",
			"outputs": [
				{
					"internalType": "uint256",
					"name": "",
					"type": "uint256"
				}
			],
			"stateMutability": "view",
			"type": "function"
		},
		{
			"inputs": [
				{
					"internalType": "uint256",
					"name": "rarityId",
					"type": "uint256"
				},
				{
					"internalType": "uint256",
					"name": "amount",
					"type": "uint256"
				},
				{
					"internalType": "string",
					"name": "refCode",
					"type": "string"
				}
			],
			"name": "mint",
			"outputs": [],
			"stateMutability": "nonpayable",
			"type": "function"
		},
		{
			"inputs": [],
			"name": "nfts",
			"outputs": [
				{
					"internalType": "contract IFounderNFT",
					"name": "",
					"type": "address"
				}
			],
			"stateMutability": "view",
			"type": "function"
		},
		{
			"inputs": [],
			"name": "owner",
			"outputs": [
				{
					"internalType": "address",
					"name": "",
					"type": "address"
				}
			],
			"stateMutability": "view",
			"type": "function"
		},
		{
			"inputs": [],
			"name": "renounceOwnership",
			"outputs": [],
			"stateMutability": "nonpayable",
			"type": "function"
		},
		{
			"inputs": [
				{
					"internalType": "uint256",
					"name": "amount",
					"type": "uint256"
				},
				{
					"internalType": "address",
					"name": "recipient",
					"type": "address"
				}
			],
			"name": "requestWithdrawal",
			"outputs": [],
			"stateMutability": "nonpayable",
			"type": "function"
		},
		{
			"inputs": [
				{
					"internalType": "uint256[6]",
					"name": "prices",
					"type": "uint256[6]"
				},
				{
					"internalType": "uint256[6]",
					"name": "supply",
					"type": "uint256[6]"
				}
			],
			"name": "startPhase",
			"outputs": [],
			"stateMutability": "nonpayable",
			"type": "function"
		},
		{
			"inputs": [
				{
					"internalType": "address",
					"name": "newOwner",
					"type": "address"
				}
			],
			"name": "transferOwnership",
			"outputs": [],
			"stateMutability": "nonpayable",
			"type": "function"
		},
		{
			"inputs": [
				{
					"internalType": "uint256",
					"name": "rarityId",
					"type": "uint256"
				},
				{
					"internalType": "uint256",
					"name": "newSupply",
					"type": "uint256"
				}
			],
			"name": "updatePhaseSupply",
			"outputs": [],
			"stateMutability": "nonpayable",
			"type": "function"
		},
		{
			"inputs": [],
			"name": "usdc",
			"outputs": [
				{
					"internalType": "contract IERC20",
					"name": "",
					"type": "address"
				}
			],
			"stateMutability": "view",
			"type": "function"
		},
		{
			"inputs": [],
			"name": "withdrawalRequestCounter",
			"outputs": [
				{
					"internalType": "uint256",
					"name": "",
					"type": "uint256"
				}
			],
			"stateMutability": "view",
			"type": "function"
		},
		{
			"inputs": [
				{
					"internalType": "uint256",
					"name": "",
					"type": "uint256"
				}
			],
			"name": "withdrawalRequests",
			"outputs": [
				{
					"internalType": "uint256",
					"name": "amount",
					"type": "uint256"
				},
				{
					"internalType": "address",
					"name": "recipient",
					"type": "address"
				},
				{
					"internalType": "uint256",
					"name": "requestTime",
					"type": "uint256"
				},
				{
					"internalType": "uint256",
					"name": "approvals",
					"type": "uint256"
				},
				{
					"internalType": "bool",
					"name": "executed",
					"type": "bool"
				},
				{
					"internalType": "bool",
					"name": "blocked",
					"type": "bool"
				}
			],
			"stateMutability": "view",
			"type": "function"
		}
	]
}