{
	"data": {
		"bytecode": {
			"linkReferences": {},
			"object": "60c06040525f6002555f6006555f60085534801561001b575f5ffd5b5060405161518f38038061518f833981810160405281019061003d91906105e5565b335f73ffffffffffffffffffffffffffffffffffffffff168173ffffffffffffffffffffffffffffffffffffffff16036100ae575f6040517f1e4fbdf70000000000000000000000000000000000000000000000000000000081526004016100a59190610660565b60405180910390fd5b6100bd8161022d60201b60201c565b50600180819055505f73ffffffffffffffffffffffffffffffffffffffff168373ffffffffffffffffffffffffffffffffffffffff161415801561012d57505f73ffffffffffffffffffffffffffffffffffffffff168273ffffffffffffffffffffffffffffffffffffffff1614155b610135575f5ffd5b5f815111610178576040517f08c379a000000000000000000000000000000000000000000000000000000000815260040161016f906106d3565b60405180910390fd5b8273ffffffffffffffffffffffffffffffffffffffff1660808173ffffffffffffffffffffffffffffffffffffffff16815250508173ffffffffffffffffffffffffffffffffffffffff1660a08173ffffffffffffffffffffffffffffffffffffffff16815250505f5f90505b815181101561022457610217828281518110610204576102036106f1565b5b60200260200101516102ee60201b60201c565b80806001019150506101e5565b50505050610803565b5f5f5f9054906101000a900473ffffffffffffffffffffffffffffffffffffffff169050815f5f6101000a81548173ffffffffffffffffffffffffffffffffffffffff021916908373ffffffffffffffffffffffffffffffffffffffff1602179055508173ffffffffffffffffffffffffffffffffffffffff168173ffffffffffffffffffffffffffffffffffffffff167f8be0079c531659141344cd1fd0a4f28419497f9722a3daafe3b4186f6b6457e060405160405180910390a35050565b60055f8273ffffffffffffffffffffffffffffffffffffffff1673ffffffffffffffffffffffffffffffffffffffff1681526020019081526020015f205f9054906101000a900460ff1615610378576040517f08c379a000000000000000000000000000000000000000000000000000000000815260040161036f90610768565b60405180910390fd5b600160055f8373ffffffffffffffffffffffffffffffffffffffff1673ffffffffffffffffffffffffffffffffffffffff1681526020019081526020015f205f6101000a81548160ff02191690831515021790555060065f8154809291906103df906107bc565b91905055508073ffffffffffffffffffffffffffffffffffffffff167f956f4b06f20eda3aa4f6be9e72e8fc77beb3f95f4f2a95a796b2af742583d74360405160405180910390a250565b5f604051905090565b5f5ffd5b5f5ffd5b5f73ffffffffffffffffffffffffffffffffffffffff82169050919050565b5f6104648261043b565b9050919050565b6104748161045a565b811461047e575f5ffd5b50565b5f8151905061048f8161046b565b92915050565b5f5ffd5b5f601f19601f8301169050919050565b7f4e487b71000000000000000000000000000000000000000000000000000000005f52604160045260245ffd5b6104df82610499565b810181811067ffffffffffffffff821117156104fe576104fd6104a9565b5b80604052505050565b5f61051061042a565b905061051c82826104d6565b919050565b5f67ffffffffffffffff82111561053b5761053a6104a9565b5b602082029050602081019050919050565b5f5ffd5b5f61056261055d84610521565b610507565b905080838252602082019050602084028301858111156105855761058461054c565b5b835b818110156105ae578061059a8882610481565b845260208401935050602081019050610587565b5050509392505050565b5f82601f8301126105cc576105cb610495565b5b81516105dc848260208601610550565b91505092915050565b5f5f5f606084860312156105fc576105fb610433565b5b5f61060986828701610481565b935050602061061a86828701610481565b925050604084015167ffffffffffffffff81111561063b5761063a610437565b5b610647868287016105b8565b9150509250925092565b61065a8161045a565b82525050565b5f6020820190506106735f830184610651565b92915050565b5f82825260208201905092915050565b7f4e6f20626f617264206d656d626572732070726f7669646564000000000000005f82015250565b5f6106bd601983610679565b91506106c882610689565b602082019050919050565b5f6020820190508181035f8301526106ea816106b1565b9050919050565b7f4e487b71000000000000000000000000000000000000000000000000000000005f52603260045260245ffd5b7f416c7265616479206120626f617264206d656d626572000000000000000000005f82015250565b5f610752601683610679565b915061075d8261071e565b602082019050919050565b5f6020820190508181035f83015261077f81610746565b9050919050565b7f4e487b71000000000000000000000000000000000000000000000000000000005f52601160045260245ffd5b5f819050919050565b5f6107c6826107b3565b91507fffffffffffffffffffffffffffffffffffffffffffffffffffffffffffffffff82036107f8576107f7610786565b5b600182019050919050565b60805160a05161492561086a5f395f818161087701528181610eb401528181611114015281816114900152818161220d015281816122e0015281816124710152612c0401525f81816107190152818161102a01528181611aea01526120f601526149255ff3fe608060405234801561000f575f5ffd5b50600436106101c2575f3560e01c806372403a79116100f7578063c5cac20211610095578063d88150ea1161006f578063d88150ea1461051f578063dfdc0de21461053d578063e2b0608d14610559578063f2fde38b14610575576101c2565b8063c5cac202146104a3578063c6e64e53146104d3578063cae359b9146104ef576101c2565b8063937b2581116100d1578063937b2581146104045780639eceddea14610439578063bc4456eb14610455578063bff1378514610473576101c2565b806372403a791461039a5780638c858a14146103b65780638da5cb5b146103e6576101c2565b80633a803890116101645780636353a4001161013e5780636353a4001461030e5780636f9fb98a1461033e578063715018a61461035c5780637205249e14610366576101c2565b80633a803890146102a45780633e413bee146102c05780635b65da64146102de576101c2565b806321739779116101a05780632173977914610232578063240791581461024e57806324f13a761461026c578063359f82a314610288576101c2565b8063055ad42e146101c65780631558bed3146101e45780631714f2e014610214575b5f5ffd5b6101ce610591565b6040516101db9190612fd4565b60405180910390f35b6101fe60048036038101906101f99190613028565b610597565b60405161020b9190612fd4565b60405180910390f35b61021c610717565b60405161022991906130cd565b60405180910390f35b61024c60048036038101906102479190613121565b61073b565b005b610256610a65565b6040516102639190612fd4565b60405180910390f35b61028660048036038101906102819190613028565b610a6b565b005b6102a2600480360381019061029d919061329b565b610b84565b005b6102be60048036038101906102b99190613384565b610e9a565b005b6102c8611112565b6040516102d59190613484565b60405180910390f35b6102f860048036038101906102f39190613028565b611136565b6040516103059190612fd4565b60405180910390f35b6103286004803603810190610323919061349d565b611290565b6040516103359190613614565b60405180910390f35b61034661148d565b6040516103539190612fd4565b60405180910390f35b61036461152b565b005b610380600480360381019061037b919061362e565b61153e565b60405161039195949392919061369a565b60405180910390f35b6103b460048036038101906103af91906136eb565b6118d5565b005b6103d060048036038101906103cb9190613028565b611aa0565b6040516103dd9190612fd4565b60405180910390f35b6103ee611ba0565b6040516103fb9190613738565b60405180910390f35b61041e60048036038101906104199190613028565b611bc7565b6040516104309695949392919061376b565b60405180910390f35b610453600480360381019061044e9190613028565b611c37565b005b61045d611ed2565b60405161046a9190612fd4565b60405180910390f35b61048d600480360381019061048891906137ca565b611ed9565b60405161049a91906137f5565b60405180910390f35b6104bd60048036038101906104b89190613028565b611ef6565b6040516104ca9190612fd4565b60405180910390f35b6104ed60048036038101906104e8919061362e565b612050565b005b61050960048036038101906105049190613028565b612605565b6040516105169190612fd4565b60405180910390f35b61052761275e565b6040516105349190612fd4565b60405180910390f35b61055760048036038101906105529190613028565b612764565b005b610573600480360381019061056e91906138c0565b612909565b005b61058f600480360381019061058a91906137ca565b612b4e565b005b60025481565b5f8160058111156105dd576040517f08c379a00000000000000000000000000000000000000000000000000000000081526004016105d490613959565b60405180910390fd5b5f60035f60025481526020019081526020015f206040518060600160405290815f8201600680602002604051908101604052809291908260068015610637576020028201915b815481526020019060010190808311610623575b505050505081526020016006820160068060200260405190810160405280929190826006801561067c576020028201915b815481526020019060010190808311610668575b50505050508152602001600c82016006806020026040519081016040528092919082600680156106c1576020028201915b8154815260200190600101908083116106ad575b5050505050815250509050806040015184600681106106e3576106e2613977565b5b6020020151816020015185600681106106ff576106fe613977565b5b602002015161070e91906139d1565b92505050919050565b7f000000000000000000000000000000000000000000000000000000000000000081565b60055f3373ffffffffffffffffffffffffffffffffffffffff1673ffffffffffffffffffffffffffffffffffffffff1681526020019081526020015f205f9054906101000a900460ff166107c4576040517f08c379a00000000000000000000000000000000000000000000000000000000081526004016107bb90613a4e565b60405180910390fd5b5f8211610806576040517f08c379a00000000000000000000000000000000000000000000000000000000081526004016107fd90613ab6565b60405180910390fd5b5f73ffffffffffffffffffffffffffffffffffffffff168173ffffffffffffffffffffffffffffffffffffffff1603610874576040517f08c379a000000000000000000000000000000000000000000000000000000000815260040161086b90613b1e565b60405180910390fd5b817f000000000000000000000000000000000000000000000000000000000000000073ffffffffffffffffffffffffffffffffffffffff166370a08231306040518263ffffffff1660e01b81526004016108ce9190613738565b602060405180830381865afa1580156108e9573d5f5f3e3d5ffd5b505050506040513d601f19601f8201168201806040525081019061090d9190613b50565b101561094e576040517f08c379a000000000000000000000000000000000000000000000000000000000815260040161094590613bc5565b60405180910390fd5b5f60085f81548092919061096190613be3565b9190505590505f60075f8381526020019081526020015f20905083815f018190555082816001015f6101000a81548173ffffffffffffffffffffffffffffffffffffffff021916908373ffffffffffffffffffffffffffffffffffffffff1602179055504281600201819055505f81600301819055505f816005015f6101000a81548160ff0219169083151502179055505f8160050160016101000a81548160ff0219169083151502179055503373ffffffffffffffffffffffffffffffffffffffff16827fddff8e72a79f7f23c3de5bed3c8189aabc3c85dba0b2f1af299d96eef93861b18686604051610a57929190613c2a565b60405180910390a350505050565b60065481565b5f60075f8381526020019081526020015f209050806005015f9054906101000a900460ff1615610ad0576040517f08c379a0000000000000000000000000000000000000000000000000000000008152600401610ac790613c9b565b60405180910390fd5b8060050160019054906101000a900460ff1615610b22576040517f08c379a0000000000000000000000000000000000000000000000000000000008152600401610b1990613d03565b60405180910390fd5b62093a808160020154610b359190613d21565b421015610b77576040517f08c379a0000000000000000000000000000000000000000000000000000000008152600401610b6e90613d9e565b60405180910390fd5b610b8082612bd2565b5050565b610b8c612d3e565b5f845111610bcf576040517f08c379a0000000000000000000000000000000000000000000000000000000008152600401610bc690613e06565b60405180910390fd5b5f73ffffffffffffffffffffffffffffffffffffffff168373ffffffffffffffffffffffffffffffffffffffff1603610c3d576040517f08c379a0000000000000000000000000000000000000000000000000000000008152600401610c3490613e6e565b60405180910390fd5b601e811115610c81576040517f08c379a0000000000000000000000000000000000000000000000000000000008152600401610c7890613ed6565b60405180910390fd5b5f73ffffffffffffffffffffffffffffffffffffffff16600485604051610ca89190613f46565b90815260200160405180910390205f015f9054906101000a900473ffffffffffffffffffffffffffffffffffffffff1673ffffffffffffffffffffffffffffffffffffffff1614610d2e576040517f08c379a0000000000000000000000000000000000000000000000000000000008152600401610d2590613fa6565b60405180910390fd5b6040518060c001604052808473ffffffffffffffffffffffffffffffffffffffff1681526020018373ffffffffffffffffffffffffffffffffffffffff1681526020018281526020016040518060c001604052805f81526020015f81526020015f81526020015f81526020015f81526020015f81525081526020015f81526020015f815250600485604051610dc39190613f46565b90815260200160405180910390205f820151815f015f6101000a81548173ffffffffffffffffffffffffffffffffffffffff021916908373ffffffffffffffffffffffffffffffffffffffff1602179055506020820151816001015f6101000a81548173ffffffffffffffffffffffffffffffffffffffff021916908373ffffffffffffffffffffffffffffffffffffffff16021790555060408201518160020155606082015181600301906006610e7c929190612edc565b506080820151816009015560a082015181600a015590505050505050565b5f5f5f5f610ea98d8d8d61153e565b9450945094505093507f000000000000000000000000000000000000000000000000000000000000000073ffffffffffffffffffffffffffffffffffffffff1663e3ee160e3330878e8e8e8e8e8e6040518a63ffffffff1660e01b8152600401610f1b99989796959493929190613fe2565b6020604051808303815f875af1158015610f37573d5f5f3e3d5ffd5b505050506040513d601f19601f82011682018060405250810190610f5b9190614097565b505f8b511115610fe9575f60048c604051610f769190613f46565b908152602001604051809103902090508c816003018f60068110610f9d57610f9c613977565b5b015f828254610fac9190613d21565b9250508190555083816009015f828254610fc69190613d21565b925050819055508181600a015f828254610fe09190613d21565b92505081905550505b8b60035f60025481526020019081526020015f20600c018e6006811061101257611011613977565b5b015f8282546110219190613d21565b925050819055507f000000000000000000000000000000000000000000000000000000000000000073ffffffffffffffffffffffffffffffffffffffff1663156e29f6338f8f6040518463ffffffff1660e01b8152600401611085939291906140c2565b5f604051808303815f87803b15801561109c575f5ffd5b505af11580156110ae573d5f5f3e3d5ffd5b505050508c3373ffffffffffffffffffffffffffffffffffffffff167f7bc3ddf0bf2ada973906c61001cd8f787646720bb7da90229e5bf81fa71bab6d8e876040516110fb9291906140f7565b60405180910390a350505050505050505050505050565b7f000000000000000000000000000000000000000000000000000000000000000081565b5f81600581111561117c576040517f08c379a000000000000000000000000000000000000000000000000000000000815260040161117390613959565b60405180910390fd5b5f60035f60025481526020019081526020015f206040518060600160405290815f82016006806020026040519081016040528092919082600680156111d6576020028201915b8154815260200190600101908083116111c2575b505050505081526020016006820160068060200260405190810160405280929190826006801561121b576020028201915b815481526020019060010190808311611207575b50505050508152602001600c8201600680602002604051908101604052809291908260068015611260576020028201915b81548152602001906001019080831161124c575b50505050508152505090508060200151846006811061128257611281613977565b5b602002015192505050919050565b611298612f1c565b5f8251116112db576040517f08c379a00000000000000000000000000000000000000000000000000000000081526004016112d290614168565b60405180910390fd5b5f6004836040516112ec9190613f46565b90815260200160405180910390206040518060c00160405290815f82015f9054906101000a900473ffffffffffffffffffffffffffffffffffffffff1673ffffffffffffffffffffffffffffffffffffffff1673ffffffffffffffffffffffffffffffffffffffff168152602001600182015f9054906101000a900473ffffffffffffffffffffffffffffffffffffffff1673ffffffffffffffffffffffffffffffffffffffff1673ffffffffffffffffffffffffffffffffffffffff16815260200160028201548152602001600382016006806020026040519081016040528092919082600680156113f4576020028201915b8154815260200190600101908083116113e0575b5050505050815260200160098201548152602001600a8201548152505090505f73ffffffffffffffffffffffffffffffffffffffff16815f015173ffffffffffffffffffffffffffffffffffffffff1603611484576040517f08c379a000000000000000000000000000000000000000000000000000000000815260040161147b906141d0565b60405180910390fd5b80915050919050565b5f7f000000000000000000000000000000000000000000000000000000000000000073ffffffffffffffffffffffffffffffffffffffff166370a08231306040518263ffffffff1660e01b81526004016114e79190613738565b602060405180830381865afa158015611502573d5f5f3e3d5ffd5b505050506040513d601f19601f820116820180604052508101906115269190613b50565b905090565b611533612d3e565b61153c5f612dc5565b565b5f5f5f5f5f876005811115611588576040517f08c379a000000000000000000000000000000000000000000000000000000000815260040161157f90613959565b60405180910390fd5b5f88116115ca576040517f08c379a00000000000000000000000000000000000000000000000000000000081526004016115c190613ab6565b60405180910390fd5b5f6115d48a610597565b11611614576040517f08c379a000000000000000000000000000000000000000000000000000000000815260040161160b90614238565b60405180910390fd5b8761161e8a610597565b101561165f576040517f08c379a0000000000000000000000000000000000000000000000000000000008152600401611656906142a0565b60405180910390fd5b876116698a612605565b61167391906142be565b95505f94505f93505f92505f875111156118a2575f6004886040516116989190613f46565b908152602001604051809103902090505f73ffffffffffffffffffffffffffffffffffffffff16815f015f9054906101000a900473ffffffffffffffffffffffffffffffffffffffff1673ffffffffffffffffffffffffffffffffffffffff1603611738576040517f08c379a000000000000000000000000000000000000000000000000000000000815260040161172f906141d0565b60405180910390fd5b6019816002015411158061179957503373ffffffffffffffffffffffffffffffffffffffff16815f015f9054906101000a900473ffffffffffffffffffffffffffffffffffffffff1673ffffffffffffffffffffffffffffffffffffffff16145b6117d8576040517f08c379a00000000000000000000000000000000000000000000000000000000081526004016117cf90614349565b60405180910390fd5b601981600201541015611882576064816002015460196117f891906139d1565b8861180391906142be565b61180d9190614394565b94505f73ffffffffffffffffffffffffffffffffffffffff16816001015f9054906101000a900473ffffffffffffffffffffffffffffffffffffffff1673ffffffffffffffffffffffffffffffffffffffff161461188157606460058861187491906142be565b61187e9190614394565b93505b5b606481600201548861189491906142be565b61189e9190614394565b9550505b84866118ae91906139d1565b95508284876118bd91906139d1565b6118c791906139d1565b915050939792965093509350565b6118dd612d3e565b816005811115611922576040517f08c379a000000000000000000000000000000000000000000000000000000000815260040161191990613959565b60405180910390fd5b5f60025411611966576040517f08c379a000000000000000000000000000000000000000000000000000000000815260040161195d9061440e565b60405180910390fd5b5f60035f60025481526020019081526020015f20905080600c01846006811061199257611991613977565b5b01548310156119d6576040517f08c379a00000000000000000000000000000000000000000000000000000000081526004016119cd9061449c565b60405180910390fd5b6119df84611aa0565b81600c0185600681106119f5576119f4613977565b5b015484611a0291906139d1565b1115611a43576040517f08c379a0000000000000000000000000000000000000000000000000000000008152600401611a3a9061452a565b60405180910390fd5b82816006018560068110611a5a57611a59613977565b5b0181905550836002547f8e070ae3a2de4465c368f672c2324b17b4ec062510fe99be064df3727aff137985604051611a929190612fd4565b60405180910390a350505050565b5f816005811115611ae6576040517f08c379a0000000000000000000000000000000000000000000000000000000008152600401611add90613959565b60405180910390fd5b5f5f7f000000000000000000000000000000000000000000000000000000000000000073ffffffffffffffffffffffffffffffffffffffff1663039af9eb866040518263ffffffff1660e01b8152600401611b419190612fd4565b5f60405180830381865afa158015611b5b573d5f5f3e3d5ffd5b505050506040513d5f823e3d601f19601f82011682018060405250810190611b8391906145b6565b509350935050508082611b9691906139d1565b9350505050919050565b5f5f5f9054906101000a900473ffffffffffffffffffffffffffffffffffffffff16905090565b6007602052805f5260405f205f91509050805f015490806001015f9054906101000a900473ffffffffffffffffffffffffffffffffffffffff1690806002015490806003015490806005015f9054906101000a900460ff16908060050160019054906101000a900460ff16905086565b60055f3373ffffffffffffffffffffffffffffffffffffffff1673ffffffffffffffffffffffffffffffffffffffff1681526020019081526020015f205f9054906101000a900460ff16611cc0576040517f08c379a0000000000000000000000000000000000000000000000000000000008152600401611cb790613a4e565b60405180910390fd5b5f60075f8381526020019081526020015f209050806005015f9054906101000a900460ff1615611d25576040517f08c379a0000000000000000000000000000000000000000000000000000000008152600401611d1c90613c9b565b60405180910390fd5b8060050160019054906101000a900460ff1615611d77576040517f08c379a0000000000000000000000000000000000000000000000000000000008152600401611d6e90613d03565b60405180910390fd5b806004015f3373ffffffffffffffffffffffffffffffffffffffff1673ffffffffffffffffffffffffffffffffffffffff1681526020019081526020015f205f9054906101000a900460ff1615611e03576040517f08c379a0000000000000000000000000000000000000000000000000000000008152600401611dfa906146af565b60405180910390fd5b6001816004015f3373ffffffffffffffffffffffffffffffffffffffff1673ffffffffffffffffffffffffffffffffffffffff1681526020019081526020015f205f6101000a81548160ff021916908315150217905550806003015f815480929190611e6e90613be3565b91905055503373ffffffffffffffffffffffffffffffffffffffff16827f7ab1df95613019ba98da0113a7adf5073c9fa62d93b5f202502115266aadc06a60405160405180910390a3600654816003015403611ece57611ecd82612bd2565b5b5050565b62093a8081565b6005602052805f5260405f205f915054906101000a900460ff1681565b5f816005811115611f3c576040517f08c379a0000000000000000000000000000000000000000000000000000000008152600401611f3390613959565b60405180910390fd5b5f60035f60025481526020019081526020015f206040518060600160405290815f8201600680602002604051908101604052809291908260068015611f96576020028201915b815481526020019060010190808311611f82575b5050505050815260200160068201600680602002604051908101604052809291908260068015611fdb576020028201915b815481526020019060010190808311611fc7575b50505050508152602001600c8201600680602002604051908101604052809291908260068015612020576020028201915b81548152602001906001019080831161200c575b50505050508152505090508060400151846006811061204257612041613977565b5b602002015192505050919050565b826005811115612095576040517f08c379a000000000000000000000000000000000000000000000000000000000815260040161208c90613959565b60405180910390fd5b61209d612e86565b5f5f5f5f6120ac88888861153e565b9450945094505093508660035f60025481526020019081526020015f20600c0189600681106120de576120dd613977565b5b015f8282546120ed9190613d21565b925050819055507f000000000000000000000000000000000000000000000000000000000000000073ffffffffffffffffffffffffffffffffffffffff1663156e29f6338a8a6040518463ffffffff1660e01b8152600401612151939291906140c2565b5f604051808303815f87803b158015612168575f5ffd5b505af115801561217a573d5f5f3e3d5ffd5b505050505f8651111561220b575f6004876040516121989190613f46565b9081526020016040518091039020905087816003018a600681106121bf576121be613977565b5b015f8282546121ce9190613d21565b9250508190555083816009015f8282546121e89190613d21565b925050819055508181600a015f8282546122029190613d21565b92505081905550505b7f000000000000000000000000000000000000000000000000000000000000000073ffffffffffffffffffffffffffffffffffffffff166323b872dd3330876040518463ffffffff1660e01b8152600401612268939291906146cd565b6020604051808303815f875af1158015612284573d5f5f3e3d5ffd5b505050506040513d601f19601f820116820180604052508101906122a89190614097565b505f86511180156122b857505f83115b156125a2575f6004876040516122ce9190613f46565b908152602001604051809103902090507f000000000000000000000000000000000000000000000000000000000000000073ffffffffffffffffffffffffffffffffffffffff1663a9059cbb825f015f9054906101000a900473ffffffffffffffffffffffffffffffffffffffff16866040518363ffffffff1660e01b815260040161235b929190614702565b6020604051808303815f875af1158015612377573d5f5f3e3d5ffd5b505050506040513d601f19601f8201168201806040525081019061239b9190614097565b50805f015f9054906101000a900473ffffffffffffffffffffffffffffffffffffffff1673ffffffffffffffffffffffffffffffffffffffff167fe940afde5872f4760f0ae48b728b98579e2ab7722dd8973624fa47301b0b2d2c856040516124049190612fd4565b60405180910390a25f8311801561246a57505f73ffffffffffffffffffffffffffffffffffffffff16816001015f9054906101000a900473ffffffffffffffffffffffffffffffffffffffff1673ffffffffffffffffffffffffffffffffffffffff1614155b156125a0577f000000000000000000000000000000000000000000000000000000000000000073ffffffffffffffffffffffffffffffffffffffff1663a9059cbb826001015f9054906101000a900473ffffffffffffffffffffffffffffffffffffffff16856040518363ffffffff1660e01b81526004016124ed929190614702565b6020604051808303815f875af1158015612509573d5f5f3e3d5ffd5b505050506040513d601f19601f8201168201806040525081019061252d9190614097565b50806001015f9054906101000a900473ffffffffffffffffffffffffffffffffffffffff1673ffffffffffffffffffffffffffffffffffffffff167fe940afde5872f4760f0ae48b728b98579e2ab7722dd8973624fa47301b0b2d2c846040516125979190612fd4565b60405180910390a25b505b873373ffffffffffffffffffffffffffffffffffffffff167f7bc3ddf0bf2ada973906c61001cd8f787646720bb7da90229e5bf81fa71bab6d89876040516125eb9291906140f7565b60405180910390a3505050506125ff612ecc565b50505050565b5f81600581111561264b576040517f08c379a000000000000000000000000000000000000000000000000000000000815260040161264290613959565b60405180910390fd5b5f60035f60025481526020019081526020015f206040518060600160405290815f82016006806020026040519081016040528092919082600680156126a5576020028201915b815481526020019060010190808311612691575b50505050508152602001600682016006806020026040519081016040528092919082600680156126ea576020028201915b8154815260200190600101908083116126d6575b50505050508152602001600c820160068060200260405190810160405280929190826006801561272f576020028201915b81548152602001906001019080831161271b575b5050505050815250509050805f015184600681106127505761274f613977565b5b602002015192505050919050565b60085481565b60055f3373ffffffffffffffffffffffffffffffffffffffff1673ffffffffffffffffffffffffffffffffffffffff1681526020019081526020015f205f9054906101000a900460ff166127ed576040517f08c379a00000000000000000000000000000000000000000000000000000000081526004016127e490613a4e565b60405180910390fd5b5f60075f8381526020019081526020015f209050806005015f9054906101000a900460ff1615612852576040517f08c379a000000000000000000000000000000000000000000000000000000000815260040161284990613c9b565b60405180910390fd5b8060050160019054906101000a900460ff16156128a4576040517f08c379a000000000000000000000000000000000000000000000000000000000815260040161289b90614773565b60405180910390fd5b60018160050160016101000a81548160ff0219169083151502179055503373ffffffffffffffffffffffffffffffffffffffff16827fcd8a8adeb6b0a0338444333e99ee6394df82ac7e4e8132079d728b1a0e863a1160405160405180910390a35050565b612911612d3e565b5f5f90505b600681101561298e5761292881611aa0565b82826006811061293b5761293a613977565b5b60200201511115612981576040517f08c379a000000000000000000000000000000000000000000000000000000000815260040161297890614801565b60405180910390fd5b8080600101915050612916565b505f6002541115612a61575f5f90505b6006811015612a5f575f6129b182610597565b146129f1576040517f08c379a00000000000000000000000000000000000000000000000000000000081526004016129e890614869565b60405180910390fd5b6129fa81612605565b838260068110612a0d57612a0c613977565b5b602002015111612a52576040517f08c379a0000000000000000000000000000000000000000000000000000000008152600401612a49906148d1565b60405180910390fd5b808060010191505061299e565b505b60025f815480929190612a7390613be3565b919050555060405180606001604052808381526020018281526020016040518060c001604052805f81526020015f81526020015f81526020015f81526020015f81526020015f81525081525060035f60025481526020019081526020015f205f820151815f01906006612ae7929190612edc565b50602082015181600601906006612aff929190612edc565b50604082015181600c01906006612b17929190612edc565b509050506002547f7ded52798ab2e63ad5f4474d2273d878d5ec60f9e082cde09a3e544efba9329660405160405180910390a25050565b612b56612d3e565b5f73ffffffffffffffffffffffffffffffffffffffff168173ffffffffffffffffffffffffffffffffffffffff1603612bc6575f6040517f1e4fbdf7000000000000000000000000000000000000000000000000000000008152600401612bbd9190613738565b60405180910390fd5b612bcf81612dc5565b50565b5f60075f8381526020019081526020015f2090506001816005015f6101000a81548160ff0219169083151502179055507f000000000000000000000000000000000000000000000000000000000000000073ffffffffffffffffffffffffffffffffffffffff1663a9059cbb826001015f9054906101000a900473ffffffffffffffffffffffffffffffffffffffff16835f01546040518363ffffffff1660e01b8152600401612c83929190614702565b6020604051808303815f875af1158015612c9f573d5f5f3e3d5ffd5b505050506040513d601f19601f82011682018060405250810190612cc39190614097565b503373ffffffffffffffffffffffffffffffffffffffff16827e9525d1b7630386050058876f776d3f6b7b6c79213925aec88934ffa1678e21835f0154846001015f9054906101000a900473ffffffffffffffffffffffffffffffffffffffff16604051612d32929190613c2a565b60405180910390a35050565b612d46612ed5565b73ffffffffffffffffffffffffffffffffffffffff16612d64611ba0565b73ffffffffffffffffffffffffffffffffffffffff1614612dc357612d87612ed5565b6040517f118cdaa7000000000000000000000000000000000000000000000000000000008152600401612dba9190613738565b60405180910390fd5b565b5f5f5f9054906101000a900473ffffffffffffffffffffffffffffffffffffffff169050815f5f6101000a81548173ffffffffffffffffffffffffffffffffffffffff021916908373ffffffffffffffffffffffffffffffffffffffff1602179055508173ffffffffffffffffffffffffffffffffffffffff168173ffffffffffffffffffffffffffffffffffffffff167f8be0079c531659141344cd1fd0a4f28419497f9722a3daafe3b4186f6b6457e060405160405180910390a35050565b600260015403612ec2576040517f3ee5aeb500000000000000000000000000000000000000000000000000000000815260040160405180910390fd5b6002600181905550565b60018081905550565b5f33905090565b8260068101928215612f0b579160200282015b82811115612f0a578251825591602001919060010190612eef565b5b509050612f189190612f7f565b5090565b6040518060c001604052805f73ffffffffffffffffffffffffffffffffffffffff1681526020015f73ffffffffffffffffffffffffffffffffffffffff1681526020015f8152602001612f6d612f9a565b81526020015f81526020015f81525090565b5b80821115612f96575f815f905550600101612f80565b5090565b6040518060c00160405280600690602082028036833780820191505090505090565b5f819050919050565b612fce81612fbc565b82525050565b5f602082019050612fe75f830184612fc5565b92915050565b5f604051905090565b5f5ffd5b5f5ffd5b61300781612fbc565b8114613011575f5ffd5b50565b5f8135905061302281612ffe565b92915050565b5f6020828403121561303d5761303c612ff6565b5b5f61304a84828501613014565b91505092915050565b5f73ffffffffffffffffffffffffffffffffffffffff82169050919050565b5f819050919050565b5f61309561309061308b84613053565b613072565b613053565b9050919050565b5f6130a68261307b565b9050919050565b5f6130b78261309c565b9050919050565b6130c7816130ad565b82525050565b5f6020820190506130e05f8301846130be565b92915050565b5f6130f082613053565b9050919050565b613100816130e6565b811461310a575f5ffd5b50565b5f8135905061311b816130f7565b92915050565b5f5f6040838503121561313757613136612ff6565b5b5f61314485828601613014565b92505060206131558582860161310d565b9150509250929050565b5f5ffd5b5f5ffd5b5f601f19601f8301169050919050565b7f4e487b71000000000000000000000000000000000000000000000000000000005f52604160045260245ffd5b6131ad82613167565b810181811067ffffffffffffffff821117156131cc576131cb613177565b5b80604052505050565b5f6131de612fed565b90506131ea82826131a4565b919050565b5f67ffffffffffffffff82111561320957613208613177565b5b61321282613167565b9050602081019050919050565b828183375f83830152505050565b5f61323f61323a846131ef565b6131d5565b90508281526020810184848401111561325b5761325a613163565b5b61326684828561321f565b509392505050565b5f82601f8301126132825761328161315f565b5b813561329284826020860161322d565b91505092915050565b5f5f5f5f608085870312156132b3576132b2612ff6565b5b5f85013567ffffffffffffffff8111156132d0576132cf612ffa565b5b6132dc8782880161326e565b94505060206132ed8782880161310d565b93505060406132fe8782880161310d565b925050606061330f87828801613014565b91505092959194509250565b5f819050919050565b61332d8161331b565b8114613337575f5ffd5b50565b5f8135905061334881613324565b92915050565b5f60ff82169050919050565b6133638161334e565b811461336d575f5ffd5b50565b5f8135905061337e8161335a565b92915050565b5f5f5f5f5f5f5f5f5f6101208a8c0312156133a2576133a1612ff6565b5b5f6133af8c828d01613014565b99505060206133c08c828d01613014565b98505060408a013567ffffffffffffffff8111156133e1576133e0612ffa565b5b6133ed8c828d0161326e565b97505060606133fe8c828d01613014565b965050608061340f8c828d01613014565b95505060a06134208c828d0161333a565b94505060c06134318c828d01613370565b93505060e06134428c828d0161333a565b9250506101006134548c828d0161333a565b9150509295985092959850929598565b5f61346e8261309c565b9050919050565b61347e81613464565b82525050565b5f6020820190506134975f830184613475565b92915050565b5f602082840312156134b2576134b1612ff6565b5b5f82013567ffffffffffffffff8111156134cf576134ce612ffa565b5b6134db8482850161326e565b91505092915050565b6134ed816130e6565b82525050565b6134fc81612fbc565b82525050565b5f60069050919050565b5f81905092915050565b5f819050919050565b5f61352a83836134f3565b60208301905092915050565b5f602082019050919050565b61354b81613502565b613555818461350c565b925061356082613516565b805f5b83811015613590578151613577878261351f565b965061358283613536565b925050600181019050613563565b505050505050565b61016082015f8201516135ad5f8501826134e4565b5060208201516135c060208501826134e4565b5060408201516135d360408501826134f3565b5060608201516135e66060850182613542565b5060808201516135fa6101208501826134f3565b5060a082015161360e6101408501826134f3565b50505050565b5f610160820190506136285f830184613598565b92915050565b5f5f5f6060848603121561364557613644612ff6565b5b5f61365286828701613014565b935050602061366386828701613014565b925050604084013567ffffffffffffffff81111561368457613683612ffa565b5b6136908682870161326e565b9150509250925092565b5f60a0820190506136ad5f830188612fc5565b6136ba6020830187612fc5565b6136c76040830186612fc5565b6136d46060830185612fc5565b6136e16080830184612fc5565b9695505050505050565b5f5f6040838503121561370157613700612ff6565b5b5f61370e85828601613014565b925050602061371f85828601613014565b9150509250929050565b613732816130e6565b82525050565b5f60208201905061374b5f830184613729565b92915050565b5f8115159050919050565b61376581613751565b82525050565b5f60c08201905061377e5f830189612fc5565b61378b6020830188613729565b6137986040830187612fc5565b6137a56060830186612fc5565b6137b2608083018561375c565b6137bf60a083018461375c565b979650505050505050565b5f602082840312156137df576137de612ff6565b5b5f6137ec8482850161310d565b91505092915050565b5f6020820190506138085f83018461375c565b92915050565b5f67ffffffffffffffff82111561382857613827613177565b5b602082029050919050565b5f5ffd5b5f6138496138448461380e565b6131d5565b9050806020840283018581111561386357613862613833565b5b835b8181101561388c57806138788882613014565b845260208401935050602081019050613865565b5050509392505050565b5f82601f8301126138aa576138a961315f565b5b60066138b7848285613837565b91505092915050565b5f5f61018083850312156138d7576138d6612ff6565b5b5f6138e485828601613896565b92505060c06138f585828601613896565b9150509250929050565b5f82825260208201905092915050565b7f496e76616c6964207261726974792049440000000000000000000000000000005f82015250565b5f6139436011836138ff565b915061394e8261390f565b602082019050919050565b5f6020820190508181035f83015261397081613937565b9050919050565b7f4e487b71000000000000000000000000000000000000000000000000000000005f52603260045260245ffd5b7f4e487b71000000000000000000000000000000000000000000000000000000005f52601160045260245ffd5b5f6139db82612fbc565b91506139e683612fbc565b92508282039050818111156139fe576139fd6139a4565b5b92915050565b7f4e6f74206120626f617264206d656d62657200000000000000000000000000005f82015250565b5f613a386012836138ff565b9150613a4382613a04565b602082019050919050565b5f6020820190508181035f830152613a6581613a2c565b9050919050565b7f416d6f756e74206d7573742062652067726561746572207468616e207a65726f5f82015250565b5f613aa06020836138ff565b9150613aab82613a6c565b602082019050919050565b5f6020820190508181035f830152613acd81613a94565b9050919050565b7f496e76616c696420726563697069656e740000000000000000000000000000005f82015250565b5f613b086011836138ff565b9150613b1382613ad4565b602082019050919050565b5f6020820190508181035f830152613b3581613afc565b9050919050565b5f81519050613b4a81612ffe565b92915050565b5f60208284031215613b6557613b64612ff6565b5b5f613b7284828501613b3c565b91505092915050565b7f496e73756666696369656e742062616c616e63650000000000000000000000005f82015250565b5f613baf6014836138ff565b9150613bba82613b7b565b602082019050919050565b5f6020820190508181035f830152613bdc81613ba3565b9050919050565b5f613bed82612fbc565b91507fffffffffffffffffffffffffffffffffffffffffffffffffffffffffffffffff8203613c1f57613c1e6139a4565b5b600182019050919050565b5f604082019050613c3d5f830185612fc5565b613c4a6020830184613729565b9392505050565b7f416c7265616479206578656375746564000000000000000000000000000000005f82015250565b5f613c856010836138ff565b9150613c9082613c51565b602082019050919050565b5f6020820190508181035f830152613cb281613c79565b9050919050565b7f5265717565737420626c6f636b656400000000000000000000000000000000005f82015250565b5f613ced600f836138ff565b9150613cf882613cb9565b602082019050919050565b5f6020820190508181035f830152613d1a81613ce1565b9050919050565b5f613d2b82612fbc565b9150613d3683612fbc565b9250828201905080821115613d4e57613d4d6139a4565b5b92915050565b7f54696d656f7574206e6f742072656163686564000000000000000000000000005f82015250565b5f613d886013836138ff565b9150613d9382613d54565b602082019050919050565b5f6020820190508181035f830152613db581613d7c565b9050919050565b7f456d70747920636f6465000000000000000000000000000000000000000000005f82015250565b5f613df0600a836138ff565b9150613dfb82613dbc565b602082019050919050565b5f6020820190508181035f830152613e1d81613de4565b9050919050565b7f496e76616c696420616d6261737361646f7220616464726573730000000000005f82015250565b5f613e58601a836138ff565b9150613e6382613e24565b602082019050919050565b5f6020820190508181035f830152613e8581613e4c565b9050919050565b7f446973636f756e7420746f6f20686967680000000000000000000000000000005f82015250565b5f613ec06011836138ff565b9150613ecb82613e8c565b602082019050919050565b5f6020820190508181035f830152613eed81613eb4565b9050919050565b5f81519050919050565b5f81905092915050565b8281835e5f83830152505050565b5f613f2082613ef4565b613f2a8185613efe565b9350613f3a818560208601613f08565b80840191505092915050565b5f613f518284613f16565b915081905092915050565b7f436f646520616c726561647920657869737473000000000000000000000000005f82015250565b5f613f906013836138ff565b9150613f9b82613f5c565b602082019050919050565b5f6020820190508181035f830152613fbd81613f84565b9050919050565b613fcd8161331b565b82525050565b613fdc8161334e565b82525050565b5f61012082019050613ff65f83018c613729565b614003602083018b613729565b614010604083018a612fc5565b61401d6060830189612fc5565b61402a6080830188612fc5565b61403760a0830187613fc4565b61404460c0830186613fd3565b61405160e0830185613fc4565b61405f610100830184613fc4565b9a9950505050505050505050565b61407681613751565b8114614080575f5ffd5b50565b5f815190506140918161406d565b92915050565b5f602082840312156140ac576140ab612ff6565b5b5f6140b984828501614083565b91505092915050565b5f6060820190506140d55f830186613729565b6140e26020830185612fc5565b6140ef6040830184612fc5565b949350505050565b5f60408201905061410a5f830185612fc5565b6141176020830184612fc5565b9392505050565b7f4e6f20636f64652070726f7669646564000000000000000000000000000000005f82015250565b5f6141526010836138ff565b915061415d8261411e565b602082019050919050565b5f6020820190508181035f83015261417f81614146565b9050919050565b7f496e76616c696420636f646500000000000000000000000000000000000000005f82015250565b5f6141ba600c836138ff565b91506141c582614186565b602082019050919050565b5f6020820190508181035f8301526141e7816141ae565b9050919050565b7f4e6f204e465473206c65667420696e20746869732070686173650000000000005f82015250565b5f614222601a836138ff565b915061422d826141ee565b602082019050919050565b5f6020820190508181035f83015261424f81614216565b9050919050565b7f457863656564732070686173652072656d61696e696e6720737570706c7900005f82015250565b5f61428a601e836138ff565b915061429582614256565b602082019050919050565b5f6020820190508181035f8301526142b78161427e565b9050919050565b5f6142c882612fbc565b91506142d383612fbc565b92508282026142e181612fbc565b915082820484148315176142f8576142f76139a4565b5b5092915050565b7f5468697320636f6465206973206f6e6c7920666f722073656c662d75736167655f82015250565b5f6143336020836138ff565b915061433e826142ff565b602082019050919050565b5f6020820190508181035f83015261436081614327565b9050919050565b7f4e487b71000000000000000000000000000000000000000000000000000000005f52601260045260245ffd5b5f61439e82612fbc565b91506143a983612fbc565b9250826143b9576143b8614367565b5b828204905092915050565b7f4e6f2061637469766520706861736500000000000000000000000000000000005f82015250565b5f6143f8600f836138ff565b9150614403826143c4565b602082019050919050565b5f6020820190508181035f830152614425816143ec565b9050919050565b7f4e657720737570706c79206c657373207468616e20616c7265616479206d696e5f8201527f7465640000000000000000000000000000000000000000000000000000000000602082015250565b5f6144866023836138ff565b91506144918261442c565b604082019050919050565b5f6020820190508181035f8301526144b38161447a565b9050919050565b7f4e657720737570706c7920657863656564732072656d61696e696e67204e46545f8201527f20737570706c7900000000000000000000000000000000000000000000000000602082015250565b5f6145146027836138ff565b915061451f826144ba565b604082019050919050565b5f6020820190508181035f83015261454181614508565b9050919050565b5f61455a614555846131ef565b6131d5565b90508281526020810184848401111561457657614575613163565b5b614581848285613f08565b509392505050565b5f82601f83011261459d5761459c61315f565b5b81516145ad848260208601614548565b91505092915050565b5f5f5f5f5f60a086880312156145cf576145ce612ff6565b5b5f86015167ffffffffffffffff8111156145ec576145eb612ffa565b5b6145f888828901614589565b955050602086015167ffffffffffffffff81111561461957614618612ffa565b5b61462588828901614589565b945050604061463688828901613b3c565b935050606061464788828901613b3c565b925050608061465888828901613b3c565b9150509295509295909350565b7f416c726561647920617070726f766564000000000000000000000000000000005f82015250565b5f6146996010836138ff565b91506146a482614665565b602082019050919050565b5f6020820190508181035f8301526146c68161468d565b9050919050565b5f6060820190506146e05f830186613729565b6146ed6020830185613729565b6146fa6040830184612fc5565b949350505050565b5f6040820190506147155f830185613729565b6147226020830184612fc5565b9392505050565b7f416c726561647920626c6f636b656400000000000000000000000000000000005f82015250565b5f61475d600f836138ff565b915061476882614729565b602082019050919050565b5f6020820190508181035f83015261478a81614751565b9050919050565b7f506861736520737570706c7920657863656564732072656d61696e696e67204e5f8201527f465420737570706c790000000000000000000000000000000000000000000000602082015250565b5f6147eb6029836138ff565b91506147f682614791565b604082019050919050565b5f6020820190508181035f830152614818816147df565b9050919050565b7f50726576696f7573207068617365206e6f742066756c6c79206d696e746564005f82015250565b5f614853601f836138ff565b915061485e8261481f565b602082019050919050565b5f6020820190508181035f83015261488081614847565b9050919050565b7f4e6577207072696365206d7573742062652068696768657200000000000000005f82015250565b5f6148bb6018836138ff565b91506148c682614887565b602082019050919050565b5f6020820190508181035f8301526148e8816148af565b905091905056fea26469706673582212208bc742bee190083e0c7591834e8a19540547b06ab17419154bc6dac797e021ca64736f6c634300081e0033",
			"opcodes": "PUSH1 0xC0 PUSH1 0x40 MSTORE PUSH0 PUSH1 0x2 SSTORE PUSH0 PUSH1 0x6 SSTORE PUSH0 PUSH1 0x8 SSTORE CALLVALUE DUP1 ISZERO PUSH2 0x1B JUMPI PUSH0 PUSH0 REVERT JUMPDEST POP PUSH1 0x40 MLOAD PUSH2 0x518F CODESIZE SUB DUP1 PUSH2 0x518F DUP4 CODECOPY DUP2 DUP2 ADD PUSH1 0x40 MSTORE DUP2 ADD SWAP1 PUSH2 0x3D SWAP2 SWAP1 PUSH2 0x5E5 JUMP JUMPDEST CALLER PUSH0 PUSH20 0xFFFFFFFFFFFFFFFFFFFFFFFFFFFFFFFFFFFFFFFF AND DUP2 PUSH20 0xFFFFFFFFFFFFFFFFFFFFFFFFFFFFFFFFFFFFFFFF AND SUB PUSH2 0xAE JUMPI PUSH0 PUSH1 0x40 MLOAD PUSH32 0x1E4FBDF700000000000000000000000000000000000000000000000000000000 DUP2 MSTORE PUSH1 0x4 ADD PUSH2 0xA5 SWAP2 SWAP1 PUSH2 0x660 JUMP JUMPDEST PUSH1 0x40 MLOAD DUP1 SWAP2 SUB SWAP1 REVERT JUMPDEST PUSH2 0xBD DUP2 PUSH2 0x22D PUSH1 0x20 SHL PUSH1 0x20 SHR JUMP JUMPDEST POP PUSH1 0x1 DUP1 DUP2 SWAP1 SSTORE POP PUSH0 PUSH20 0xFFFFFFFFFFFFFFFFFFFFFFFFFFFFFFFFFFFFFFFF AND DUP4 PUSH20 0xFFFFFFFFFFFFFFFFFFFFFFFFFFFFFFFFFFFFFFFF AND EQ ISZERO DUP1 ISZERO PUSH2 0x12D JUMPI POP PUSH0 PUSH20 0xFFFFFFFFFFFFFFFFFFFFFFFFFFFFFFFFFFFFFFFF AND DUP3 PUSH20 0xFFFFFFFFFFFFFFFFFFFFFFFFFFFFFFFFFFFFFFFF AND EQ ISZERO JUMPDEST PUSH2 0x135 JUMPI PUSH0 PUSH0 REVERT JUMPDEST PUSH0 DUP2 MLOAD GT PUSH2 0x178 JUMPI PUSH1 0x40 MLOAD PUSH32 0x8C379A000000000000000000000000000000000000000000000000000000000 DUP2 MSTORE PUSH1 0x4 ADD PUSH2 0x16F SWAP1 PUSH2 0x6D3 JUMP JUMPDEST PUSH1 0x40 MLOAD DUP1 SWAP2 SUB SWAP1 REVERT JUMPDEST DUP3 PUSH20 0xFFFFFFFFFFFFFFFFFFFFFFFFFFFFFFFFFFFFFFFF AND PUSH1 0x80 DUP2 PUSH20 0xFFFFFFFFFFFFFFFFFFFFFFFFFFFFFFFFFFFFFFFF AND DUP2 MSTORE POP POP DUP2 PUSH20 0xFFFFFFFFFFFFFFFFFFFFFFFFFFFFFFFFFFFFFFFF AND PUSH1 0xA0 DUP2 PUSH20 0xFFFFFFFFFFFFFFFFFFFFFFFFFFFFFFFFFFFFFFFF AND DUP2 MSTORE POP POP PUSH0 PUSH0 SWAP1 POP JUMPDEST DUP2 MLOAD DUP2 LT ISZERO PUSH2 0x224 JUMPI PUSH2 0x217 DUP3 DUP3 DUP2 MLOAD DUP2 LT PUSH2 0x204 JUMPI PUSH2 0x203 PUSH2 0x6F1 JUMP JUMPDEST JUMPDEST PUSH1 0x20 MUL PUSH1 0x20 ADD ADD MLOAD PUSH2 0x2EE PUSH1 0x20 SHL PUSH1 0x20 SHR JUMP JUMPDEST DUP1 DUP1 PUSH1 0x1 ADD SWAP2 POP POP PUSH2 0x1E5 JUMP JUMPDEST POP POP POP POP PUSH2 0x803 JUMP JUMPDEST PUSH0 PUSH0 PUSH0 SWAP1 SLOAD SWAP1 PUSH2 0x100 EXP SWAP1 DIV PUSH20 0xFFFFFFFFFFFFFFFFFFFFFFFFFFFFFFFFFFFFFFFF AND SWAP1 POP DUP2 PUSH0 PUSH0 PUSH2 0x100 EXP DUP2 SLOAD DUP2 PUSH20 0xFFFFFFFFFFFFFFFFFFFFFFFFFFFFFFFFFFFFFFFF MUL NOT AND SWAP1 DUP4 PUSH20 0xFFFFFFFFFFFFFFFFFFFFFFFFFFFFFFFFFFFFFFFF AND MUL OR SWAP1 SSTORE POP DUP2 PUSH20 0xFFFFFFFFFFFFFFFFFFFFFFFFFFFFFFFFFFFFFFFF AND DUP2 PUSH20 0xFFFFFFFFFFFFFFFFFFFFFFFFFFFFFFFFFFFFFFFF AND PUSH32 0x8BE0079C531659141344CD1FD0A4F28419497F9722A3DAAFE3B4186F6B6457E0 PUSH1 0x40 MLOAD PUSH1 0x40 MLOAD DUP1 SWAP2 SUB SWAP1 LOG3 POP POP JUMP JUMPDEST PUSH1 0x5 PUSH0 DUP3 PUSH20 0xFFFFFFFFFFFFFFFFFFFFFFFFFFFFFFFFFFFFFFFF AND PUSH20 0xFFFFFFFFFFFFFFFFFFFFFFFFFFFFFFFFFFFFFFFF AND DUP2 MSTORE PUSH1 0x20 ADD SWAP1 DUP2 MSTORE PUSH1 0x20 ADD PUSH0 KECCAK256 PUSH0 SWAP1 SLOAD SWAP1 PUSH2 0x100 EXP SWAP1 DIV PUSH1 0xFF AND ISZERO PUSH2 0x378 JUMPI PUSH1 0x40 MLOAD PUSH32 0x8C379A000000000000000000000000000000000000000000000000000000000 DUP2 MSTORE PUSH1 0x4 ADD PUSH2 0x36F SWAP1 PUSH2 0x768 JUMP JUMPDEST PUSH1 0x40 MLOAD DUP1 SWAP2 SUB SWAP1 REVERT JUMPDEST PUSH1 0x1 PUSH1 0x5 PUSH0 DUP4 PUSH20 0xFFFFFFFFFFFFFFFFFFFFFFFFFFFFFFFFFFFFFFFF AND PUSH20 0xFFFFFFFFFFFFFFFFFFFFFFFFFFFFFFFFFFFFFFFF AND DUP2 MSTORE PUSH1 0x20 ADD SWAP1 DUP2 MSTORE PUSH1 0x20 ADD PUSH0 KECCAK256 PUSH0 PUSH2 0x100 EXP DUP2 SLOAD DUP2 PUSH1 0xFF MUL NOT AND SWAP1 DUP4 ISZERO ISZERO MUL OR SWAP1 SSTORE POP PUSH1 0x6 PUSH0 DUP2 SLOAD DUP1 SWAP3 SWAP2 SWAP1 PUSH2 0x3DF SWAP1 PUSH2 0x7BC JUMP JUMPDEST SWAP2 SWAP1 POP SSTORE POP DUP1 PUSH20 0xFFFFFFFFFFFFFFFFFFFFFFFFFFFFFFFFFFFFFFFF AND PUSH32 0x956F4B06F20EDA3AA4F6BE9E72E8FC77BEB3F95F4F2A95A796B2AF742583D743 PUSH1 0x40 MLOAD PUSH1 0x40 MLOAD DUP1 SWAP2 SUB SWAP1 LOG2 POP JUMP JUMPDEST PUSH0 PUSH1 0x40 MLOAD SWAP1 POP SWAP1 JUMP JUMPDEST PUSH0 PUSH0 REVERT JUMPDEST PUSH0 PUSH0 REVERT JUMPDEST PUSH0 PUSH20 0xFFFFFFFFFFFFFFFFFFFFFFFFFFFFFFFFFFFFFFFF DUP3 AND SWAP1 POP SWAP2 SWAP1 POP JUMP JUMPDEST PUSH0 PUSH2 0x464 DUP3 PUSH2 0x43B JUMP JUMPDEST SWAP1 POP SWAP2 SWAP1 POP JUMP JUMPDEST PUSH2 0x474 DUP2 PUSH2 0x45A JUMP JUMPDEST DUP2 EQ PUSH2 0x47E JUMPI PUSH0 PUSH0 REVERT JUMPDEST POP JUMP JUMPDEST PUSH0 DUP2 MLOAD SWAP1 POP PUSH2 0x48F DUP2 PUSH2 0x46B JUMP JUMPDEST SWAP3 SWAP2 POP POP JUMP JUMPDEST PUSH0 PUSH0 REVERT JUMPDEST PUSH0 PUSH1 0x1F NOT PUSH1 0x1F DUP4 ADD AND SWAP1 POP SWAP2 SWAP1 POP JUMP JUMPDEST PUSH32 0x4E487B7100000000000000000000000000000000000000000000000000000000 PUSH0 MSTORE PUSH1 0x41 PUSH1 0x4 MSTORE PUSH1 0x24 PUSH0 REVERT JUMPDEST PUSH2 0x4DF DUP3 PUSH2 0x499 JUMP JUMPDEST DUP2 ADD DUP2 DUP2 LT PUSH8 0xFFFFFFFFFFFFFFFF DUP3 GT OR ISZERO PUSH2 0x4FE JUMPI PUSH2 0x4FD PUSH2 0x4A9 JUMP JUMPDEST JUMPDEST DUP1 PUSH1 0x40 MSTORE POP POP POP JUMP JUMPDEST PUSH0 PUSH2 0x510 PUSH2 0x42A JUMP JUMPDEST SWAP1 POP PUSH2 0x51C DUP3 DUP3 PUSH2 0x4D6 JUMP JUMPDEST SWAP2 SWAP1 POP JUMP JUMPDEST PUSH0 PUSH8 0xFFFFFFFFFFFFFFFF DUP3 GT ISZERO PUSH2 0x53B JUMPI PUSH2 0x53A PUSH2 0x4A9 JUMP JUMPDEST JUMPDEST PUSH1 0x20 DUP3 MUL SWAP1 POP PUSH1 0x20 DUP2 ADD SWAP1 POP SWAP2 SWAP1 POP JUMP JUMPDEST PUSH0 PUSH0 REVERT JUMPDEST PUSH0 PUSH2 0x562 PUSH2 0x55D DUP5 PUSH2 0x521 JUMP JUMPDEST PUSH2 0x507 JUMP JUMPDEST SWAP1 POP DUP1 DUP4 DUP3 MSTORE PUSH1 0x20 DUP3 ADD SWAP1 POP PUSH1 0x20 DUP5 MUL DUP4 ADD DUP6 DUP2 GT ISZERO PUSH2 0x585 JUMPI PUSH2 0x584 PUSH2 0x54C JUMP JUMPDEST JUMPDEST DUP4 JUMPDEST DUP2 DUP2 LT ISZERO PUSH2 0x5AE JUMPI DUP1 PUSH2 0x59A DUP9 DUP3 PUSH2 0x481 JUMP JUMPDEST DUP5 MSTORE PUSH1 0x20 DUP5 ADD SWAP4 POP POP PUSH1 0x20 DUP2 ADD SWAP1 POP PUSH2 0x587 JUMP JUMPDEST POP POP POP SWAP4 SWAP3 POP POP POP JUMP JUMPDEST PUSH0 DUP3 PUSH1 0x1F DUP4 ADD SLT PUSH2 0x5CC JUMPI PUSH2 0x5CB PUSH2 0x495 JUMP JUMPDEST JUMPDEST DUP2 MLOAD PUSH2 0x5DC DUP5 DUP3 PUSH1 0x20 DUP7 ADD PUSH2 0x550 JUMP JUMPDEST SWAP2 POP POP SWAP3 SWAP2 POP POP JUMP JUMPDEST PUSH0 PUSH0 PUSH0 PUSH1 0x60 DUP5 DUP7 SUB SLT ISZERO PUSH2 0x5FC JUMPI PUSH2 0x5FB PUSH2 0x433 JUMP JUMPDEST JUMPDEST PUSH0 PUSH2 0x609 DUP7 DUP3 DUP8 ADD PUSH2 0x481 JUMP JUMPDEST SWAP4 POP POP PUSH1 0x20 PUSH2 0x61A DUP7 DUP3 DUP8 ADD PUSH2 0x481 JUMP JUMPDEST SWAP3 POP POP PUSH1 0x40 DUP5 ADD MLOAD PUSH8 0xFFFFFFFFFFFFFFFF DUP2 GT ISZERO PUSH2 0x63B JUMPI PUSH2 0x63A PUSH2 0x437 JUMP JUMPDEST JUMPDEST PUSH2 0x647 DUP7 DUP3 DUP8 ADD PUSH2 0x5B8 JUMP JUMPDEST SWAP2 POP POP SWAP3 POP SWAP3 POP SWAP3 JUMP JUMPDEST PUSH2 0x65A DUP2 PUSH2 0x45A JUMP JUMPDEST DUP3 MSTORE POP POP JUMP JUMPDEST PUSH0 PUSH1 0x20 DUP3 ADD SWAP1 POP PUSH2 0x673 PUSH0 DUP4 ADD DUP5 PUSH2 0x651 JUMP JUMPDEST SWAP3 SWAP2 POP POP JUMP JUMPDEST PUSH0 DUP3 DUP3 MSTORE PUSH1 0x20 DUP3 ADD SWAP1 POP SWAP3 SWAP2 POP POP JUMP JUMPDEST PUSH32 0x4E6F20626F617264206D656D626572732070726F766964656400000000000000 PUSH0 DUP3 ADD MSTORE POP JUMP JUMPDEST PUSH0 PUSH2 0x6BD PUSH1 0x19 DUP4 PUSH2 0x679 JUMP JUMPDEST SWAP2 POP PUSH2 0x6C8 DUP3 PUSH2 0x689 JUMP JUMPDEST PUSH1 0x20 DUP3 ADD SWAP1 POP SWAP2 SWAP1 POP JUMP JUMPDEST PUSH0 PUSH1 0x20 DUP3 ADD SWAP1 POP DUP2 DUP2 SUB PUSH0 DUP4 ADD MSTORE PUSH2 0x6EA DUP2 PUSH2 0x6B1 JUMP JUMPDEST SWAP1 POP SWAP2 SWAP1 POP JUMP JUMPDEST PUSH32 0x4E487B7100000000000000000000000000000000000000000000000000000000 PUSH0 MSTORE PUSH1 0x32 PUSH1 0x4 MSTORE PUSH1 0x24 PUSH0 REVERT JUMPDEST PUSH32 0x416C7265616479206120626F617264206D656D62657200000000000000000000 PUSH0 DUP3 ADD MSTORE POP JUMP JUMPDEST PUSH0 PUSH2 0x752 PUSH1 0x16 DUP4 PUSH2 0x679 JUMP JUMPDEST SWAP2 POP PUSH2 0x75D DUP3 PUSH2 0x71E JUMP JUMPDEST PUSH1 0x20 DUP3 ADD SWAP1 POP SWAP2 SWAP1 POP JUMP JUMPDEST PUSH0 PUSH1 0x20 DUP3 ADD SWAP1 POP DUP2 DUP2 SUB PUSH0 DUP4 ADD MSTORE PUSH2 0x77F DUP2 PUSH2 0x746 JUMP JUMPDEST SWAP1 POP SWAP2 SWAP1 POP JUMP JUMPDEST PUSH32 0x4E487B7100000000000000000000000000000000000000000000000000000000 PUSH0 MSTORE PUSH1 0x11 PUSH1 0x4 MSTORE PUSH1 0x24 PUSH0 REVERT JUMPDEST PUSH0 DUP2 SWAP1 POP SWAP2 SWAP1 POP JUMP JUMPDEST PUSH0 PUSH2 0x7C6 DUP3 PUSH2 0x7B3 JUMP JUMPDEST SWAP2 POP PUSH32 0xFFFFFFFFFFFFFFFFFFFFFFFFFFFFFFFFFFFFFFFFFFFFFFFFFFFFFFFFFFFFFFFF DUP3 SUB PUSH2 0x7F8 JUMPI PUSH2 0x7F7 PUSH2 0x786 JUMP JUMPDEST JUMPDEST PUSH1 0x1 DUP3 ADD SWAP1 POP SWAP2 SWAP1 POP JUMP JUMPDEST PUSH1 0x80 MLOAD PUSH1 0xA0 MLOAD PUSH2 0x4925 PUSH2 0x86A PUSH0 CODECOPY PUSH0 DUP2 DUP2 PUSH2 0x877 ADD MSTORE DUP2 DUP2 PUSH2 0xEB4 ADD MSTORE DUP2 DUP2 PUSH2 0x1114 ADD MSTORE DUP2 DUP2 PUSH2 0x1490 ADD MSTORE DUP2 DUP2 PUSH2 0x220D ADD MSTORE DUP2 DUP2 PUSH2 0x22E0 ADD MSTORE DUP2 DUP2 PUSH2 0x2471 ADD MSTORE PUSH2 0x2C04 ADD MSTORE PUSH0 DUP2 DUP2 PUSH2 0x719 ADD MSTORE DUP2 DUP2 PUSH2 0x102A ADD MSTORE DUP2 DUP2 PUSH2 0x1AEA ADD MSTORE PUSH2 0x20F6 ADD MSTORE PUSH2 0x4925 PUSH0 RETURN INVALID PUSH1 0x80 PUSH1 0x40 MSTORE CALLVALUE DUP1 ISZERO PUSH2 0xF JUMPI PUSH0 PUSH0 REVERT JUMPDEST POP PUSH1 0x4 CALLDATASIZE LT PUSH2 0x1C2 JUMPI PUSH0 CALLDATALOAD PUSH1 0xE0 SHR DUP1 PUSH4 0x72403A79 GT PUSH2 0xF7 JUMPI DUP1 PUSH4 0xC5CAC202 GT PUSH2 0x95 JUMPI DUP1 PUSH4 0xD88150EA GT PUSH2 0x6F JUMPI DUP1 PUSH4 0xD88150EA EQ PUSH2 0x51F JUMPI DUP1 PUSH4 0xDFDC0DE2 EQ PUSH2 0x53D JUMPI DUP1 PUSH4 0xE2B0608D EQ PUSH2 0x559 JUMPI DUP1 PUSH4 0xF2FDE38B EQ PUSH2 0x575 JUMPI PUSH2 0x1C2 JUMP JUMPDEST DUP1 PUSH4 0xC5CAC202 EQ PUSH2 0x4A3 JUMPI DUP1 PUSH4 0xC6E64E53 EQ PUSH2 0x4D3 JUMPI DUP1 PUSH4 0xCAE359B9 EQ PUSH2 0x4EF JUMPI PUSH2 0x1C2 JUMP JUMPDEST DUP1 PUSH4 0x937B2581 GT PUSH2 0xD1 JUMPI DUP1 PUSH4 0x937B2581 EQ PUSH2 0x404 JUMPI DUP1 PUSH4 0x9ECEDDEA EQ PUSH2 0x439 JUMPI DUP1 PUSH4 0xBC4456EB EQ PUSH2 0x455 JUMPI DUP1 PUSH4 0xBFF13785 EQ PUSH2 0x473 JUMPI PUSH2 0x1C2 JUMP JUMPDEST DUP1 PUSH4 0x72403A79 EQ PUSH2 0x39A JUMPI DUP1 PUSH4 0x8C858A14 EQ PUSH2 0x3B6 JUMPI DUP1 PUSH4 0x8DA5CB5B EQ PUSH2 0x3E6 JUMPI PUSH2 0x1C2 JUMP JUMPDEST DUP1 PUSH4 0x3A803890 GT PUSH2 0x164 JUMPI DUP1 PUSH4 0x6353A400 GT PUSH2 0x13E JUMPI DUP1 PUSH4 0x6353A400 EQ PUSH2 0x30E JUMPI DUP1 PUSH4 0x6F9FB98A EQ PUSH2 0x33E JUMPI DUP1 PUSH4 0x715018A6 EQ PUSH2 0x35C JUMPI DUP1 PUSH4 0x7205249E EQ PUSH2 0x366 JUMPI PUSH2 0x1C2 JUMP JUMPDEST DUP1 PUSH4 0x3A803890 EQ PUSH2 0x2A4 JUMPI DUP1 PUSH4 0x3E413BEE EQ PUSH2 0x2C0 JUMPI DUP1 PUSH4 0x5B65DA64 EQ PUSH2 0x2DE JUMPI PUSH2 0x1C2 JUMP JUMPDEST DUP1 PUSH4 0x21739779 GT PUSH2 0x1A0 JUMPI DUP1 PUSH4 0x21739779 EQ PUSH2 0x232 JUMPI DUP1 PUSH4 0x24079158 EQ PUSH2 0x24E JUMPI DUP1 PUSH4 0x24F13A76 EQ PUSH2 0x26C JUMPI DUP1 PUSH4 0x359F82A3 EQ PUSH2 0x288 JUMPI PUSH2 0x1C2 JUMP JUMPDEST DUP1 PUSH4 0x55AD42E EQ PUSH2 0x1C6 JUMPI DUP1 PUSH4 0x1558BED3 EQ PUSH2 0x1E4 JUMPI DUP1 PUSH4 0x1714F2E0 EQ PUSH2 0x214 JUMPI JUMPDEST PUSH0 PUSH0 REVERT JUMPDEST PUSH2 0x1CE PUSH2 0x591 JUMP JUMPDEST PUSH1 0x40 MLOAD PUSH2 0x1DB SWAP2 SWAP1 PUSH2 0x2FD4 JUMP JUMPDEST PUSH1 0x40 MLOAD DUP1 SWAP2 SUB SWAP1 RETURN JUMPDEST PUSH2 0x1FE PUSH1 0x4 DUP1 CALLDATASIZE SUB DUP2 ADD SWAP1 PUSH2 0x1F9 SWAP2 SWAP1 PUSH2 0x3028 JUMP JUMPDEST PUSH2 0x597 JUMP JUMPDEST PUSH1 0x40 MLOAD PUSH2 0x20B SWAP2 SWAP1 PUSH2 0x2FD4 JUMP JUMPDEST PUSH1 0x40 MLOAD DUP1 SWAP2 SUB SWAP1 RETURN JUMPDEST PUSH2 0x21C PUSH2 0x717 JUMP JUMPDEST PUSH1 0x40 MLOAD PUSH2 0x229 SWAP2 SWAP1 PUSH2 0x30CD JUMP JUMPDEST PUSH1 0x40 MLOAD DUP1 SWAP2 SUB SWAP1 RETURN JUMPDEST PUSH2 0x24C PUSH1 0x4 DUP1 CALLDATASIZE SUB DUP2 ADD SWAP1 PUSH2 0x247 SWAP2 SWAP1 PUSH2 0x3121 JUMP JUMPDEST PUSH2 0x73B JUMP JUMPDEST STOP JUMPDEST PUSH2 0x256 PUSH2 0xA65 JUMP JUMPDEST PUSH1 0x40 MLOAD PUSH2 0x263 SWAP2 SWAP1 PUSH2 0x2FD4 JUMP JUMPDEST PUSH1 0x40 MLOAD DUP1 SWAP2 SUB SWAP1 RETURN JUMPDEST PUSH2 0x286 PUSH1 0x4 DUP1 CALLDATASIZE SUB DUP2 ADD SWAP1 PUSH2 0x281 SWAP2 SWAP1 PUSH2 0x3028 JUMP JUMPDEST PUSH2 0xA6B JUMP JUMPDEST STOP JUMPDEST PUSH2 0x2A2 PUSH1 0x4 DUP1 CALLDATASIZE SUB DUP2 ADD SWAP1 PUSH2 0x29D SWAP2 SWAP1 PUSH2 0x329B JUMP JUMPDEST PUSH2 0xB84 JUMP JUMPDEST STOP JUMPDEST PUSH2 0x2BE PUSH1 0x4 DUP1 CALLDATASIZE SUB DUP2 ADD SWAP1 PUSH2 0x2B9 SWAP2 SWAP1 PUSH2 0x3384 JUMP JUMPDEST PUSH2 0xE9A JUMP JUMPDEST STOP JUMPDEST PUSH2 0x2C8 PUSH2 0x1112 JUMP JUMPDEST PUSH1 0x40 MLOAD PUSH2 0x2D5 SWAP2 SWAP1 PUSH2 0x3484 JUMP JUMPDEST PUSH1 0x40 MLOAD DUP1 SWAP2 SUB SWAP1 RETURN JUMPDEST PUSH2 0x2F8 PUSH1 0x4 DUP1 CALLDATASIZE SUB DUP2 ADD SWAP1 PUSH2 0x2F3 SWAP2 SWAP1 PUSH2 0x3028 JUMP JUMPDEST PUSH2 0x1136 JUMP JUMPDEST PUSH1 0x40 MLOAD PUSH2 0x305 SWAP2 SWAP1 PUSH2 0x2FD4 JUMP JUMPDEST PUSH1 0x40 MLOAD DUP1 SWAP2 SUB SWAP1 RETURN JUMPDEST PUSH2 0x328 PUSH1 0x4 DUP1 CALLDATASIZE SUB DUP2 ADD SWAP1 PUSH2 0x323 SWAP2 SWAP1 PUSH2 0x349D JUMP JUMPDEST PUSH2 0x1290 JUMP JUMPDEST PUSH1 0x40 MLOAD PUSH2 0x335 SWAP2 SWAP1 PUSH2 0x3614 JUMP JUMPDEST PUSH1 0x40 MLOAD DUP1 SWAP2 SUB SWAP1 RETURN JUMPDEST PUSH2 0x346 PUSH2 0x148D JUMP JUMPDEST PUSH1 0x40 MLOAD PUSH2 0x353 SWAP2 SWAP1 PUSH2 0x2FD4 JUMP JUMPDEST PUSH1 0x40 MLOAD DUP1 SWAP2 SUB SWAP1 RETURN JUMPDEST PUSH2 0x364 PUSH2 0x152B JUMP JUMPDEST STOP JUMPDEST PUSH2 0x380 PUSH1 0x4 DUP1 CALLDATASIZE SUB DUP2 ADD SWAP1 PUSH2 0x37B SWAP2 SWAP1 PUSH2 0x362E JUMP JUMPDEST PUSH2 0x153E JUMP JUMPDEST PUSH1 0x40 MLOAD PUSH2 0x391 SWAP6 SWAP5 SWAP4 SWAP3 SWAP2 SWAP1 PUSH2 0x369A JUMP JUMPDEST PUSH1 0x40 MLOAD DUP1 SWAP2 SUB SWAP1 RETURN JUMPDEST PUSH2 0x3B4 PUSH1 0x4 DUP1 CALLDATASIZE SUB DUP2 ADD SWAP1 PUSH2 0x3AF SWAP2 SWAP1 PUSH2 0x36EB JUMP JUMPDEST PUSH2 0x18D5 JUMP JUMPDEST STOP JUMPDEST PUSH2 0x3D0 PUSH1 0x4 DUP1 CALLDATASIZE SUB DUP2 ADD SWAP1 PUSH2 0x3CB SWAP2 SWAP1 PUSH2 0x3028 JUMP JUMPDEST PUSH2 0x1AA0 JUMP JUMPDEST PUSH1 0x40 MLOAD PUSH2 0x3DD SWAP2 SWAP1 PUSH2 0x2FD4 JUMP JUMPDEST PUSH1 0x40 MLOAD DUP1 SWAP2 SUB SWAP1 RETURN JUMPDEST PUSH2 0x3EE PUSH2 0x1BA0 JUMP JUMPDEST PUSH1 0x40 MLOAD PUSH2 0x3FB SWAP2 SWAP1 PUSH2 0x3738 JUMP JUMPDEST PUSH1 0x40 MLOAD DUP1 SWAP2 SUB SWAP1 RETURN JUMPDEST PUSH2 0x41E PUSH1 0x4 DUP1 CALLDATASIZE SUB DUP2 ADD SWAP1 PUSH2 0x419 SWAP2 SWAP1 PUSH2 0x3028 JUMP JUMPDEST PUSH2 0x1BC7 JUMP JUMPDEST PUSH1 0x40 MLOAD PUSH2 0x430 SWAP7 SWAP6 SWAP5 SWAP4 SWAP3 SWAP2 SWAP1 PUSH2 0x376B JUMP JUMPDEST PUSH1 0x40 MLOAD DUP1 SWAP2 SUB SWAP1 RETURN JUMPDEST PUSH2 0x453 PUSH1 0x4 DUP1 CALLDATASIZE SUB DUP2 ADD SWAP1 PUSH2 0x44E SWAP2 SWAP1 PUSH2 0x3028 JUMP JUMPDEST PUSH2 0x1C37 JUMP JUMPDEST STOP JUMPDEST PUSH2 0x45D PUSH2 0x1ED2 JUMP JUMPDEST PUSH1 0x40 MLOAD PUSH2 0x46A SWAP2 SWAP1 PUSH2 0x2FD4 JUMP JUMPDEST PUSH1 0x40 MLOAD DUP1 SWAP2 SUB SWAP1 RETURN JUMPDEST PUSH2 0x48D PUSH1 0x4 DUP1 CALLDATASIZE SUB DUP2 ADD SWAP1 PUSH2 0x488 SWAP2 SWAP1 PUSH2 0x37CA JUMP JUMPDEST PUSH2 0x1ED9 JUMP JUMPDEST PUSH1 0x40 MLOAD PUSH2 0x49A SWAP2 SWAP1 PUSH2 0x37F5 JUMP JUMPDEST PUSH1 0x40 MLOAD DUP1 SWAP2 SUB SWAP1 RETURN JUMPDEST PUSH2 0x4BD PUSH1 0x4 DUP1 CALLDATASIZE SUB DUP2 ADD SWAP1 PUSH2 0x4B8 SWAP2 SWAP1 PUSH2 0x3028 JUMP JUMPDEST PUSH2 0x1EF6 JUMP JUMPDEST PUSH1 0x40 MLOAD PUSH2 0x4CA SWAP2 SWAP1 PUSH2 0x2FD4 JUMP JUMPDEST PUSH1 0x40 MLOAD DUP1 SWAP2 SUB SWAP1 RETURN JUMPDEST PUSH2 0x4ED PUSH1 0x4 DUP1 CALLDATASIZE SUB DUP2 ADD SWAP1 PUSH2 0x4E8 SWAP2 SWAP1 PUSH2 0x362E JUMP JUMPDEST PUSH2 0x2050 JUMP JUMPDEST STOP JUMPDEST PUSH2 0x509 PUSH1 0x4 DUP1 CALLDATASIZE SUB DUP2 ADD SWAP1 PUSH2 0x504 SWAP2 SWAP1 PUSH2 0x3028 JUMP JUMPDEST PUSH2 0x2605 JUMP JUMPDEST PUSH1 0x40 MLOAD PUSH2 0x516 SWAP2 SWAP1 PUSH2 0x2FD4 JUMP JUMPDEST PUSH1 0x40 MLOAD DUP1 SWAP2 SUB SWAP1 RETURN JUMPDEST PUSH2 0x527 PUSH2 0x275E JUMP JUMPDEST PUSH1 0x40 MLOAD PUSH2 0x534 SWAP2 SWAP1 PUSH2 0x2FD4 JUMP JUMPDEST PUSH1 0x40 MLOAD DUP1 SWAP2 SUB SWAP1 RETURN JUMPDEST PUSH2 0x557 PUSH1 0x4 DUP1 CALLDATASIZE SUB DUP2 ADD SWAP1 PUSH2 0x552 SWAP2 SWAP1 PUSH2 0x3028 JUMP JUMPDEST PUSH2 0x2764 JUMP JUMPDEST STOP JUMPDEST PUSH2 0x573 PUSH1 0x4 DUP1 CALLDATASIZE SUB DUP2 ADD SWAP1 PUSH2 0x56E SWAP2 SWAP1 PUSH2 0x38C0 JUMP JUMPDEST PUSH2 0x2909 JUMP JUMPDEST STOP JUMPDEST PUSH2 0x58F PUSH1 0x4 DUP1 CALLDATASIZE SUB DUP2 ADD SWAP1 PUSH2 0x58A SWAP2 SWAP1 PUSH2 0x37CA JUMP JUMPDEST PUSH2 0x2B4E JUMP JUMPDEST STOP JUMPDEST PUSH1 0x2 SLOAD DUP2 JUMP JUMPDEST PUSH0 DUP2 PUSH1 0x5 DUP2 GT ISZERO PUSH2 0x5DD JUMPI PUSH1 0x40 MLOAD PUSH32 0x8C379A000000000000000000000000000000000000000000000000000000000 DUP2 MSTORE PUSH1 0x4 ADD PUSH2 0x5D4 SWAP1 PUSH2 0x3959 JUMP JUMPDEST PUSH1 0x40 MLOAD DUP1 SWAP2 SUB SWAP1 REVERT JUMPDEST PUSH0 PUSH1 0x3 PUSH0 PUSH1 0x2 SLOAD DUP2 MSTORE PUSH1 0x20 ADD SWAP1 DUP2 MSTORE PUSH1 0x20 ADD PUSH0 KECCAK256 PUSH1 0x40 MLOAD DUP1 PUSH1 0x60 ADD PUSH1 0x40 MSTORE SWAP1 DUP2 PUSH0 DUP3 ADD PUSH1 0x6 DUP1 PUSH1 0x20 MUL PUSH1 0x40 MLOAD SWAP1 DUP2 ADD PUSH1 0x40 MSTORE DUP1 SWAP3 SWAP2 SWAP1 DUP3 PUSH1 0x6 DUP1 ISZERO PUSH2 0x637 JUMPI PUSH1 0x20 MUL DUP3 ADD SWAP2 JUMPDEST DUP2 SLOAD DUP2 MSTORE PUSH1 0x20 ADD SWAP1 PUSH1 0x1 ADD SWAP1 DUP1 DUP4 GT PUSH2 0x623 JUMPI JUMPDEST POP POP POP POP POP DUP2 MSTORE PUSH1 0x20 ADD PUSH1 0x6 DUP3 ADD PUSH1 0x6 DUP1 PUSH1 0x20 MUL PUSH1 0x40 MLOAD SWAP1 DUP2 ADD PUSH1 0x40 MSTORE DUP1 SWAP3 SWAP2 SWAP1 DUP3 PUSH1 0x6 DUP1 ISZERO PUSH2 0x67C JUMPI PUSH1 0x20 MUL DUP3 ADD SWAP2 JUMPDEST DUP2 SLOAD DUP2 MSTORE PUSH1 0x20 ADD SWAP1 PUSH1 0x1 ADD SWAP1 DUP1 DUP4 GT PUSH2 0x668 JUMPI JUMPDEST POP POP POP POP POP DUP2 MSTORE PUSH1 0x20 ADD PUSH1 0xC DUP3 ADD PUSH1 0x6 DUP1 PUSH1 0x20 MUL PUSH1 0x40 MLOAD SWAP1 DUP2 ADD PUSH1 0x40 MSTORE DUP1 SWAP3 SWAP2 SWAP1 DUP3 PUSH1 0x6 DUP1 ISZERO PUSH2 0x6C1 JUMPI PUSH1 0x20 MUL DUP3 ADD SWAP2 JUMPDEST DUP2 SLOAD DUP2 MSTORE PUSH1 0x20 ADD SWAP1 PUSH1 0x1 ADD SWAP1 DUP1 DUP4 GT PUSH2 0x6AD JUMPI JUMPDEST POP POP POP POP POP DUP2 MSTORE POP POP SWAP1 POP DUP1 PUSH1 0x40 ADD MLOAD DUP5 PUSH1 0x6 DUP2 LT PUSH2 0x6E3 JUMPI PUSH2 0x6E2 PUSH2 0x3977 JUMP JUMPDEST JUMPDEST PUSH1 0x20 MUL ADD MLOAD DUP2 PUSH1 0x20 ADD MLOAD DUP6 PUSH1 0x6 DUP2 LT PUSH2 0x6FF JUMPI PUSH2 0x6FE PUSH2 0x3977 JUMP JUMPDEST JUMPDEST PUSH1 0x20 MUL ADD MLOAD PUSH2 0x70E SWAP2 SWAP1 PUSH2 0x39D1 JUMP JUMPDEST SWAP3 POP POP POP SWAP2 SWAP1 POP JUMP JUMPDEST PUSH32 0x0 DUP2 JUMP JUMPDEST PUSH1 0x5 PUSH0 CALLER PUSH20 0xFFFFFFFFFFFFFFFFFFFFFFFFFFFFFFFFFFFFFFFF AND PUSH20 0xFFFFFFFFFFFFFFFFFFFFFFFFFFFFFFFFFFFFFFFF AND DUP2 MSTORE PUSH1 0x20 ADD SWAP1 DUP2 MSTORE PUSH1 0x20 ADD PUSH0 KECCAK256 PUSH0 SWAP1 SLOAD SWAP1 PUSH2 0x100 EXP SWAP1 DIV PUSH1 0xFF AND PUSH2 0x7C4 JUMPI PUSH1 0x40 MLOAD PUSH32 0x8C379A000000000000000000000000000000000000000000000000000000000 DUP2 MSTORE PUSH1 0x4 ADD PUSH2 0x7BB SWAP1 PUSH2 0x3A4E JUMP JUMPDEST PUSH1 0x40 MLOAD DUP1 SWAP2 SUB SWAP1 REVERT JUMPDEST PUSH0 DUP3 GT PUSH2 0x806 JUMPI PUSH1 0x40 MLOAD PUSH32 0x8C379A000000000000000000000000000000000000000000000000000000000 DUP2 MSTORE PUSH1 0x4 ADD PUSH2 0x7FD SWAP1 PUSH2 0x3AB6 JUMP JUMPDEST PUSH1 0x40 MLOAD DUP1 SWAP2 SUB SWAP1 REVERT JUMPDEST PUSH0 PUSH20 0xFFFFFFFFFFFFFFFFFFFFFFFFFFFFFFFFFFFFFFFF AND DUP2 PUSH20 0xFFFFFFFFFFFFFFFFFFFFFFFFFFFFFFFFFFFFFFFF AND SUB PUSH2 0x874 JUMPI PUSH1 0x40 MLOAD PUSH32 0x8C379A000000000000000000000000000000000000000000000000000000000 DUP2 MSTORE PUSH1 0x4 ADD PUSH2 0x86B SWAP1 PUSH2 0x3B1E JUMP JUMPDEST PUSH1 0x40 MLOAD DUP1 SWAP2 SUB SWAP1 REVERT JUMPDEST DUP2 PUSH32 0x0 PUSH20 0xFFFFFFFFFFFFFFFFFFFFFFFFFFFFFFFFFFFFFFFF AND PUSH4 0x70A08231 ADDRESS PUSH1 0x40 MLOAD DUP3 PUSH4 0xFFFFFFFF AND PUSH1 0xE0 SHL DUP2 MSTORE PUSH1 0x4 ADD PUSH2 0x8CE SWAP2 SWAP1 PUSH2 0x3738 JUMP JUMPDEST PUSH1 0x20 PUSH1 0x40 MLOAD DUP1 DUP4 SUB DUP2 DUP7 GAS STATICCALL ISZERO DUP1 ISZERO PUSH2 0x8E9 JUMPI RETURNDATASIZE PUSH0 PUSH0 RETURNDATACOPY RETURNDATASIZE PUSH0 REVERT JUMPDEST POP POP POP POP PUSH1 0x40 MLOAD RETURNDATASIZE PUSH1 0x1F NOT PUSH1 0x1F DUP3 ADD AND DUP3 ADD DUP1 PUSH1 0x40 MSTORE POP DUP2 ADD SWAP1 PUSH2 0x90D SWAP2 SWAP1 PUSH2 0x3B50 JUMP JUMPDEST LT ISZERO PUSH2 0x94E JUMPI PUSH1 0x40 MLOAD PUSH32 0x8C379A000000000000000000000000000000000000000000000000000000000 DUP2 MSTORE PUSH1 0x4 ADD PUSH2 0x945 SWAP1 PUSH2 0x3BC5 JUMP JUMPDEST PUSH1 0x40 MLOAD DUP1 SWAP2 SUB SWAP1 REVERT JUMPDEST PUSH0 PUSH1 0x8 PUSH0 DUP2 SLOAD DUP1 SWAP3 SWAP2 SWAP1 PUSH2 0x961 SWAP1 PUSH2 0x3BE3 JUMP JUMPDEST SWAP2 SWAP1 POP SSTORE SWAP1 POP PUSH0 PUSH1 0x7 PUSH0 DUP4 DUP2 MSTORE PUSH1 0x20 ADD SWAP1 DUP2 MSTORE PUSH1 0x20 ADD PUSH0 KECCAK256 SWAP1 POP DUP4 DUP2 PUSH0 ADD DUP2 SWAP1 SSTORE POP DUP3 DUP2 PUSH1 0x1 ADD PUSH0 PUSH2 0x100 EXP DUP2 SLOAD DUP2 PUSH20 0xFFFFFFFFFFFFFFFFFFFFFFFFFFFFFFFFFFFFFFFF MUL NOT AND SWAP1 DUP4 PUSH20 0xFFFFFFFFFFFFFFFFFFFFFFFFFFFFFFFFFFFFFFFF AND MUL OR SWAP1 SSTORE POP TIMESTAMP DUP2 PUSH1 0x2 ADD DUP2 SWAP1 SSTORE POP PUSH0 DUP2 PUSH1 0x3 ADD DUP2 SWAP1 SSTORE POP PUSH0 DUP2 PUSH1 0x5 ADD PUSH0 PUSH2 0x100 EXP DUP2 SLOAD DUP2 PUSH1 0xFF MUL NOT AND SWAP1 DUP4 ISZERO ISZERO MUL OR SWAP1 SSTORE POP PUSH0 DUP2 PUSH1 0x5 ADD PUSH1 0x1 PUSH2 0x100 EXP DUP2 SLOAD DUP2 PUSH1 0xFF MUL NOT AND SWAP1 DUP4 ISZERO ISZERO MUL OR SWAP1 SSTORE POP CALLER PUSH20 0xFFFFFFFFFFFFFFFFFFFFFFFFFFFFFFFFFFFFFFFF AND DUP3 PUSH32 0xDDFF8E72A79F7F23C3DE5BED3C8189AABC3C85DBA0B2F1AF299D96EEF93861B1 DUP7 DUP7 PUSH1 0x40 MLOAD PUSH2 0xA57 SWAP3 SWAP2 SWAP1 PUSH2 0x3C2A JUMP JUMPDEST PUSH1 0x40 MLOAD DUP1 SWAP2 SUB SWAP1 LOG3 POP POP POP POP JUMP JUMPDEST PUSH1 0x6 SLOAD DUP2 JUMP JUMPDEST PUSH0 PUSH1 0x7 PUSH0 DUP4 DUP2 MSTORE PUSH1 0x20 ADD SWAP1 DUP2 MSTORE PUSH1 0x20 ADD PUSH0 KECCAK256 SWAP1 POP DUP1 PUSH1 0x5 ADD PUSH0 SWAP1 SLOAD SWAP1 PUSH2 0x100 EXP SWAP1 DIV PUSH1 0xFF AND ISZERO PUSH2 0xAD0 JUMPI PUSH1 0x40 MLOAD PUSH32 0x8C379A000000000000000000000000000000000000000000000000000000000 DUP2 MSTORE PUSH1 0x4 ADD PUSH2 0xAC7 SWAP1 PUSH2 0x3C9B JUMP JUMPDEST PUSH1 0x40 MLOAD DUP1 SWAP2 SUB SWAP1 REVERT JUMPDEST DUP1 PUSH1 0x5 ADD PUSH1 0x1 SWAP1 SLOAD SWAP1 PUSH2 0x100 EXP SWAP1 DIV PUSH1 0xFF AND ISZERO PUSH2 0xB22 JUMPI PUSH1 0x40 MLOAD PUSH32 0x8C379A000000000000000000000000000000000000000000000000000000000 DUP2 MSTORE PUSH1 0x4 ADD PUSH2 0xB19 SWAP1 PUSH2 0x3D03 JUMP JUMPDEST PUSH1 0x40 MLOAD DUP1 SWAP2 SUB SWAP1 REVERT JUMPDEST PUSH3 0x93A80 DUP2 PUSH1 0x2 ADD SLOAD PUSH2 0xB35 SWAP2 SWAP1 PUSH2 0x3D21 JUMP JUMPDEST TIMESTAMP LT ISZERO PUSH2 0xB77 JUMPI PUSH1 0x40 MLOAD PUSH32 0x8C379A000000000000000000000000000000000000000000000000000000000 DUP2 MSTORE PUSH1 0x4 ADD PUSH2 0xB6E SWAP1 PUSH2 0x3D9E JUMP JUMPDEST PUSH1 0x40 MLOAD DUP1 SWAP2 SUB SWAP1 REVERT JUMPDEST PUSH2 0xB80 DUP3 PUSH2 0x2BD2 JUMP JUMPDEST POP POP JUMP JUMPDEST PUSH2 0xB8C PUSH2 0x2D3E JUMP JUMPDEST PUSH0 DUP5 MLOAD GT PUSH2 0xBCF JUMPI PUSH1 0x40 MLOAD PUSH32 0x8C379A000000000000000000000000000000000000000000000000000000000 DUP2 MSTORE PUSH1 0x4 ADD PUSH2 0xBC6 SWAP1 PUSH2 0x3E06 JUMP JUMPDEST PUSH1 0x40 MLOAD DUP1 SWAP2 SUB SWAP1 REVERT JUMPDEST PUSH0 PUSH20 0xFFFFFFFFFFFFFFFFFFFFFFFFFFFFFFFFFFFFFFFF AND DUP4 PUSH20 0xFFFFFFFFFFFFFFFFFFFFFFFFFFFFFFFFFFFFFFFF AND SUB PUSH2 0xC3D JUMPI PUSH1 0x40 MLOAD PUSH32 0x8C379A000000000000000000000000000000000000000000000000000000000 DUP2 MSTORE PUSH1 0x4 ADD PUSH2 0xC34 SWAP1 PUSH2 0x3E6E JUMP JUMPDEST PUSH1 0x40 MLOAD DUP1 SWAP2 SUB SWAP1 REVERT JUMPDEST PUSH1 0x1E DUP2 GT ISZERO PUSH2 0xC81 JUMPI PUSH1 0x40 MLOAD PUSH32 0x8C379A000000000000000000000000000000000000000000000000000000000 DUP2 MSTORE PUSH1 0x4 ADD PUSH2 0xC78 SWAP1 PUSH2 0x3ED6 JUMP JUMPDEST PUSH1 0x40 MLOAD DUP1 SWAP2 SUB SWAP1 REVERT JUMPDEST PUSH0 PUSH20 0xFFFFFFFFFFFFFFFFFFFFFFFFFFFFFFFFFFFFFFFF AND PUSH1 0x4 DUP6 PUSH1 0x40 MLOAD PUSH2 0xCA8 SWAP2 SWAP1 PUSH2 0x3F46 JUMP JUMPDEST SWAP1 DUP2 MSTORE PUSH1 0x20 ADD PUSH1 0x40 MLOAD DUP1 SWAP2 SUB SWAP1 KECCAK256 PUSH0 ADD PUSH0 SWAP1 SLOAD SWAP1 PUSH2 0x100 EXP SWAP1 DIV PUSH20 0xFFFFFFFFFFFFFFFFFFFFFFFFFFFFFFFFFFFFFFFF AND PUSH20 0xFFFFFFFFFFFFFFFFFFFFFFFFFFFFFFFFFFFFFFFF AND EQ PUSH2 0xD2E JUMPI PUSH1 0x40 MLOAD PUSH32 0x8C379A000000000000000000000000000000000000000000000000000000000 DUP2 MSTORE PUSH1 0x4 ADD PUSH2 0xD25 SWAP1 PUSH2 0x3FA6 JUMP JUMPDEST PUSH1 0x40 MLOAD DUP1 SWAP2 SUB SWAP1 REVERT JUMPDEST PUSH1 0x40 MLOAD DUP1 PUSH1 0xC0 ADD PUSH1 0x40 MSTORE DUP1 DUP5 PUSH20 0xFFFFFFFFFFFFFFFFFFFFFFFFFFFFFFFFFFFFFFFF AND DUP2 MSTORE PUSH1 0x20 ADD DUP4 PUSH20 0xFFFFFFFFFFFFFFFFFFFFFFFFFFFFFFFFFFFFFFFF AND DUP2 MSTORE PUSH1 0x20 ADD DUP3 DUP2 MSTORE PUSH1 0x20 ADD PUSH1 0x40 MLOAD DUP1 PUSH1 0xC0 ADD PUSH1 0x40 MSTORE DUP1 PUSH0 DUP2 MSTORE PUSH1 0x20 ADD PUSH0 DUP2 MSTORE PUSH1 0x20 ADD PUSH0 DUP2 MSTORE PUSH1 0x20 ADD PUSH0 DUP2 MSTORE PUSH1 0x20 ADD PUSH0 DUP2 MSTORE PUSH1 0x20 ADD PUSH0 DUP2 MSTORE POP DUP2 MSTORE PUSH1 0x20 ADD PUSH0 DUP2 MSTORE PUSH1 0x20 ADD PUSH0 DUP2 MSTORE POP PUSH1 0x4 DUP6 PUSH1 0x40 MLOAD PUSH2 0xDC3 SWAP2 SWAP1 PUSH2 0x3F46 JUMP JUMPDEST SWAP1 DUP2 MSTORE PUSH1 0x20 ADD PUSH1 0x40 MLOAD DUP1 SWAP2 SUB SWAP1 KECCAK256 PUSH0 DUP3 ADD MLOAD DUP2 PUSH0 ADD PUSH0 PUSH2 0x100 EXP DUP2 SLOAD DUP2 PUSH20 0xFFFFFFFFFFFFFFFFFFFFFFFFFFFFFFFFFFFFFFFF MUL NOT AND SWAP1 DUP4 PUSH20 0xFFFFFFFFFFFFFFFFFFFFFFFFFFFFFFFFFFFFFFFF AND MUL OR SWAP1 SSTORE POP PUSH1 0x20 DUP3 ADD MLOAD DUP2 PUSH1 0x1 ADD PUSH0 PUSH2 0x100 EXP DUP2 SLOAD DUP2 PUSH20 0xFFFFFFFFFFFFFFFFFFFFFFFFFFFFFFFFFFFFFFFF MUL NOT AND SWAP1 DUP4 PUSH20 0xFFFFFFFFFFFFFFFFFFFFFFFFFFFFFFFFFFFFFFFF AND MUL OR SWAP1 SSTORE POP PUSH1 0x40 DUP3 ADD MLOAD DUP2 PUSH1 0x2 ADD SSTORE PUSH1 0x60 DUP3 ADD MLOAD DUP2 PUSH1 0x3 ADD SWAP1 PUSH1 0x6 PUSH2 0xE7C SWAP3 SWAP2 SWAP1 PUSH2 0x2EDC JUMP JUMPDEST POP PUSH1 0x80 DUP3 ADD MLOAD DUP2 PUSH1 0x9 ADD SSTORE PUSH1 0xA0 DUP3 ADD MLOAD DUP2 PUSH1 0xA ADD SSTORE SWAP1 POP POP POP POP POP POP JUMP JUMPDEST PUSH0 PUSH0 PUSH0 PUSH0 PUSH2 0xEA9 DUP14 DUP14 DUP14 PUSH2 0x153E JUMP JUMPDEST SWAP5 POP SWAP5 POP SWAP5 POP POP SWAP4 POP PUSH32 0x0 PUSH20 0xFFFFFFFFFFFFFFFFFFFFFFFFFFFFFFFFFFFFFFFF AND PUSH4 0xE3EE160E CALLER ADDRESS DUP8 DUP15 DUP15 DUP15 DUP15 DUP15 DUP15 PUSH1 0x40 MLOAD DUP11 PUSH4 0xFFFFFFFF AND PUSH1 0xE0 SHL DUP2 MSTORE PUSH1 0x4 ADD PUSH2 0xF1B SWAP10 SWAP9 SWAP8 SWAP7 SWAP6 SWAP5 SWAP4 SWAP3 SWAP2 SWAP1 PUSH2 0x3FE2 JUMP JUMPDEST PUSH1 0x20 PUSH1 0x40 MLOAD DUP1 DUP4 SUB DUP2 PUSH0 DUP8 GAS CALL ISZERO DUP1 ISZERO PUSH2 0xF37 JUMPI RETURNDATASIZE PUSH0 PUSH0 RETURNDATACOPY RETURNDATASIZE PUSH0 REVERT JUMPDEST POP POP POP POP PUSH1 0x40 MLOAD RETURNDATASIZE PUSH1 0x1F NOT PUSH1 0x1F DUP3 ADD AND DUP3 ADD DUP1 PUSH1 0x40 MSTORE POP DUP2 ADD SWAP1 PUSH2 0xF5B SWAP2 SWAP1 PUSH2 0x4097 JUMP JUMPDEST POP PUSH0 DUP12 MLOAD GT ISZERO PUSH2 0xFE9 JUMPI PUSH0 PUSH1 0x4 DUP13 PUSH1 0x40 MLOAD PUSH2 0xF76 SWAP2 SWAP1 PUSH2 0x3F46 JUMP JUMPDEST SWAP1 DUP2 MSTORE PUSH1 0x20 ADD PUSH1 0x40 MLOAD DUP1 SWAP2 SUB SWAP1 KECCAK256 SWAP1 POP DUP13 DUP2 PUSH1 0x3 ADD DUP16 PUSH1 0x6 DUP2 LT PUSH2 0xF9D JUMPI PUSH2 0xF9C PUSH2 0x3977 JUMP JUMPDEST JUMPDEST ADD PUSH0 DUP3 DUP3 SLOAD PUSH2 0xFAC SWAP2 SWAP1 PUSH2 0x3D21 JUMP JUMPDEST SWAP3 POP POP DUP2 SWAP1 SSTORE POP DUP4 DUP2 PUSH1 0x9 ADD PUSH0 DUP3 DUP3 SLOAD PUSH2 0xFC6 SWAP2 SWAP1 PUSH2 0x3D21 JUMP JUMPDEST SWAP3 POP POP DUP2 SWAP1 SSTORE POP DUP2 DUP2 PUSH1 0xA ADD PUSH0 DUP3 DUP3 SLOAD PUSH2 0xFE0 SWAP2 SWAP1 PUSH2 0x3D21 JUMP JUMPDEST SWAP3 POP POP DUP2 SWAP1 SSTORE POP POP JUMPDEST DUP12 PUSH1 0x3 PUSH0 PUSH1 0x2 SLOAD DUP2 MSTORE PUSH1 0x20 ADD SWAP1 DUP2 MSTORE PUSH1 0x20 ADD PUSH0 KECCAK256 PUSH1 0xC ADD DUP15 PUSH1 0x6 DUP2 LT PUSH2 0x1012 JUMPI PUSH2 0x1011 PUSH2 0x3977 JUMP JUMPDEST JUMPDEST ADD PUSH0 DUP3 DUP3 SLOAD PUSH2 0x1021 SWAP2 SWAP1 PUSH2 0x3D21 JUMP JUMPDEST SWAP3 POP POP DUP2 SWAP1 SSTORE POP PUSH32 0x0 PUSH20 0xFFFFFFFFFFFFFFFFFFFFFFFFFFFFFFFFFFFFFFFF AND PUSH4 0x156E29F6 CALLER DUP16 DUP16 PUSH1 0x40 MLOAD DUP5 PUSH4 0xFFFFFFFF AND PUSH1 0xE0 SHL DUP2 MSTORE PUSH1 0x4 ADD PUSH2 0x1085 SWAP4 SWAP3 SWAP2 SWAP1 PUSH2 0x40C2 JUMP JUMPDEST PUSH0 PUSH1 0x40 MLOAD DUP1 DUP4 SUB DUP2 PUSH0 DUP8 DUP1 EXTCODESIZE ISZERO DUP1 ISZERO PUSH2 0x109C JUMPI PUSH0 PUSH0 REVERT JUMPDEST POP GAS CALL ISZERO DUP1 ISZERO PUSH2 0x10AE JUMPI RETURNDATASIZE PUSH0 PUSH0 RETURNDATACOPY RETURNDATASIZE PUSH0 REVERT JUMPDEST POP POP POP POP DUP13 CALLER PUSH20 0xFFFFFFFFFFFFFFFFFFFFFFFFFFFFFFFFFFFFFFFF AND PUSH32 0x7BC3DDF0BF2ADA973906C61001CD8F787646720BB7DA90229E5BF81FA71BAB6D DUP15 DUP8 PUSH1 0x40 MLOAD PUSH2 0x10FB SWAP3 SWAP2 SWAP1 PUSH2 0x40F7 JUMP JUMPDEST PUSH1 0x40 MLOAD DUP1 SWAP2 SUB SWAP1 LOG3 POP POP POP POP POP POP POP POP POP POP POP POP POP JUMP JUMPDEST PUSH32 0x0 DUP2 JUMP JUMPDEST PUSH0 DUP2 PUSH1 0x5 DUP2 GT ISZERO PUSH2 0x117C JUMPI PUSH1 0x40 MLOAD PUSH32 0x8C379A000000000000000000000000000000000000000000000000000000000 DUP2 MSTORE PUSH1 0x4 ADD PUSH2 0x1173 SWAP1 PUSH2 0x3959 JUMP JUMPDEST PUSH1 0x40 MLOAD DUP1 SWAP2 SUB SWAP1 REVERT JUMPDEST PUSH0 PUSH1 0x3 PUSH0 PUSH1 0x2 SLOAD DUP2 MSTORE PUSH1 0x20 ADD SWAP1 DUP2 MSTORE PUSH1 0x20 ADD PUSH0 KECCAK256 PUSH1 0x40 MLOAD DUP1 PUSH1 0x60 ADD PUSH1 0x40 MSTORE SWAP1 DUP2 PUSH0 DUP3 ADD PUSH1 0x6 DUP1 PUSH1 0x20 MUL PUSH1 0x40 MLOAD SWAP1 DUP2 ADD PUSH1 0x40 MSTORE DUP1 SWAP3 SWAP2 SWAP1 DUP3 PUSH1 0x6 DUP1 ISZERO PUSH2 0x11D6 JUMPI PUSH1 0x20 MUL DUP3 ADD SWAP2 JUMPDEST DUP2 SLOAD DUP2 MSTORE PUSH1 0x20 ADD SWAP1 PUSH1 0x1 ADD SWAP1 DUP1 DUP4 GT PUSH2 0x11C2 JUMPI JUMPDEST POP POP POP POP POP DUP2 MSTORE PUSH1 0x20 ADD PUSH1 0x6 DUP3 ADD PUSH1 0x6 DUP1 PUSH1 0x20 MUL PUSH1 0x40 MLOAD SWAP1 DUP2 ADD PUSH1 0x40 MSTORE DUP1 SWAP3 SWAP2 SWAP1 DUP3 PUSH1 0x6 DUP1 ISZERO PUSH2 0x121B JUMPI PUSH1 0x20 MUL DUP3 ADD SWAP2 JUMPDEST DUP2 SLOAD DUP2 MSTORE PUSH1 0x20 ADD SWAP1 PUSH1 0x1 ADD SWAP1 DUP1 DUP4 GT PUSH2 0x1207 JUMPI JUMPDEST POP POP POP POP POP DUP2 MSTORE PUSH1 0x20 ADD PUSH1 0xC DUP3 ADD PUSH1 0x6 DUP1 PUSH1 0x20 MUL PUSH1 0x40 MLOAD SWAP1 DUP2 ADD PUSH1 0x40 MSTORE DUP1 SWAP3 SWAP2 SWAP1 DUP3 PUSH1 0x6 DUP1 ISZERO PUSH2 0x1260 JUMPI PUSH1 0x20 MUL DUP3 ADD SWAP2 JUMPDEST DUP2 SLOAD DUP2 MSTORE PUSH1 0x20 ADD SWAP1 PUSH1 0x1 ADD SWAP1 DUP1 DUP4 GT PUSH2 0x124C JUMPI JUMPDEST POP POP POP POP POP DUP2 MSTORE POP POP SWAP1 POP DUP1 PUSH1 0x20 ADD MLOAD DUP5 PUSH1 0x6 DUP2 LT PUSH2 0x1282 JUMPI PUSH2 0x1281 PUSH2 0x3977 JUMP JUMPDEST JUMPDEST PUSH1 0x20 MUL ADD MLOAD SWAP3 POP POP POP SWAP2 SWAP1 POP JUMP JUMPDEST PUSH2 0x1298 PUSH2 0x2F1C JUMP JUMPDEST PUSH0 DUP3 MLOAD GT PUSH2 0x12DB JUMPI PUSH1 0x40 MLOAD PUSH32 0x8C379A000000000000000000000000000000000000000000000000000000000 DUP2 MSTORE PUSH1 0x4 ADD PUSH2 0x12D2 SWAP1 PUSH2 0x4168 JUMP JUMPDEST PUSH1 0x40 MLOAD DUP1 SWAP2 SUB SWAP1 REVERT JUMPDEST PUSH0 PUSH1 0x4 DUP4 PUSH1 0x40 MLOAD PUSH2 0x12EC SWAP2 SWAP1 PUSH2 0x3F46 JUMP JUMPDEST SWAP1 DUP2 MSTORE PUSH1 0x20 ADD PUSH1 0x40 MLOAD DUP1 SWAP2 SUB SWAP1 KECCAK256 PUSH1 0x40 MLOAD DUP1 PUSH1 0xC0 ADD PUSH1 0x40 MSTORE SWAP1 DUP2 PUSH0 DUP3 ADD PUSH0 SWAP1 SLOAD SWAP1 PUSH2 0x100 EXP SWAP1 DIV PUSH20 0xFFFFFFFFFFFFFFFFFFFFFFFFFFFFFFFFFFFFFFFF AND PUSH20 0xFFFFFFFFFFFFFFFFFFFFFFFFFFFFFFFFFFFFFFFF AND PUSH20 0xFFFFFFFFFFFFFFFFFFFFFFFFFFFFFFFFFFFFFFFF AND DUP2 MSTORE PUSH1 0x20 ADD PUSH1 0x1 DUP3 ADD PUSH0 SWAP1 SLOAD SWAP1 PUSH2 0x100 EXP SWAP1 DIV PUSH20 0xFFFFFFFFFFFFFFFFFFFFFFFFFFFFFFFFFFFFFFFF AND PUSH20 0xFFFFFFFFFFFFFFFFFFFFFFFFFFFFFFFFFFFFFFFF AND PUSH20 0xFFFFFFFFFFFFFFFFFFFFFFFFFFFFFFFFFFFFFFFF AND DUP2 MSTORE PUSH1 0x20 ADD PUSH1 0x2 DUP3 ADD SLOAD DUP2 MSTORE PUSH1 0x20 ADD PUSH1 0x3 DUP3 ADD PUSH1 0x6 DUP1 PUSH1 0x20 MUL PUSH1 0x40 MLOAD SWAP1 DUP2 ADD PUSH1 0x40 MSTORE DUP1 SWAP3 SWAP2 SWAP1 DUP3 PUSH1 0x6 DUP1 ISZERO PUSH2 0x13F4 JUMPI PUSH1 0x20 MUL DUP3 ADD SWAP2 JUMPDEST DUP2 SLOAD DUP2 MSTORE PUSH1 0x20 ADD SWAP1 PUSH1 0x1 ADD SWAP1 DUP1 DUP4 GT PUSH2 0x13E0 JUMPI JUMPDEST POP POP POP POP POP DUP2 MSTORE PUSH1 0x20 ADD PUSH1 0x9 DUP3 ADD SLOAD DUP2 MSTORE PUSH1 0x20 ADD PUSH1 0xA DUP3 ADD SLOAD DUP2 MSTORE POP POP SWAP1 POP PUSH0 PUSH20 0xFFFFFFFFFFFFFFFFFFFFFFFFFFFFFFFFFFFFFFFF AND DUP2 PUSH0 ADD MLOAD PUSH20 0xFFFFFFFFFFFFFFFFFFFFFFFFFFFFFFFFFFFFFFFF AND SUB PUSH2 0x1484 JUMPI PUSH1 0x40 MLOAD PUSH32 0x8C379A000000000000000000000000000000000000000000000000000000000 DUP2 MSTORE PUSH1 0x4 ADD PUSH2 0x147B SWAP1 PUSH2 0x41D0 JUMP JUMPDEST PUSH1 0x40 MLOAD DUP1 SWAP2 SUB SWAP1 REVERT JUMPDEST DUP1 SWAP2 POP POP SWAP2 SWAP1 POP JUMP JUMPDEST PUSH0 PUSH32 0x0 PUSH20 0xFFFFFFFFFFFFFFFFFFFFFFFFFFFFFFFFFFFFFFFF AND PUSH4 0x70A08231 ADDRESS PUSH1 0x40 MLOAD DUP3 PUSH4 0xFFFFFFFF AND PUSH1 0xE0 SHL DUP2 MSTORE PUSH1 0x4 ADD PUSH2 0x14E7 SWAP2 SWAP1 PUSH2 0x3738 JUMP JUMPDEST PUSH1 0x20 PUSH1 0x40 MLOAD DUP1 DUP4 SUB DUP2 DUP7 GAS STATICCALL ISZERO DUP1 ISZERO PUSH2 0x1502 JUMPI RETURNDATASIZE PUSH0 PUSH0 RETURNDATACOPY RETURNDATASIZE PUSH0 REVERT JUMPDEST POP POP POP POP PUSH1 0x40 MLOAD RETURNDATASIZE PUSH1 0x1F NOT PUSH1 0x1F DUP3 ADD AND DUP3 ADD DUP1 PUSH1 0x40 MSTORE POP DUP2 ADD SWAP1 PUSH2 0x1526 SWAP2 SWAP1 PUSH2 0x3B50 JUMP JUMPDEST SWAP1 POP SWAP1 JUMP JUMPDEST PUSH2 0x1533 PUSH2 0x2D3E JUMP JUMPDEST PUSH2 0x153C PUSH0 PUSH2 0x2DC5 JUMP JUMPDEST JUMP JUMPDEST PUSH0 PUSH0 PUSH0 PUSH0 PUSH0 DUP8 PUSH1 0x5 DUP2 GT ISZERO PUSH2 0x1588 JUMPI PUSH1 0x40 MLOAD PUSH32 0x8C379A000000000000000000000000000000000000000000000000000000000 DUP2 MSTORE PUSH1 0x4 ADD PUSH2 0x157F SWAP1 PUSH2 0x3959 JUMP JUMPDEST PUSH1 0x40 MLOAD DUP1 SWAP2 SUB SWAP1 REVERT JUMPDEST PUSH0 DUP9 GT PUSH2 0x15CA JUMPI PUSH1 0x40 MLOAD PUSH32 0x8C379A000000000000000000000000000000000000000000000000000000000 DUP2 MSTORE PUSH1 0x4 ADD PUSH2 0x15C1 SWAP1 PUSH2 0x3AB6 JUMP JUMPDEST PUSH1 0x40 MLOAD DUP1 SWAP2 SUB SWAP1 REVERT JUMPDEST PUSH0 PUSH2 0x15D4 DUP11 PUSH2 0x597 JUMP JUMPDEST GT PUSH2 0x1614 JUMPI PUSH1 0x40 MLOAD PUSH32 0x8C379A000000000000000000000000000000000000000000000000000000000 DUP2 MSTORE PUSH1 0x4 ADD PUSH2 0x160B SWAP1 PUSH2 0x4238 JUMP JUMPDEST PUSH1 0x40 MLOAD DUP1 SWAP2 SUB SWAP1 REVERT JUMPDEST DUP8 PUSH2 0x161E DUP11 PUSH2 0x597 JUMP JUMPDEST LT ISZERO PUSH2 0x165F JUMPI PUSH1 0x40 MLOAD PUSH32 0x8C379A000000000000000000000000000000000000000000000000000000000 DUP2 MSTORE PUSH1 0x4 ADD PUSH2 0x1656 SWAP1 PUSH2 0x42A0 JUMP JUMPDEST PUSH1 0x40 MLOAD DUP1 SWAP2 SUB SWAP1 REVERT JUMPDEST DUP8 PUSH2 0x1669 DUP11 PUSH2 0x2605 JUMP JUMPDEST PUSH2 0x1673 SWAP2 SWAP1 PUSH2 0x42BE JUMP JUMPDEST SWAP6 POP PUSH0 SWAP5 POP PUSH0 SWAP4 POP PUSH0 SWAP3 POP PUSH0 DUP8 MLOAD GT ISZERO PUSH2 0x18A2 JUMPI PUSH0 PUSH1 0x4 DUP9 PUSH1 0x40 MLOAD PUSH2 0x1698 SWAP2 SWAP1 PUSH2 0x3F46 JUMP JUMPDEST SWAP1 DUP2 MSTORE PUSH1 0x20 ADD PUSH1 0x40 MLOAD DUP1 SWAP2 SUB SWAP1 KECCAK256 SWAP1 POP PUSH0 PUSH20 0xFFFFFFFFFFFFFFFFFFFFFFFFFFFFFFFFFFFFFFFF AND DUP2 PUSH0 ADD PUSH0 SWAP1 SLOAD SWAP1 PUSH2 0x100 EXP SWAP1 DIV PUSH20 0xFFFFFFFFFFFFFFFFFFFFFFFFFFFFFFFFFFFFFFFF AND PUSH20 0xFFFFFFFFFFFFFFFFFFFFFFFFFFFFFFFFFFFFFFFF AND SUB PUSH2 0x1738 JUMPI PUSH1 0x40 MLOAD PUSH32 0x8C379A000000000000000000000000000000000000000000000000000000000 DUP2 MSTORE PUSH1 0x4 ADD PUSH2 0x172F SWAP1 PUSH2 0x41D0 JUMP JUMPDEST PUSH1 0x40 MLOAD DUP1 SWAP2 SUB SWAP1 REVERT JUMPDEST PUSH1 0x19 DUP2 PUSH1 0x2 ADD SLOAD GT ISZERO DUP1 PUSH2 0x1799 JUMPI POP CALLER PUSH20 0xFFFFFFFFFFFFFFFFFFFFFFFFFFFFFFFFFFFFFFFF AND DUP2 PUSH0 ADD PUSH0 SWAP1 SLOAD SWAP1 PUSH2 0x100 EXP SWAP1 DIV PUSH20 0xFFFFFFFFFFFFFFFFFFFFFFFFFFFFFFFFFFFFFFFF AND PUSH20 0xFFFFFFFFFFFFFFFFFFFFFFFFFFFFFFFFFFFFFFFF AND EQ JUMPDEST PUSH2 0x17D8 JUMPI PUSH1 0x40 MLOAD PUSH32 0x8C379A000000000000000000000000000000000000000000000000000000000 DUP2 MSTORE PUSH1 0x4 ADD PUSH2 0x17CF SWAP1 PUSH2 0x4349 JUMP JUMPDEST PUSH1 0x40 MLOAD DUP1 SWAP2 SUB SWAP1 REVERT JUMPDEST PUSH1 0x19 DUP2 PUSH1 0x2 ADD SLOAD LT ISZERO PUSH2 0x1882 JUMPI PUSH1 0x64 DUP2 PUSH1 0x2 ADD SLOAD PUSH1 0x19 PUSH2 0x17F8 SWAP2 SWAP1 PUSH2 0x39D1 JUMP JUMPDEST DUP9 PUSH2 0x1803 SWAP2 SWAP1 PUSH2 0x42BE JUMP JUMPDEST PUSH2 0x180D SWAP2 SWAP1 PUSH2 0x4394 JUMP JUMPDEST SWAP5 POP PUSH0 PUSH20 0xFFFFFFFFFFFFFFFFFFFFFFFFFFFFFFFFFFFFFFFF AND DUP2 PUSH1 0x1 ADD PUSH0 SWAP1 SLOAD SWAP1 PUSH2 0x100 EXP SWAP1 DIV PUSH20 0xFFFFFFFFFFFFFFFFFFFFFFFFFFFFFFFFFFFFFFFF AND PUSH20 0xFFFFFFFFFFFFFFFFFFFFFFFFFFFFFFFFFFFFFFFF AND EQ PUSH2 0x1881 JUMPI PUSH1 0x64 PUSH1 0x5 DUP9 PUSH2 0x1874 SWAP2 SWAP1 PUSH2 0x42BE JUMP JUMPDEST PUSH2 0x187E SWAP2 SWAP1 PUSH2 0x4394 JUMP JUMPDEST SWAP4 POP JUMPDEST JUMPDEST PUSH1 0x64 DUP2 PUSH1 0x2 ADD SLOAD DUP9 PUSH2 0x1894 SWAP2 SWAP1 PUSH2 0x42BE JUMP JUMPDEST PUSH2 0x189E SWAP2 SWAP1 PUSH2 0x4394 JUMP JUMPDEST SWAP6 POP POP JUMPDEST DUP5 DUP7 PUSH2 0x18AE SWAP2 SWAP1 PUSH2 0x39D1 JUMP JUMPDEST SWAP6 POP DUP3 DUP5 DUP8 PUSH2 0x18BD SWAP2 SWAP1 PUSH2 0x39D1 JUMP JUMPDEST PUSH2 0x18C7 SWAP2 SWAP1 PUSH2 0x39D1 JUMP JUMPDEST SWAP2 POP POP SWAP4 SWAP8 SWAP3 SWAP7 POP SWAP4 POP SWAP4 POP JUMP JUMPDEST PUSH2 0x18DD PUSH2 0x2D3E JUMP JUMPDEST DUP2 PUSH1 0x5 DUP2 GT ISZERO PUSH2 0x1922 JUMPI PUSH1 0x40 MLOAD PUSH32 0x8C379A000000000000000000000000000000000000000000000000000000000 DUP2 MSTORE PUSH1 0x4 ADD PUSH2 0x1919 SWAP1 PUSH2 0x3959 JUMP JUMPDEST PUSH1 0x40 MLOAD DUP1 SWAP2 SUB SWAP1 REVERT JUMPDEST PUSH0 PUSH1 0x2 SLOAD GT PUSH2 0x1966 JUMPI PUSH1 0x40 MLOAD PUSH32 0x8C379A000000000000000000000000000000000000000000000000000000000 DUP2 MSTORE PUSH1 0x4 ADD PUSH2 0x195D SWAP1 PUSH2 0x440E JUMP JUMPDEST PUSH1 0x40 MLOAD DUP1 SWAP2 SUB SWAP1 REVERT JUMPDEST PUSH0 PUSH1 0x3 PUSH0 PUSH1 0x2 SLOAD DUP2 MSTORE PUSH1 0x20 ADD SWAP1 DUP2 MSTORE PUSH1 0x20 ADD PUSH0 KECCAK256 SWAP1 POP DUP1 PUSH1 0xC ADD DUP5 PUSH1 0x6 DUP2 LT PUSH2 0x1992 JUMPI PUSH2 0x1991 PUSH2 0x3977 JUMP JUMPDEST JUMPDEST ADD SLOAD DUP4 LT ISZERO PUSH2 0x19D6 JUMPI PUSH1 0x40 MLOAD PUSH32 0x8C379A000000000000000000000000000000000000000000000000000000000 DUP2 MSTORE PUSH1 0x4 ADD PUSH2 0x19CD SWAP1 PUSH2 0x449C JUMP JUMPDEST PUSH1 0x40 MLOAD DUP1 SWAP2 SUB SWAP1 REVERT JUMPDEST PUSH2 0x19DF DUP5 PUSH2 0x1AA0 JUMP JUMPDEST DUP2 PUSH1 0xC ADD DUP6 PUSH1 0x6 DUP2 LT PUSH2 0x19F5 JUMPI PUSH2 0x19F4 PUSH2 0x3977 JUMP JUMPDEST JUMPDEST ADD SLOAD DUP5 PUSH2 0x1A02 SWAP2 SWAP1 PUSH2 0x39D1 JUMP JUMPDEST GT ISZERO PUSH2 0x1A43 JUMPI PUSH1 0x40 MLOAD PUSH32 0x8C379A000000000000000000000000000000000000000000000000000000000 DUP2 MSTORE PUSH1 0x4 ADD PUSH2 0x1A3A SWAP1 PUSH2 0x452A JUMP JUMPDEST PUSH1 0x40 MLOAD DUP1 SWAP2 SUB SWAP1 REVERT JUMPDEST DUP3 DUP2 PUSH1 0x6 ADD DUP6 PUSH1 0x6 DUP2 LT PUSH2 0x1A5A JUMPI PUSH2 0x1A59 PUSH2 0x3977 JUMP JUMPDEST JUMPDEST ADD DUP2 SWAP1 SSTORE POP DUP4 PUSH1 0x2 SLOAD PUSH32 0x8E070AE3A2DE4465C368F672C2324B17B4EC062510FE99BE064DF3727AFF1379 DUP6 PUSH1 0x40 MLOAD PUSH2 0x1A92 SWAP2 SWAP1 PUSH2 0x2FD4 JUMP JUMPDEST PUSH1 0x40 MLOAD DUP1 SWAP2 SUB SWAP1 LOG3 POP POP POP POP JUMP JUMPDEST PUSH0 DUP2 PUSH1 0x5 DUP2 GT ISZERO PUSH2 0x1AE6 JUMPI PUSH1 0x40 MLOAD PUSH32 0x8C379A000000000000000000000000000000000000000000000000000000000 DUP2 MSTORE PUSH1 0x4 ADD PUSH2 0x1ADD SWAP1 PUSH2 0x3959 JUMP JUMPDEST PUSH1 0x40 MLOAD DUP1 SWAP2 SUB SWAP1 REVERT JUMPDEST PUSH0 PUSH0 PUSH32 0x0 PUSH20 0xFFFFFFFFFFFFFFFFFFFFFFFFFFFFFFFFFFFFFFFF AND PUSH4 0x39AF9EB DUP7 PUSH1 0x40 MLOAD DUP3 PUSH4 0xFFFFFFFF AND PUSH1 0xE0 SHL DUP2 MSTORE PUSH1 0x4 ADD PUSH2 0x1B41 SWAP2 SWAP1 PUSH2 0x2FD4 JUMP JUMPDEST PUSH0 PUSH1 0x40 MLOAD DUP1 DUP4 SUB DUP2 DUP7 GAS STATICCALL ISZERO DUP1 ISZERO PUSH2 0x1B5B JUMPI RETURNDATASIZE PUSH0 PUSH0 RETURNDATACOPY RETURNDATASIZE PUSH0 REVERT JUMPDEST POP POP POP POP PUSH1 0x40 MLOAD RETURNDATASIZE PUSH0 DUP3 RETURNDATACOPY RETURNDATASIZE PUSH1 0x1F NOT PUSH1 0x1F DUP3 ADD AND DUP3 ADD DUP1 PUSH1 0x40 MSTORE POP DUP2 ADD SWAP1 PUSH2 0x1B83 SWAP2 SWAP1 PUSH2 0x45B6 JUMP JUMPDEST POP SWAP4 POP SWAP4 POP POP POP DUP1 DUP3 PUSH2 0x1B96 SWAP2 SWAP1 PUSH2 0x39D1 JUMP JUMPDEST SWAP4 POP POP POP POP SWAP2 SWAP1 POP JUMP JUMPDEST PUSH0 PUSH0 PUSH0 SWAP1 SLOAD SWAP1 PUSH2 0x100 EXP SWAP1 DIV PUSH20 0xFFFFFFFFFFFFFFFFFFFFFFFFFFFFFFFFFFFFFFFF AND SWAP1 POP SWAP1 JUMP JUMPDEST PUSH1 0x7 PUSH1 0x20 MSTORE DUP1 PUSH0 MSTORE PUSH1 0x40 PUSH0 KECCAK256 PUSH0 SWAP2 POP SWAP1 POP DUP1 PUSH0 ADD SLOAD SWAP1 DUP1 PUSH1 0x1 ADD PUSH0 SWAP1 SLOAD SWAP1 PUSH2 0x100 EXP SWAP1 DIV PUSH20 0xFFFFFFFFFFFFFFFFFFFFFFFFFFFFFFFFFFFFFFFF AND SWAP1 DUP1 PUSH1 0x2 ADD SLOAD SWAP1 DUP1 PUSH1 0x3 ADD SLOAD SWAP1 DUP1 PUSH1 0x5 ADD PUSH0 SWAP1 SLOAD SWAP1 PUSH2 0x100 EXP SWAP1 DIV PUSH1 0xFF AND SWAP1 DUP1 PUSH1 0x5 ADD PUSH1 0x1 SWAP1 SLOAD SWAP1 PUSH2 0x100 EXP SWAP1 DIV PUSH1 0xFF AND SWAP1 POP DUP7 JUMP JUMPDEST PUSH1 0x5 PUSH0 CALLER PUSH20 0xFFFFFFFFFFFFFFFFFFFFFFFFFFFFFFFFFFFFFFFF AND PUSH20 0xFFFFFFFFFFFFFFFFFFFFFFFFFFFFFFFFFFFFFFFF AND DUP2 MSTORE PUSH1 0x20 ADD SWAP1 DUP2 MSTORE PUSH1 0x20 ADD PUSH0 KECCAK256 PUSH0 SWAP1 SLOAD SWAP1 PUSH2 0x100 EXP SWAP1 DIV PUSH1 0xFF AND PUSH2 0x1CC0 JUMPI PUSH1 0x40 MLOAD PUSH32 0x8C379A000000000000000000000000000000000000000000000000000000000 DUP2 MSTORE PUSH1 0x4 ADD PUSH2 0x1CB7 SWAP1 PUSH2 0x3A4E JUMP JUMPDEST PUSH1 0x40 MLOAD DUP1 SWAP2 SUB SWAP1 REVERT JUMPDEST PUSH0 PUSH1 0x7 PUSH0 DUP4 DUP2 MSTORE PUSH1 0x20 ADD SWAP1 DUP2 MSTORE PUSH1 0x20 ADD PUSH0 KECCAK256 SWAP1 POP DUP1 PUSH1 0x5 ADD PUSH0 SWAP1 SLOAD SWAP1 PUSH2 0x100 EXP SWAP1 DIV PUSH1 0xFF AND ISZERO PUSH2 0x1D25 JUMPI PUSH1 0x40 MLOAD PUSH32 0x8C379A000000000000000000000000000000000000000000000000000000000 DUP2 MSTORE PUSH1 0x4 ADD PUSH2 0x1D1C SWAP1 PUSH2 0x3C9B JUMP JUMPDEST PUSH1 0x40 MLOAD DUP1 SWAP2 SUB SWAP1 REVERT JUMPDEST DUP1 PUSH1 0x5 ADD PUSH1 0x1 SWAP1 SLOAD SWAP1 PUSH2 0x100 EXP SWAP1 DIV PUSH1 0xFF AND ISZERO PUSH2 0x1D77 JUMPI PUSH1 0x40 MLOAD PUSH32 0x8C379A000000000000000000000000000000000000000000000000000000000 DUP2 MSTORE PUSH1 0x4 ADD PUSH2 0x1D6E SWAP1 PUSH2 0x3D03 JUMP JUMPDEST PUSH1 0x40 MLOAD DUP1 SWAP2 SUB SWAP1 REVERT JUMPDEST DUP1 PUSH1 0x4 ADD PUSH0 CALLER PUSH20 0xFFFFFFFFFFFFFFFFFFFFFFFFFFFFFFFFFFFFFFFF AND PUSH20 0xFFFFFFFFFFFFFFFFFFFFFFFFFFFFFFFFFFFFFFFF AND DUP2 MSTORE PUSH1 0x20 ADD SWAP1 DUP2 MSTORE PUSH1 0x20 ADD PUSH0 KECCAK256 PUSH0 SWAP1 SLOAD SWAP1 PUSH2 0x100 EXP SWAP1 DIV PUSH1 0xFF AND ISZERO PUSH2 0x1E03 JUMPI PUSH1 0x40 MLOAD PUSH32 0x8C379A000000000000000000000000000000000000000000000000000000000 DUP2 MSTORE PUSH1 0x4 ADD PUSH2 0x1DFA SWAP1 PUSH2 0x46AF JUMP JUMPDEST PUSH1 0x40 MLOAD DUP1 SWAP2 SUB SWAP1 REVERT JUMPDEST PUSH1 0x1 DUP2 PUSH1 0x4 ADD PUSH0 CALLER PUSH20 0xFFFFFFFFFFFFFFFFFFFFFFFFFFFFFFFFFFFFFFFF AND PUSH20 0xFFFFFFFFFFFFFFFFFFFFFFFFFFFFFFFFFFFFFFFF AND DUP2 MSTORE PUSH1 0x20 ADD SWAP1 DUP2 MSTORE PUSH1 0x20 ADD PUSH0 KECCAK256 PUSH0 PUSH2 0x100 EXP DUP2 SLOAD DUP2 PUSH1 0xFF MUL NOT AND SWAP1 DUP4 ISZERO ISZERO MUL OR SWAP1 SSTORE POP DUP1 PUSH1 0x3 ADD PUSH0 DUP2 SLOAD DUP1 SWAP3 SWAP2 SWAP1 PUSH2 0x1E6E SWAP1 PUSH2 0x3BE3 JUMP JUMPDEST SWAP2 SWAP1 POP SSTORE POP CALLER PUSH20 0xFFFFFFFFFFFFFFFFFFFFFFFFFFFFFFFFFFFFFFFF AND DUP3 PUSH32 0x7AB1DF95613019BA98DA0113A7ADF5073C9FA62D93B5F202502115266AADC06A PUSH1 0x40 MLOAD PUSH1 0x40 MLOAD DUP1 SWAP2 SUB SWAP1 LOG3 PUSH1 0x6 SLOAD DUP2 PUSH1 0x3 ADD SLOAD SUB PUSH2 0x1ECE JUMPI PUSH2 0x1ECD DUP3 PUSH2 0x2BD2 JUMP JUMPDEST JUMPDEST POP POP JUMP JUMPDEST PUSH3 0x93A80 DUP2 JUMP JUMPDEST PUSH1 0x5 PUSH1 0x20 MSTORE DUP1 PUSH0 MSTORE PUSH1 0x40 PUSH0 KECCAK256 PUSH0 SWAP2 POP SLOAD SWAP1 PUSH2 0x100 EXP SWAP1 DIV PUSH1 0xFF AND DUP2 JUMP JUMPDEST PUSH0 DUP2 PUSH1 0x5 DUP2 GT ISZERO PUSH2 0x1F3C JUMPI PUSH1 0x40 MLOAD PUSH32 0x8C379A000000000000000000000000000000000000000000000000000000000 DUP2 MSTORE PUSH1 0x4 ADD PUSH2 0x1F33 SWAP1 PUSH2 0x3959 JUMP JUMPDEST PUSH1 0x40 MLOAD DUP1 SWAP2 SUB SWAP1 REVERT JUMPDEST PUSH0 PUSH1 0x3 PUSH0 PUSH1 0x2 SLOAD DUP2 MSTORE PUSH1 0x20 ADD SWAP1 DUP2 MSTORE PUSH1 0x20 ADD PUSH0 KECCAK256 PUSH1 0x40 MLOAD DUP1 PUSH1 0x60 ADD PUSH1 0x40 MSTORE SWAP1 DUP2 PUSH0 DUP3 ADD PUSH1 0x6 DUP1 PUSH1 0x20 MUL PUSH1 0x40 MLOAD SWAP1 DUP2 ADD PUSH1 0x40 MSTORE DUP1 SWAP3 SWAP2 SWAP1 DUP3 PUSH1 0x6 DUP1 ISZERO PUSH2 0x1F96 JUMPI PUSH1 0x20 MUL DUP3 ADD SWAP2 JUMPDEST DUP2 SLOAD DUP2 MSTORE PUSH1 0x20 ADD SWAP1 PUSH1 0x1 ADD SWAP1 DUP1 DUP4 GT PUSH2 0x1F82 JUMPI JUMPDEST POP POP POP POP POP DUP2 MSTORE PUSH1 0x20 ADD PUSH1 0x6 DUP3 ADD PUSH1 0x6 DUP1 PUSH1 0x20 MUL PUSH1 0x40 MLOAD SWAP1 DUP2 ADD PUSH1 0x40 MSTORE DUP1 SWAP3 SWAP2 SWAP1 DUP3 PUSH1 0x6 DUP1 ISZERO PUSH2 0x1FDB JUMPI PUSH1 0x20 MUL DUP3 ADD SWAP2 JUMPDEST DUP2 SLOAD DUP2 MSTORE PUSH1 0x20 ADD SWAP1 PUSH1 0x1 ADD SWAP1 DUP1 DUP4 GT PUSH2 0x1FC7 JUMPI JUMPDEST POP POP POP POP POP DUP2 MSTORE PUSH1 0x20 ADD PUSH1 0xC DUP3 ADD PUSH1 0x6 DUP1 PUSH1 0x20 MUL PUSH1 0x40 MLOAD SWAP1 DUP2 ADD PUSH1 0x40 MSTORE DUP1 SWAP3 SWAP2 SWAP1 DUP3 PUSH1 0x6 DUP1 ISZERO PUSH2 0x2020 JUMPI PUSH1 0x20 MUL DUP3 ADD SWAP2 JUMPDEST DUP2 SLOAD DUP2 MSTORE PUSH1 0x20 ADD SWAP1 PUSH1 0x1 ADD SWAP1 DUP1 DUP4 GT PUSH2 0x200C JUMPI JUMPDEST POP POP POP POP POP DUP2 MSTORE POP POP SWAP1 POP DUP1 PUSH1 0x40 ADD MLOAD DUP5 PUSH1 0x6 DUP2 LT PUSH2 0x2042 JUMPI PUSH2 0x2041 PUSH2 0x3977 JUMP JUMPDEST JUMPDEST PUSH1 0x20 MUL ADD MLOAD SWAP3 POP POP POP SWAP2 SWAP1 POP JUMP JUMPDEST DUP3 PUSH1 0x5 DUP2 GT ISZERO PUSH2 0x2095 JUMPI PUSH1 0x40 MLOAD PUSH32 0x8C379A000000000000000000000000000000000000000000000000000000000 DUP2 MSTORE PUSH1 0x4 ADD PUSH2 0x208C SWAP1 PUSH2 0x3959 JUMP JUMPDEST PUSH1 0x40 MLOAD DUP1 SWAP2 SUB SWAP1 REVERT JUMPDEST PUSH2 0x209D PUSH2 0x2E86 JUMP JUMPDEST PUSH0 PUSH0 PUSH0 PUSH0 PUSH2 0x20AC DUP9 DUP9 DUP9 PUSH2 0x153E JUMP JUMPDEST SWAP5 POP SWAP5 POP SWAP5 POP POP SWAP4 POP DUP7 PUSH1 0x3 PUSH0 PUSH1 0x2 SLOAD DUP2 MSTORE PUSH1 0x20 ADD SWAP1 DUP2 MSTORE PUSH1 0x20 ADD PUSH0 KECCAK256 PUSH1 0xC ADD DUP10 PUSH1 0x6 DUP2 LT PUSH2 0x20DE JUMPI PUSH2 0x20DD PUSH2 0x3977 JUMP JUMPDEST JUMPDEST ADD PUSH0 DUP3 DUP3 SLOAD PUSH2 0x20ED SWAP2 SWAP1 PUSH2 0x3D21 JUMP JUMPDEST SWAP3 POP POP DUP2 SWAP1 SSTORE POP PUSH32 0x0 PUSH20 0xFFFFFFFFFFFFFFFFFFFFFFFFFFFFFFFFFFFFFFFF AND PUSH4 0x156E29F6 CALLER DUP11 DUP11 PUSH1 0x40 MLOAD DUP5 PUSH4 0xFFFFFFFF AND PUSH1 0xE0 SHL DUP2 MSTORE PUSH1 0x4 ADD PUSH2 0x2151 SWAP4 SWAP3 SWAP2 SWAP1 PUSH2 0x40C2 JUMP JUMPDEST PUSH0 PUSH1 0x40 MLOAD DUP1 DUP4 SUB DUP2 PUSH0 DUP8 DUP1 EXTCODESIZE ISZERO DUP1 ISZERO PUSH2 0x2168 JUMPI PUSH0 PUSH0 REVERT JUMPDEST POP GAS CALL ISZERO DUP1 ISZERO PUSH2 0x217A JUMPI RETURNDATASIZE PUSH0 PUSH0 RETURNDATACOPY RETURNDATASIZE PUSH0 REVERT JUMPDEST POP POP POP POP PUSH0 DUP7 MLOAD GT ISZERO PUSH2 0x220B JUMPI PUSH0 PUSH1 0x4 DUP8 PUSH1 0x40 MLOAD PUSH2 0x2198 SWAP2 SWAP1 PUSH2 0x3F46 JUMP JUMPDEST SWAP1 DUP2 MSTORE PUSH1 0x20 ADD PUSH1 0x40 MLOAD DUP1 SWAP2 SUB SWAP1 KECCAK256 SWAP1 POP DUP8 DUP2 PUSH1 0x3 ADD DUP11 PUSH1 0x6 DUP2 LT PUSH2 0x21BF JUMPI PUSH2 0x21BE PUSH2 0x3977 JUMP JUMPDEST JUMPDEST ADD PUSH0 DUP3 DUP3 SLOAD PUSH2 0x21CE SWAP2 SWAP1 PUSH2 0x3D21 JUMP JUMPDEST SWAP3 POP POP DUP2 SWAP1 SSTORE POP DUP4 DUP2 PUSH1 0x9 ADD PUSH0 DUP3 DUP3 SLOAD PUSH2 0x21E8 SWAP2 SWAP1 PUSH2 0x3D21 JUMP JUMPDEST SWAP3 POP POP DUP2 SWAP1 SSTORE POP DUP2 DUP2 PUSH1 0xA ADD PUSH0 DUP3 DUP3 SLOAD PUSH2 0x2202 SWAP2 SWAP1 PUSH2 0x3D21 JUMP JUMPDEST SWAP3 POP POP DUP2 SWAP1 SSTORE POP POP JUMPDEST PUSH32 0x0 PUSH20 0xFFFFFFFFFFFFFFFFFFFFFFFFFFFFFFFFFFFFFFFF AND PUSH4 0x23B872DD CALLER ADDRESS DUP8 PUSH1 0x40 MLOAD DUP5 PUSH4 0xFFFFFFFF AND PUSH1 0xE0 SHL DUP2 MSTORE PUSH1 0x4 ADD PUSH2 0x2268 SWAP4 SWAP3 SWAP2 SWAP1 PUSH2 0x46CD JUMP JUMPDEST PUSH1 0x20 PUSH1 0x40 MLOAD DUP1 DUP4 SUB DUP2 PUSH0 DUP8 GAS CALL ISZERO DUP1 ISZERO PUSH2 0x2284 JUMPI RETURNDATASIZE PUSH0 PUSH0 RETURNDATACOPY RETURNDATASIZE PUSH0 REVERT JUMPDEST POP POP POP POP PUSH1 0x40 MLOAD RETURNDATASIZE PUSH1 0x1F NOT PUSH1 0x1F DUP3 ADD AND DUP3 ADD DUP1 PUSH1 0x40 MSTORE POP DUP2 ADD SWAP1 PUSH2 0x22A8 SWAP2 SWAP1 PUSH2 0x4097 JUMP JUMPDEST POP PUSH0 DUP7 MLOAD GT DUP1 ISZERO PUSH2 0x22B8 JUMPI POP PUSH0 DUP4 GT JUMPDEST ISZERO PUSH2 0x25A2 JUMPI PUSH0 PUSH1 0x4 DUP8 PUSH1 0x40 MLOAD PUSH2 0x22CE SWAP2 SWAP1 PUSH2 0x3F46 JUMP JUMPDEST SWAP1 DUP2 MSTORE PUSH1 0x20 ADD PUSH1 0x40 MLOAD DUP1 SWAP2 SUB SWAP1 KECCAK256 SWAP1 POP PUSH32 0x0 PUSH20 0xFFFFFFFFFFFFFFFFFFFFFFFFFFFFFFFFFFFFFFFF AND PUSH4 0xA9059CBB DUP3 PUSH0 ADD PUSH0 SWAP1 SLOAD SWAP1 PUSH2 0x100 EXP SWAP1 DIV PUSH20 0xFFFFFFFFFFFFFFFFFFFFFFFFFFFFFFFFFFFFFFFF AND DUP7 PUSH1 0x40 MLOAD DUP4 PUSH4 0xFFFFFFFF AND PUSH1 0xE0 SHL DUP2 MSTORE PUSH1 0x4 ADD PUSH2 0x235B SWAP3 SWAP2 SWAP1 PUSH2 0x4702 JUMP JUMPDEST PUSH1 0x20 PUSH1 0x40 MLOAD DUP1 DUP4 SUB DUP2 PUSH0 DUP8 GAS CALL ISZERO DUP1 ISZERO PUSH2 0x2377 JUMPI RETURNDATASIZE PUSH0 PUSH0 RETURNDATACOPY RETURNDATASIZE PUSH0 REVERT JUMPDEST POP POP POP POP PUSH1 0x40 MLOAD RETURNDATASIZE PUSH1 0x1F NOT PUSH1 0x1F DUP3 ADD AND DUP3 ADD DUP1 PUSH1 0x40 MSTORE POP DUP2 ADD SWAP1 PUSH2 0x239B SWAP2 SWAP1 PUSH2 0x4097 JUMP JUMPDEST POP DUP1 PUSH0 ADD PUSH0 SWAP1 SLOAD SWAP1 PUSH2 0x100 EXP SWAP1 DIV PUSH20 0xFFFFFFFFFFFFFFFFFFFFFFFFFFFFFFFFFFFFFFFF AND PUSH20 0xFFFFFFFFFFFFFFFFFFFFFFFFFFFFFFFFFFFFFFFF AND PUSH32 0xE940AFDE5872F4760F0AE48B728B98579E2AB7722DD8973624FA47301B0B2D2C DUP6 PUSH1 0x40 MLOAD PUSH2 0x2404 SWAP2 SWAP1 PUSH2 0x2FD4 JUMP JUMPDEST PUSH1 0x40 MLOAD DUP1 SWAP2 SUB SWAP1 LOG2 PUSH0 DUP4 GT DUP1 ISZERO PUSH2 0x246A JUMPI POP PUSH0 PUSH20 0xFFFFFFFFFFFFFFFFFFFFFFFFFFFFFFFFFFFFFFFF AND DUP2 PUSH1 0x1 ADD PUSH0 SWAP1 SLOAD SWAP1 PUSH2 0x100 EXP SWAP1 DIV PUSH20 0xFFFFFFFFFFFFFFFFFFFFFFFFFFFFFFFFFFFFFFFF AND PUSH20 0xFFFFFFFFFFFFFFFFFFFFFFFFFFFFFFFFFFFFFFFF AND EQ ISZERO JUMPDEST ISZERO PUSH2 0x25A0 JUMPI PUSH32 0x0 PUSH20 0xFFFFFFFFFFFFFFFFFFFFFFFFFFFFFFFFFFFFFFFF AND PUSH4 0xA9059CBB DUP3 PUSH1 0x1 ADD PUSH0 SWAP1 SLOAD SWAP1 PUSH2 0x100 EXP SWAP1 DIV PUSH20 0xFFFFFFFFFFFFFFFFFFFFFFFFFFFFFFFFFFFFFFFF AND DUP6 PUSH1 0x40 MLOAD DUP4 PUSH4 0xFFFFFFFF AND PUSH1 0xE0 SHL DUP2 MSTORE PUSH1 0x4 ADD PUSH2 0x24ED SWAP3 SWAP2 SWAP1 PUSH2 0x4702 JUMP JUMPDEST PUSH1 0x20 PUSH1 0x40 MLOAD DUP1 DUP4 SUB DUP2 PUSH0 DUP8 GAS CALL ISZERO DUP1 ISZERO PUSH2 0x2509 JUMPI RETURNDATASIZE PUSH0 PUSH0 RETURNDATACOPY RETURNDATASIZE PUSH0 REVERT JUMPDEST POP POP POP POP PUSH1 0x40 MLOAD RETURNDATASIZE PUSH1 0x1F NOT PUSH1 0x1F DUP3 ADD AND DUP3 ADD DUP1 PUSH1 0x40 MSTORE POP DUP2 ADD SWAP1 PUSH2 0x252D SWAP2 SWAP1 PUSH2 0x4097 JUMP JUMPDEST POP DUP1 PUSH1 0x1 ADD PUSH0 SWAP1 SLOAD SWAP1 PUSH2 0x100 EXP SWAP1 DIV PUSH20 0xFFFFFFFFFFFFFFFFFFFFFFFFFFFFFFFFFFFFFFFF AND PUSH20 0xFFFFFFFFFFFFFFFFFFFFFFFFFFFFFFFFFFFFFFFF AND PUSH32 0xE940AFDE5872F4760F0AE48B728B98579E2AB7722DD8973624FA47301B0B2D2C DUP5 PUSH1 0x40 MLOAD PUSH2 0x2597 SWAP2 SWAP1 PUSH2 0x2FD4 JUMP JUMPDEST PUSH1 0x40 MLOAD DUP1 SWAP2 SUB SWAP1 LOG2 JUMPDEST POP JUMPDEST DUP8 CALLER PUSH20 0xFFFFFFFFFFFFFFFFFFFFFFFFFFFFFFFFFFFFFFFF AND PUSH32 0x7BC3DDF0BF2ADA973906C61001CD8F787646720BB7DA90229E5BF81FA71BAB6D DUP10 DUP8 PUSH1 0x40 MLOAD PUSH2 0x25EB SWAP3 SWAP2 SWAP1 PUSH2 0x40F7 JUMP JUMPDEST PUSH1 0x40 MLOAD DUP1 SWAP2 SUB SWAP1 LOG3 POP POP POP POP PUSH2 0x25FF PUSH2 0x2ECC JUMP JUMPDEST POP POP POP POP JUMP JUMPDEST PUSH0 DUP2 PUSH1 0x5 DUP2 GT ISZERO PUSH2 0x264B JUMPI PUSH1 0x40 MLOAD PUSH32 0x8C379A000000000000000000000000000000000000000000000000000000000 DUP2 MSTORE PUSH1 0x4 ADD PUSH2 0x2642 SWAP1 PUSH2 0x3959 JUMP JUMPDEST PUSH1 0x40 MLOAD DUP1 SWAP2 SUB SWAP1 REVERT JUMPDEST PUSH0 PUSH1 0x3 PUSH0 PUSH1 0x2 SLOAD DUP2 MSTORE PUSH1 0x20 ADD SWAP1 DUP2 MSTORE PUSH1 0x20 ADD PUSH0 KECCAK256 PUSH1 0x40 MLOAD DUP1 PUSH1 0x60 ADD PUSH1 0x40 MSTORE SWAP1 DUP2 PUSH0 DUP3 ADD PUSH1 0x6 DUP1 PUSH1 0x20 MUL PUSH1 0x40 MLOAD SWAP1 DUP2 ADD PUSH1 0x40 MSTORE DUP1 SWAP3 SWAP2 SWAP1 DUP3 PUSH1 0x6 DUP1 ISZERO PUSH2 0x26A5 JUMPI PUSH1 0x20 MUL DUP3 ADD SWAP2 JUMPDEST DUP2 SLOAD DUP2 MSTORE PUSH1 0x20 ADD SWAP1 PUSH1 0x1 ADD SWAP1 DUP1 DUP4 GT PUSH2 0x2691 JUMPI JUMPDEST POP POP POP POP POP DUP2 MSTORE PUSH1 0x20 ADD PUSH1 0x6 DUP3 ADD PUSH1 0x6 DUP1 PUSH1 0x20 MUL PUSH1 0x40 MLOAD SWAP1 DUP2 ADD PUSH1 0x40 MSTORE DUP1 SWAP3 SWAP2 SWAP1 DUP3 PUSH1 0x6 DUP1 ISZERO PUSH2 0x26EA JUMPI PUSH1 0x20 MUL DUP3 ADD SWAP2 JUMPDEST DUP2 SLOAD DUP2 MSTORE PUSH1 0x20 ADD SWAP1 PUSH1 0x1 ADD SWAP1 DUP1 DUP4 GT PUSH2 0x26D6 JUMPI JUMPDEST POP POP POP POP POP DUP2 MSTORE PUSH1 0x20 ADD PUSH1 0xC DUP3 ADD PUSH1 0x6 DUP1 PUSH1 0x20 MUL PUSH1 0x40 MLOAD SWAP1 DUP2 ADD PUSH1 0x40 MSTORE DUP1 SWAP3 SWAP2 SWAP1 DUP3 PUSH1 0x6 DUP1 ISZERO PUSH2 0x272F JUMPI PUSH1 0x20 MUL DUP3 ADD SWAP2 JUMPDEST DUP2 SLOAD DUP2 MSTORE PUSH1 0x20 ADD SWAP1 PUSH1 0x1 ADD SWAP1 DUP1 DUP4 GT PUSH2 0x271B JUMPI JUMPDEST POP POP POP POP POP DUP2 MSTORE POP POP SWAP1 POP DUP1 PUSH0 ADD MLOAD DUP5 PUSH1 0x6 DUP2 LT PUSH2 0x2750 JUMPI PUSH2 0x274F PUSH2 0x3977 JUMP JUMPDEST JUMPDEST PUSH1 0x20 MUL ADD MLOAD SWAP3 POP POP POP SWAP2 SWAP1 POP JUMP JUMPDEST PUSH1 0x8 SLOAD DUP2 JUMP JUMPDEST PUSH1 0x5 PUSH0 CALLER PUSH20 0xFFFFFFFFFFFFFFFFFFFFFFFFFFFFFFFFFFFFFFFF AND PUSH20 0xFFFFFFFFFFFFFFFFFFFFFFFFFFFFFFFFFFFFFFFF AND DUP2 MSTORE PUSH1 0x20 ADD SWAP1 DUP2 MSTORE PUSH1 0x20 ADD PUSH0 KECCAK256 PUSH0 SWAP1 SLOAD SWAP1 PUSH2 0x100 EXP SWAP1 DIV PUSH1 0xFF AND PUSH2 0x27ED JUMPI PUSH1 0x40 MLOAD PUSH32 0x8C379A000000000000000000000000000000000000000000000000000000000 DUP2 MSTORE PUSH1 0x4 ADD PUSH2 0x27E4 SWAP1 PUSH2 0x3A4E JUMP JUMPDEST PUSH1 0x40 MLOAD DUP1 SWAP2 SUB SWAP1 REVERT JUMPDEST PUSH0 PUSH1 0x7 PUSH0 DUP4 DUP2 MSTORE PUSH1 0x20 ADD SWAP1 DUP2 MSTORE PUSH1 0x20 ADD PUSH0 KECCAK256 SWAP1 POP DUP1 PUSH1 0x5 ADD PUSH0 SWAP1 SLOAD SWAP1 PUSH2 0x100 EXP SWAP1 DIV PUSH1 0xFF AND ISZERO PUSH2 0x2852 JUMPI PUSH1 0x40 MLOAD PUSH32 0x8C379A000000000000000000000000000000000000000000000000000000000 DUP2 MSTORE PUSH1 0x4 ADD PUSH2 0x2849 SWAP1 PUSH2 0x3C9B JUMP JUMPDEST PUSH1 0x40 MLOAD DUP1 SWAP2 SUB SWAP1 REVERT JUMPDEST DUP1 PUSH1 0x5 ADD PUSH1 0x1 SWAP1 SLOAD SWAP1 PUSH2 0x100 EXP SWAP1 DIV PUSH1 0xFF AND ISZERO PUSH2 0x28A4 JUMPI PUSH1 0x40 MLOAD PUSH32 0x8C379A000000000000000000000000000000000000000000000000000000000 DUP2 MSTORE PUSH1 0x4 ADD PUSH2 0x289B SWAP1 PUSH2 0x4773 JUMP JUMPDEST PUSH1 0x40 MLOAD DUP1 SWAP2 SUB SWAP1 REVERT JUMPDEST PUSH1 0x1 DUP2 PUSH1 0x5 ADD PUSH1 0x1 PUSH2 0x100 EXP DUP2 SLOAD DUP2 PUSH1 0xFF MUL NOT AND SWAP1 DUP4 ISZERO ISZERO MUL OR SWAP1 SSTORE POP CALLER PUSH20 0xFFFFFFFFFFFFFFFFFFFFFFFFFFFFFFFFFFFFFFFF AND DUP3 PUSH32 0xCD8A8ADEB6B0A0338444333E99EE6394DF82AC7E4E8132079D728B1A0E863A11 PUSH1 0x40 MLOAD PUSH1 0x40 MLOAD DUP1 SWAP2 SUB SWAP1 LOG3 POP POP JUMP JUMPDEST PUSH2 0x2911 PUSH2 0x2D3E JUMP JUMPDEST PUSH0 PUSH0 SWAP1 POP JUMPDEST PUSH1 0x6 DUP2 LT ISZERO PUSH2 0x298E JUMPI PUSH2 0x2928 DUP2 PUSH2 0x1AA0 JUMP JUMPDEST DUP3 DUP3 PUSH1 0x6 DUP2 LT PUSH2 0x293B JUMPI PUSH2 0x293A PUSH2 0x3977 JUMP JUMPDEST JUMPDEST PUSH1 0x20 MUL ADD MLOAD GT ISZERO PUSH2 0x2981 JUMPI PUSH1 0x40 MLOAD PUSH32 0x8C379A000000000000000000000000000000000000000000000000000000000 DUP2 MSTORE PUSH1 0x4 ADD PUSH2 0x2978 SWAP1 PUSH2 0x4801 JUMP JUMPDEST PUSH1 0x40 MLOAD DUP1 SWAP2 SUB SWAP1 REVERT JUMPDEST DUP1 DUP1 PUSH1 0x1 ADD SWAP2 POP POP PUSH2 0x2916 JUMP JUMPDEST POP PUSH0 PUSH1 0x2 SLOAD GT ISZERO PUSH2 0x2A61 JUMPI PUSH0 PUSH0 SWAP1 POP JUMPDEST PUSH1 0x6 DUP2 LT ISZERO PUSH2 0x2A5F JUMPI PUSH0 PUSH2 0x29B1 DUP3 PUSH2 0x597 JUMP JUMPDEST EQ PUSH2 0x29F1 JUMPI PUSH1 0x40 MLOAD PUSH32 0x8C379A000000000000000000000000000000000000000000000000000000000 DUP2 MSTORE PUSH1 0x4 ADD PUSH2 0x29E8 SWAP1 PUSH2 0x4869 JUMP JUMPDEST PUSH1 0x40 MLOAD DUP1 SWAP2 SUB SWAP1 REVERT JUMPDEST PUSH2 0x29FA DUP2 PUSH2 0x2605 JUMP JUMPDEST DUP4 DUP3 PUSH1 0x6 DUP2 LT PUSH2 0x2A0D JUMPI PUSH2 0x2A0C PUSH2 0x3977 JUMP JUMPDEST JUMPDEST PUSH1 0x20 MUL ADD MLOAD GT PUSH2 0x2A52 JUMPI PUSH1 0x40 MLOAD PUSH32 0x8C379A000000000000000000000000000000000000000000000000000000000 DUP2 MSTORE PUSH1 0x4 ADD PUSH2 0x2A49 SWAP1 PUSH2 0x48D1 JUMP JUMPDEST PUSH1 0x40 MLOAD DUP1 SWAP2 SUB SWAP1 REVERT JUMPDEST DUP1 DUP1 PUSH1 0x1 ADD SWAP2 POP POP PUSH2 0x299E JUMP JUMPDEST POP JUMPDEST PUSH1 0x2 PUSH0 DUP2 SLOAD DUP1 SWAP3 SWAP2 SWAP1 PUSH2 0x2A73 SWAP1 PUSH2 0x3BE3 JUMP JUMPDEST SWAP2 SWAP1 POP SSTORE POP PUSH1 0x40 MLOAD DUP1 PUSH1 0x60 ADD PUSH1 0x40 MSTORE DUP1 DUP4 DUP2 MSTORE PUSH1 0x20 ADD DUP3 DUP2 MSTORE PUSH1 0x20 ADD PUSH1 0x40 MLOAD DUP1 PUSH1 0xC0 ADD PUSH1 0x40 MSTORE DUP1 PUSH0 DUP2 MSTORE PUSH1 0x20 ADD PUSH0 DUP2 MSTORE PUSH1 0x20 ADD PUSH0 DUP2 MSTORE PUSH1 0x20 ADD PUSH0 DUP2 MSTORE PUSH1 0x20 ADD PUSH0 DUP2 MSTORE PUSH1 0x20 ADD PUSH0 DUP2 MSTORE POP DUP2 MSTORE POP PUSH1 0x3 PUSH0 PUSH1 0x2 SLOAD DUP2 MSTORE PUSH1 0x20 ADD SWAP1 DUP2 MSTORE PUSH1 0x20 ADD PUSH0 KECCAK256 PUSH0 DUP3 ADD MLOAD DUP2 PUSH0 ADD SWAP1 PUSH1 0x6 PUSH2 0x2AE7 SWAP3 SWAP2 SWAP1 PUSH2 0x2EDC JUMP JUMPDEST POP PUSH1 0x20 DUP3 ADD MLOAD DUP2 PUSH1 0x6 ADD SWAP1 PUSH1 0x6 PUSH2 0x2AFF SWAP3 SWAP2 SWAP1 PUSH2 0x2EDC JUMP JUMPDEST POP PUSH1 0x40 DUP3 ADD MLOAD DUP2 PUSH1 0xC ADD SWAP1 PUSH1 0x6 PUSH2 0x2B17 SWAP3 SWAP2 SWAP1 PUSH2 0x2EDC JUMP JUMPDEST POP SWAP1 POP POP PUSH1 0x2 SLOAD PUSH32 0x7DED52798AB2E63AD5F4474D2273D878D5EC60F9E082CDE09A3E544EFBA93296 PUSH1 0x40 MLOAD PUSH1 0x40 MLOAD DUP1 SWAP2 SUB SWAP1 LOG2 POP POP JUMP JUMPDEST PUSH2 0x2B56 PUSH2 0x2D3E JUMP JUMPDEST PUSH0 PUSH20 0xFFFFFFFFFFFFFFFFFFFFFFFFFFFFFFFFFFFFFFFF AND DUP2 PUSH20 0xFFFFFFFFFFFFFFFFFFFFFFFFFFFFFFFFFFFFFFFF AND SUB PUSH2 0x2BC6 JUMPI PUSH0 PUSH1 0x40 MLOAD PUSH32 0x1E4FBDF700000000000000000000000000000000000000000000000000000000 DUP2 MSTORE PUSH1 0x4 ADD PUSH2 0x2BBD SWAP2 SWAP1 PUSH2 0x3738 JUMP JUMPDEST PUSH1 0x40 MLOAD DUP1 SWAP2 SUB SWAP1 REVERT JUMPDEST PUSH2 0x2BCF DUP2 PUSH2 0x2DC5 JUMP JUMPDEST POP JUMP JUMPDEST PUSH0 PUSH1 0x7 PUSH0 DUP4 DUP2 MSTORE PUSH1 0x20 ADD SWAP1 DUP2 MSTORE PUSH1 0x20 ADD PUSH0 KECCAK256 SWAP1 POP PUSH1 0x1 DUP2 PUSH1 0x5 ADD PUSH0 PUSH2 0x100 EXP DUP2 SLOAD DUP2 PUSH1 0xFF MUL NOT AND SWAP1 DUP4 ISZERO ISZERO MUL OR SWAP1 SSTORE POP PUSH32 0x0 PUSH20 0xFFFFFFFFFFFFFFFFFFFFFFFFFFFFFFFFFFFFFFFF AND PUSH4 0xA9059CBB DUP3 PUSH1 0x1 ADD PUSH0 SWAP1 SLOAD SWAP1 PUSH2 0x100 EXP SWAP1 DIV PUSH20 0xFFFFFFFFFFFFFFFFFFFFFFFFFFFFFFFFFFFFFFFF AND DUP4 PUSH0 ADD SLOAD PUSH1 0x40 MLOAD DUP4 PUSH4 0xFFFFFFFF AND PUSH1 0xE0 SHL DUP2 MSTORE PUSH1 0x4 ADD PUSH2 0x2C83 SWAP3 SWAP2 SWAP1 PUSH2 0x4702 JUMP JUMPDEST PUSH1 0x20 PUSH1 0x40 MLOAD DUP1 DUP4 SUB DUP2 PUSH0 DUP8 GAS CALL ISZERO DUP1 ISZERO PUSH2 0x2C9F JUMPI RETURNDATASIZE PUSH0 PUSH0 RETURNDATACOPY RETURNDATASIZE PUSH0 REVERT JUMPDEST POP POP POP POP PUSH1 0x40 MLOAD RETURNDATASIZE PUSH1 0x1F NOT PUSH1 0x1F DUP3 ADD AND DUP3 ADD DUP1 PUSH1 0x40 MSTORE POP DUP2 ADD SWAP1 PUSH2 0x2CC3 SWAP2 SWAP1 PUSH2 0x4097 JUMP JUMPDEST POP CALLER PUSH20 0xFFFFFFFFFFFFFFFFFFFFFFFFFFFFFFFFFFFFFFFF AND DUP3 PUSH31 0x9525D1B7630386050058876F776D3F6B7B6C79213925AEC88934FFA1678E21 DUP4 PUSH0 ADD SLOAD DUP5 PUSH1 0x1 ADD PUSH0 SWAP1 SLOAD SWAP1 PUSH2 0x100 EXP SWAP1 DIV PUSH20 0xFFFFFFFFFFFFFFFFFFFFFFFFFFFFFFFFFFFFFFFF AND PUSH1 0x40 MLOAD PUSH2 0x2D32 SWAP3 SWAP2 SWAP1 PUSH2 0x3C2A JUMP JUMPDEST PUSH1 0x40 MLOAD DUP1 SWAP2 SUB SWAP1 LOG3 POP POP JUMP JUMPDEST PUSH2 0x2D46 PUSH2 0x2ED5 JUMP JUMPDEST PUSH20 0xFFFFFFFFFFFFFFFFFFFFFFFFFFFFFFFFFFFFFFFF AND PUSH2 0x2D64 PUSH2 0x1BA0 JUMP JUMPDEST PUSH20 0xFFFFFFFFFFFFFFFFFFFFFFFFFFFFFFFFFFFFFFFF AND EQ PUSH2 0x2DC3 JUMPI PUSH2 0x2D87 PUSH2 0x2ED5 JUMP JUMPDEST PUSH1 0x40 MLOAD PUSH32 0x118CDAA700000000000000000000000000000000000000000000000000000000 DUP2 MSTORE PUSH1 0x4 ADD PUSH2 0x2DBA SWAP2 SWAP1 PUSH2 0x3738 JUMP JUMPDEST PUSH1 0x40 MLOAD DUP1 SWAP2 SUB SWAP1 REVERT JUMPDEST JUMP JUMPDEST PUSH0 PUSH0 PUSH0 SWAP1 SLOAD SWAP1 PUSH2 0x100 EXP SWAP1 DIV PUSH20 0xFFFFFFFFFFFFFFFFFFFFFFFFFFFFFFFFFFFFFFFF AND SWAP1 POP DUP2 PUSH0 PUSH0 PUSH2 0x100 EXP DUP2 SLOAD DUP2 PUSH20 0xFFFFFFFFFFFFFFFFFFFFFFFFFFFFFFFFFFFFFFFF MUL NOT AND SWAP1 DUP4 PUSH20 0xFFFFFFFFFFFFFFFFFFFFFFFFFFFFFFFFFFFFFFFF AND MUL OR SWAP1 SSTORE POP DUP2 PUSH20 0xFFFFFFFFFFFFFFFFFFFFFFFFFFFFFFFFFFFFFFFF AND DUP2 PUSH20 0xFFFFFFFFFFFFFFFFFFFFFFFFFFFFFFFFFFFFFFFF AND PUSH32 0x8BE0079C531659141344CD1FD0A4F28419497F9722A3DAAFE3B4186F6B6457E0 PUSH1 0x40 MLOAD PUSH1 0x40 MLOAD DUP1 SWAP2 SUB SWAP1 LOG3 POP POP JUMP JUMPDEST PUSH1 0x2 PUSH1 0x1 SLOAD SUB PUSH2 0x2EC2 JUMPI PUSH1 0x40 MLOAD PUSH32 0x3EE5AEB500000000000000000000000000000000000000000000000000000000 DUP2 MSTORE PUSH1 0x4 ADD PUSH1 0x40 MLOAD DUP1 SWAP2 SUB SWAP1 REVERT JUMPDEST PUSH1 0x2 PUSH1 0x1 DUP2 SWAP1 SSTORE POP JUMP JUMPDEST PUSH1 0x1 DUP1 DUP2 SWAP1 SSTORE POP JUMP JUMPDEST PUSH0 CALLER SWAP1 POP SWAP1 JUMP JUMPDEST DUP3 PUSH1 0x6 DUP2 ADD SWAP3 DUP3 ISZERO PUSH2 0x2F0B JUMPI SWAP2 PUSH1 0x20 MUL DUP3 ADD JUMPDEST DUP3 DUP2 GT ISZERO PUSH2 0x2F0A JUMPI DUP3 MLOAD DUP3 SSTORE SWAP2 PUSH1 0x20 ADD SWAP2 SWAP1 PUSH1 0x1 ADD SWAP1 PUSH2 0x2EEF JUMP JUMPDEST JUMPDEST POP SWAP1 POP PUSH2 0x2F18 SWAP2 SWAP1 PUSH2 0x2F7F JUMP JUMPDEST POP SWAP1 JUMP JUMPDEST PUSH1 0x40 MLOAD DUP1 PUSH1 0xC0 ADD PUSH1 0x40 MSTORE DUP1 PUSH0 PUSH20 0xFFFFFFFFFFFFFFFFFFFFFFFFFFFFFFFFFFFFFFFF AND DUP2 MSTORE PUSH1 0x20 ADD PUSH0 PUSH20 0xFFFFFFFFFFFFFFFFFFFFFFFFFFFFFFFFFFFFFFFF AND DUP2 MSTORE PUSH1 0x20 ADD PUSH0 DUP2 MSTORE PUSH1 0x20 ADD PUSH2 0x2F6D PUSH2 0x2F9A JUMP JUMPDEST DUP2 MSTORE PUSH1 0x20 ADD PUSH0 DUP2 MSTORE PUSH1 0x20 ADD PUSH0 DUP2 MSTORE POP SWAP1 JUMP JUMPDEST JUMPDEST DUP1 DUP3 GT ISZERO PUSH2 0x2F96 JUMPI PUSH0 DUP2 PUSH0 SWAP1 SSTORE POP PUSH1 0x1 ADD PUSH2 0x2F80 JUMP JUMPDEST POP SWAP1 JUMP JUMPDEST PUSH1 0x40 MLOAD DUP1 PUSH1 0xC0 ADD PUSH1 0x40 MSTORE DUP1 PUSH1 0x6 SWAP1 PUSH1 0x20 DUP3 MUL DUP1 CALLDATASIZE DUP4 CALLDATACOPY DUP1 DUP3 ADD SWAP2 POP POP SWAP1 POP POP SWAP1 JUMP JUMPDEST PUSH0 DUP2 SWAP1 POP SWAP2 SWAP1 POP JUMP JUMPDEST PUSH2 0x2FCE DUP2 PUSH2 0x2FBC JUMP JUMPDEST DUP3 MSTORE POP POP JUMP JUMPDEST PUSH0 PUSH1 0x20 DUP3 ADD SWAP1 POP PUSH2 0x2FE7 PUSH0 DUP4 ADD DUP5 PUSH2 0x2FC5 JUMP JUMPDEST SWAP3 SWAP2 POP POP JUMP JUMPDEST PUSH0 PUSH1 0x40 MLOAD SWAP1 POP SWAP1 JUMP JUMPDEST PUSH0 PUSH0 REVERT JUMPDEST PUSH0 PUSH0 REVERT JUMPDEST PUSH2 0x3007 DUP2 PUSH2 0x2FBC JUMP JUMPDEST DUP2 EQ PUSH2 0x3011 JUMPI PUSH0 PUSH0 REVERT JUMPDEST POP JUMP JUMPDEST PUSH0 DUP2 CALLDATALOAD SWAP1 POP PUSH2 0x3022 DUP2 PUSH2 0x2FFE JUMP JUMPDEST SWAP3 SWAP2 POP POP JUMP JUMPDEST PUSH0 PUSH1 0x20 DUP3 DUP5 SUB SLT ISZERO PUSH2 0x303D JUMPI PUSH2 0x303C PUSH2 0x2FF6 JUMP JUMPDEST JUMPDEST PUSH0 PUSH2 0x304A DUP5 DUP3 DUP6 ADD PUSH2 0x3014 JUMP JUMPDEST SWAP2 POP POP SWAP3 SWAP2 POP POP JUMP JUMPDEST PUSH0 PUSH20 0xFFFFFFFFFFFFFFFFFFFFFFFFFFFFFFFFFFFFFFFF DUP3 AND SWAP1 POP SWAP2 SWAP1 POP JUMP JUMPDEST PUSH0 DUP2 SWAP1 POP SWAP2 SWAP1 POP JUMP JUMPDEST PUSH0 PUSH2 0x3095 PUSH2 0x3090 PUSH2 0x308B DUP5 PUSH2 0x3053 JUMP JUMPDEST PUSH2 0x3072 JUMP JUMPDEST PUSH2 0x3053 JUMP JUMPDEST SWAP1 POP SWAP2 SWAP1 POP JUMP JUMPDEST PUSH0 PUSH2 0x30A6 DUP3 PUSH2 0x307B JUMP JUMPDEST SWAP1 POP SWAP2 SWAP1 POP JUMP JUMPDEST PUSH0 PUSH2 0x30B7 DUP3 PUSH2 0x309C JUMP JUMPDEST SWAP1 POP SWAP2 SWAP1 POP JUMP JUMPDEST PUSH2 0x30C7 DUP2 PUSH2 0x30AD JUMP JUMPDEST DUP3 MSTORE POP POP JUMP JUMPDEST PUSH0 PUSH1 0x20 DUP3 ADD SWAP1 POP PUSH2 0x30E0 PUSH0 DUP4 ADD DUP5 PUSH2 0x30BE JUMP JUMPDEST SWAP3 SWAP2 POP POP JUMP JUMPDEST PUSH0 PUSH2 0x30F0 DUP3 PUSH2 0x3053 JUMP JUMPDEST SWAP1 POP SWAP2 SWAP1 POP JUMP JUMPDEST PUSH2 0x3100 DUP2 PUSH2 0x30E6 JUMP JUMPDEST DUP2 EQ PUSH2 0x310A JUMPI PUSH0 PUSH0 REVERT JUMPDEST POP JUMP JUMPDEST PUSH0 DUP2 CALLDATALOAD SWAP1 POP PUSH2 0x311B DUP2 PUSH2 0x30F7 JUMP JUMPDEST SWAP3 SWAP2 POP POP JUMP JUMPDEST PUSH0 PUSH0 PUSH1 0x40 DUP4 DUP6 SUB SLT ISZERO PUSH2 0x3137 JUMPI PUSH2 0x3136 PUSH2 0x2FF6 JUMP JUMPDEST JUMPDEST PUSH0 PUSH2 0x3144 DUP6 DUP3 DUP7 ADD PUSH2 0x3014 JUMP JUMPDEST SWAP3 POP POP PUSH1 0x20 PUSH2 0x3155 DUP6 DUP3 DUP7 ADD PUSH2 0x310D JUMP JUMPDEST SWAP2 POP POP SWAP3 POP SWAP3 SWAP1 POP JUMP JUMPDEST PUSH0 PUSH0 REVERT JUMPDEST PUSH0 PUSH0 REVERT JUMPDEST PUSH0 PUSH1 0x1F NOT PUSH1 0x1F DUP4 ADD AND SWAP1 POP SWAP2 SWAP1 POP JUMP JUMPDEST PUSH32 0x4E487B7100000000000000000000000000000000000000000000000000000000 PUSH0 MSTORE PUSH1 0x41 PUSH1 0x4 MSTORE PUSH1 0x24 PUSH0 REVERT JUMPDEST PUSH2 0x31AD DUP3 PUSH2 0x3167 JUMP JUMPDEST DUP2 ADD DUP2 DUP2 LT PUSH8 0xFFFFFFFFFFFFFFFF DUP3 GT OR ISZERO PUSH2 0x31CC JUMPI PUSH2 0x31CB PUSH2 0x3177 JUMP JUMPDEST JUMPDEST DUP1 PUSH1 0x40 MSTORE POP POP POP JUMP JUMPDEST PUSH0 PUSH2 0x31DE PUSH2 0x2FED JUMP JUMPDEST SWAP1 POP PUSH2 0x31EA DUP3 DUP3 PUSH2 0x31A4 JUMP JUMPDEST SWAP2 SWAP1 POP JUMP JUMPDEST PUSH0 PUSH8 0xFFFFFFFFFFFFFFFF DUP3 GT ISZERO PUSH2 0x3209 JUMPI PUSH2 0x3208 PUSH2 0x3177 JUMP JUMPDEST JUMPDEST PUSH2 0x3212 DUP3 PUSH2 0x3167 JUMP JUMPDEST SWAP1 POP PUSH1 0x20 DUP2 ADD SWAP1 POP SWAP2 SWAP1 POP JUMP JUMPDEST DUP3 DUP2 DUP4 CALLDATACOPY PUSH0 DUP4 DUP4 ADD MSTORE POP POP POP JUMP JUMPDEST PUSH0 PUSH2 0x323F PUSH2 0x323A DUP5 PUSH2 0x31EF JUMP JUMPDEST PUSH2 0x31D5 JUMP JUMPDEST SWAP1 POP DUP3 DUP2 MSTORE PUSH1 0x20 DUP2 ADD DUP5 DUP5 DUP5 ADD GT ISZERO PUSH2 0x325B JUMPI PUSH2 0x325A PUSH2 0x3163 JUMP JUMPDEST JUMPDEST PUSH2 0x3266 DUP5 DUP3 DUP6 PUSH2 0x321F JUMP JUMPDEST POP SWAP4 SWAP3 POP POP POP JUMP JUMPDEST PUSH0 DUP3 PUSH1 0x1F DUP4 ADD SLT PUSH2 0x3282 JUMPI PUSH2 0x3281 PUSH2 0x315F JUMP JUMPDEST JUMPDEST DUP2 CALLDATALOAD PUSH2 0x3292 DUP5 DUP3 PUSH1 0x20 DUP7 ADD PUSH2 0x322D JUMP JUMPDEST SWAP2 POP POP SWAP3 SWAP2 POP POP JUMP JUMPDEST PUSH0 PUSH0 PUSH0 PUSH0 PUSH1 0x80 DUP6 DUP8 SUB SLT ISZERO PUSH2 0x32B3 JUMPI PUSH2 0x32B2 PUSH2 0x2FF6 JUMP JUMPDEST JUMPDEST PUSH0 DUP6 ADD CALLDATALOAD PUSH8 0xFFFFFFFFFFFFFFFF DUP2 GT ISZERO PUSH2 0x32D0 JUMPI PUSH2 0x32CF PUSH2 0x2FFA JUMP JUMPDEST JUMPDEST PUSH2 0x32DC DUP8 DUP3 DUP9 ADD PUSH2 0x326E JUMP JUMPDEST SWAP5 POP POP PUSH1 0x20 PUSH2 0x32ED DUP8 DUP3 DUP9 ADD PUSH2 0x310D JUMP JUMPDEST SWAP4 POP POP PUSH1 0x40 PUSH2 0x32FE DUP8 DUP3 DUP9 ADD PUSH2 0x310D JUMP JUMPDEST SWAP3 POP POP PUSH1 0x60 PUSH2 0x330F DUP8 DUP3 DUP9 ADD PUSH2 0x3014 JUMP JUMPDEST SWAP2 POP POP SWAP3 SWAP6 SWAP2 SWAP5 POP SWAP3 POP JUMP JUMPDEST PUSH0 DUP2 SWAP1 POP SWAP2 SWAP1 POP JUMP JUMPDEST PUSH2 0x332D DUP2 PUSH2 0x331B JUMP JUMPDEST DUP2 EQ PUSH2 0x3337 JUMPI PUSH0 PUSH0 REVERT JUMPDEST POP JUMP JUMPDEST PUSH0 DUP2 CALLDATALOAD SWAP1 POP PUSH2 0x3348 DUP2 PUSH2 0x3324 JUMP JUMPDEST SWAP3 SWAP2 POP POP JUMP JUMPDEST PUSH0 PUSH1 0xFF DUP3 AND SWAP1 POP SWAP2 SWAP1 POP JUMP JUMPDEST PUSH2 0x3363 DUP2 PUSH2 0x334E JUMP JUMPDEST DUP2 EQ PUSH2 0x336D JUMPI PUSH0 PUSH0 REVERT JUMPDEST POP JUMP JUMPDEST PUSH0 DUP2 CALLDATALOAD SWAP1 POP PUSH2 0x337E DUP2 PUSH2 0x335A JUMP JUMPDEST SWAP3 SWAP2 POP POP JUMP JUMPDEST PUSH0 PUSH0 PUSH0 PUSH0 PUSH0 PUSH0 PUSH0 PUSH0 PUSH0 PUSH2 0x120 DUP11 DUP13 SUB SLT ISZERO PUSH2 0x33A2 JUMPI PUSH2 0x33A1 PUSH2 0x2FF6 JUMP JUMPDEST JUMPDEST PUSH0 PUSH2 0x33AF DUP13 DUP3 DUP14 ADD PUSH2 0x3014 JUMP JUMPDEST SWAP10 POP POP PUSH1 0x20 PUSH2 0x33C0 DUP13 DUP3 DUP14 ADD PUSH2 0x3014 JUMP JUMPDEST SWAP9 POP POP PUSH1 0x40 DUP11 ADD CALLDATALOAD PUSH8 0xFFFFFFFFFFFFFFFF DUP2 GT ISZERO PUSH2 0x33E1 JUMPI PUSH2 0x33E0 PUSH2 0x2FFA JUMP JUMPDEST JUMPDEST PUSH2 0x33ED DUP13 DUP3 DUP14 ADD PUSH2 0x326E JUMP JUMPDEST SWAP8 POP POP PUSH1 0x60 PUSH2 0x33FE DUP13 DUP3 DUP14 ADD PUSH2 0x3014 JUMP JUMPDEST SWAP7 POP POP PUSH1 0x80 PUSH2 0x340F DUP13 DUP3 DUP14 ADD PUSH2 0x3014 JUMP JUMPDEST SWAP6 POP POP PUSH1 0xA0 PUSH2 0x3420 DUP13 DUP3 DUP14 ADD PUSH2 0x333A JUMP JUMPDEST SWAP5 POP POP PUSH1 0xC0 PUSH2 0x3431 DUP13 DUP3 DUP14 ADD PUSH2 0x3370 JUMP JUMPDEST SWAP4 POP POP PUSH1 0xE0 PUSH2 0x3442 DUP13 DUP3 DUP14 ADD PUSH2 0x333A JUMP JUMPDEST SWAP3 POP POP PUSH2 0x100 PUSH2 0x3454 DUP13 DUP3 DUP14 ADD PUSH2 0x333A JUMP JUMPDEST SWAP2 POP POP SWAP3 SWAP6 SWAP9 POP SWAP3 SWAP6 SWAP9 POP SWAP3 SWAP6 SWAP9 JUMP JUMPDEST PUSH0 PUSH2 0x346E DUP3 PUSH2 0x309C JUMP JUMPDEST SWAP1 POP SWAP2 SWAP1 POP JUMP JUMPDEST PUSH2 0x347E DUP2 PUSH2 0x3464 JUMP JUMPDEST DUP3 MSTORE POP POP JUMP JUMPDEST PUSH0 PUSH1 0x20 DUP3 ADD SWAP1 POP PUSH2 0x3497 PUSH0 DUP4 ADD DUP5 PUSH2 0x3475 JUMP JUMPDEST SWAP3 SWAP2 POP POP JUMP JUMPDEST PUSH0 PUSH1 0x20 DUP3 DUP5 SUB SLT ISZERO PUSH2 0x34B2 JUMPI PUSH2 0x34B1 PUSH2 0x2FF6 JUMP JUMPDEST JUMPDEST PUSH0 DUP3 ADD CALLDATALOAD PUSH8 0xFFFFFFFFFFFFFFFF DUP2 GT ISZERO PUSH2 0x34CF JUMPI PUSH2 0x34CE PUSH2 0x2FFA JUMP JUMPDEST JUMPDEST PUSH2 0x34DB DUP5 DUP3 DUP6 ADD PUSH2 0x326E JUMP JUMPDEST SWAP2 POP POP SWAP3 SWAP2 POP POP JUMP JUMPDEST PUSH2 0x34ED DUP2 PUSH2 0x30E6 JUMP JUMPDEST DUP3 MSTORE POP POP JUMP JUMPDEST PUSH2 0x34FC DUP2 PUSH2 0x2FBC JUMP JUMPDEST DUP3 MSTORE POP POP JUMP JUMPDEST PUSH0 PUSH1 0x6 SWAP1 POP SWAP2 SWAP1 POP JUMP JUMPDEST PUSH0 DUP2 SWAP1 POP SWAP3 SWAP2 POP POP JUMP JUMPDEST PUSH0 DUP2 SWAP1 POP SWAP2 SWAP1 POP JUMP JUMPDEST PUSH0 PUSH2 0x352A DUP4 DUP4 PUSH2 0x34F3 JUMP JUMPDEST PUSH1 0x20 DUP4 ADD SWAP1 POP SWAP3 SWAP2 POP POP JUMP JUMPDEST PUSH0 PUSH1 0x20 DUP3 ADD SWAP1 POP SWAP2 SWAP1 POP JUMP JUMPDEST PUSH2 0x354B DUP2 PUSH2 0x3502 JUMP JUMPDEST PUSH2 0x3555 DUP2 DUP5 PUSH2 0x350C JUMP JUMPDEST SWAP3 POP PUSH2 0x3560 DUP3 PUSH2 0x3516 JUMP JUMPDEST DUP1 PUSH0 JUMPDEST DUP4 DUP2 LT ISZERO PUSH2 0x3590 JUMPI DUP2 MLOAD PUSH2 0x3577 DUP8 DUP3 PUSH2 0x351F JUMP JUMPDEST SWAP7 POP PUSH2 0x3582 DUP4 PUSH2 0x3536 JUMP JUMPDEST SWAP3 POP POP PUSH1 0x1 DUP2 ADD SWAP1 POP PUSH2 0x3563 JUMP JUMPDEST POP POP POP POP POP POP JUMP JUMPDEST PUSH2 0x160 DUP3 ADD PUSH0 DUP3 ADD MLOAD PUSH2 0x35AD PUSH0 DUP6 ADD DUP3 PUSH2 0x34E4 JUMP JUMPDEST POP PUSH1 0x20 DUP3 ADD MLOAD PUSH2 0x35C0 PUSH1 0x20 DUP6 ADD DUP3 PUSH2 0x34E4 JUMP JUMPDEST POP PUSH1 0x40 DUP3 ADD MLOAD PUSH2 0x35D3 PUSH1 0x40 DUP6 ADD DUP3 PUSH2 0x34F3 JUMP JUMPDEST POP PUSH1 0x60 DUP3 ADD MLOAD PUSH2 0x35E6 PUSH1 0x60 DUP6 ADD DUP3 PUSH2 0x3542 JUMP JUMPDEST POP PUSH1 0x80 DUP3 ADD MLOAD PUSH2 0x35FA PUSH2 0x120 DUP6 ADD DUP3 PUSH2 0x34F3 JUMP JUMPDEST POP PUSH1 0xA0 DUP3 ADD MLOAD PUSH2 0x360E PUSH2 0x140 DUP6 ADD DUP3 PUSH2 0x34F3 JUMP JUMPDEST POP POP POP POP JUMP JUMPDEST PUSH0 PUSH2 0x160 DUP3 ADD SWAP1 POP PUSH2 0x3628 PUSH0 DUP4 ADD DUP5 PUSH2 0x3598 JUMP JUMPDEST SWAP3 SWAP2 POP POP JUMP JUMPDEST PUSH0 PUSH0 PUSH0 PUSH1 0x60 DUP5 DUP7 SUB SLT ISZERO PUSH2 0x3645 JUMPI PUSH2 0x3644 PUSH2 0x2FF6 JUMP JUMPDEST JUMPDEST PUSH0 PUSH2 0x3652 DUP7 DUP3 DUP8 ADD PUSH2 0x3014 JUMP JUMPDEST SWAP4 POP POP PUSH1 0x20 PUSH2 0x3663 DUP7 DUP3 DUP8 ADD PUSH2 0x3014 JUMP JUMPDEST SWAP3 POP POP PUSH1 0x40 DUP5 ADD CALLDATALOAD PUSH8 0xFFFFFFFFFFFFFFFF DUP2 GT ISZERO PUSH2 0x3684 JUMPI PUSH2 0x3683 PUSH2 0x2FFA JUMP JUMPDEST JUMPDEST PUSH2 0x3690 DUP7 DUP3 DUP8 ADD PUSH2 0x326E JUMP JUMPDEST SWAP2 POP POP SWAP3 POP SWAP3 POP SWAP3 JUMP JUMPDEST PUSH0 PUSH1 0xA0 DUP3 ADD SWAP1 POP PUSH2 0x36AD PUSH0 DUP4 ADD DUP9 PUSH2 0x2FC5 JUMP JUMPDEST PUSH2 0x36BA PUSH1 0x20 DUP4 ADD DUP8 PUSH2 0x2FC5 JUMP JUMPDEST PUSH2 0x36C7 PUSH1 0x40 DUP4 ADD DUP7 PUSH2 0x2FC5 JUMP JUMPDEST PUSH2 0x36D4 PUSH1 0x60 DUP4 ADD DUP6 PUSH2 0x2FC5 JUMP JUMPDEST PUSH2 0x36E1 PUSH1 0x80 DUP4 ADD DUP5 PUSH2 0x2FC5 JUMP JUMPDEST SWAP7 SWAP6 POP POP POP POP POP POP JUMP JUMPDEST PUSH0 PUSH0 PUSH1 0x40 DUP4 DUP6 SUB SLT ISZERO PUSH2 0x3701 JUMPI PUSH2 0x3700 PUSH2 0x2FF6 JUMP JUMPDEST JUMPDEST PUSH0 PUSH2 0x370E DUP6 DUP3 DUP7 ADD PUSH2 0x3014 JUMP JUMPDEST SWAP3 POP POP PUSH1 0x20 PUSH2 0x371F DUP6 DUP3 DUP7 ADD PUSH2 0x3014 JUMP JUMPDEST SWAP2 POP POP SWAP3 POP SWAP3 SWAP1 POP JUMP JUMPDEST PUSH2 0x3732 DUP2 PUSH2 0x30E6 JUMP JUMPDEST DUP3 MSTORE POP POP JUMP JUMPDEST PUSH0 PUSH1 0x20 DUP3 ADD SWAP1 POP PUSH2 0x374B PUSH0 DUP4 ADD DUP5 PUSH2 0x3729 JUMP JUMPDEST SWAP3 SWAP2 POP POP JUMP JUMPDEST PUSH0 DUP2 ISZERO ISZERO SWAP1 POP SWAP2 SWAP1 POP JUMP JUMPDEST PUSH2 0x3765 DUP2 PUSH2 0x3751 JUMP JUMPDEST DUP3 MSTORE POP POP JUMP JUMPDEST PUSH0 PUSH1 0xC0 DUP3 ADD SWAP1 POP PUSH2 0x377E PUSH0 DUP4 ADD DUP10 PUSH2 0x2FC5 JUMP JUMPDEST PUSH2 0x378B PUSH1 0x20 DUP4 ADD DUP9 PUSH2 0x3729 JUMP JUMPDEST PUSH2 0x3798 PUSH1 0x40 DUP4 ADD DUP8 PUSH2 0x2FC5 JUMP JUMPDEST PUSH2 0x37A5 PUSH1 0x60 DUP4 ADD DUP7 PUSH2 0x2FC5 JUMP JUMPDEST PUSH2 0x37B2 PUSH1 0x80 DUP4 ADD DUP6 PUSH2 0x375C JUMP JUMPDEST PUSH2 0x37BF PUSH1 0xA0 DUP4 ADD DUP5 PUSH2 0x375C JUMP JUMPDEST SWAP8 SWAP7 POP POP POP POP POP POP POP JUMP JUMPDEST PUSH0 PUSH1 0x20 DUP3 DUP5 SUB SLT ISZERO PUSH2 0x37DF JUMPI PUSH2 0x37DE PUSH2 0x2FF6 JUMP JUMPDEST JUMPDEST PUSH0 PUSH2 0x37EC DUP5 DUP3 DUP6 ADD PUSH2 0x310D JUMP JUMPDEST SWAP2 POP POP SWAP3 SWAP2 POP POP JUMP JUMPDEST PUSH0 PUSH1 0x20 DUP3 ADD SWAP1 POP PUSH2 0x3808 PUSH0 DUP4 ADD DUP5 PUSH2 0x375C JUMP JUMPDEST SWAP3 SWAP2 POP POP JUMP JUMPDEST PUSH0 PUSH8 0xFFFFFFFFFFFFFFFF DUP3 GT ISZERO PUSH2 0x3828 JUMPI PUSH2 0x3827 PUSH2 0x3177 JUMP JUMPDEST JUMPDEST PUSH1 0x20 DUP3 MUL SWAP1 POP SWAP2 SWAP1 POP JUMP JUMPDEST PUSH0 PUSH0 REVERT JUMPDEST PUSH0 PUSH2 0x3849 PUSH2 0x3844 DUP5 PUSH2 0x380E JUMP JUMPDEST PUSH2 0x31D5 JUMP JUMPDEST SWAP1 POP DUP1 PUSH1 0x20 DUP5 MUL DUP4 ADD DUP6 DUP2 GT ISZERO PUSH2 0x3863 JUMPI PUSH2 0x3862 PUSH2 0x3833 JUMP JUMPDEST JUMPDEST DUP4 JUMPDEST DUP2 DUP2 LT ISZERO PUSH2 0x388C JUMPI DUP1 PUSH2 0x3878 DUP9 DUP3 PUSH2 0x3014 JUMP JUMPDEST DUP5 MSTORE PUSH1 0x20 DUP5 ADD SWAP4 POP POP PUSH1 0x20 DUP2 ADD SWAP1 POP PUSH2 0x3865 JUMP JUMPDEST POP POP POP SWAP4 SWAP3 POP POP POP JUMP JUMPDEST PUSH0 DUP3 PUSH1 0x1F DUP4 ADD SLT PUSH2 0x38AA JUMPI PUSH2 0x38A9 PUSH2 0x315F JUMP JUMPDEST JUMPDEST PUSH1 0x6 PUSH2 0x38B7 DUP5 DUP3 DUP6 PUSH2 0x3837 JUMP JUMPDEST SWAP2 POP POP SWAP3 SWAP2 POP POP JUMP JUMPDEST PUSH0 PUSH0 PUSH2 0x180 DUP4 DUP6 SUB SLT ISZERO PUSH2 0x38D7 JUMPI PUSH2 0x38D6 PUSH2 0x2FF6 JUMP JUMPDEST JUMPDEST PUSH0 PUSH2 0x38E4 DUP6 DUP3 DUP7 ADD PUSH2 0x3896 JUMP JUMPDEST SWAP3 POP POP PUSH1 0xC0 PUSH2 0x38F5 DUP6 DUP3 DUP7 ADD PUSH2 0x3896 JUMP JUMPDEST SWAP2 POP POP SWAP3 POP SWAP3 SWAP1 POP JUMP JUMPDEST PUSH0 DUP3 DUP3 MSTORE PUSH1 0x20 DUP3 ADD SWAP1 POP SWAP3 SWAP2 POP POP JUMP JUMPDEST PUSH32 0x496E76616C696420726172697479204944000000000000000000000000000000 PUSH0 DUP3 ADD MSTORE POP JUMP JUMPDEST PUSH0 PUSH2 0x3943 PUSH1 0x11 DUP4 PUSH2 0x38FF JUMP JUMPDEST SWAP2 POP PUSH2 0x394E DUP3 PUSH2 0x390F JUMP JUMPDEST PUSH1 0x20 DUP3 ADD SWAP1 POP SWAP2 SWAP1 POP JUMP JUMPDEST PUSH0 PUSH1 0x20 DUP3 ADD SWAP1 POP DUP2 DUP2 SUB PUSH0 DUP4 ADD MSTORE PUSH2 0x3970 DUP2 PUSH2 0x3937 JUMP JUMPDEST SWAP1 POP SWAP2 SWAP1 POP JUMP JUMPDEST PUSH32 0x4E487B7100000000000000000000000000000000000000000000000000000000 PUSH0 MSTORE PUSH1 0x32 PUSH1 0x4 MSTORE PUSH1 0x24 PUSH0 REVERT JUMPDEST PUSH32 0x4E487B7100000000000000000000000000000000000000000000000000000000 PUSH0 MSTORE PUSH1 0x11 PUSH1 0x4 MSTORE PUSH1 0x24 PUSH0 REVERT JUMPDEST PUSH0 PUSH2 0x39DB DUP3 PUSH2 0x2FBC JUMP JUMPDEST SWAP2 POP PUSH2 0x39E6 DUP4 PUSH2 0x2FBC JUMP JUMPDEST SWAP3 POP DUP3 DUP3 SUB SWAP1 POP DUP2 DUP2 GT ISZERO PUSH2 0x39FE JUMPI PUSH2 0x39FD PUSH2 0x39A4 JUMP JUMPDEST JUMPDEST SWAP3 SWAP2 POP POP JUMP JUMPDEST PUSH32 0x4E6F74206120626F617264206D656D6265720000000000000000000000000000 PUSH0 DUP3 ADD MSTORE POP JUMP JUMPDEST PUSH0 PUSH2 0x3A38 PUSH1 0x12 DUP4 PUSH2 0x38FF JUMP JUMPDEST SWAP2 POP PUSH2 0x3A43 DUP3 PUSH2 0x3A04 JUMP JUMPDEST PUSH1 0x20 DUP3 ADD SWAP1 POP SWAP2 SWAP1 POP JUMP JUMPDEST PUSH0 PUSH1 0x20 DUP3 ADD SWAP1 POP DUP2 DUP2 SUB PUSH0 DUP4 ADD MSTORE PUSH2 0x3A65 DUP2 PUSH2 0x3A2C JUMP JUMPDEST SWAP1 POP SWAP2 SWAP1 POP JUMP JUMPDEST PUSH32 0x416D6F756E74206D7573742062652067726561746572207468616E207A65726F PUSH0 DUP3 ADD MSTORE POP JUMP JUMPDEST PUSH0 PUSH2 0x3AA0 PUSH1 0x20 DUP4 PUSH2 0x38FF JUMP JUMPDEST SWAP2 POP PUSH2 0x3AAB DUP3 PUSH2 0x3A6C JUMP JUMPDEST PUSH1 0x20 DUP3 ADD SWAP1 POP SWAP2 SWAP1 POP JUMP JUMPDEST PUSH0 PUSH1 0x20 DUP3 ADD SWAP1 POP DUP2 DUP2 SUB PUSH0 DUP4 ADD MSTORE PUSH2 0x3ACD DUP2 PUSH2 0x3A94 JUMP JUMPDEST SWAP1 POP SWAP2 SWAP1 POP JUMP JUMPDEST PUSH32 0x496E76616C696420726563697069656E74000000000000000000000000000000 PUSH0 DUP3 ADD MSTORE POP JUMP JUMPDEST PUSH0 PUSH2 0x3B08 PUSH1 0x11 DUP4 PUSH2 0x38FF JUMP JUMPDEST SWAP2 POP PUSH2 0x3B13 DUP3 PUSH2 0x3AD4 JUMP JUMPDEST PUSH1 0x20 DUP3 ADD SWAP1 POP SWAP2 SWAP1 POP JUMP JUMPDEST PUSH0 PUSH1 0x20 DUP3 ADD SWAP1 POP DUP2 DUP2 SUB PUSH0 DUP4 ADD MSTORE PUSH2 0x3B35 DUP2 PUSH2 0x3AFC JUMP JUMPDEST SWAP1 POP SWAP2 SWAP1 POP JUMP JUMPDEST PUSH0 DUP2 MLOAD SWAP1 POP PUSH2 0x3B4A DUP2 PUSH2 0x2FFE JUMP JUMPDEST SWAP3 SWAP2 POP POP JUMP JUMPDEST PUSH0 PUSH1 0x20 DUP3 DUP5 SUB SLT ISZERO PUSH2 0x3B65 JUMPI PUSH2 0x3B64 PUSH2 0x2FF6 JUMP JUMPDEST JUMPDEST PUSH0 PUSH2 0x3B72 DUP5 DUP3 DUP6 ADD PUSH2 0x3B3C JUMP JUMPDEST SWAP2 POP POP SWAP3 SWAP2 POP POP JUMP JUMPDEST PUSH32 0x496E73756666696369656E742062616C616E6365000000000000000000000000 PUSH0 DUP3 ADD MSTORE POP JUMP JUMPDEST PUSH0 PUSH2 0x3BAF PUSH1 0x14 DUP4 PUSH2 0x38FF JUMP JUMPDEST SWAP2 POP PUSH2 0x3BBA DUP3 PUSH2 0x3B7B JUMP JUMPDEST PUSH1 0x20 DUP3 ADD SWAP1 POP SWAP2 SWAP1 POP JUMP JUMPDEST PUSH0 PUSH1 0x20 DUP3 ADD SWAP1 POP DUP2 DUP2 SUB PUSH0 DUP4 ADD MSTORE PUSH2 0x3BDC DUP2 PUSH2 0x3BA3 JUMP JUMPDEST SWAP1 POP SWAP2 SWAP1 POP JUMP JUMPDEST PUSH0 PUSH2 0x3BED DUP3 PUSH2 0x2FBC JUMP JUMPDEST SWAP2 POP PUSH32 0xFFFFFFFFFFFFFFFFFFFFFFFFFFFFFFFFFFFFFFFFFFFFFFFFFFFFFFFFFFFFFFFF DUP3 SUB PUSH2 0x3C1F JUMPI PUSH2 0x3C1E PUSH2 0x39A4 JUMP JUMPDEST JUMPDEST PUSH1 0x1 DUP3 ADD SWAP1 POP SWAP2 SWAP1 POP JUMP JUMPDEST PUSH0 PUSH1 0x40 DUP3 ADD SWAP1 POP PUSH2 0x3C3D PUSH0 DUP4 ADD DUP6 PUSH2 0x2FC5 JUMP JUMPDEST PUSH2 0x3C4A PUSH1 0x20 DUP4 ADD DUP5 PUSH2 0x3729 JUMP JUMPDEST SWAP4 SWAP3 POP POP POP JUMP JUMPDEST PUSH32 0x416C726561647920657865637574656400000000000000000000000000000000 PUSH0 DUP3 ADD MSTORE POP JUMP JUMPDEST PUSH0 PUSH2 0x3C85 PUSH1 0x10 DUP4 PUSH2 0x38FF JUMP JUMPDEST SWAP2 POP PUSH2 0x3C90 DUP3 PUSH2 0x3C51 JUMP JUMPDEST PUSH1 0x20 DUP3 ADD SWAP1 POP SWAP2 SWAP1 POP JUMP JUMPDEST PUSH0 PUSH1 0x20 DUP3 ADD SWAP1 POP DUP2 DUP2 SUB PUSH0 DUP4 ADD MSTORE PUSH2 0x3CB2 DUP2 PUSH2 0x3C79 JUMP JUMPDEST SWAP1 POP SWAP2 SWAP1 POP JUMP JUMPDEST PUSH32 0x5265717565737420626C6F636B65640000000000000000000000000000000000 PUSH0 DUP3 ADD MSTORE POP JUMP JUMPDEST PUSH0 PUSH2 0x3CED PUSH1 0xF DUP4 PUSH2 0x38FF JUMP JUMPDEST SWAP2 POP PUSH2 0x3CF8 DUP3 PUSH2 0x3CB9 JUMP JUMPDEST PUSH1 0x20 DUP3 ADD SWAP1 POP SWAP2 SWAP1 POP JUMP JUMPDEST PUSH0 PUSH1 0x20 DUP3 ADD SWAP1 POP DUP2 DUP2 SUB PUSH0 DUP4 ADD MSTORE PUSH2 0x3D1A DUP2 PUSH2 0x3CE1 JUMP JUMPDEST SWAP1 POP SWAP2 SWAP1 POP JUMP JUMPDEST PUSH0 PUSH2 0x3D2B DUP3 PUSH2 0x2FBC JUMP JUMPDEST SWAP2 POP PUSH2 0x3D36 DUP4 PUSH2 0x2FBC JUMP JUMPDEST SWAP3 POP DUP3 DUP3 ADD SWAP1 POP DUP1 DUP3 GT ISZERO PUSH2 0x3D4E JUMPI PUSH2 0x3D4D PUSH2 0x39A4 JUMP JUMPDEST JUMPDEST SWAP3 SWAP2 POP POP JUMP JUMPDEST PUSH32 0x54696D656F7574206E6F74207265616368656400000000000000000000000000 PUSH0 DUP3 ADD MSTORE POP JUMP JUMPDEST PUSH0 PUSH2 0x3D88 PUSH1 0x13 DUP4 PUSH2 0x38FF JUMP JUMPDEST SWAP2 POP PUSH2 0x3D93 DUP3 PUSH2 0x3D54 JUMP JUMPDEST PUSH1 0x20 DUP3 ADD SWAP1 POP SWAP2 SWAP1 POP JUMP JUMPDEST PUSH0 PUSH1 0x20 DUP3 ADD SWAP1 POP DUP2 DUP2 SUB PUSH0 DUP4 ADD MSTORE PUSH2 0x3DB5 DUP2 PUSH2 0x3D7C JUMP JUMPDEST SWAP1 POP SWAP2 SWAP1 POP JUMP JUMPDEST PUSH32 0x456D70747920636F646500000000000000000000000000000000000000000000 PUSH0 DUP3 ADD MSTORE POP JUMP JUMPDEST PUSH0 PUSH2 0x3DF0 PUSH1 0xA DUP4 PUSH2 0x38FF JUMP JUMPDEST SWAP2 POP PUSH2 0x3DFB DUP3 PUSH2 0x3DBC JUMP JUMPDEST PUSH1 0x20 DUP3 ADD SWAP1 POP SWAP2 SWAP1 POP JUMP JUMPDEST PUSH0 PUSH1 0x20 DUP3 ADD SWAP1 POP DUP2 DUP2 SUB PUSH0 DUP4 ADD MSTORE PUSH2 0x3E1D DUP2 PUSH2 0x3DE4 JUMP JUMPDEST SWAP1 POP SWAP2 SWAP1 POP JUMP JUMPDEST PUSH32 0x496E76616C696420616D6261737361646F722061646472657373000000000000 PUSH0 DUP3 ADD MSTORE POP JUMP JUMPDEST PUSH0 PUSH2 0x3E58 PUSH1 0x1A DUP4 PUSH2 0x38FF JUMP JUMPDEST SWAP2 POP PUSH2 0x3E63 DUP3 PUSH2 0x3E24 JUMP JUMPDEST PUSH1 0x20 DUP3 ADD SWAP1 POP SWAP2 SWAP1 POP JUMP JUMPDEST PUSH0 PUSH1 0x20 DUP3 ADD SWAP1 POP DUP2 DUP2 SUB PUSH0 DUP4 ADD MSTORE PUSH2 0x3E85 DUP2 PUSH2 0x3E4C JUMP JUMPDEST SWAP1 POP SWAP2 SWAP1 POP JUMP JUMPDEST PUSH32 0x446973636F756E7420746F6F2068696768000000000000000000000000000000 PUSH0 DUP3 ADD MSTORE POP JUMP JUMPDEST PUSH0 PUSH2 0x3EC0 PUSH1 0x11 DUP4 PUSH2 0x38FF JUMP JUMPDEST SWAP2 POP PUSH2 0x3ECB DUP3 PUSH2 0x3E8C JUMP JUMPDEST PUSH1 0x20 DUP3 ADD SWAP1 POP SWAP2 SWAP1 POP JUMP JUMPDEST PUSH0 PUSH1 0x20 DUP3 ADD SWAP1 POP DUP2 DUP2 SUB PUSH0 DUP4 ADD MSTORE PUSH2 0x3EED DUP2 PUSH2 0x3EB4 JUMP JUMPDEST SWAP1 POP SWAP2 SWAP1 POP JUMP JUMPDEST PUSH0 DUP2 MLOAD SWAP1 POP SWAP2 SWAP1 POP JUMP JUMPDEST PUSH0 DUP2 SWAP1 POP SWAP3 SWAP2 POP POP JUMP JUMPDEST DUP3 DUP2 DUP4 MCOPY PUSH0 DUP4 DUP4 ADD MSTORE POP POP POP JUMP JUMPDEST PUSH0 PUSH2 0x3F20 DUP3 PUSH2 0x3EF4 JUMP JUMPDEST PUSH2 0x3F2A DUP2 DUP6 PUSH2 0x3EFE JUMP JUMPDEST SWAP4 POP PUSH2 0x3F3A DUP2 DUP6 PUSH1 0x20 DUP7 ADD PUSH2 0x3F08 JUMP JUMPDEST DUP1 DUP5 ADD SWAP2 POP POP SWAP3 SWAP2 POP POP JUMP JUMPDEST PUSH0 PUSH2 0x3F51 DUP3 DUP5 PUSH2 0x3F16 JUMP JUMPDEST SWAP2 POP DUP2 SWAP1 POP SWAP3 SWAP2 POP POP JUMP JUMPDEST PUSH32 0x436F646520616C72656164792065786973747300000000000000000000000000 PUSH0 DUP3 ADD MSTORE POP JUMP JUMPDEST PUSH0 PUSH2 0x3F90 PUSH1 0x13 DUP4 PUSH2 0x38FF JUMP JUMPDEST SWAP2 POP PUSH2 0x3F9B DUP3 PUSH2 0x3F5C JUMP JUMPDEST PUSH1 0x20 DUP3 ADD SWAP1 POP SWAP2 SWAP1 POP JUMP JUMPDEST PUSH0 PUSH1 0x20 DUP3 ADD SWAP1 POP DUP2 DUP2 SUB PUSH0 DUP4 ADD MSTORE PUSH2 0x3FBD DUP2 PUSH2 0x3F84 JUMP JUMPDEST SWAP1 POP SWAP2 SWAP1 POP JUMP JUMPDEST PUSH2 0x3FCD DUP2 PUSH2 0x331B JUMP JUMPDEST DUP3 MSTORE POP POP JUMP JUMPDEST PUSH2 0x3FDC DUP2 PUSH2 0x334E JUMP JUMPDEST DUP3 MSTORE POP POP JUMP JUMPDEST PUSH0 PUSH2 0x120 DUP3 ADD SWAP1 POP PUSH2 0x3FF6 PUSH0 DUP4 ADD DUP13 PUSH2 0x3729 JUMP JUMPDEST PUSH2 0x4003 PUSH1 0x20 DUP4 ADD DUP12 PUSH2 0x3729 JUMP JUMPDEST PUSH2 0x4010 PUSH1 0x40 DUP4 ADD DUP11 PUSH2 0x2FC5 JUMP JUMPDEST PUSH2 0x401D PUSH1 0x60 DUP4 ADD DUP10 PUSH2 0x2FC5 JUMP JUMPDEST PUSH2 0x402A PUSH1 0x80 DUP4 ADD DUP9 PUSH2 0x2FC5 JUMP JUMPDEST PUSH2 0x4037 PUSH1 0xA0 DUP4 ADD DUP8 PUSH2 0x3FC4 JUMP JUMPDEST PUSH2 0x4044 PUSH1 0xC0 DUP4 ADD DUP7 PUSH2 0x3FD3 JUMP JUMPDEST PUSH2 0x4051 PUSH1 0xE0 DUP4 ADD DUP6 PUSH2 0x3FC4 JUMP JUMPDEST PUSH2 0x405F PUSH2 0x100 DUP4 ADD DUP5 PUSH2 0x3FC4 JUMP JUMPDEST SWAP11 SWAP10 POP POP POP POP POP POP POP POP POP POP JUMP JUMPDEST PUSH2 0x4076 DUP2 PUSH2 0x3751 JUMP JUMPDEST DUP2 EQ PUSH2 0x4080 JUMPI PUSH0 PUSH0 REVERT JUMPDEST POP JUMP JUMPDEST PUSH0 DUP2 MLOAD SWAP1 POP PUSH2 0x4091 DUP2 PUSH2 0x406D JUMP JUMPDEST SWAP3 SWAP2 POP POP JUMP JUMPDEST PUSH0 PUSH1 0x20 DUP3 DUP5 SUB SLT ISZERO PUSH2 0x40AC JUMPI PUSH2 0x40AB PUSH2 0x2FF6 JUMP JUMPDEST JUMPDEST PUSH0 PUSH2 0x40B9 DUP5 DUP3 DUP6 ADD PUSH2 0x4083 JUMP JUMPDEST SWAP2 POP POP SWAP3 SWAP2 POP POP JUMP JUMPDEST PUSH0 PUSH1 0x60 DUP3 ADD SWAP1 POP PUSH2 0x40D5 PUSH0 DUP4 ADD DUP7 PUSH2 0x3729 JUMP JUMPDEST PUSH2 0x40E2 PUSH1 0x20 DUP4 ADD DUP6 PUSH2 0x2FC5 JUMP JUMPDEST PUSH2 0x40EF PUSH1 0x40 DUP4 ADD DUP5 PUSH2 0x2FC5 JUMP JUMPDEST SWAP5 SWAP4 POP POP POP POP JUMP JUMPDEST PUSH0 PUSH1 0x40 DUP3 ADD SWAP1 POP PUSH2 0x410A PUSH0 DUP4 ADD DUP6 PUSH2 0x2FC5 JUMP JUMPDEST PUSH2 0x4117 PUSH1 0x20 DUP4 ADD DUP5 PUSH2 0x2FC5 JUMP JUMPDEST SWAP4 SWAP3 POP POP POP JUMP JUMPDEST PUSH32 0x4E6F20636F64652070726F766964656400000000000000000000000000000000 PUSH0 DUP3 ADD MSTORE POP JUMP JUMPDEST PUSH0 PUSH2 0x4152 PUSH1 0x10 DUP4 PUSH2 0x38FF JUMP JUMPDEST SWAP2 POP PUSH2 0x415D DUP3 PUSH2 0x411E JUMP JUMPDEST PUSH1 0x20 DUP3 ADD SWAP1 POP SWAP2 SWAP1 POP JUMP JUMPDEST PUSH0 PUSH1 0x20 DUP3 ADD SWAP1 POP DUP2 DUP2 SUB PUSH0 DUP4 ADD MSTORE PUSH2 0x417F DUP2 PUSH2 0x4146 JUMP JUMPDEST SWAP1 POP SWAP2 SWAP1 POP JUMP JUMPDEST PUSH32 0x496E76616C696420636F64650000000000000000000000000000000000000000 PUSH0 DUP3 ADD MSTORE POP JUMP JUMPDEST PUSH0 PUSH2 0x41BA PUSH1 0xC DUP4 PUSH2 0x38FF JUMP JUMPDEST SWAP2 POP PUSH2 0x41C5 DUP3 PUSH2 0x4186 JUMP JUMPDEST PUSH1 0x20 DUP3 ADD SWAP1 POP SWAP2 SWAP1 POP JUMP JUMPDEST PUSH0 PUSH1 0x20 DUP3 ADD SWAP1 POP DUP2 DUP2 SUB PUSH0 DUP4 ADD MSTORE PUSH2 0x41E7 DUP2 PUSH2 0x41AE JUMP JUMPDEST SWAP1 POP SWAP2 SWAP1 POP JUMP JUMPDEST PUSH32 0x4E6F204E465473206C65667420696E2074686973207068617365000000000000 PUSH0 DUP3 ADD MSTORE POP JUMP JUMPDEST PUSH0 PUSH2 0x4222 PUSH1 0x1A DUP4 PUSH2 0x38FF JUMP JUMPDEST SWAP2 POP PUSH2 0x422D DUP3 PUSH2 0x41EE JUMP JUMPDEST PUSH1 0x20 DUP3 ADD SWAP1 POP SWAP2 SWAP1 POP JUMP JUMPDEST PUSH0 PUSH1 0x20 DUP3 ADD SWAP1 POP DUP2 DUP2 SUB PUSH0 DUP4 ADD MSTORE PUSH2 0x424F DUP2 PUSH2 0x4216 JUMP JUMPDEST SWAP1 POP SWAP2 SWAP1 POP JUMP JUMPDEST PUSH32 0x457863656564732070686173652072656D61696E696E6720737570706C790000 PUSH0 DUP3 ADD MSTORE POP JUMP JUMPDEST PUSH0 PUSH2 0x428A PUSH1 0x1E DUP4 PUSH2 0x38FF JUMP JUMPDEST SWAP2 POP PUSH2 0x4295 DUP3 PUSH2 0x4256 JUMP JUMPDEST PUSH1 0x20 DUP3 ADD SWAP1 POP SWAP2 SWAP1 POP JUMP JUMPDEST PUSH0 PUSH1 0x20 DUP3 ADD SWAP1 POP DUP2 DUP2 SUB PUSH0 DUP4 ADD MSTORE PUSH2 0x42B7 DUP2 PUSH2 0x427E JUMP JUMPDEST SWAP1 POP SWAP2 SWAP1 POP JUMP JUMPDEST PUSH0 PUSH2 0x42C8 DUP3 PUSH2 0x2FBC JUMP JUMPDEST SWAP2 POP PUSH2 0x42D3 DUP4 PUSH2 0x2FBC JUMP JUMPDEST SWAP3 POP DUP3 DUP3 MUL PUSH2 0x42E1 DUP2 PUSH2 0x2FBC JUMP JUMPDEST SWAP2 POP DUP3 DUP3 DIV DUP5 EQ DUP4 ISZERO OR PUSH2 0x42F8 JUMPI PUSH2 0x42F7 PUSH2 0x39A4 JUMP JUMPDEST JUMPDEST POP SWAP3 SWAP2 POP POP JUMP JUMPDEST PUSH32 0x5468697320636F6465206973206F6E6C7920666F722073656C662D7573616765 PUSH0 DUP3 ADD MSTORE POP JUMP JUMPDEST PUSH0 PUSH2 0x4333 PUSH1 0x20 DUP4 PUSH2 0x38FF JUMP JUMPDEST SWAP2 POP PUSH2 0x433E DUP3 PUSH2 0x42FF JUMP JUMPDEST PUSH1 0x20 DUP3 ADD SWAP1 POP SWAP2 SWAP1 POP JUMP JUMPDEST PUSH0 PUSH1 0x20 DUP3 ADD SWAP1 POP DUP2 DUP2 SUB PUSH0 DUP4 ADD MSTORE PUSH2 0x4360 DUP2 PUSH2 0x4327 JUMP JUMPDEST SWAP1 POP SWAP2 SWAP1 POP JUMP JUMPDEST PUSH32 0x4E487B7100000000000000000000000000000000000000000000000000000000 PUSH0 MSTORE PUSH1 0x12 PUSH1 0x4 MSTORE PUSH1 0x24 PUSH0 REVERT JUMPDEST PUSH0 PUSH2 0x439E DUP3 PUSH2 0x2FBC JUMP JUMPDEST SWAP2 POP PUSH2 0x43A9 DUP4 PUSH2 0x2FBC JUMP JUMPDEST SWAP3 POP DUP3 PUSH2 0x43B9 JUMPI PUSH2 0x43B8 PUSH2 0x4367 JUMP JUMPDEST JUMPDEST DUP3 DUP3 DIV SWAP1 POP SWAP3 SWAP2 POP POP JUMP JUMPDEST PUSH32 0x4E6F206163746976652070686173650000000000000000000000000000000000 PUSH0 DUP3 ADD MSTORE POP JUMP JUMPDEST PUSH0 PUSH2 0x43F8 PUSH1 0xF DUP4 PUSH2 0x38FF JUMP JUMPDEST SWAP2 POP PUSH2 0x4403 DUP3 PUSH2 0x43C4 JUMP JUMPDEST PUSH1 0x20 DUP3 ADD SWAP1 POP SWAP2 SWAP1 POP JUMP JUMPDEST PUSH0 PUSH1 0x20 DUP3 ADD SWAP1 POP DUP2 DUP2 SUB PUSH0 DUP4 ADD MSTORE PUSH2 0x4425 DUP2 PUSH2 0x43EC JUMP JUMPDEST SWAP1 POP SWAP2 SWAP1 POP JUMP JUMPDEST PUSH32 0x4E657720737570706C79206C657373207468616E20616C7265616479206D696E PUSH0 DUP3 ADD MSTORE PUSH32 0x7465640000000000000000000000000000000000000000000000000000000000 PUSH1 0x20 DUP3 ADD MSTORE POP JUMP JUMPDEST PUSH0 PUSH2 0x4486 PUSH1 0x23 DUP4 PUSH2 0x38FF JUMP JUMPDEST SWAP2 POP PUSH2 0x4491 DUP3 PUSH2 0x442C JUMP JUMPDEST PUSH1 0x40 DUP3 ADD SWAP1 POP SWAP2 SWAP1 POP JUMP JUMPDEST PUSH0 PUSH1 0x20 DUP3 ADD SWAP1 POP DUP2 DUP2 SUB PUSH0 DUP4 ADD MSTORE PUSH2 0x44B3 DUP2 PUSH2 0x447A JUMP JUMPDEST SWAP1 POP SWAP2 SWAP1 POP JUMP JUMPDEST PUSH32 0x4E657720737570706C7920657863656564732072656D61696E696E67204E4654 PUSH0 DUP3 ADD MSTORE PUSH32 0x20737570706C7900000000000000000000000000000000000000000000000000 PUSH1 0x20 DUP3 ADD MSTORE POP JUMP JUMPDEST PUSH0 PUSH2 0x4514 PUSH1 0x27 DUP4 PUSH2 0x38FF JUMP JUMPDEST SWAP2 POP PUSH2 0x451F DUP3 PUSH2 0x44BA JUMP JUMPDEST PUSH1 0x40 DUP3 ADD SWAP1 POP SWAP2 SWAP1 POP JUMP JUMPDEST PUSH0 PUSH1 0x20 DUP3 ADD SWAP1 POP DUP2 DUP2 SUB PUSH0 DUP4 ADD MSTORE PUSH2 0x4541 DUP2 PUSH2 0x4508 JUMP JUMPDEST SWAP1 POP SWAP2 SWAP1 POP JUMP JUMPDEST PUSH0 PUSH2 0x455A PUSH2 0x4555 DUP5 PUSH2 0x31EF JUMP JUMPDEST PUSH2 0x31D5 JUMP JUMPDEST SWAP1 POP DUP3 DUP2 MSTORE PUSH1 0x20 DUP2 ADD DUP5 DUP5 DUP5 ADD GT ISZERO PUSH2 0x4576 JUMPI PUSH2 0x4575 PUSH2 0x3163 JUMP JUMPDEST JUMPDEST PUSH2 0x4581 DUP5 DUP3 DUP6 PUSH2 0x3F08 JUMP JUMPDEST POP SWAP4 SWAP3 POP POP POP JUMP JUMPDEST PUSH0 DUP3 PUSH1 0x1F DUP4 ADD SLT PUSH2 0x459D JUMPI PUSH2 0x459C PUSH2 0x315F JUMP JUMPDEST JUMPDEST DUP2 MLOAD PUSH2 0x45AD DUP5 DUP3 PUSH1 0x20 DUP7 ADD PUSH2 0x4548 JUMP JUMPDEST SWAP2 POP POP SWAP3 SWAP2 POP POP JUMP JUMPDEST PUSH0 PUSH0 PUSH0 PUSH0 PUSH0 PUSH1 0xA0 DUP7 DUP9 SUB SLT ISZERO PUSH2 0x45CF JUMPI PUSH2 0x45CE PUSH2 0x2FF6 JUMP JUMPDEST JUMPDEST PUSH0 DUP7 ADD MLOAD PUSH8 0xFFFFFFFFFFFFFFFF DUP2 GT ISZERO PUSH2 0x45EC JUMPI PUSH2 0x45EB PUSH2 0x2FFA JUMP JUMPDEST JUMPDEST PUSH2 0x45F8 DUP9 DUP3 DUP10 ADD PUSH2 0x4589 JUMP JUMPDEST SWAP6 POP POP PUSH1 0x20 DUP7 ADD MLOAD PUSH8 0xFFFFFFFFFFFFFFFF DUP2 GT ISZERO PUSH2 0x4619 JUMPI PUSH2 0x4618 PUSH2 0x2FFA JUMP JUMPDEST JUMPDEST PUSH2 0x4625 DUP9 DUP3 DUP10 ADD PUSH2 0x4589 JUMP JUMPDEST SWAP5 POP POP PUSH1 0x40 PUSH2 0x4636 DUP9 DUP3 DUP10 ADD PUSH2 0x3B3C JUMP JUMPDEST SWAP4 POP POP PUSH1 0x60 PUSH2 0x4647 DUP9 DUP3 DUP10 ADD PUSH2 0x3B3C JUMP JUMPDEST SWAP3 POP POP PUSH1 0x80 PUSH2 0x4658 DUP9 DUP3 DUP10 ADD PUSH2 0x3B3C JUMP JUMPDEST SWAP2 POP POP SWAP3 SWAP6 POP SWAP3 SWAP6 SWAP1 SWAP4 POP JUMP JUMPDEST PUSH32 0x416C726561647920617070726F76656400000000000000000000000000000000 PUSH0 DUP3 ADD MSTORE POP JUMP JUMPDEST PUSH0 PUSH2 0x4699 PUSH1 0x10 DUP4 PUSH2 0x38FF JUMP JUMPDEST SWAP2 POP PUSH2 0x46A4 DUP3 PUSH2 0x4665 JUMP JUMPDEST PUSH1 0x20 DUP3 ADD SWAP1 POP SWAP2 SWAP1 POP JUMP JUMPDEST PUSH0 PUSH1 0x20 DUP3 ADD SWAP1 POP DUP2 DUP2 SUB PUSH0 DUP4 ADD MSTORE PUSH2 0x46C6 DUP2 PUSH2 0x468D JUMP JUMPDEST SWAP1 POP SWAP2 SWAP1 POP JUMP JUMPDEST PUSH0 PUSH1 0x60 DUP3 ADD SWAP1 POP PUSH2 0x46E0 PUSH0 DUP4 ADD DUP7 PUSH2 0x3729 JUMP JUMPDEST PUSH2 0x46ED PUSH1 0x20 DUP4 ADD DUP6 PUSH2 0x3729 JUMP JUMPDEST PUSH2 0x46FA PUSH1 0x40 DUP4 ADD DUP5 PUSH2 0x2FC5 JUMP JUMPDEST SWAP5 SWAP4 POP POP POP POP JUMP JUMPDEST PUSH0 PUSH1 0x40 DUP3 ADD SWAP1 POP PUSH2 0x4715 PUSH0 DUP4 ADD DUP6 PUSH2 0x3729 JUMP JUMPDEST PUSH2 0x4722 PUSH1 0x20 DUP4 ADD DUP5 PUSH2 0x2FC5 JUMP JUMPDEST SWAP4 SWAP3 POP POP POP JUMP JUMPDEST PUSH32 0x416C726561647920626C6F636B65640000000000000000000000000000000000 PUSH0 DUP3 ADD MSTORE POP JUMP JUMPDEST PUSH0 PUSH2 0x475D PUSH1 0xF DUP4 PUSH2 0x38FF JUMP JUMPDEST SWAP2 POP PUSH2 0x4768 DUP3 PUSH2 0x4729 JUMP JUMPDEST PUSH1 0x20 DUP3 ADD SWAP1 POP SWAP2 SWAP1 POP JUMP JUMPDEST PUSH0 PUSH1 0x20 DUP3 ADD SWAP1 POP DUP2 DUP2 SUB PUSH0 DUP4 ADD MSTORE PUSH2 0x478A DUP2 PUSH2 0x4751 JUMP JUMPDEST SWAP1 POP SWAP2 SWAP1 POP JUMP JUMPDEST PUSH32 0x506861736520737570706C7920657863656564732072656D61696E696E67204E PUSH0 DUP3 ADD MSTORE PUSH32 0x465420737570706C790000000000000000000000000000000000000000000000 PUSH1 0x20 DUP3 ADD MSTORE POP JUMP JUMPDEST PUSH0 PUSH2 0x47EB PUSH1 0x29 DUP4 PUSH2 0x38FF JUMP JUMPDEST SWAP2 POP PUSH2 0x47F6 DUP3 PUSH2 0x4791 JUMP JUMPDEST PUSH1 0x40 DUP3 ADD SWAP1 POP SWAP2 SWAP1 POP JUMP JUMPDEST PUSH0 PUSH1 0x20 DUP3 ADD SWAP1 POP DUP2 DUP2 SUB PUSH0 DUP4 ADD MSTORE PUSH2 0x4818 DUP2 PUSH2 0x47DF JUMP JUMPDEST SWAP1 POP SWAP2 SWAP1 POP JUMP JUMPDEST PUSH32 0x50726576696F7573207068617365206E6F742066756C6C79206D696E74656400 PUSH0 DUP3 ADD MSTORE POP JUMP JUMPDEST PUSH0 PUSH2 0x4853 PUSH1 0x1F DUP4 PUSH2 0x38FF JUMP JUMPDEST SWAP2 POP PUSH2 0x485E DUP3 PUSH2 0x481F JUMP JUMPDEST PUSH1 0x20 DUP3 ADD SWAP1 POP SWAP2 SWAP1 POP JUMP JUMPDEST PUSH0 PUSH1 0x20 DUP3 ADD SWAP1 POP DUP2 DUP2 SUB PUSH0 DUP4 ADD MSTORE PUSH2 0x4880 DUP2 PUSH2 0x4847 JUMP JUMPDEST SWAP1 POP SWAP2 SWAP1 POP JUMP JUMPDEST PUSH32 0x4E6577207072696365206D757374206265206869676865720000000000000000 PUSH0 DUP3 ADD MSTORE POP JUMP JUMPDEST PUSH0 PUSH2 0x48BB PUSH1 0x18 DUP4 PUSH2 0x38FF JUMP JUMPDEST SWAP2 POP PUSH2 0x48C6 DUP3 PUSH2 0x4887 JUMP JUMPDEST PUSH1 0x20 DUP3 ADD SWAP1 POP SWAP2 SWAP1 POP JUMP JUMPDEST PUSH0 PUSH1 0x20 DUP3 ADD SWAP1 POP DUP2 DUP2 SUB PUSH0 DUP4 ADD MSTORE PUSH2 0x48E8 DUP2 PUSH2 0x48AF JUMP JUMPDEST SWAP1 POP SWAP2 SWAP1 POP JUMP INVALID LOG2 PUSH5 0x6970667358 0x22 SLT KECCAK256 DUP12 0xC7 TIMESTAMP 0xBE RJUMPI 0x9008 RETURNDATACOPY 0xC PUSH22 0x91834E8A19540547B06AB17419154BC6DAC797E021CA PUSH5 0x736F6C6343 STOP ADDMOD 0x1E STOP CALLER "
		},
		"gasEstimates": {
			"creation": {
				"codeDepositCost": "3745000",
				"executionCost": "infinite",
				"totalCost": "infinite"
			},
			"external": {
				"WITHDRAWAL_TIMEOUT()": "414",
				"approveWithdrawal(uint256)": "infinite",
				"blockWithdrawal(uint256)": "33028",
				"boardMemberCount()": "2493",
				"boardMembers(address)": "2944",
				"createAmbassadorCode(string,address,address,uint256)": "infinite",
				"currentPhase()": "2472",
				"executeWithdrawal(uint256)": "infinite",
				"getAmbassador(string)": "infinite",
				"getAvailableNFTs(uint256)": "infinite",
				"getContractBalance()": "infinite",
				"getPaymentDetails(uint256,uint256,string)": "infinite",
				"getPhaseMinted(uint256)": "infinite",
				"getPhasePrice(uint256)": "infinite",
				"getPhaseSupply(uint256)": "infinite",
				"getRemainingSupply(uint256)": "infinite",
				"mint(uint256,uint256,string)": "infinite",
				"mintWithAuth(uint256,uint256,string,uint256,uint256,bytes32,uint8,bytes32,bytes32)": "infinite",
				"nfts()": "infinite",
				"owner()": "2604",
				"renounceOwnership()": "infinite",
				"requestWithdrawal(uint256,address)": "infinite",
				"startPhase(uint256[6],uint256[6])": "infinite",
				"transferOwnership(address)": "infinite",
				"updatePhaseSupply(uint256,uint256)": "infinite",
				"usdc()": "infinite",
				"withdrawalRequestCounter()": "2469",
				"withdrawalRequests(uint256)": "infinite"
			},
			"internal": {
				"_executeWithdrawal(uint256)": "infinite",
				"addBoardMember(address)": "infinite"
			}
		},
		"methodIdentifiers": {
			"WITHDRAWAL_TIMEOUT()": "bc4456eb",
			"approveWithdrawal(uint256)": "9eceddea",
			"blockWithdrawal(uint256)": "dfdc0de2",
			"boardMemberCount()": "24079158",
			"boardMembers(address)": "bff13785",
			"createAmbassadorCode(string,address,address,uint256)": "359f82a3",
			"currentPhase()": "055ad42e",
			"executeWithdrawal(uint256)": "24f13a76",
			"getAmbassador(string)": "6353a400",
			"getAvailableNFTs(uint256)": "1558bed3",
			"getContractBalance()": "6f9fb98a",
			"getPaymentDetails(uint256,uint256,string)": "7205249e",
			"getPhaseMinted(uint256)": "c5cac202",
			"getPhasePrice(uint256)": "cae359b9",
			"getPhaseSupply(uint256)": "5b65da64",
			"getRemainingSupply(uint256)": "8c858a14",
			"mint(uint256,uint256,string)": "c6e64e53",
			"mintWithAuth(uint256,uint256,string,uint256,uint256,bytes32,uint8,bytes32,bytes32)": "3a803890",
			"nfts()": "1714f2e0",
			"owner()": "8da5cb5b",
			"renounceOwnership()": "715018a6",
			"requestWithdrawal(uint256,address)": "21739779",
			"startPhase(uint256[6],uint256[6])": "e2b0608d",
			"transferOwnership(address)": "f2fde38b",
			"updatePhaseSupply(uint256,uint256)": "72403a79",
			"usdc()": "3e413bee",
			"withdrawalRequestCounter()": "d88150ea",
			"withdrawalRequests(uint256)": "937b2581"
		}
	},
	"abi": [
		{
			"inputs": [
				{
					"internalType": "address",
					"name": "_nfts",
					"type": "address"
				},
				{
					"internalType": "address",
					"name": "_usdc",
					"type": "address"
				},
				{
					"internalType": "address[]",
					"name": "_members",
					"type": "address[]"
				}
			],
			"stateMutability": "nonpayable",
			"type": "constructor"
		},
		{
			"inputs": [
				{
					"internalType": "address",
					"name": "owner",
					"type": "address"
				}
			],
			"name": "OwnableInvalidOwner",
			"type": "error"
		},
		{
			"inputs": [
				{
					"internalType": "address",
					"name": "account",
					"type": "address"
				}
			],
			"name": "OwnableUnauthorizedAccount",
			"type": "error"
		},
		{
			"inputs": [],
			"name": "ReentrancyGuardReentrantCall",
			"type": "error"
		},
		{
			"anonymous": false,
			"inputs": [
				{
					"indexed": true,
					"internalType": "address",
					"name": "ambassador",
					"type": "address"
				},
				{
					"indexed": false,
					"internalType": "uint256",
					"name": "amount",
					"type": "uint256"
				}
			],
			"name": "AmbassadorRewardPaid",
			"type": "event"
		},
		{
			"anonymous": false,
			"inputs": [
				{
					"indexed": true,
					"internalType": "address",
					"name": "member",
					"type": "address"
				}
			],
			"name": "BoardMemberAdded",
			"type": "event"
		},
		{
			"anonymous": false,
			"inputs": [
				{
					"indexed": true,
					"internalType": "address",
					"name": "buyer",
					"type": "address"
				},
				{
					"indexed": true,
					"internalType": "uint256",
					"name": "rarityId",
					"type": "uint256"
				},
				{
					"indexed": false,
					"internalType": "uint256",
					"name": "amount",
					"type": "uint256"
				},
				{
					"indexed": false,
					"internalType": "uint256",
					"name": "paid",
					"type": "uint256"
				}
			],
			"name": "NFTMinted",
			"type": "event"
		},
		{
			"anonymous": false,
			"inputs": [
				{
					"indexed": true,
					"internalType": "address",
					"name": "previousOwner",
					"type": "address"
				},
				{
					"indexed": true,
					"internalType": "address",
					"name": "newOwner",
					"type": "address"
				}
			],
			"name": "OwnershipTransferred",
			"type": "event"
		},
		{
			"anonymous": false,
			"inputs": [
				{
					"indexed": true,
					"internalType": "uint256",
					"name": "phaseId",
					"type": "uint256"
				}
			],
			"name": "PhaseStarted",
			"type": "event"
		},
		{
			"anonymous": false,
			"inputs": [
				{
					"indexed": true,
					"internalType": "uint256",
					"name": "phaseId",
					"type": "uint256"
				},
				{
					"indexed": true,
					"internalType": "uint256",
					"name": "rarityId",
					"type": "uint256"
				},
				{
					"indexed": false,
					"internalType": "uint256",
					"name": "newSupply",
					"type": "uint256"
				}
			],
			"name": "PhaseSupplyUpdated",
			"type": "event"
		},
		{
			"anonymous": false,
			"inputs": [
				{
					"indexed": true,
					"internalType": "uint256",
					"name": "requestId",
					"type": "uint256"
				},
				{
					"indexed": true,
					"internalType": "address",
					"name": "boardMember",
					"type": "address"
				}
			],
			"name": "WithdrawalApproved",
			"type": "event"
		},
		{
			"anonymous": false,
			"inputs": [
				{
					"indexed": true,
					"internalType": "uint256",
					"name": "requestId",
					"type": "uint256"
				},
				{
					"indexed": true,
					"internalType": "address",
					"name": "boardMember",
					"type": "address"
				}
			],
			"name": "WithdrawalBlocked",
			"type": "event"
		},
		{
			"anonymous": false,
			"inputs": [
				{
					"indexed": true,
					"internalType": "uint256",
					"name": "requestId",
					"type": "uint256"
				},
				{
					"indexed": true,
					"internalType": "address",
					"name": "boardMember",
					"type": "address"
				},
				{
					"indexed": false,
					"internalType": "uint256",
					"name": "amount",
					"type": "uint256"
				},
				{
					"indexed": false,
					"internalType": "address",
					"name": "recipient",
					"type": "address"
				}
			],
			"name": "WithdrawalExecuted",
			"type": "event"
		},
		{
			"anonymous": false,
			"inputs": [
				{
					"indexed": true,
					"internalType": "uint256",
					"name": "requestId",
					"type": "uint256"
				},
				{
					"indexed": true,
					"internalType": "address",
					"name": "boardMember",
					"type": "address"
				},
				{
					"indexed": false,
					"internalType": "uint256",
					"name": "amount",
					"type": "uint256"
				},
				{
					"indexed": false,
					"internalType": "address",
					"name": "recipient",
					"type": "address"
				}
			],
			"name": "WithdrawalRequested",
			"type": "event"
		},
		{
			"inputs": [],
			"name": "WITHDRAWAL_TIMEOUT",
			"outputs": [
				{
					"internalType": "uint256",
					"name": "",
					"type": "uint256"
				}
			],
			"stateMutability": "view",
			"type": "function"
		},
		{
			"inputs": [
				{
					"internalType": "uint256",
					"name": "requestId",
					"type": "uint256"
				}
			],
			"name": "approveWithdrawal",
			"outputs": [],
			"stateMutability": "nonpayable",
			"type": "function"
		},
		{
			"inputs": [
				{
					"internalType": "uint256",
					"name": "requestId",
					"type": "uint256"
				}
			],
			"name": "blockWithdrawal",
			"outputs": [],
			"stateMutability": "nonpayable",
			"type": "function"
		},
		{
			"inputs": [],
			"name": "boardMemberCount",
			"outputs": [
				{
					"internalType": "uint256",
					"name": "",
					"type": "uint256"
				}
			],
			"stateMutability": "view",
			"type": "function"
		},
		{
			"inputs": [
				{
					"internalType": "address",
					"name": "",
					"type": "address"
				}
			],
			"name": "boardMembers",
			"outputs": [
				{
					"internalType": "bool",
					"name": "",
					"type": "bool"
				}
			],
			"stateMutability": "view",
			"type": "function"
		},
		{
			"inputs": [
				{
					"internalType": "string",
					"name": "code",
					"type": "string"
				},
				{
					"internalType": "address",
					"name": "ambassador",
					"type": "address"
				},
				{
					"internalType": "address",
					"name": "manager",
					"type": "address"
				},
				{
					"internalType": "uint256",
					"name": "discount",
					"type": "uint256"
				}
			],
			"name": "createAmbassadorCode",
			"outputs": [],
			"stateMutability": "nonpayable",
			"type": "function"
		},
		{
			"inputs": [],
			"name": "currentPhase",
			"outputs": [
				{
					"internalType": "uint256",
					"name": "",
					"type": "uint256"
				}
			],
			"stateMutability": "view",
			"type": "function"
		},
		{
			"inputs": [
				{
					"internalType": "uint256",
					"name": "requestId",
					"type": "uint256"
				}
			],
			"name": "executeWithdrawal",
			"outputs": [],
			"stateMutability": "nonpayable",
			"type": "function"
		},
		{
			"inputs": [
				{
					"internalType": "string",
					"name": "refCode",
					"type": "string"
				}
			],
			"name": "getAmbassador",
			"outputs": [
				{
					"components": [
						{
							"internalType": "address",
							"name": "ambassador",
							"type": "address"
						},
						{
							"internalType": "address",
							"name": "manager",
							"type": "address"
						},
						{
							"internalType": "uint256",
							"name": "discount",
							"type": "uint256"
						},
						{
							"internalType": "uint256[6]",
							"name": "minted",
							"type": "uint256[6]"
						},
						{
							"internalType": "uint256",
							"name": "earned",
							"type": "uint256"
						},
						{
							"internalType": "uint256",
							"name": "raised",
							"type": "uint256"
						}
					],
					"internalType": "struct FounderNFTMinter.AmbassadorCode",
					"name": "",
					"type": "tuple"
				}
			],
			"stateMutability": "view",
			"type": "function"
		},
		{
			"inputs": [
				{
					"internalType": "uint256",
					"name": "rarityId",
					"type": "uint256"
				}
			],
			"name": "getAvailableNFTs",
			"outputs": [
				{
					"internalType": "uint256",
					"name": "",
					"type": "uint256"
				}
			],
			"stateMutability": "view",
			"type": "function"
		},
		{
			"inputs": [],
			"name": "getContractBalance",
			"outputs": [
				{
					"internalType": "uint256",
					"name": "",
					"type": "uint256"
				}
			],
			"stateMutability": "view",
			"type": "function"
		},
		{
			"inputs": [
				{
					"internalType": "uint256",
					"name": "rarityId",
					"type": "uint256"
				},
				{
					"internalType": "uint256",
					"name": "amount",
					"type": "uint256"
				},
				{
					"internalType": "string",
					"name": "refCode",
					"type": "string"
				}
			],
			"name": "getPaymentDetails",
			"outputs": [
				{
					"internalType": "uint256",
					"name": "payment",
					"type": "uint256"
				},
				{
					"internalType": "uint256",
					"name": "discount",
					"type": "uint256"
				},
				{
					"internalType": "uint256",
					"name": "ambassador",
					"type": "uint256"
				},
				{
					"internalType": "uint256",
					"name": "manager",
					"type": "uint256"
				},
				{
					"internalType": "uint256",
					"name": "team",
					"type": "uint256"
				}
			],
			"stateMutability": "view",
			"type": "function"
		},
		{
			"inputs": [
				{
					"internalType": "uint256",
					"name": "rarityId",
					"type": "uint256"
				}
			],
			"name": "getPhaseMinted",
			"outputs": [
				{
					"internalType": "uint256",
					"name": "",
					"type": "uint256"
				}
			],
			"stateMutability": "view",
			"type": "function"
		},
		{
			"inputs": [
				{
					"internalType": "uint256",
					"name": "rarityId",
					"type": "uint256"
				}
			],
			"name": "getPhasePrice",
			"outputs": [
				{
					"internalType": "uint256",
					"name": "",
					"type": "uint256"
				}
			],
			"stateMutability": "view",
			"type": "function"
		},
		{
			"inputs": [
				{
					"internalType": "uint256",
					"name": "rarityId",
					"type": "uint256"
				}
			],
			"name": "getPhaseSupply",
			"outputs": [
				{
					"internalType": "uint256",
					"name": "",
					"type": "uint256"
				}
			],
			"stateMutability": "view",
			"type": "function"
		},
		{
			"inputs": [
				{
					"internalType": "uint256",
					"name": "rarityId",
					"type": "uint256"
				}
			],
			"name": "getRemainingSupply",
			"outputs": [
				{
					"internalType": "uint256",
					"name": "",
					"type": "uint256"
				}
			],
			"stateMutability": "view",
			"type": "function"
		},
		{
			"inputs": [
				{
					"internalType": "uint256",
					"name": "rarityId",
					"type": "uint256"
				},
				{
					"internalType": "uint256",
					"name": "amount",
					"type": "uint256"
				},
				{
					"internalType": "string",
					"name": "refCode",
					"type": "string"
				}
			],
			"name": "mint",
			"outputs": [],
			"stateMutability": "nonpayable",
			"type": "function"
		},
		{
			"inputs": [
				{
					"internalType": "uint256",
					"name": "rarityId",
					"type": "uint256"
				},
				{
					"internalType": "uint256",
					"name": "quantity",
					"type": "uint256"
				},
				{
					"internalType": "string",
					"name": "refCode",
					"type": "string"
				},
				{
					"internalType": "uint256",
					"name": "validAfter",
					"type": "uint256"
				},
				{
					"internalType": "uint256",
					"name": "validBefore",
					"type": "uint256"
				},
				{
					"internalType": "bytes32",
					"name": "nonce",
					"type": "bytes32"
				},
				{
					"internalType": "uint8",
					"name": "v",
					"type": "uint8"
				},
				{
					"internalType": "bytes32",
					"name": "r",
					"type": "bytes32"
				},
				{
					"internalType": "bytes32",
					"name": "s",
					"type": "bytes32"
				}
			],
			"name": "mintWithAuth",
			"outputs": [],
			"stateMutability": "nonpayable",
			"type": "function"
		},
		{
			"inputs": [],
			"name": "nfts",
			"outputs": [
				{
					"internalType": "contract IFounderNFT",
					"name": "",
					"type": "address"
				}
			],
			"stateMutability": "view",
			"type": "function"
		},
		{
			"inputs": [],
			"name": "owner",
			"outputs": [
				{
					"internalType": "address",
					"name": "",
					"type": "address"
				}
			],
			"stateMutability": "view",
			"type": "function"
		},
		{
			"inputs": [],
			"name": "renounceOwnership",
			"outputs": [],
			"stateMutability": "nonpayable",
			"type": "function"
		},
		{
			"inputs": [
				{
					"internalType": "uint256",
					"name": "amount",
					"type": "uint256"
				},
				{
					"internalType": "address",
					"name": "recipient",
					"type": "address"
				}
			],
			"name": "requestWithdrawal",
			"outputs": [],
			"stateMutability": "nonpayable",
			"type": "function"
		},
		{
			"inputs": [
				{
					"internalType": "uint256[6]",
					"name": "prices",
					"type": "uint256[6]"
				},
				{
					"internalType": "uint256[6]",
					"name": "supply",
					"type": "uint256[6]"
				}
			],
			"name": "startPhase",
			"outputs": [],
			"stateMutability": "nonpayable",
			"type": "function"
		},
		{
			"inputs": [
				{
					"internalType": "address",
					"name": "newOwner",
					"type": "address"
				}
			],
			"name": "transferOwnership",
			"outputs": [],
			"stateMutability": "nonpayable",
			"type": "function"
		},
		{
			"inputs": [
				{
					"internalType": "uint256",
					"name": "rarityId",
					"type": "uint256"
				},
				{
					"internalType": "uint256",
					"name": "newSupply",
					"type": "uint256"
				}
			],
			"name": "updatePhaseSupply",
			"outputs": [],
			"stateMutability": "nonpayable",
			"type": "function"
		},
		{
			"inputs": [],
			"name": "usdc",
			"outputs": [
				{
					"internalType": "contract IAuthERC20",
					"name": "",
					"type": "address"
				}
			],
			"stateMutability": "view",
			"type": "function"
		},
		{
			"inputs": [],
			"name": "withdrawalRequestCounter",
			"outputs": [
				{
					"internalType": "uint256",
					"name": "",
					"type": "uint256"
				}
			],
			"stateMutability": "view",
			"type": "function"
		},
		{
			"inputs": [
				{
					"internalType": "uint256",
					"name": "",
					"type": "uint256"
				}
			],
			"name": "withdrawalRequests",
			"outputs": [
				{
					"internalType": "uint256",
					"name": "amount",
					"type": "uint256"
				},
				{
					"internalType": "address",
					"name": "recipient",
					"type": "address"
				},
				{
					"internalType": "uint256",
					"name": "requestTime",
					"type": "uint256"
				},
				{
					"internalType": "uint256",
					"name": "approvals",
					"type": "uint256"
				},
				{
					"internalType": "bool",
					"name": "executed",
					"type": "bool"
				},
				{
					"internalType": "bool",
					"name": "blocked",
					"type": "bool"
				}
			],
			"stateMutability": "view",
			"type": "function"
		}
	]
}