{
	"data": {
		"bytecode": {
			"linkReferences": {},
			"object": "610160604052348015610010575f5ffd5b506040518060400160405280600d81526020017f4d6f636b2055534420436f696e000000000000000000000000000000000000008152506040518060400160405280600181526020017f32000000000000000000000000000000000000000000000000000000000000008152506040518060400160405280600d81526020017f4d6f636b2055534420436f696e000000000000000000000000000000000000008152506040518060400160405280600481526020017f555344430000000000000000000000000000000000000000000000000000000081525081600390816100f891906107bf565b50806004908161010891906107bf565b50505061011f6005836101cf60201b90919060201c565b610120818152505061013b6006826101cf60201b90919060201c565b6101408181525050818051906020012060e08181525050808051906020012061010081815250504660a0818152505061017861021c60201b60201c565b608081815250503073ffffffffffffffffffffffffffffffffffffffff1660c08173ffffffffffffffffffffffffffffffffffffffff168152505050506101ca3364e8d4a5100061027660201b60201c565b610b25565b5f6020835110156101f0576101e9836102fb60201b60201c565b9050610216565b826102008361036060201b60201c565b5f01908161020e91906107bf565b5060ff5f1b90505b92915050565b5f7f8b73c3c69bb8fe3d512ecc4cf759cc79239f7b179b0ffacaa9a75d522b39400f60e05161010051463060405160200161025b9594939291906108f4565b60405160208183030381529060405280519060200120905090565b5f73ffffffffffffffffffffffffffffffffffffffff168273ffffffffffffffffffffffffffffffffffffffff16036102e6575f6040517fec442f050000000000000000000000000000000000000000000000000000000081526004016102dd9190610945565b60405180910390fd5b6102f75f838361036960201b60201c565b5050565b5f5f829050601f8151111561034757826040517f305a27a900000000000000000000000000000000000000000000000000000000815260040161033e91906109c4565b60405180910390fd5b80518161035390610a11565b5f1c175f1b915050919050565b5f819050919050565b5f73ffffffffffffffffffffffffffffffffffffffff168373ffffffffffffffffffffffffffffffffffffffff16036103b9578060025f8282546103ad9190610aa4565b92505081905550610487565b5f5f5f8573ffffffffffffffffffffffffffffffffffffffff1673ffffffffffffffffffffffffffffffffffffffff1681526020019081526020015f2054905081811015610442578381836040517fe450d38c00000000000000000000000000000000000000000000000000000000815260040161043993929190610ad7565b60405180910390fd5b8181035f5f8673ffffffffffffffffffffffffffffffffffffffff1673ffffffffffffffffffffffffffffffffffffffff1681526020019081526020015f2081905550505b5f73ffffffffffffffffffffffffffffffffffffffff168273ffffffffffffffffffffffffffffffffffffffff16036104ce578060025f8282540392505081905550610518565b805f5f8473ffffffffffffffffffffffffffffffffffffffff1673ffffffffffffffffffffffffffffffffffffffff1681526020019081526020015f205f82825401925050819055505b8173ffffffffffffffffffffffffffffffffffffffff168373ffffffffffffffffffffffffffffffffffffffff167fddf252ad1be2c89b69c2b068fc378daa952ba7f163c4a11628f55a4df523b3ef836040516105759190610b0c565b60405180910390a3505050565b5f81519050919050565b7f4e487b71000000000000000000000000000000000000000000000000000000005f52604160045260245ffd5b7f4e487b71000000000000000000000000000000000000000000000000000000005f52602260045260245ffd5b5f60028204905060018216806105fd57607f821691505b6020821081036106105761060f6105b9565b5b50919050565b5f819050815f5260205f209050919050565b5f6020601f8301049050919050565b5f82821b905092915050565b5f600883026106727fffffffffffffffffffffffffffffffffffffffffffffffffffffffffffffffff82610637565b61067c8683610637565b95508019841693508086168417925050509392505050565b5f819050919050565b5f819050919050565b5f6106c06106bb6106b684610694565b61069d565b610694565b9050919050565b5f819050919050565b6106d9836106a6565b6106ed6106e5826106c7565b848454610643565b825550505050565b5f5f905090565b6107046106f5565b61070f8184846106d0565b505050565b5b81811015610732576107275f826106fc565b600181019050610715565b5050565b601f8211156107775761074881610616565b61075184610628565b81016020851015610760578190505b61077461076c85610628565b830182610714565b50505b505050565b5f82821c905092915050565b5f6107975f198460080261077c565b1980831691505092915050565b5f6107af8383610788565b9150826002028217905092915050565b6107c882610582565b67ffffffffffffffff8111156107e1576107e061058c565b5b6107eb82546105e6565b6107f6828285610736565b5f60209050601f831160018114610827575f8415610815578287015190505b61081f85826107a4565b865550610886565b601f19841661083586610616565b5f5b8281101561085c57848901518255600182019150602085019450602081019050610837565b868310156108795784890151610875601f891682610788565b8355505b6001600288020188555050505b505050505050565b5f819050919050565b6108a08161088e565b82525050565b6108af81610694565b82525050565b5f73ffffffffffffffffffffffffffffffffffffffff82169050919050565b5f6108de826108b5565b9050919050565b6108ee816108d4565b82525050565b5f60a0820190506109075f830188610897565b6109146020830187610897565b6109216040830186610897565b61092e60608301856108a6565b61093b60808301846108e5565b9695505050505050565b5f6020820190506109585f8301846108e5565b92915050565b5f82825260208201905092915050565b8281835e5f83830152505050565b5f601f19601f8301169050919050565b5f61099682610582565b6109a0818561095e565b93506109b081856020860161096e565b6109b98161097c565b840191505092915050565b5f6020820190508181035f8301526109dc818461098c565b905092915050565b5f81519050919050565b5f819050602082019050919050565b5f610a08825161088e565b80915050919050565b5f610a1b826109e4565b82610a25846109ee565b9050610a30816109fd565b92506020821015610a7057610a6b7fffffffffffffffffffffffffffffffffffffffffffffffffffffffffffffffff83602003600802610637565b831692505b5050919050565b7f4e487b71000000000000000000000000000000000000000000000000000000005f52601160045260245ffd5b5f610aae82610694565b9150610ab983610694565b9250828201905080821115610ad157610ad0610a77565b5b92915050565b5f606082019050610aea5f8301866108e5565b610af760208301856108a6565b610b0460408301846108a6565b949350505050565b5f602082019050610b1f5f8301846108a6565b92915050565b60805160a05160c05160e051610100516101205161014051611ef7610b765f395f610b6901525f610b2e01525f61146d01525f61144c01525f61107a01525f6110d001525f6110f90152611ef75ff3fe608060405234801561000f575f5ffd5b50600436106100e8575f3560e01c806384b0196e1161008a578063dd62ed3e11610064578063dd62ed3e14610264578063de5f72fd14610294578063e3ee160e1461029e578063e94a0102146102ba576100e8565b806384b0196e146101f257806395d89b4114610216578063a9059cbb14610234576100e8565b806323b872dd116100c657806323b872dd14610158578063313ce5671461018857806340c10f19146101a657806370a08231146101c2576100e8565b806306fdde03146100ec578063095ea7b31461010a57806318160ddd1461013a575b5f5ffd5b6100f46102ea565b604051610101919061157b565b60405180910390f35b610124600480360381019061011f919061162c565b61037a565b6040516101319190611684565b60405180910390f35b61014261039c565b60405161014f91906116ac565b60405180910390f35b610172600480360381019061016d91906116c5565b6103a5565b60405161017f9190611684565b60405180910390f35b6101906103d3565b60405161019d9190611730565b60405180910390f35b6101c060048036038101906101bb919061162c565b6103db565b005b6101dc60048036038101906101d79190611749565b6103e9565b6040516101e991906116ac565b60405180910390f35b6101fa61042e565b60405161020d979695949392919061188c565b60405180910390f35b61021e6104d3565b60405161022b919061157b565b60405180910390f35b61024e6004803603810190610249919061162c565b610563565b60405161025b9190611684565b60405180910390f35b61027e6004803603810190610279919061190e565b610585565b60405161028b91906116ac565b60405180910390f35b61029c610607565b005b6102b860048036038101906102b391906119a0565b610618565b005b6102d460048036038101906102cf9190611a64565b6108e0565b6040516102e19190611684565b60405180910390f35b6060600380546102f990611acf565b80601f016020809104026020016040519081016040528092919081815260200182805461032590611acf565b80156103705780601f1061034757610100808354040283529160200191610370565b820191905f5260205f20905b81548152906001019060200180831161035357829003601f168201915b5050505050905090565b5f5f61038461090a565b9050610391818585610911565b600191505092915050565b5f600254905090565b5f5f6103af61090a565b90506103bc858285610923565b6103c78585856109b6565b60019150509392505050565b5f6006905090565b6103e58282610aa6565b5050565b5f5f5f8373ffffffffffffffffffffffffffffffffffffffff1673ffffffffffffffffffffffffffffffffffffffff1681526020019081526020015f20549050919050565b5f6060805f5f5f606061043f610b25565b610447610b60565b46305f5f1b5f67ffffffffffffffff81111561046657610465611aff565b5b6040519080825280602002602001820160405280156104945781602001602082028036833780820191505090505b507f0f00000000000000000000000000000000000000000000000000000000000000959493929190965096509650965096509650965090919293949596565b6060600480546104e290611acf565b80601f016020809104026020016040519081016040528092919081815260200182805461050e90611acf565b80156105595780601f1061053057610100808354040283529160200191610559565b820191905f5260205f20905b81548152906001019060200180831161053c57829003601f168201915b5050505050905090565b5f5f61056d61090a565b905061057a8185856109b6565b600191505092915050565b5f60015f8473ffffffffffffffffffffffffffffffffffffffff1673ffffffffffffffffffffffffffffffffffffffff1681526020019081526020015f205f8373ffffffffffffffffffffffffffffffffffffffff1673ffffffffffffffffffffffffffffffffffffffff1681526020019081526020015f2054905092915050565b6106163364e8d4a51000610aa6565b565b85421161065a576040517f08c379a000000000000000000000000000000000000000000000000000000000815260040161065190611b76565b60405180910390fd5b84421061069c576040517f08c379a000000000000000000000000000000000000000000000000000000000815260040161069390611bde565b60405180910390fd5b60075f8a73ffffffffffffffffffffffffffffffffffffffff1673ffffffffffffffffffffffffffffffffffffffff1681526020019081526020015f205f8581526020019081526020015f205f9054906101000a900460ff1615610735576040517f08c379a000000000000000000000000000000000000000000000000000000000815260040161072c90611c46565b60405180910390fd5b5f7f7c7c6cdb67a18743f49ec6fa9b35f50d52ed05cbed4cc592e13b44501c1a22678a8a8a8a8a8a6040516020016107739796959493929190611c64565b6040516020818303038152906040528051906020012090505f61079582610b9b565b90505f6107af86868685610bb4909392919063ffffffff16565b90508b73ffffffffffffffffffffffffffffffffffffffff168173ffffffffffffffffffffffffffffffffffffffff161461081f576040517f08c379a000000000000000000000000000000000000000000000000000000000815260040161081690611d1b565b60405180910390fd5b600160075f8e73ffffffffffffffffffffffffffffffffffffffff1673ffffffffffffffffffffffffffffffffffffffff1681526020019081526020015f205f8981526020019081526020015f205f6101000a81548160ff02191690831515021790555061088e8c8c8c6109b6565b868c73ffffffffffffffffffffffffffffffffffffffff167f98de503528ee59b575ef0c0a2576a82497bfc029a5685b209e9ec333479b10a560405160405180910390a3505050505050505050505050565b6007602052815f5260405f20602052805f5260405f205f915091509054906101000a900460ff1681565b5f33905090565b61091e8383836001610be2565b505050565b5f61092e8484610585565b90507fffffffffffffffffffffffffffffffffffffffffffffffffffffffffffffffff8110156109b057818110156109a1578281836040517ffb8f41b200000000000000000000000000000000000000000000000000000000815260040161099893929190611d39565b60405180910390fd5b6109af84848484035f610be2565b5b50505050565b5f73ffffffffffffffffffffffffffffffffffffffff168373ffffffffffffffffffffffffffffffffffffffff1603610a26575f6040517f96c6fd1e000000000000000000000000000000000000000000000000000000008152600401610a1d9190611d6e565b60405180910390fd5b5f73ffffffffffffffffffffffffffffffffffffffff168273ffffffffffffffffffffffffffffffffffffffff1603610a96575f6040517fec442f05000000000000000000000000000000000000000000000000000000008152600401610a8d9190611d6e565b60405180910390fd5b610aa1838383610db1565b505050565b5f73ffffffffffffffffffffffffffffffffffffffff168273ffffffffffffffffffffffffffffffffffffffff1603610b16575f6040517fec442f05000000000000000000000000000000000000000000000000000000008152600401610b0d9190611d6e565b60405180910390fd5b610b215f8383610db1565b5050565b6060610b5b60057f0000000000000000000000000000000000000000000000000000000000000000610fca90919063ffffffff16565b905090565b6060610b9660067f0000000000000000000000000000000000000000000000000000000000000000610fca90919063ffffffff16565b905090565b5f610bad610ba7611077565b8361112d565b9050919050565b5f5f5f5f610bc48888888861116d565b925092509250610bd48282611254565b829350505050949350505050565b5f73ffffffffffffffffffffffffffffffffffffffff168473ffffffffffffffffffffffffffffffffffffffff1603610c52575f6040517fe602df05000000000000000000000000000000000000000000000000000000008152600401610c499190611d6e565b60405180910390fd5b5f73ffffffffffffffffffffffffffffffffffffffff168373ffffffffffffffffffffffffffffffffffffffff1603610cc2575f6040517f94280d62000000000000000000000000000000000000000000000000000000008152600401610cb99190611d6e565b60405180910390fd5b8160015f8673ffffffffffffffffffffffffffffffffffffffff1673ffffffffffffffffffffffffffffffffffffffff1681526020019081526020015f205f8573ffffffffffffffffffffffffffffffffffffffff1673ffffffffffffffffffffffffffffffffffffffff1681526020019081526020015f20819055508015610dab578273ffffffffffffffffffffffffffffffffffffffff168473ffffffffffffffffffffffffffffffffffffffff167f8c5be1e5ebec7d5bd14f71427d1e84f3dd0314c0f7b2291e5b200ac8c7c3b92584604051610da291906116ac565b60405180910390a35b50505050565b5f73ffffffffffffffffffffffffffffffffffffffff168373ffffffffffffffffffffffffffffffffffffffff1603610e01578060025f828254610df59190611db4565b92505081905550610ecf565b5f5f5f8573ffffffffffffffffffffffffffffffffffffffff1673ffffffffffffffffffffffffffffffffffffffff1681526020019081526020015f2054905081811015610e8a578381836040517fe450d38c000000000000000000000000000000000000000000000000000000008152600401610e8193929190611d39565b60405180910390fd5b8181035f5f8673ffffffffffffffffffffffffffffffffffffffff1673ffffffffffffffffffffffffffffffffffffffff1681526020019081526020015f2081905550505b5f73ffffffffffffffffffffffffffffffffffffffff168273ffffffffffffffffffffffffffffffffffffffff1603610f16578060025f8282540392505081905550610f60565b805f5f8473ffffffffffffffffffffffffffffffffffffffff1673ffffffffffffffffffffffffffffffffffffffff1681526020019081526020015f205f82825401925050819055505b8173ffffffffffffffffffffffffffffffffffffffff168373ffffffffffffffffffffffffffffffffffffffff167fddf252ad1be2c89b69c2b068fc378daa952ba7f163c4a11628f55a4df523b3ef83604051610fbd91906116ac565b60405180910390a3505050565b606060ff5f1b8314610fe657610fdf836113b6565b9050611071565b818054610ff290611acf565b80601f016020809104026020016040519081016040528092919081815260200182805461101e90611acf565b80156110695780601f1061104057610100808354040283529160200191611069565b820191905f5260205f20905b81548152906001019060200180831161104c57829003601f168201915b505050505090505b92915050565b5f7f000000000000000000000000000000000000000000000000000000000000000073ffffffffffffffffffffffffffffffffffffffff163073ffffffffffffffffffffffffffffffffffffffff161480156110f257507f000000000000000000000000000000000000000000000000000000000000000046145b1561111f577f0000000000000000000000000000000000000000000000000000000000000000905061112a565b611127611428565b90505b90565b5f6040517f190100000000000000000000000000000000000000000000000000000000000081528360028201528260228201526042812091505092915050565b5f5f5f7f7fffffffffffffffffffffffffffffff5d576e7357a4501ddfe92f46681b20a0845f1c11156111a9575f60038592509250925061124a565b5f6001888888886040515f81526020016040526040516111cc9493929190611de7565b6020604051602081039080840390855afa1580156111ec573d5f5f3e3d5ffd5b5050506020604051035190505f73ffffffffffffffffffffffffffffffffffffffff168173ffffffffffffffffffffffffffffffffffffffff160361123d575f60015f5f1b9350935093505061124a565b805f5f5f1b935093509350505b9450945094915050565b5f600381111561126757611266611e2a565b5b82600381111561127a57611279611e2a565b5b03156113b2576001600381111561129457611293611e2a565b5b8260038111156112a7576112a6611e2a565b5b036112de576040517ff645eedf00000000000000000000000000000000000000000000000000000000815260040160405180910390fd5b600260038111156112f2576112f1611e2a565b5b82600381111561130557611304611e2a565b5b0361134957805f1c6040517ffce698f700000000000000000000000000000000000000000000000000000000815260040161134091906116ac565b60405180910390fd5b60038081111561135c5761135b611e2a565b5b82600381111561136f5761136e611e2a565b5b036113b157806040517fd78bce0c0000000000000000000000000000000000000000000000000000000081526004016113a89190611e57565b60405180910390fd5b5b5050565b60605f6113c2836114bd565b90505f602067ffffffffffffffff8111156113e0576113df611aff565b5b6040519080825280601f01601f1916602001820160405280156114125781602001600182028036833780820191505090505b5090508181528360208201528092505050919050565b5f7f8b73c3c69bb8fe3d512ecc4cf759cc79239f7b179b0ffacaa9a75d522b39400f7f00000000000000000000000000000000000000000000000000000000000000007f000000000000000000000000000000000000000000000000000000000000000046306040516020016114a2959493929190611e70565b60405160208183030381529060405280519060200120905090565b5f5f60ff835f1c169050601f811115611502576040517fb3512b0c00000000000000000000000000000000000000000000000000000000815260040160405180910390fd5b80915050919050565b5f81519050919050565b5f82825260208201905092915050565b8281835e5f83830152505050565b5f601f19601f8301169050919050565b5f61154d8261150b565b6115578185611515565b9350611567818560208601611525565b61157081611533565b840191505092915050565b5f6020820190508181035f8301526115938184611543565b905092915050565b5f5ffd5b5f73ffffffffffffffffffffffffffffffffffffffff82169050919050565b5f6115c88261159f565b9050919050565b6115d8816115be565b81146115e2575f5ffd5b50565b5f813590506115f3816115cf565b92915050565b5f819050919050565b61160b816115f9565b8114611615575f5ffd5b50565b5f8135905061162681611602565b92915050565b5f5f604083850312156116425761164161159b565b5b5f61164f858286016115e5565b925050602061166085828601611618565b9150509250929050565b5f8115159050919050565b61167e8161166a565b82525050565b5f6020820190506116975f830184611675565b92915050565b6116a6816115f9565b82525050565b5f6020820190506116bf5f83018461169d565b92915050565b5f5f5f606084860312156116dc576116db61159b565b5b5f6116e9868287016115e5565b93505060206116fa868287016115e5565b925050604061170b86828701611618565b9150509250925092565b5f60ff82169050919050565b61172a81611715565b82525050565b5f6020820190506117435f830184611721565b92915050565b5f6020828403121561175e5761175d61159b565b5b5f61176b848285016115e5565b91505092915050565b5f7fff0000000000000000000000000000000000000000000000000000000000000082169050919050565b6117a881611774565b82525050565b6117b7816115be565b82525050565b5f819050919050565b6117cf816117bd565b82525050565b5f81519050919050565b5f82825260208201905092915050565b5f819050602082019050919050565b611807816115f9565b82525050565b5f61181883836117fe565b60208301905092915050565b5f602082019050919050565b5f61183a826117d5565b61184481856117df565b935061184f836117ef565b805f5b8381101561187f578151611866888261180d565b975061187183611824565b925050600181019050611852565b5085935050505092915050565b5f60e08201905061189f5f83018a61179f565b81810360208301526118b18189611543565b905081810360408301526118c58188611543565b90506118d4606083018761169d565b6118e160808301866117ae565b6118ee60a08301856117c6565b81810360c08301526119008184611830565b905098975050505050505050565b5f5f604083850312156119245761192361159b565b5b5f611931858286016115e5565b9250506020611942858286016115e5565b9150509250929050565b611955816117bd565b811461195f575f5ffd5b50565b5f813590506119708161194c565b92915050565b61197f81611715565b8114611989575f5ffd5b50565b5f8135905061199a81611976565b92915050565b5f5f5f5f5f5f5f5f5f6101208a8c0312156119be576119bd61159b565b5b5f6119cb8c828d016115e5565b99505060206119dc8c828d016115e5565b98505060406119ed8c828d01611618565b97505060606119fe8c828d01611618565b9650506080611a0f8c828d01611618565b95505060a0611a208c828d01611962565b94505060c0611a318c828d0161198c565b93505060e0611a428c828d01611962565b925050610100611a548c828d01611962565b9150509295985092959850929598565b5f5f60408385031215611a7a57611a7961159b565b5b5f611a87858286016115e5565b9250506020611a9885828601611962565b9150509250929050565b7f4e487b71000000000000000000000000000000000000000000000000000000005f52602260045260245ffd5b5f6002820490506001821680611ae657607f821691505b602082108103611af957611af8611aa2565b5b50919050565b7f4e487b71000000000000000000000000000000000000000000000000000000005f52604160045260245ffd5b7f417574686f72697a6174696f6e206e6f74207965742076616c696400000000005f82015250565b5f611b60601b83611515565b9150611b6b82611b2c565b602082019050919050565b5f6020820190508181035f830152611b8d81611b54565b9050919050565b7f417574686f72697a6174696f6e206578706972656400000000000000000000005f82015250565b5f611bc8601583611515565b9150611bd382611b94565b602082019050919050565b5f6020820190508181035f830152611bf581611bbc565b9050919050565b7f417574686f72697a6174696f6e20616c726561647920757365640000000000005f82015250565b5f611c30601a83611515565b9150611c3b82611bfc565b602082019050919050565b5f6020820190508181035f830152611c5d81611c24565b9050919050565b5f60e082019050611c775f83018a6117c6565b611c8460208301896117ae565b611c9160408301886117ae565b611c9e606083018761169d565b611cab608083018661169d565b611cb860a083018561169d565b611cc560c08301846117c6565b98975050505050505050565b7f496e76616c6964207369676e61747572650000000000000000000000000000005f82015250565b5f611d05601183611515565b9150611d1082611cd1565b602082019050919050565b5f6020820190508181035f830152611d3281611cf9565b9050919050565b5f606082019050611d4c5f8301866117ae565b611d59602083018561169d565b611d66604083018461169d565b949350505050565b5f602082019050611d815f8301846117ae565b92915050565b7f4e487b71000000000000000000000000000000000000000000000000000000005f52601160045260245ffd5b5f611dbe826115f9565b9150611dc9836115f9565b9250828201905080821115611de157611de0611d87565b5b92915050565b5f608082019050611dfa5f8301876117c6565b611e076020830186611721565b611e1460408301856117c6565b611e2160608301846117c6565b95945050505050565b7f4e487b71000000000000000000000000000000000000000000000000000000005f52602160045260245ffd5b5f602082019050611e6a5f8301846117c6565b92915050565b5f60a082019050611e835f8301886117c6565b611e9060208301876117c6565b611e9d60408301866117c6565b611eaa606083018561169d565b611eb760808301846117ae565b969550505050505056fea2646970667358221220318048b16eed2c60862b1a5724aec01e157a2b151b7298ace578870460b2cdb364736f6c634300081e0033",
			"opcodes": "PUSH2 0x160 PUSH1 0x40 MSTORE CALLVALUE DUP1 ISZERO PUSH2 0x10 JUMPI PUSH0 PUSH0 REVERT JUMPDEST POP PUSH1 0x40 MLOAD DUP1 PUSH1 0x40 ADD PUSH1 0x40 MSTORE DUP1 PUSH1 0xD DUP2 MSTORE PUSH1 0x20 ADD PUSH32 0x4D6F636B2055534420436F696E00000000000000000000000000000000000000 DUP2 MSTORE POP PUSH1 0x40 MLOAD DUP1 PUSH1 0x40 ADD PUSH1 0x40 MSTORE DUP1 PUSH1 0x1 DUP2 MSTORE PUSH1 0x20 ADD PUSH32 0x3200000000000000000000000000000000000000000000000000000000000000 DUP2 MSTORE POP PUSH1 0x40 MLOAD DUP1 PUSH1 0x40 ADD PUSH1 0x40 MSTORE DUP1 PUSH1 0xD DUP2 MSTORE PUSH1 0x20 ADD PUSH32 0x4D6F636B2055534420436F696E00000000000000000000000000000000000000 DUP2 MSTORE POP PUSH1 0x40 MLOAD DUP1 PUSH1 0x40 ADD PUSH1 0x40 MSTORE DUP1 PUSH1 0x4 DUP2 MSTORE PUSH1 0x20 ADD PUSH32 0x5553444300000000000000000000000000000000000000000000000000000000 DUP2 MSTORE POP DUP2 PUSH1 0x3 SWAP1 DUP2 PUSH2 0xF8 SWAP2 SWAP1 PUSH2 0x7BF JUMP JUMPDEST POP DUP1 PUSH1 0x4 SWAP1 DUP2 PUSH2 0x108 SWAP2 SWAP1 PUSH2 0x7BF JUMP JUMPDEST POP POP POP PUSH2 0x11F PUSH1 0x5 DUP4 PUSH2 0x1CF PUSH1 0x20 SHL SWAP1 SWAP2 SWAP1 PUSH1 0x20 SHR JUMP JUMPDEST PUSH2 0x120 DUP2 DUP2 MSTORE POP POP PUSH2 0x13B PUSH1 0x6 DUP3 PUSH2 0x1CF PUSH1 0x20 SHL SWAP1 SWAP2 SWAP1 PUSH1 0x20 SHR JUMP JUMPDEST PUSH2 0x140 DUP2 DUP2 MSTORE POP POP DUP2 DUP1 MLOAD SWAP1 PUSH1 0x20 ADD KECCAK256 PUSH1 0xE0 DUP2 DUP2 MSTORE POP POP DUP1 DUP1 MLOAD SWAP1 PUSH1 0x20 ADD KECCAK256 PUSH2 0x100 DUP2 DUP2 MSTORE POP POP CHAINID PUSH1 0xA0 DUP2 DUP2 MSTORE POP POP PUSH2 0x178 PUSH2 0x21C PUSH1 0x20 SHL PUSH1 0x20 SHR JUMP JUMPDEST PUSH1 0x80 DUP2 DUP2 MSTORE POP POP ADDRESS PUSH20 0xFFFFFFFFFFFFFFFFFFFFFFFFFFFFFFFFFFFFFFFF AND PUSH1 0xC0 DUP2 PUSH20 0xFFFFFFFFFFFFFFFFFFFFFFFFFFFFFFFFFFFFFFFF AND DUP2 MSTORE POP POP POP POP PUSH2 0x1CA CALLER PUSH5 0xE8D4A51000 PUSH2 0x276 PUSH1 0x20 SHL PUSH1 0x20 SHR JUMP JUMPDEST PUSH2 0xB25 JUMP JUMPDEST PUSH0 PUSH1 0x20 DUP4 MLOAD LT ISZERO PUSH2 0x1F0 JUMPI PUSH2 0x1E9 DUP4 PUSH2 0x2FB PUSH1 0x20 SHL PUSH1 0x20 SHR JUMP JUMPDEST SWAP1 POP PUSH2 0x216 JUMP JUMPDEST DUP3 PUSH2 0x200 DUP4 PUSH2 0x360 PUSH1 0x20 SHL PUSH1 0x20 SHR JUMP JUMPDEST PUSH0 ADD SWAP1 DUP2 PUSH2 0x20E SWAP2 SWAP1 PUSH2 0x7BF JUMP JUMPDEST POP PUSH1 0xFF PUSH0 SHL SWAP1 POP JUMPDEST SWAP3 SWAP2 POP POP JUMP JUMPDEST PUSH0 PUSH32 0x8B73C3C69BB8FE3D512ECC4CF759CC79239F7B179B0FFACAA9A75D522B39400F PUSH1 0xE0 MLOAD PUSH2 0x100 MLOAD CHAINID ADDRESS PUSH1 0x40 MLOAD PUSH1 0x20 ADD PUSH2 0x25B SWAP6 SWAP5 SWAP4 SWAP3 SWAP2 SWAP1 PUSH2 0x8F4 JUMP JUMPDEST PUSH1 0x40 MLOAD PUSH1 0x20 DUP2 DUP4 SUB SUB DUP2 MSTORE SWAP1 PUSH1 0x40 MSTORE DUP1 MLOAD SWAP1 PUSH1 0x20 ADD KECCAK256 SWAP1 POP SWAP1 JUMP JUMPDEST PUSH0 PUSH20 0xFFFFFFFFFFFFFFFFFFFFFFFFFFFFFFFFFFFFFFFF AND DUP3 PUSH20 0xFFFFFFFFFFFFFFFFFFFFFFFFFFFFFFFFFFFFFFFF AND SUB PUSH2 0x2E6 JUMPI PUSH0 PUSH1 0x40 MLOAD PUSH32 0xEC442F0500000000000000000000000000000000000000000000000000000000 DUP2 MSTORE PUSH1 0x4 ADD PUSH2 0x2DD SWAP2 SWAP1 PUSH2 0x945 JUMP JUMPDEST PUSH1 0x40 MLOAD DUP1 SWAP2 SUB SWAP1 REVERT JUMPDEST PUSH2 0x2F7 PUSH0 DUP4 DUP4 PUSH2 0x369 PUSH1 0x20 SHL PUSH1 0x20 SHR JUMP JUMPDEST POP POP JUMP JUMPDEST PUSH0 PUSH0 DUP3 SWAP1 POP PUSH1 0x1F DUP2 MLOAD GT ISZERO PUSH2 0x347 JUMPI DUP3 PUSH1 0x40 MLOAD PUSH32 0x305A27A900000000000000000000000000000000000000000000000000000000 DUP2 MSTORE PUSH1 0x4 ADD PUSH2 0x33E SWAP2 SWAP1 PUSH2 0x9C4 JUMP JUMPDEST PUSH1 0x40 MLOAD DUP1 SWAP2 SUB SWAP1 REVERT JUMPDEST DUP1 MLOAD DUP2 PUSH2 0x353 SWAP1 PUSH2 0xA11 JUMP JUMPDEST PUSH0 SHR OR PUSH0 SHL SWAP2 POP POP SWAP2 SWAP1 POP JUMP JUMPDEST PUSH0 DUP2 SWAP1 POP SWAP2 SWAP1 POP JUMP JUMPDEST PUSH0 PUSH20 0xFFFFFFFFFFFFFFFFFFFFFFFFFFFFFFFFFFFFFFFF AND DUP4 PUSH20 0xFFFFFFFFFFFFFFFFFFFFFFFFFFFFFFFFFFFFFFFF AND SUB PUSH2 0x3B9 JUMPI DUP1 PUSH1 0x2 PUSH0 DUP3 DUP3 SLOAD PUSH2 0x3AD SWAP2 SWAP1 PUSH2 0xAA4 JUMP JUMPDEST SWAP3 POP POP DUP2 SWAP1 SSTORE POP PUSH2 0x487 JUMP JUMPDEST PUSH0 PUSH0 PUSH0 DUP6 PUSH20 0xFFFFFFFFFFFFFFFFFFFFFFFFFFFFFFFFFFFFFFFF AND PUSH20 0xFFFFFFFFFFFFFFFFFFFFFFFFFFFFFFFFFFFFFFFF AND DUP2 MSTORE PUSH1 0x20 ADD SWAP1 DUP2 MSTORE PUSH1 0x20 ADD PUSH0 KECCAK256 SLOAD SWAP1 POP DUP2 DUP2 LT ISZERO PUSH2 0x442 JUMPI DUP4 DUP2 DUP4 PUSH1 0x40 MLOAD PUSH32 0xE450D38C00000000000000000000000000000000000000000000000000000000 DUP2 MSTORE PUSH1 0x4 ADD PUSH2 0x439 SWAP4 SWAP3 SWAP2 SWAP1 PUSH2 0xAD7 JUMP JUMPDEST PUSH1 0x40 MLOAD DUP1 SWAP2 SUB SWAP1 REVERT JUMPDEST DUP2 DUP2 SUB PUSH0 PUSH0 DUP7 PUSH20 0xFFFFFFFFFFFFFFFFFFFFFFFFFFFFFFFFFFFFFFFF AND PUSH20 0xFFFFFFFFFFFFFFFFFFFFFFFFFFFFFFFFFFFFFFFF AND DUP2 MSTORE PUSH1 0x20 ADD SWAP1 DUP2 MSTORE PUSH1 0x20 ADD PUSH0 KECCAK256 DUP2 SWAP1 SSTORE POP POP JUMPDEST PUSH0 PUSH20 0xFFFFFFFFFFFFFFFFFFFFFFFFFFFFFFFFFFFFFFFF AND DUP3 PUSH20 0xFFFFFFFFFFFFFFFFFFFFFFFFFFFFFFFFFFFFFFFF AND SUB PUSH2 0x4CE JUMPI DUP1 PUSH1 0x2 PUSH0 DUP3 DUP3 SLOAD SUB SWAP3 POP POP DUP2 SWAP1 SSTORE POP PUSH2 0x518 JUMP JUMPDEST DUP1 PUSH0 PUSH0 DUP5 PUSH20 0xFFFFFFFFFFFFFFFFFFFFFFFFFFFFFFFFFFFFFFFF AND PUSH20 0xFFFFFFFFFFFFFFFFFFFFFFFFFFFFFFFFFFFFFFFF AND DUP2 MSTORE PUSH1 0x20 ADD SWAP1 DUP2 MSTORE PUSH1 0x20 ADD PUSH0 KECCAK256 PUSH0 DUP3 DUP3 SLOAD ADD SWAP3 POP POP DUP2 SWAP1 SSTORE POP JUMPDEST DUP2 PUSH20 0xFFFFFFFFFFFFFFFFFFFFFFFFFFFFFFFFFFFFFFFF AND DUP4 PUSH20 0xFFFFFFFFFFFFFFFFFFFFFFFFFFFFFFFFFFFFFFFF AND PUSH32 0xDDF252AD1BE2C89B69C2B068FC378DAA952BA7F163C4A11628F55A4DF523B3EF DUP4 PUSH1 0x40 MLOAD PUSH2 0x575 SWAP2 SWAP1 PUSH2 0xB0C JUMP JUMPDEST PUSH1 0x40 MLOAD DUP1 SWAP2 SUB SWAP1 LOG3 POP POP POP JUMP JUMPDEST PUSH0 DUP2 MLOAD SWAP1 POP SWAP2 SWAP1 POP JUMP JUMPDEST PUSH32 0x4E487B7100000000000000000000000000000000000000000000000000000000 PUSH0 MSTORE PUSH1 0x41 PUSH1 0x4 MSTORE PUSH1 0x24 PUSH0 REVERT JUMPDEST PUSH32 0x4E487B7100000000000000000000000000000000000000000000000000000000 PUSH0 MSTORE PUSH1 0x22 PUSH1 0x4 MSTORE PUSH1 0x24 PUSH0 REVERT JUMPDEST PUSH0 PUSH1 0x2 DUP3 DIV SWAP1 POP PUSH1 0x1 DUP3 AND DUP1 PUSH2 0x5FD JUMPI PUSH1 0x7F DUP3 AND SWAP2 POP JUMPDEST PUSH1 0x20 DUP3 LT DUP2 SUB PUSH2 0x610 JUMPI PUSH2 0x60F PUSH2 0x5B9 JUMP JUMPDEST JUMPDEST POP SWAP2 SWAP1 POP JUMP JUMPDEST PUSH0 DUP2 SWAP1 POP DUP2 PUSH0 MSTORE PUSH1 0x20 PUSH0 KECCAK256 SWAP1 POP SWAP2 SWAP1 POP JUMP JUMPDEST PUSH0 PUSH1 0x20 PUSH1 0x1F DUP4 ADD DIV SWAP1 POP SWAP2 SWAP1 POP JUMP JUMPDEST PUSH0 DUP3 DUP3 SHL SWAP1 POP SWAP3 SWAP2 POP POP JUMP JUMPDEST PUSH0 PUSH1 0x8 DUP4 MUL PUSH2 0x672 PUSH32 0xFFFFFFFFFFFFFFFFFFFFFFFFFFFFFFFFFFFFFFFFFFFFFFFFFFFFFFFFFFFFFFFF DUP3 PUSH2 0x637 JUMP JUMPDEST PUSH2 0x67C DUP7 DUP4 PUSH2 0x637 JUMP JUMPDEST SWAP6 POP DUP1 NOT DUP5 AND SWAP4 POP DUP1 DUP7 AND DUP5 OR SWAP3 POP POP POP SWAP4 SWAP3 POP POP POP JUMP JUMPDEST PUSH0 DUP2 SWAP1 POP SWAP2 SWAP1 POP JUMP JUMPDEST PUSH0 DUP2 SWAP1 POP SWAP2 SWAP1 POP JUMP JUMPDEST PUSH0 PUSH2 0x6C0 PUSH2 0x6BB PUSH2 0x6B6 DUP5 PUSH2 0x694 JUMP JUMPDEST PUSH2 0x69D JUMP JUMPDEST PUSH2 0x694 JUMP JUMPDEST SWAP1 POP SWAP2 SWAP1 POP JUMP JUMPDEST PUSH0 DUP2 SWAP1 POP SWAP2 SWAP1 POP JUMP JUMPDEST PUSH2 0x6D9 DUP4 PUSH2 0x6A6 JUMP JUMPDEST PUSH2 0x6ED PUSH2 0x6E5 DUP3 PUSH2 0x6C7 JUMP JUMPDEST DUP5 DUP5 SLOAD PUSH2 0x643 JUMP JUMPDEST DUP3 SSTORE POP POP POP POP JUMP JUMPDEST PUSH0 PUSH0 SWAP1 POP SWAP1 JUMP JUMPDEST PUSH2 0x704 PUSH2 0x6F5 JUMP JUMPDEST PUSH2 0x70F DUP2 DUP5 DUP5 PUSH2 0x6D0 JUMP JUMPDEST POP POP POP JUMP JUMPDEST JUMPDEST DUP2 DUP2 LT ISZERO PUSH2 0x732 JUMPI PUSH2 0x727 PUSH0 DUP3 PUSH2 0x6FC JUMP JUMPDEST PUSH1 0x1 DUP2 ADD SWAP1 POP PUSH2 0x715 JUMP JUMPDEST POP POP JUMP JUMPDEST PUSH1 0x1F DUP3 GT ISZERO PUSH2 0x777 JUMPI PUSH2 0x748 DUP2 PUSH2 0x616 JUMP JUMPDEST PUSH2 0x751 DUP5 PUSH2 0x628 JUMP JUMPDEST DUP2 ADD PUSH1 0x20 DUP6 LT ISZERO PUSH2 0x760 JUMPI DUP2 SWAP1 POP JUMPDEST PUSH2 0x774 PUSH2 0x76C DUP6 PUSH2 0x628 JUMP JUMPDEST DUP4 ADD DUP3 PUSH2 0x714 JUMP JUMPDEST POP POP JUMPDEST POP POP POP JUMP JUMPDEST PUSH0 DUP3 DUP3 SHR SWAP1 POP SWAP3 SWAP2 POP POP JUMP JUMPDEST PUSH0 PUSH2 0x797 PUSH0 NOT DUP5 PUSH1 0x8 MUL PUSH2 0x77C JUMP JUMPDEST NOT DUP1 DUP4 AND SWAP2 POP POP SWAP3 SWAP2 POP POP JUMP JUMPDEST PUSH0 PUSH2 0x7AF DUP4 DUP4 PUSH2 0x788 JUMP JUMPDEST SWAP2 POP DUP3 PUSH1 0x2 MUL DUP3 OR SWAP1 POP SWAP3 SWAP2 POP POP JUMP JUMPDEST PUSH2 0x7C8 DUP3 PUSH2 0x582 JUMP JUMPDEST PUSH8 0xFFFFFFFFFFFFFFFF DUP2 GT ISZERO PUSH2 0x7E1 JUMPI PUSH2 0x7E0 PUSH2 0x58C JUMP JUMPDEST JUMPDEST PUSH2 0x7EB DUP3 SLOAD PUSH2 0x5E6 JUMP JUMPDEST PUSH2 0x7F6 DUP3 DUP3 DUP6 PUSH2 0x736 JUMP JUMPDEST PUSH0 PUSH1 0x20 SWAP1 POP PUSH1 0x1F DUP4 GT PUSH1 0x1 DUP2 EQ PUSH2 0x827 JUMPI PUSH0 DUP5 ISZERO PUSH2 0x815 JUMPI DUP3 DUP8 ADD MLOAD SWAP1 POP JUMPDEST PUSH2 0x81F DUP6 DUP3 PUSH2 0x7A4 JUMP JUMPDEST DUP7 SSTORE POP PUSH2 0x886 JUMP JUMPDEST PUSH1 0x1F NOT DUP5 AND PUSH2 0x835 DUP7 PUSH2 0x616 JUMP JUMPDEST PUSH0 JUMPDEST DUP3 DUP2 LT ISZERO PUSH2 0x85C JUMPI DUP5 DUP10 ADD MLOAD DUP3 SSTORE PUSH1 0x1 DUP3 ADD SWAP2 POP PUSH1 0x20 DUP6 ADD SWAP5 POP PUSH1 0x20 DUP2 ADD SWAP1 POP PUSH2 0x837 JUMP JUMPDEST DUP7 DUP4 LT ISZERO PUSH2 0x879 JUMPI DUP5 DUP10 ADD MLOAD PUSH2 0x875 PUSH1 0x1F DUP10 AND DUP3 PUSH2 0x788 JUMP JUMPDEST DUP4 SSTORE POP JUMPDEST PUSH1 0x1 PUSH1 0x2 DUP9 MUL ADD DUP9 SSTORE POP POP POP JUMPDEST POP POP POP POP POP POP JUMP JUMPDEST PUSH0 DUP2 SWAP1 POP SWAP2 SWAP1 POP JUMP JUMPDEST PUSH2 0x8A0 DUP2 PUSH2 0x88E JUMP JUMPDEST DUP3 MSTORE POP POP JUMP JUMPDEST PUSH2 0x8AF DUP2 PUSH2 0x694 JUMP JUMPDEST DUP3 MSTORE POP POP JUMP JUMPDEST PUSH0 PUSH20 0xFFFFFFFFFFFFFFFFFFFFFFFFFFFFFFFFFFFFFFFF DUP3 AND SWAP1 POP SWAP2 SWAP1 POP JUMP JUMPDEST PUSH0 PUSH2 0x8DE DUP3 PUSH2 0x8B5 JUMP JUMPDEST SWAP1 POP SWAP2 SWAP1 POP JUMP JUMPDEST PUSH2 0x8EE DUP2 PUSH2 0x8D4 JUMP JUMPDEST DUP3 MSTORE POP POP JUMP JUMPDEST PUSH0 PUSH1 0xA0 DUP3 ADD SWAP1 POP PUSH2 0x907 PUSH0 DUP4 ADD DUP9 PUSH2 0x897 JUMP JUMPDEST PUSH2 0x914 PUSH1 0x20 DUP4 ADD DUP8 PUSH2 0x897 JUMP JUMPDEST PUSH2 0x921 PUSH1 0x40 DUP4 ADD DUP7 PUSH2 0x897 JUMP JUMPDEST PUSH2 0x92E PUSH1 0x60 DUP4 ADD DUP6 PUSH2 0x8A6 JUMP JUMPDEST PUSH2 0x93B PUSH1 0x80 DUP4 ADD DUP5 PUSH2 0x8E5 JUMP JUMPDEST SWAP7 SWAP6 POP POP POP POP POP POP JUMP JUMPDEST PUSH0 PUSH1 0x20 DUP3 ADD SWAP1 POP PUSH2 0x958 PUSH0 DUP4 ADD DUP5 PUSH2 0x8E5 JUMP JUMPDEST SWAP3 SWAP2 POP POP JUMP JUMPDEST PUSH0 DUP3 DUP3 MSTORE PUSH1 0x20 DUP3 ADD SWAP1 POP SWAP3 SWAP2 POP POP JUMP JUMPDEST DUP3 DUP2 DUP4 MCOPY PUSH0 DUP4 DUP4 ADD MSTORE POP POP POP JUMP JUMPDEST PUSH0 PUSH1 0x1F NOT PUSH1 0x1F DUP4 ADD AND SWAP1 POP SWAP2 SWAP1 POP JUMP JUMPDEST PUSH0 PUSH2 0x996 DUP3 PUSH2 0x582 JUMP JUMPDEST PUSH2 0x9A0 DUP2 DUP6 PUSH2 0x95E JUMP JUMPDEST SWAP4 POP PUSH2 0x9B0 DUP2 DUP6 PUSH1 0x20 DUP7 ADD PUSH2 0x96E JUMP JUMPDEST PUSH2 0x9B9 DUP2 PUSH2 0x97C JUMP JUMPDEST DUP5 ADD SWAP2 POP POP SWAP3 SWAP2 POP POP JUMP JUMPDEST PUSH0 PUSH1 0x20 DUP3 ADD SWAP1 POP DUP2 DUP2 SUB PUSH0 DUP4 ADD MSTORE PUSH2 0x9DC DUP2 DUP5 PUSH2 0x98C JUMP JUMPDEST SWAP1 POP SWAP3 SWAP2 POP POP JUMP JUMPDEST PUSH0 DUP2 MLOAD SWAP1 POP SWAP2 SWAP1 POP JUMP JUMPDEST PUSH0 DUP2 SWAP1 POP PUSH1 0x20 DUP3 ADD SWAP1 POP SWAP2 SWAP1 POP JUMP JUMPDEST PUSH0 PUSH2 0xA08 DUP3 MLOAD PUSH2 0x88E JUMP JUMPDEST DUP1 SWAP2 POP POP SWAP2 SWAP1 POP JUMP JUMPDEST PUSH0 PUSH2 0xA1B DUP3 PUSH2 0x9E4 JUMP JUMPDEST DUP3 PUSH2 0xA25 DUP5 PUSH2 0x9EE JUMP JUMPDEST SWAP1 POP PUSH2 0xA30 DUP2 PUSH2 0x9FD JUMP JUMPDEST SWAP3 POP PUSH1 0x20 DUP3 LT ISZERO PUSH2 0xA70 JUMPI PUSH2 0xA6B PUSH32 0xFFFFFFFFFFFFFFFFFFFFFFFFFFFFFFFFFFFFFFFFFFFFFFFFFFFFFFFFFFFFFFFF DUP4 PUSH1 0x20 SUB PUSH1 0x8 MUL PUSH2 0x637 JUMP JUMPDEST DUP4 AND SWAP3 POP JUMPDEST POP POP SWAP2 SWAP1 POP JUMP JUMPDEST PUSH32 0x4E487B7100000000000000000000000000000000000000000000000000000000 PUSH0 MSTORE PUSH1 0x11 PUSH1 0x4 MSTORE PUSH1 0x24 PUSH0 REVERT JUMPDEST PUSH0 PUSH2 0xAAE DUP3 PUSH2 0x694 JUMP JUMPDEST SWAP2 POP PUSH2 0xAB9 DUP4 PUSH2 0x694 JUMP JUMPDEST SWAP3 POP DUP3 DUP3 ADD SWAP1 POP DUP1 DUP3 GT ISZERO PUSH2 0xAD1 JUMPI PUSH2 0xAD0 PUSH2 0xA77 JUMP JUMPDEST JUMPDEST SWAP3 SWAP2 POP POP JUMP JUMPDEST PUSH0 PUSH1 0x60 DUP3 ADD SWAP1 POP PUSH2 0xAEA PUSH0 DUP4 ADD DUP7 PUSH2 0x8E5 JUMP JUMPDEST PUSH2 0xAF7 PUSH1 0x20 DUP4 ADD DUP6 PUSH2 0x8A6 JUMP JUMPDEST PUSH2 0xB04 PUSH1 0x40 DUP4 ADD DUP5 PUSH2 0x8A6 JUMP JUMPDEST SWAP5 SWAP4 POP POP POP POP JUMP JUMPDEST PUSH0 PUSH1 0x20 DUP3 ADD SWAP1 POP PUSH2 0xB1F PUSH0 DUP4 ADD DUP5 PUSH2 0x8A6 JUMP JUMPDEST SWAP3 SWAP2 POP POP JUMP JUMPDEST PUSH1 0x80 MLOAD PUSH1 0xA0 MLOAD PUSH1 0xC0 MLOAD PUSH1 0xE0 MLOAD PUSH2 0x100 MLOAD PUSH2 0x120 MLOAD PUSH2 0x140 MLOAD PUSH2 0x1EF7 PUSH2 0xB76 PUSH0 CODECOPY PUSH0 PUSH2 0xB69 ADD MSTORE PUSH0 PUSH2 0xB2E ADD MSTORE PUSH0 PUSH2 0x146D ADD MSTORE PUSH0 PUSH2 0x144C ADD MSTORE PUSH0 PUSH2 0x107A ADD MSTORE PUSH0 PUSH2 0x10D0 ADD MSTORE PUSH0 PUSH2 0x10F9 ADD MSTORE PUSH2 0x1EF7 PUSH0 RETURN INVALID PUSH1 0x80 PUSH1 0x40 MSTORE CALLVALUE DUP1 ISZERO PUSH2 0xF JUMPI PUSH0 PUSH0 REVERT JUMPDEST POP PUSH1 0x4 CALLDATASIZE LT PUSH2 0xE8 JUMPI PUSH0 CALLDATALOAD PUSH1 0xE0 SHR DUP1 PUSH4 0x84B0196E GT PUSH2 0x8A JUMPI DUP1 PUSH4 0xDD62ED3E GT PUSH2 0x64 JUMPI DUP1 PUSH4 0xDD62ED3E EQ PUSH2 0x264 JUMPI DUP1 PUSH4 0xDE5F72FD EQ PUSH2 0x294 JUMPI DUP1 PUSH4 0xE3EE160E EQ PUSH2 0x29E JUMPI DUP1 PUSH4 0xE94A0102 EQ PUSH2 0x2BA JUMPI PUSH2 0xE8 JUMP JUMPDEST DUP1 PUSH4 0x84B0196E EQ PUSH2 0x1F2 JUMPI DUP1 PUSH4 0x95D89B41 EQ PUSH2 0x216 JUMPI DUP1 PUSH4 0xA9059CBB EQ PUSH2 0x234 JUMPI PUSH2 0xE8 JUMP JUMPDEST DUP1 PUSH4 0x23B872DD GT PUSH2 0xC6 JUMPI DUP1 PUSH4 0x23B872DD EQ PUSH2 0x158 JUMPI DUP1 PUSH4 0x313CE567 EQ PUSH2 0x188 JUMPI DUP1 PUSH4 0x40C10F19 EQ PUSH2 0x1A6 JUMPI DUP1 PUSH4 0x70A08231 EQ PUSH2 0x1C2 JUMPI PUSH2 0xE8 JUMP JUMPDEST DUP1 PUSH4 0x6FDDE03 EQ PUSH2 0xEC JUMPI DUP1 PUSH4 0x95EA7B3 EQ PUSH2 0x10A JUMPI DUP1 PUSH4 0x18160DDD EQ PUSH2 0x13A JUMPI JUMPDEST PUSH0 PUSH0 REVERT JUMPDEST PUSH2 0xF4 PUSH2 0x2EA JUMP JUMPDEST PUSH1 0x40 MLOAD PUSH2 0x101 SWAP2 SWAP1 PUSH2 0x157B JUMP JUMPDEST PUSH1 0x40 MLOAD DUP1 SWAP2 SUB SWAP1 RETURN JUMPDEST PUSH2 0x124 PUSH1 0x4 DUP1 CALLDATASIZE SUB DUP2 ADD SWAP1 PUSH2 0x11F SWAP2 SWAP1 PUSH2 0x162C JUMP JUMPDEST PUSH2 0x37A JUMP JUMPDEST PUSH1 0x40 MLOAD PUSH2 0x131 SWAP2 SWAP1 PUSH2 0x1684 JUMP JUMPDEST PUSH1 0x40 MLOAD DUP1 SWAP2 SUB SWAP1 RETURN JUMPDEST PUSH2 0x142 PUSH2 0x39C JUMP JUMPDEST PUSH1 0x40 MLOAD PUSH2 0x14F SWAP2 SWAP1 PUSH2 0x16AC JUMP JUMPDEST PUSH1 0x40 MLOAD DUP1 SWAP2 SUB SWAP1 RETURN JUMPDEST PUSH2 0x172 PUSH1 0x4 DUP1 CALLDATASIZE SUB DUP2 ADD SWAP1 PUSH2 0x16D SWAP2 SWAP1 PUSH2 0x16C5 JUMP JUMPDEST PUSH2 0x3A5 JUMP JUMPDEST PUSH1 0x40 MLOAD PUSH2 0x17F SWAP2 SWAP1 PUSH2 0x1684 JUMP JUMPDEST PUSH1 0x40 MLOAD DUP1 SWAP2 SUB SWAP1 RETURN JUMPDEST PUSH2 0x190 PUSH2 0x3D3 JUMP JUMPDEST PUSH1 0x40 MLOAD PUSH2 0x19D SWAP2 SWAP1 PUSH2 0x1730 JUMP JUMPDEST PUSH1 0x40 MLOAD DUP1 SWAP2 SUB SWAP1 RETURN JUMPDEST PUSH2 0x1C0 PUSH1 0x4 DUP1 CALLDATASIZE SUB DUP2 ADD SWAP1 PUSH2 0x1BB SWAP2 SWAP1 PUSH2 0x162C JUMP JUMPDEST PUSH2 0x3DB JUMP JUMPDEST STOP JUMPDEST PUSH2 0x1DC PUSH1 0x4 DUP1 CALLDATASIZE SUB DUP2 ADD SWAP1 PUSH2 0x1D7 SWAP2 SWAP1 PUSH2 0x1749 JUMP JUMPDEST PUSH2 0x3E9 JUMP JUMPDEST PUSH1 0x40 MLOAD PUSH2 0x1E9 SWAP2 SWAP1 PUSH2 0x16AC JUMP JUMPDEST PUSH1 0x40 MLOAD DUP1 SWAP2 SUB SWAP1 RETURN JUMPDEST PUSH2 0x1FA PUSH2 0x42E JUMP JUMPDEST PUSH1 0x40 MLOAD PUSH2 0x20D SWAP8 SWAP7 SWAP6 SWAP5 SWAP4 SWAP3 SWAP2 SWAP1 PUSH2 0x188C JUMP JUMPDEST PUSH1 0x40 MLOAD DUP1 SWAP2 SUB SWAP1 RETURN JUMPDEST PUSH2 0x21E PUSH2 0x4D3 JUMP JUMPDEST PUSH1 0x40 MLOAD PUSH2 0x22B SWAP2 SWAP1 PUSH2 0x157B JUMP JUMPDEST PUSH1 0x40 MLOAD DUP1 SWAP2 SUB SWAP1 RETURN JUMPDEST PUSH2 0x24E PUSH1 0x4 DUP1 CALLDATASIZE SUB DUP2 ADD SWAP1 PUSH2 0x249 SWAP2 SWAP1 PUSH2 0x162C JUMP JUMPDEST PUSH2 0x563 JUMP JUMPDEST PUSH1 0x40 MLOAD PUSH2 0x25B SWAP2 SWAP1 PUSH2 0x1684 JUMP JUMPDEST PUSH1 0x40 MLOAD DUP1 SWAP2 SUB SWAP1 RETURN JUMPDEST PUSH2 0x27E PUSH1 0x4 DUP1 CALLDATASIZE SUB DUP2 ADD SWAP1 PUSH2 0x279 SWAP2 SWAP1 PUSH2 0x190E JUMP JUMPDEST PUSH2 0x585 JUMP JUMPDEST PUSH1 0x40 MLOAD PUSH2 0x28B SWAP2 SWAP1 PUSH2 0x16AC JUMP JUMPDEST PUSH1 0x40 MLOAD DUP1 SWAP2 SUB SWAP1 RETURN JUMPDEST PUSH2 0x29C PUSH2 0x607 JUMP JUMPDEST STOP JUMPDEST PUSH2 0x2B8 PUSH1 0x4 DUP1 CALLDATASIZE SUB DUP2 ADD SWAP1 PUSH2 0x2B3 SWAP2 SWAP1 PUSH2 0x19A0 JUMP JUMPDEST PUSH2 0x618 JUMP JUMPDEST STOP JUMPDEST PUSH2 0x2D4 PUSH1 0x4 DUP1 CALLDATASIZE SUB DUP2 ADD SWAP1 PUSH2 0x2CF SWAP2 SWAP1 PUSH2 0x1A64 JUMP JUMPDEST PUSH2 0x8E0 JUMP JUMPDEST PUSH1 0x40 MLOAD PUSH2 0x2E1 SWAP2 SWAP1 PUSH2 0x1684 JUMP JUMPDEST PUSH1 0x40 MLOAD DUP1 SWAP2 SUB SWAP1 RETURN JUMPDEST PUSH1 0x60 PUSH1 0x3 DUP1 SLOAD PUSH2 0x2F9 SWAP1 PUSH2 0x1ACF JUMP JUMPDEST DUP1 PUSH1 0x1F ADD PUSH1 0x20 DUP1 SWAP2 DIV MUL PUSH1 0x20 ADD PUSH1 0x40 MLOAD SWAP1 DUP2 ADD PUSH1 0x40 MSTORE DUP1 SWAP3 SWAP2 SWAP1 DUP2 DUP2 MSTORE PUSH1 0x20 ADD DUP3 DUP1 SLOAD PUSH2 0x325 SWAP1 PUSH2 0x1ACF JUMP JUMPDEST DUP1 ISZERO PUSH2 0x370 JUMPI DUP1 PUSH1 0x1F LT PUSH2 0x347 JUMPI PUSH2 0x100 DUP1 DUP4 SLOAD DIV MUL DUP4 MSTORE SWAP2 PUSH1 0x20 ADD SWAP2 PUSH2 0x370 JUMP JUMPDEST DUP3 ADD SWAP2 SWAP1 PUSH0 MSTORE PUSH1 0x20 PUSH0 KECCAK256 SWAP1 JUMPDEST DUP2 SLOAD DUP2 MSTORE SWAP1 PUSH1 0x1 ADD SWAP1 PUSH1 0x20 ADD DUP1 DUP4 GT PUSH2 0x353 JUMPI DUP3 SWAP1 SUB PUSH1 0x1F AND DUP3 ADD SWAP2 JUMPDEST POP POP POP POP POP SWAP1 POP SWAP1 JUMP JUMPDEST PUSH0 PUSH0 PUSH2 0x384 PUSH2 0x90A JUMP JUMPDEST SWAP1 POP PUSH2 0x391 DUP2 DUP6 DUP6 PUSH2 0x911 JUMP JUMPDEST PUSH1 0x1 SWAP2 POP POP SWAP3 SWAP2 POP POP JUMP JUMPDEST PUSH0 PUSH1 0x2 SLOAD SWAP1 POP SWAP1 JUMP JUMPDEST PUSH0 PUSH0 PUSH2 0x3AF PUSH2 0x90A JUMP JUMPDEST SWAP1 POP PUSH2 0x3BC DUP6 DUP3 DUP6 PUSH2 0x923 JUMP JUMPDEST PUSH2 0x3C7 DUP6 DUP6 DUP6 PUSH2 0x9B6 JUMP JUMPDEST PUSH1 0x1 SWAP2 POP POP SWAP4 SWAP3 POP POP POP JUMP JUMPDEST PUSH0 PUSH1 0x6 SWAP1 POP SWAP1 JUMP JUMPDEST PUSH2 0x3E5 DUP3 DUP3 PUSH2 0xAA6 JUMP JUMPDEST POP POP JUMP JUMPDEST PUSH0 PUSH0 PUSH0 DUP4 PUSH20 0xFFFFFFFFFFFFFFFFFFFFFFFFFFFFFFFFFFFFFFFF AND PUSH20 0xFFFFFFFFFFFFFFFFFFFFFFFFFFFFFFFFFFFFFFFF AND DUP2 MSTORE PUSH1 0x20 ADD SWAP1 DUP2 MSTORE PUSH1 0x20 ADD PUSH0 KECCAK256 SLOAD SWAP1 POP SWAP2 SWAP1 POP JUMP JUMPDEST PUSH0 PUSH1 0x60 DUP1 PUSH0 PUSH0 PUSH0 PUSH1 0x60 PUSH2 0x43F PUSH2 0xB25 JUMP JUMPDEST PUSH2 0x447 PUSH2 0xB60 JUMP JUMPDEST CHAINID ADDRESS PUSH0 PUSH0 SHL PUSH0 PUSH8 0xFFFFFFFFFFFFFFFF DUP2 GT ISZERO PUSH2 0x466 JUMPI PUSH2 0x465 PUSH2 0x1AFF JUMP JUMPDEST JUMPDEST PUSH1 0x40 MLOAD SWAP1 DUP1 DUP3 MSTORE DUP1 PUSH1 0x20 MUL PUSH1 0x20 ADD DUP3 ADD PUSH1 0x40 MSTORE DUP1 ISZERO PUSH2 0x494 JUMPI DUP2 PUSH1 0x20 ADD PUSH1 0x20 DUP3 MUL DUP1 CALLDATASIZE DUP4 CALLDATACOPY DUP1 DUP3 ADD SWAP2 POP POP SWAP1 POP JUMPDEST POP PUSH32 0xF00000000000000000000000000000000000000000000000000000000000000 SWAP6 SWAP5 SWAP4 SWAP3 SWAP2 SWAP1 SWAP7 POP SWAP7 POP SWAP7 POP SWAP7 POP SWAP7 POP SWAP7 POP SWAP7 POP SWAP1 SWAP2 SWAP3 SWAP4 SWAP5 SWAP6 SWAP7 JUMP JUMPDEST PUSH1 0x60 PUSH1 0x4 DUP1 SLOAD PUSH2 0x4E2 SWAP1 PUSH2 0x1ACF JUMP JUMPDEST DUP1 PUSH1 0x1F ADD PUSH1 0x20 DUP1 SWAP2 DIV MUL PUSH1 0x20 ADD PUSH1 0x40 MLOAD SWAP1 DUP2 ADD PUSH1 0x40 MSTORE DUP1 SWAP3 SWAP2 SWAP1 DUP2 DUP2 MSTORE PUSH1 0x20 ADD DUP3 DUP1 SLOAD PUSH2 0x50E SWAP1 PUSH2 0x1ACF JUMP JUMPDEST DUP1 ISZERO PUSH2 0x559 JUMPI DUP1 PUSH1 0x1F LT PUSH2 0x530 JUMPI PUSH2 0x100 DUP1 DUP4 SLOAD DIV MUL DUP4 MSTORE SWAP2 PUSH1 0x20 ADD SWAP2 PUSH2 0x559 JUMP JUMPDEST DUP3 ADD SWAP2 SWAP1 PUSH0 MSTORE PUSH1 0x20 PUSH0 KECCAK256 SWAP1 JUMPDEST DUP2 SLOAD DUP2 MSTORE SWAP1 PUSH1 0x1 ADD SWAP1 PUSH1 0x20 ADD DUP1 DUP4 GT PUSH2 0x53C JUMPI DUP3 SWAP1 SUB PUSH1 0x1F AND DUP3 ADD SWAP2 JUMPDEST POP POP POP POP POP SWAP1 POP SWAP1 JUMP JUMPDEST PUSH0 PUSH0 PUSH2 0x56D PUSH2 0x90A JUMP JUMPDEST SWAP1 POP PUSH2 0x57A DUP2 DUP6 DUP6 PUSH2 0x9B6 JUMP JUMPDEST PUSH1 0x1 SWAP2 POP POP SWAP3 SWAP2 POP POP JUMP JUMPDEST PUSH0 PUSH1 0x1 PUSH0 DUP5 PUSH20 0xFFFFFFFFFFFFFFFFFFFFFFFFFFFFFFFFFFFFFFFF AND PUSH20 0xFFFFFFFFFFFFFFFFFFFFFFFFFFFFFFFFFFFFFFFF AND DUP2 MSTORE PUSH1 0x20 ADD SWAP1 DUP2 MSTORE PUSH1 0x20 ADD PUSH0 KECCAK256 PUSH0 DUP4 PUSH20 0xFFFFFFFFFFFFFFFFFFFFFFFFFFFFFFFFFFFFFFFF AND PUSH20 0xFFFFFFFFFFFFFFFFFFFFFFFFFFFFFFFFFFFFFFFF AND DUP2 MSTORE PUSH1 0x20 ADD SWAP1 DUP2 MSTORE PUSH1 0x20 ADD PUSH0 KECCAK256 SLOAD SWAP1 POP SWAP3 SWAP2 POP POP JUMP JUMPDEST PUSH2 0x616 CALLER PUSH5 0xE8D4A51000 PUSH2 0xAA6 JUMP JUMPDEST JUMP JUMPDEST DUP6 TIMESTAMP GT PUSH2 0x65A JUMPI PUSH1 0x40 MLOAD PUSH32 0x8C379A000000000000000000000000000000000000000000000000000000000 DUP2 MSTORE PUSH1 0x4 ADD PUSH2 0x651 SWAP1 PUSH2 0x1B76 JUMP JUMPDEST PUSH1 0x40 MLOAD DUP1 SWAP2 SUB SWAP1 REVERT JUMPDEST DUP5 TIMESTAMP LT PUSH2 0x69C JUMPI PUSH1 0x40 MLOAD PUSH32 0x8C379A000000000000000000000000000000000000000000000000000000000 DUP2 MSTORE PUSH1 0x4 ADD PUSH2 0x693 SWAP1 PUSH2 0x1BDE JUMP JUMPDEST PUSH1 0x40 MLOAD DUP1 SWAP2 SUB SWAP1 REVERT JUMPDEST PUSH1 0x7 PUSH0 DUP11 PUSH20 0xFFFFFFFFFFFFFFFFFFFFFFFFFFFFFFFFFFFFFFFF AND PUSH20 0xFFFFFFFFFFFFFFFFFFFFFFFFFFFFFFFFFFFFFFFF AND DUP2 MSTORE PUSH1 0x20 ADD SWAP1 DUP2 MSTORE PUSH1 0x20 ADD PUSH0 KECCAK256 PUSH0 DUP6 DUP2 MSTORE PUSH1 0x20 ADD SWAP1 DUP2 MSTORE PUSH1 0x20 ADD PUSH0 KECCAK256 PUSH0 SWAP1 SLOAD SWAP1 PUSH2 0x100 EXP SWAP1 DIV PUSH1 0xFF AND ISZERO PUSH2 0x735 JUMPI PUSH1 0x40 MLOAD PUSH32 0x8C379A000000000000000000000000000000000000000000000000000000000 DUP2 MSTORE PUSH1 0x4 ADD PUSH2 0x72C SWAP1 PUSH2 0x1C46 JUMP JUMPDEST PUSH1 0x40 MLOAD DUP1 SWAP2 SUB SWAP1 REVERT JUMPDEST PUSH0 PUSH32 0x7C7C6CDB67A18743F49EC6FA9B35F50D52ED05CBED4CC592E13B44501C1A2267 DUP11 DUP11 DUP11 DUP11 DUP11 DUP11 PUSH1 0x40 MLOAD PUSH1 0x20 ADD PUSH2 0x773 SWAP8 SWAP7 SWAP6 SWAP5 SWAP4 SWAP3 SWAP2 SWAP1 PUSH2 0x1C64 JUMP JUMPDEST PUSH1 0x40 MLOAD PUSH1 0x20 DUP2 DUP4 SUB SUB DUP2 MSTORE SWAP1 PUSH1 0x40 MSTORE DUP1 MLOAD SWAP1 PUSH1 0x20 ADD KECCAK256 SWAP1 POP PUSH0 PUSH2 0x795 DUP3 PUSH2 0xB9B JUMP JUMPDEST SWAP1 POP PUSH0 PUSH2 0x7AF DUP7 DUP7 DUP7 DUP6 PUSH2 0xBB4 SWAP1 SWAP4 SWAP3 SWAP2 SWAP1 PUSH4 0xFFFFFFFF AND JUMP JUMPDEST SWAP1 POP DUP12 PUSH20 0xFFFFFFFFFFFFFFFFFFFFFFFFFFFFFFFFFFFFFFFF AND DUP2 PUSH20 0xFFFFFFFFFFFFFFFFFFFFFFFFFFFFFFFFFFFFFFFF AND EQ PUSH2 0x81F JUMPI PUSH1 0x40 MLOAD PUSH32 0x8C379A000000000000000000000000000000000000000000000000000000000 DUP2 MSTORE PUSH1 0x4 ADD PUSH2 0x816 SWAP1 PUSH2 0x1D1B JUMP JUMPDEST PUSH1 0x40 MLOAD DUP1 SWAP2 SUB SWAP1 REVERT JUMPDEST PUSH1 0x1 PUSH1 0x7 PUSH0 DUP15 PUSH20 0xFFFFFFFFFFFFFFFFFFFFFFFFFFFFFFFFFFFFFFFF AND PUSH20 0xFFFFFFFFFFFFFFFFFFFFFFFFFFFFFFFFFFFFFFFF AND DUP2 MSTORE PUSH1 0x20 ADD SWAP1 DUP2 MSTORE PUSH1 0x20 ADD PUSH0 KECCAK256 PUSH0 DUP10 DUP2 MSTORE PUSH1 0x20 ADD SWAP1 DUP2 MSTORE PUSH1 0x20 ADD PUSH0 KECCAK256 PUSH0 PUSH2 0x100 EXP DUP2 SLOAD DUP2 PUSH1 0xFF MUL NOT AND SWAP1 DUP4 ISZERO ISZERO MUL OR SWAP1 SSTORE POP PUSH2 0x88E DUP13 DUP13 DUP13 PUSH2 0x9B6 JUMP JUMPDEST DUP7 DUP13 PUSH20 0xFFFFFFFFFFFFFFFFFFFFFFFFFFFFFFFFFFFFFFFF AND PUSH32 0x98DE503528EE59B575EF0C0A2576A82497BFC029A5685B209E9EC333479B10A5 PUSH1 0x40 MLOAD PUSH1 0x40 MLOAD DUP1 SWAP2 SUB SWAP1 LOG3 POP POP POP POP POP POP POP POP POP POP POP POP JUMP JUMPDEST PUSH1 0x7 PUSH1 0x20 MSTORE DUP2 PUSH0 MSTORE PUSH1 0x40 PUSH0 KECCAK256 PUSH1 0x20 MSTORE DUP1 PUSH0 MSTORE PUSH1 0x40 PUSH0 KECCAK256 PUSH0 SWAP2 POP SWAP2 POP SWAP1 SLOAD SWAP1 PUSH2 0x100 EXP SWAP1 DIV PUSH1 0xFF AND DUP2 JUMP JUMPDEST PUSH0 CALLER SWAP1 POP SWAP1 JUMP JUMPDEST PUSH2 0x91E DUP4 DUP4 DUP4 PUSH1 0x1 PUSH2 0xBE2 JUMP JUMPDEST POP POP POP JUMP JUMPDEST PUSH0 PUSH2 0x92E DUP5 DUP5 PUSH2 0x585 JUMP JUMPDEST SWAP1 POP PUSH32 0xFFFFFFFFFFFFFFFFFFFFFFFFFFFFFFFFFFFFFFFFFFFFFFFFFFFFFFFFFFFFFFFF DUP2 LT ISZERO PUSH2 0x9B0 JUMPI DUP2 DUP2 LT ISZERO PUSH2 0x9A1 JUMPI DUP3 DUP2 DUP4 PUSH1 0x40 MLOAD PUSH32 0xFB8F41B200000000000000000000000000000000000000000000000000000000 DUP2 MSTORE PUSH1 0x4 ADD PUSH2 0x998 SWAP4 SWAP3 SWAP2 SWAP1 PUSH2 0x1D39 JUMP JUMPDEST PUSH1 0x40 MLOAD DUP1 SWAP2 SUB SWAP1 REVERT JUMPDEST PUSH2 0x9AF DUP5 DUP5 DUP5 DUP5 SUB PUSH0 PUSH2 0xBE2 JUMP JUMPDEST JUMPDEST POP POP POP POP JUMP JUMPDEST PUSH0 PUSH20 0xFFFFFFFFFFFFFFFFFFFFFFFFFFFFFFFFFFFFFFFF AND DUP4 PUSH20 0xFFFFFFFFFFFFFFFFFFFFFFFFFFFFFFFFFFFFFFFF AND SUB PUSH2 0xA26 JUMPI PUSH0 PUSH1 0x40 MLOAD PUSH32 0x96C6FD1E00000000000000000000000000000000000000000000000000000000 DUP2 MSTORE PUSH1 0x4 ADD PUSH2 0xA1D SWAP2 SWAP1 PUSH2 0x1D6E JUMP JUMPDEST PUSH1 0x40 MLOAD DUP1 SWAP2 SUB SWAP1 REVERT JUMPDEST PUSH0 PUSH20 0xFFFFFFFFFFFFFFFFFFFFFFFFFFFFFFFFFFFFFFFF AND DUP3 PUSH20 0xFFFFFFFFFFFFFFFFFFFFFFFFFFFFFFFFFFFFFFFF AND SUB PUSH2 0xA96 JUMPI PUSH0 PUSH1 0x40 MLOAD PUSH32 0xEC442F0500000000000000000000000000000000000000000000000000000000 DUP2 MSTORE PUSH1 0x4 ADD PUSH2 0xA8D SWAP2 SWAP1 PUSH2 0x1D6E JUMP JUMPDEST PUSH1 0x40 MLOAD DUP1 SWAP2 SUB SWAP1 REVERT JUMPDEST PUSH2 0xAA1 DUP4 DUP4 DUP4 PUSH2 0xDB1 JUMP JUMPDEST POP POP POP JUMP JUMPDEST PUSH0 PUSH20 0xFFFFFFFFFFFFFFFFFFFFFFFFFFFFFFFFFFFFFFFF AND DUP3 PUSH20 0xFFFFFFFFFFFFFFFFFFFFFFFFFFFFFFFFFFFFFFFF AND SUB PUSH2 0xB16 JUMPI PUSH0 PUSH1 0x40 MLOAD PUSH32 0xEC442F0500000000000000000000000000000000000000000000000000000000 DUP2 MSTORE PUSH1 0x4 ADD PUSH2 0xB0D SWAP2 SWAP1 PUSH2 0x1D6E JUMP JUMPDEST PUSH1 0x40 MLOAD DUP1 SWAP2 SUB SWAP1 REVERT JUMPDEST PUSH2 0xB21 PUSH0 DUP4 DUP4 PUSH2 0xDB1 JUMP JUMPDEST POP POP JUMP JUMPDEST PUSH1 0x60 PUSH2 0xB5B PUSH1 0x5 PUSH32 0x0 PUSH2 0xFCA SWAP1 SWAP2 SWAP1 PUSH4 0xFFFFFFFF AND JUMP JUMPDEST SWAP1 POP SWAP1 JUMP JUMPDEST PUSH1 0x60 PUSH2 0xB96 PUSH1 0x6 PUSH32 0x0 PUSH2 0xFCA SWAP1 SWAP2 SWAP1 PUSH4 0xFFFFFFFF AND JUMP JUMPDEST SWAP1 POP SWAP1 JUMP JUMPDEST PUSH0 PUSH2 0xBAD PUSH2 0xBA7 PUSH2 0x1077 JUMP JUMPDEST DUP4 PUSH2 0x112D JUMP JUMPDEST SWAP1 POP SWAP2 SWAP1 POP JUMP JUMPDEST PUSH0 PUSH0 PUSH0 PUSH0 PUSH2 0xBC4 DUP9 DUP9 DUP9 DUP9 PUSH2 0x116D JUMP JUMPDEST SWAP3 POP SWAP3 POP SWAP3 POP PUSH2 0xBD4 DUP3 DUP3 PUSH2 0x1254 JUMP JUMPDEST DUP3 SWAP4 POP POP POP POP SWAP5 SWAP4 POP POP POP POP JUMP JUMPDEST PUSH0 PUSH20 0xFFFFFFFFFFFFFFFFFFFFFFFFFFFFFFFFFFFFFFFF AND DUP5 PUSH20 0xFFFFFFFFFFFFFFFFFFFFFFFFFFFFFFFFFFFFFFFF AND SUB PUSH2 0xC52 JUMPI PUSH0 PUSH1 0x40 MLOAD PUSH32 0xE602DF0500000000000000000000000000000000000000000000000000000000 DUP2 MSTORE PUSH1 0x4 ADD PUSH2 0xC49 SWAP2 SWAP1 PUSH2 0x1D6E JUMP JUMPDEST PUSH1 0x40 MLOAD DUP1 SWAP2 SUB SWAP1 REVERT JUMPDEST PUSH0 PUSH20 0xFFFFFFFFFFFFFFFFFFFFFFFFFFFFFFFFFFFFFFFF AND DUP4 PUSH20 0xFFFFFFFFFFFFFFFFFFFFFFFFFFFFFFFFFFFFFFFF AND SUB PUSH2 0xCC2 JUMPI PUSH0 PUSH1 0x40 MLOAD PUSH32 0x94280D6200000000000000000000000000000000000000000000000000000000 DUP2 MSTORE PUSH1 0x4 ADD PUSH2 0xCB9 SWAP2 SWAP1 PUSH2 0x1D6E JUMP JUMPDEST PUSH1 0x40 MLOAD DUP1 SWAP2 SUB SWAP1 REVERT JUMPDEST DUP2 PUSH1 0x1 PUSH0 DUP7 PUSH20 0xFFFFFFFFFFFFFFFFFFFFFFFFFFFFFFFFFFFFFFFF AND PUSH20 0xFFFFFFFFFFFFFFFFFFFFFFFFFFFFFFFFFFFFFFFF AND DUP2 MSTORE PUSH1 0x20 ADD SWAP1 DUP2 MSTORE PUSH1 0x20 ADD PUSH0 KECCAK256 PUSH0 DUP6 PUSH20 0xFFFFFFFFFFFFFFFFFFFFFFFFFFFFFFFFFFFFFFFF AND PUSH20 0xFFFFFFFFFFFFFFFFFFFFFFFFFFFFFFFFFFFFFFFF AND DUP2 MSTORE PUSH1 0x20 ADD SWAP1 DUP2 MSTORE PUSH1 0x20 ADD PUSH0 KECCAK256 DUP2 SWAP1 SSTORE POP DUP1 ISZERO PUSH2 0xDAB JUMPI DUP3 PUSH20 0xFFFFFFFFFFFFFFFFFFFFFFFFFFFFFFFFFFFFFFFF AND DUP5 PUSH20 0xFFFFFFFFFFFFFFFFFFFFFFFFFFFFFFFFFFFFFFFF AND PUSH32 0x8C5BE1E5EBEC7D5BD14F71427D1E84F3DD0314C0F7B2291E5B200AC8C7C3B925 DUP5 PUSH1 0x40 MLOAD PUSH2 0xDA2 SWAP2 SWAP1 PUSH2 0x16AC JUMP JUMPDEST PUSH1 0x40 MLOAD DUP1 SWAP2 SUB SWAP1 LOG3 JUMPDEST POP POP POP POP JUMP JUMPDEST PUSH0 PUSH20 0xFFFFFFFFFFFFFFFFFFFFFFFFFFFFFFFFFFFFFFFF AND DUP4 PUSH20 0xFFFFFFFFFFFFFFFFFFFFFFFFFFFFFFFFFFFFFFFF AND SUB PUSH2 0xE01 JUMPI DUP1 PUSH1 0x2 PUSH0 DUP3 DUP3 SLOAD PUSH2 0xDF5 SWAP2 SWAP1 PUSH2 0x1DB4 JUMP JUMPDEST SWAP3 POP POP DUP2 SWAP1 SSTORE POP PUSH2 0xECF JUMP JUMPDEST PUSH0 PUSH0 PUSH0 DUP6 PUSH20 0xFFFFFFFFFFFFFFFFFFFFFFFFFFFFFFFFFFFFFFFF AND PUSH20 0xFFFFFFFFFFFFFFFFFFFFFFFFFFFFFFFFFFFFFFFF AND DUP2 MSTORE PUSH1 0x20 ADD SWAP1 DUP2 MSTORE PUSH1 0x20 ADD PUSH0 KECCAK256 SLOAD SWAP1 POP DUP2 DUP2 LT ISZERO PUSH2 0xE8A JUMPI DUP4 DUP2 DUP4 PUSH1 0x40 MLOAD PUSH32 0xE450D38C00000000000000000000000000000000000000000000000000000000 DUP2 MSTORE PUSH1 0x4 ADD PUSH2 0xE81 SWAP4 SWAP3 SWAP2 SWAP1 PUSH2 0x1D39 JUMP JUMPDEST PUSH1 0x40 MLOAD DUP1 SWAP2 SUB SWAP1 REVERT JUMPDEST DUP2 DUP2 SUB PUSH0 PUSH0 DUP7 PUSH20 0xFFFFFFFFFFFFFFFFFFFFFFFFFFFFFFFFFFFFFFFF AND PUSH20 0xFFFFFFFFFFFFFFFFFFFFFFFFFFFFFFFFFFFFFFFF AND DUP2 MSTORE PUSH1 0x20 ADD SWAP1 DUP2 MSTORE PUSH1 0x20 ADD PUSH0 KECCAK256 DUP2 SWAP1 SSTORE POP POP JUMPDEST PUSH0 PUSH20 0xFFFFFFFFFFFFFFFFFFFFFFFFFFFFFFFFFFFFFFFF AND DUP3 PUSH20 0xFFFFFFFFFFFFFFFFFFFFFFFFFFFFFFFFFFFFFFFF AND SUB PUSH2 0xF16 JUMPI DUP1 PUSH1 0x2 PUSH0 DUP3 DUP3 SLOAD SUB SWAP3 POP POP DUP2 SWAP1 SSTORE POP PUSH2 0xF60 JUMP JUMPDEST DUP1 PUSH0 PUSH0 DUP5 PUSH20 0xFFFFFFFFFFFFFFFFFFFFFFFFFFFFFFFFFFFFFFFF AND PUSH20 0xFFFFFFFFFFFFFFFFFFFFFFFFFFFFFFFFFFFFFFFF AND DUP2 MSTORE PUSH1 0x20 ADD SWAP1 DUP2 MSTORE PUSH1 0x20 ADD PUSH0 KECCAK256 PUSH0 DUP3 DUP3 SLOAD ADD SWAP3 POP POP DUP2 SWAP1 SSTORE POP JUMPDEST DUP2 PUSH20 0xFFFFFFFFFFFFFFFFFFFFFFFFFFFFFFFFFFFFFFFF AND DUP4 PUSH20 0xFFFFFFFFFFFFFFFFFFFFFFFFFFFFFFFFFFFFFFFF AND PUSH32 0xDDF252AD1BE2C89B69C2B068FC378DAA952BA7F163C4A11628F55A4DF523B3EF DUP4 PUSH1 0x40 MLOAD PUSH2 0xFBD SWAP2 SWAP1 PUSH2 0x16AC JUMP JUMPDEST PUSH1 0x40 MLOAD DUP1 SWAP2 SUB SWAP1 LOG3 POP POP POP JUMP JUMPDEST PUSH1 0x60 PUSH1 0xFF PUSH0 SHL DUP4 EQ PUSH2 0xFE6 JUMPI PUSH2 0xFDF DUP4 PUSH2 0x13B6 JUMP JUMPDEST SWAP1 POP PUSH2 0x1071 JUMP JUMPDEST DUP2 DUP1 SLOAD PUSH2 0xFF2 SWAP1 PUSH2 0x1ACF JUMP JUMPDEST DUP1 PUSH1 0x1F ADD PUSH1 0x20 DUP1 SWAP2 DIV MUL PUSH1 0x20 ADD PUSH1 0x40 MLOAD SWAP1 DUP2 ADD PUSH1 0x40 MSTORE DUP1 SWAP3 SWAP2 SWAP1 DUP2 DUP2 MSTORE PUSH1 0x20 ADD DUP3 DUP1 SLOAD PUSH2 0x101E SWAP1 PUSH2 0x1ACF JUMP JUMPDEST DUP1 ISZERO PUSH2 0x1069 JUMPI DUP1 PUSH1 0x1F LT PUSH2 0x1040 JUMPI PUSH2 0x100 DUP1 DUP4 SLOAD DIV MUL DUP4 MSTORE SWAP2 PUSH1 0x20 ADD SWAP2 PUSH2 0x1069 JUMP JUMPDEST DUP3 ADD SWAP2 SWAP1 PUSH0 MSTORE PUSH1 0x20 PUSH0 KECCAK256 SWAP1 JUMPDEST DUP2 SLOAD DUP2 MSTORE SWAP1 PUSH1 0x1 ADD SWAP1 PUSH1 0x20 ADD DUP1 DUP4 GT PUSH2 0x104C JUMPI DUP3 SWAP1 SUB PUSH1 0x1F AND DUP3 ADD SWAP2 JUMPDEST POP POP POP POP POP SWAP1 POP JUMPDEST SWAP3 SWAP2 POP POP JUMP JUMPDEST PUSH0 PUSH32 0x0 PUSH20 0xFFFFFFFFFFFFFFFFFFFFFFFFFFFFFFFFFFFFFFFF AND ADDRESS PUSH20 0xFFFFFFFFFFFFFFFFFFFFFFFFFFFFFFFFFFFFFFFF AND EQ DUP1 ISZERO PUSH2 0x10F2 JUMPI POP PUSH32 0x0 CHAINID EQ JUMPDEST ISZERO PUSH2 0x111F JUMPI PUSH32 0x0 SWAP1 POP PUSH2 0x112A JUMP JUMPDEST PUSH2 0x1127 PUSH2 0x1428 JUMP JUMPDEST SWAP1 POP JUMPDEST SWAP1 JUMP JUMPDEST PUSH0 PUSH1 0x40 MLOAD PUSH32 0x1901000000000000000000000000000000000000000000000000000000000000 DUP2 MSTORE DUP4 PUSH1 0x2 DUP3 ADD MSTORE DUP3 PUSH1 0x22 DUP3 ADD MSTORE PUSH1 0x42 DUP2 KECCAK256 SWAP2 POP POP SWAP3 SWAP2 POP POP JUMP JUMPDEST PUSH0 PUSH0 PUSH0 PUSH32 0x7FFFFFFFFFFFFFFFFFFFFFFFFFFFFFFF5D576E7357A4501DDFE92F46681B20A0 DUP5 PUSH0 SHR GT ISZERO PUSH2 0x11A9 JUMPI PUSH0 PUSH1 0x3 DUP6 SWAP3 POP SWAP3 POP SWAP3 POP PUSH2 0x124A JUMP JUMPDEST PUSH0 PUSH1 0x1 DUP9 DUP9 DUP9 DUP9 PUSH1 0x40 MLOAD PUSH0 DUP2 MSTORE PUSH1 0x20 ADD PUSH1 0x40 MSTORE PUSH1 0x40 MLOAD PUSH2 0x11CC SWAP5 SWAP4 SWAP3 SWAP2 SWAP1 PUSH2 0x1DE7 JUMP JUMPDEST PUSH1 0x20 PUSH1 0x40 MLOAD PUSH1 0x20 DUP2 SUB SWAP1 DUP1 DUP5 SUB SWAP1 DUP6 GAS STATICCALL ISZERO DUP1 ISZERO PUSH2 0x11EC JUMPI RETURNDATASIZE PUSH0 PUSH0 RETURNDATACOPY RETURNDATASIZE PUSH0 REVERT JUMPDEST POP POP POP PUSH1 0x20 PUSH1 0x40 MLOAD SUB MLOAD SWAP1 POP PUSH0 PUSH20 0xFFFFFFFFFFFFFFFFFFFFFFFFFFFFFFFFFFFFFFFF AND DUP2 PUSH20 0xFFFFFFFFFFFFFFFFFFFFFFFFFFFFFFFFFFFFFFFF AND SUB PUSH2 0x123D JUMPI PUSH0 PUSH1 0x1 PUSH0 PUSH0 SHL SWAP4 POP SWAP4 POP SWAP4 POP POP PUSH2 0x124A JUMP JUMPDEST DUP1 PUSH0 PUSH0 PUSH0 SHL SWAP4 POP SWAP4 POP SWAP4 POP POP JUMPDEST SWAP5 POP SWAP5 POP SWAP5 SWAP2 POP POP JUMP JUMPDEST PUSH0 PUSH1 0x3 DUP2 GT ISZERO PUSH2 0x1267 JUMPI PUSH2 0x1266 PUSH2 0x1E2A JUMP JUMPDEST JUMPDEST DUP3 PUSH1 0x3 DUP2 GT ISZERO PUSH2 0x127A JUMPI PUSH2 0x1279 PUSH2 0x1E2A JUMP JUMPDEST JUMPDEST SUB ISZERO PUSH2 0x13B2 JUMPI PUSH1 0x1 PUSH1 0x3 DUP2 GT ISZERO PUSH2 0x1294 JUMPI PUSH2 0x1293 PUSH2 0x1E2A JUMP JUMPDEST JUMPDEST DUP3 PUSH1 0x3 DUP2 GT ISZERO PUSH2 0x12A7 JUMPI PUSH2 0x12A6 PUSH2 0x1E2A JUMP JUMPDEST JUMPDEST SUB PUSH2 0x12DE JUMPI PUSH1 0x40 MLOAD PUSH32 0xF645EEDF00000000000000000000000000000000000000000000000000000000 DUP2 MSTORE PUSH1 0x4 ADD PUSH1 0x40 MLOAD DUP1 SWAP2 SUB SWAP1 REVERT JUMPDEST PUSH1 0x2 PUSH1 0x3 DUP2 GT ISZERO PUSH2 0x12F2 JUMPI PUSH2 0x12F1 PUSH2 0x1E2A JUMP JUMPDEST JUMPDEST DUP3 PUSH1 0x3 DUP2 GT ISZERO PUSH2 0x1305 JUMPI PUSH2 0x1304 PUSH2 0x1E2A JUMP JUMPDEST JUMPDEST SUB PUSH2 0x1349 JUMPI DUP1 PUSH0 SHR PUSH1 0x40 MLOAD PUSH32 0xFCE698F700000000000000000000000000000000000000000000000000000000 DUP2 MSTORE PUSH1 0x4 ADD PUSH2 0x1340 SWAP2 SWAP1 PUSH2 0x16AC JUMP JUMPDEST PUSH1 0x40 MLOAD DUP1 SWAP2 SUB SWAP1 REVERT JUMPDEST PUSH1 0x3 DUP1 DUP2 GT ISZERO PUSH2 0x135C JUMPI PUSH2 0x135B PUSH2 0x1E2A JUMP JUMPDEST JUMPDEST DUP3 PUSH1 0x3 DUP2 GT ISZERO PUSH2 0x136F JUMPI PUSH2 0x136E PUSH2 0x1E2A JUMP JUMPDEST JUMPDEST SUB PUSH2 0x13B1 JUMPI DUP1 PUSH1 0x40 MLOAD PUSH32 0xD78BCE0C00000000000000000000000000000000000000000000000000000000 DUP2 MSTORE PUSH1 0x4 ADD PUSH2 0x13A8 SWAP2 SWAP1 PUSH2 0x1E57 JUMP JUMPDEST PUSH1 0x40 MLOAD DUP1 SWAP2 SUB SWAP1 REVERT JUMPDEST JUMPDEST POP POP JUMP JUMPDEST PUSH1 0x60 PUSH0 PUSH2 0x13C2 DUP4 PUSH2 0x14BD JUMP JUMPDEST SWAP1 POP PUSH0 PUSH1 0x20 PUSH8 0xFFFFFFFFFFFFFFFF DUP2 GT ISZERO PUSH2 0x13E0 JUMPI PUSH2 0x13DF PUSH2 0x1AFF JUMP JUMPDEST JUMPDEST PUSH1 0x40 MLOAD SWAP1 DUP1 DUP3 MSTORE DUP1 PUSH1 0x1F ADD PUSH1 0x1F NOT AND PUSH1 0x20 ADD DUP3 ADD PUSH1 0x40 MSTORE DUP1 ISZERO PUSH2 0x1412 JUMPI DUP2 PUSH1 0x20 ADD PUSH1 0x1 DUP3 MUL DUP1 CALLDATASIZE DUP4 CALLDATACOPY DUP1 DUP3 ADD SWAP2 POP POP SWAP1 POP JUMPDEST POP SWAP1 POP DUP2 DUP2 MSTORE DUP4 PUSH1 0x20 DUP3 ADD MSTORE DUP1 SWAP3 POP POP POP SWAP2 SWAP1 POP JUMP JUMPDEST PUSH0 PUSH32 0x8B73C3C69BB8FE3D512ECC4CF759CC79239F7B179B0FFACAA9A75D522B39400F PUSH32 0x0 PUSH32 0x0 CHAINID ADDRESS PUSH1 0x40 MLOAD PUSH1 0x20 ADD PUSH2 0x14A2 SWAP6 SWAP5 SWAP4 SWAP3 SWAP2 SWAP1 PUSH2 0x1E70 JUMP JUMPDEST PUSH1 0x40 MLOAD PUSH1 0x20 DUP2 DUP4 SUB SUB DUP2 MSTORE SWAP1 PUSH1 0x40 MSTORE DUP1 MLOAD SWAP1 PUSH1 0x20 ADD KECCAK256 SWAP1 POP SWAP1 JUMP JUMPDEST PUSH0 PUSH0 PUSH1 0xFF DUP4 PUSH0 SHR AND SWAP1 POP PUSH1 0x1F DUP2 GT ISZERO PUSH2 0x1502 JUMPI PUSH1 0x40 MLOAD PUSH32 0xB3512B0C00000000000000000000000000000000000000000000000000000000 DUP2 MSTORE PUSH1 0x4 ADD PUSH1 0x40 MLOAD DUP1 SWAP2 SUB SWAP1 REVERT JUMPDEST DUP1 SWAP2 POP POP SWAP2 SWAP1 POP JUMP JUMPDEST PUSH0 DUP2 MLOAD SWAP1 POP SWAP2 SWAP1 POP JUMP JUMPDEST PUSH0 DUP3 DUP3 MSTORE PUSH1 0x20 DUP3 ADD SWAP1 POP SWAP3 SWAP2 POP POP JUMP JUMPDEST DUP3 DUP2 DUP4 MCOPY PUSH0 DUP4 DUP4 ADD MSTORE POP POP POP JUMP JUMPDEST PUSH0 PUSH1 0x1F NOT PUSH1 0x1F DUP4 ADD AND SWAP1 POP SWAP2 SWAP1 POP JUMP JUMPDEST PUSH0 PUSH2 0x154D DUP3 PUSH2 0x150B JUMP JUMPDEST PUSH2 0x1557 DUP2 DUP6 PUSH2 0x1515 JUMP JUMPDEST SWAP4 POP PUSH2 0x1567 DUP2 DUP6 PUSH1 0x20 DUP7 ADD PUSH2 0x1525 JUMP JUMPDEST PUSH2 0x1570 DUP2 PUSH2 0x1533 JUMP JUMPDEST DUP5 ADD SWAP2 POP POP SWAP3 SWAP2 POP POP JUMP JUMPDEST PUSH0 PUSH1 0x20 DUP3 ADD SWAP1 POP DUP2 DUP2 SUB PUSH0 DUP4 ADD MSTORE PUSH2 0x1593 DUP2 DUP5 PUSH2 0x1543 JUMP JUMPDEST SWAP1 POP SWAP3 SWAP2 POP POP JUMP JUMPDEST PUSH0 PUSH0 REVERT JUMPDEST PUSH0 PUSH20 0xFFFFFFFFFFFFFFFFFFFFFFFFFFFFFFFFFFFFFFFF DUP3 AND SWAP1 POP SWAP2 SWAP1 POP JUMP JUMPDEST PUSH0 PUSH2 0x15C8 DUP3 PUSH2 0x159F JUMP JUMPDEST SWAP1 POP SWAP2 SWAP1 POP JUMP JUMPDEST PUSH2 0x15D8 DUP2 PUSH2 0x15BE JUMP JUMPDEST DUP2 EQ PUSH2 0x15E2 JUMPI PUSH0 PUSH0 REVERT JUMPDEST POP JUMP JUMPDEST PUSH0 DUP2 CALLDATALOAD SWAP1 POP PUSH2 0x15F3 DUP2 PUSH2 0x15CF JUMP JUMPDEST SWAP3 SWAP2 POP POP JUMP JUMPDEST PUSH0 DUP2 SWAP1 POP SWAP2 SWAP1 POP JUMP JUMPDEST PUSH2 0x160B DUP2 PUSH2 0x15F9 JUMP JUMPDEST DUP2 EQ PUSH2 0x1615 JUMPI PUSH0 PUSH0 REVERT JUMPDEST POP JUMP JUMPDEST PUSH0 DUP2 CALLDATALOAD SWAP1 POP PUSH2 0x1626 DUP2 PUSH2 0x1602 JUMP JUMPDEST SWAP3 SWAP2 POP POP JUMP JUMPDEST PUSH0 PUSH0 PUSH1 0x40 DUP4 DUP6 SUB SLT ISZERO PUSH2 0x1642 JUMPI PUSH2 0x1641 PUSH2 0x159B JUMP JUMPDEST JUMPDEST PUSH0 PUSH2 0x164F DUP6 DUP3 DUP7 ADD PUSH2 0x15E5 JUMP JUMPDEST SWAP3 POP POP PUSH1 0x20 PUSH2 0x1660 DUP6 DUP3 DUP7 ADD PUSH2 0x1618 JUMP JUMPDEST SWAP2 POP POP SWAP3 POP SWAP3 SWAP1 POP JUMP JUMPDEST PUSH0 DUP2 ISZERO ISZERO SWAP1 POP SWAP2 SWAP1 POP JUMP JUMPDEST PUSH2 0x167E DUP2 PUSH2 0x166A JUMP JUMPDEST DUP3 MSTORE POP POP JUMP JUMPDEST PUSH0 PUSH1 0x20 DUP3 ADD SWAP1 POP PUSH2 0x1697 PUSH0 DUP4 ADD DUP5 PUSH2 0x1675 JUMP JUMPDEST SWAP3 SWAP2 POP POP JUMP JUMPDEST PUSH2 0x16A6 DUP2 PUSH2 0x15F9 JUMP JUMPDEST DUP3 MSTORE POP POP JUMP JUMPDEST PUSH0 PUSH1 0x20 DUP3 ADD SWAP1 POP PUSH2 0x16BF PUSH0 DUP4 ADD DUP5 PUSH2 0x169D JUMP JUMPDEST SWAP3 SWAP2 POP POP JUMP JUMPDEST PUSH0 PUSH0 PUSH0 PUSH1 0x60 DUP5 DUP7 SUB SLT ISZERO PUSH2 0x16DC JUMPI PUSH2 0x16DB PUSH2 0x159B JUMP JUMPDEST JUMPDEST PUSH0 PUSH2 0x16E9 DUP7 DUP3 DUP8 ADD PUSH2 0x15E5 JUMP JUMPDEST SWAP4 POP POP PUSH1 0x20 PUSH2 0x16FA DUP7 DUP3 DUP8 ADD PUSH2 0x15E5 JUMP JUMPDEST SWAP3 POP POP PUSH1 0x40 PUSH2 0x170B DUP7 DUP3 DUP8 ADD PUSH2 0x1618 JUMP JUMPDEST SWAP2 POP POP SWAP3 POP SWAP3 POP SWAP3 JUMP JUMPDEST PUSH0 PUSH1 0xFF DUP3 AND SWAP1 POP SWAP2 SWAP1 POP JUMP JUMPDEST PUSH2 0x172A DUP2 PUSH2 0x1715 JUMP JUMPDEST DUP3 MSTORE POP POP JUMP JUMPDEST PUSH0 PUSH1 0x20 DUP3 ADD SWAP1 POP PUSH2 0x1743 PUSH0 DUP4 ADD DUP5 PUSH2 0x1721 JUMP JUMPDEST SWAP3 SWAP2 POP POP JUMP JUMPDEST PUSH0 PUSH1 0x20 DUP3 DUP5 SUB SLT ISZERO PUSH2 0x175E JUMPI PUSH2 0x175D PUSH2 0x159B JUMP JUMPDEST JUMPDEST PUSH0 PUSH2 0x176B DUP5 DUP3 DUP6 ADD PUSH2 0x15E5 JUMP JUMPDEST SWAP2 POP POP SWAP3 SWAP2 POP POP JUMP JUMPDEST PUSH0 PUSH32 0xFF00000000000000000000000000000000000000000000000000000000000000 DUP3 AND SWAP1 POP SWAP2 SWAP1 POP JUMP JUMPDEST PUSH2 0x17A8 DUP2 PUSH2 0x1774 JUMP JUMPDEST DUP3 MSTORE POP POP JUMP JUMPDEST PUSH2 0x17B7 DUP2 PUSH2 0x15BE JUMP JUMPDEST DUP3 MSTORE POP POP JUMP JUMPDEST PUSH0 DUP2 SWAP1 POP SWAP2 SWAP1 POP JUMP JUMPDEST PUSH2 0x17CF DUP2 PUSH2 0x17BD JUMP JUMPDEST DUP3 MSTORE POP POP JUMP JUMPDEST PUSH0 DUP2 MLOAD SWAP1 POP SWAP2 SWAP1 POP JUMP JUMPDEST PUSH0 DUP3 DUP3 MSTORE PUSH1 0x20 DUP3 ADD SWAP1 POP SWAP3 SWAP2 POP POP JUMP JUMPDEST PUSH0 DUP2 SWAP1 POP PUSH1 0x20 DUP3 ADD SWAP1 POP SWAP2 SWAP1 POP JUMP JUMPDEST PUSH2 0x1807 DUP2 PUSH2 0x15F9 JUMP JUMPDEST DUP3 MSTORE POP POP JUMP JUMPDEST PUSH0 PUSH2 0x1818 DUP4 DUP4 PUSH2 0x17FE JUMP JUMPDEST PUSH1 0x20 DUP4 ADD SWAP1 POP SWAP3 SWAP2 POP POP JUMP JUMPDEST PUSH0 PUSH1 0x20 DUP3 ADD SWAP1 POP SWAP2 SWAP1 POP JUMP JUMPDEST PUSH0 PUSH2 0x183A DUP3 PUSH2 0x17D5 JUMP JUMPDEST PUSH2 0x1844 DUP2 DUP6 PUSH2 0x17DF JUMP JUMPDEST SWAP4 POP PUSH2 0x184F DUP4 PUSH2 0x17EF JUMP JUMPDEST DUP1 PUSH0 JUMPDEST DUP4 DUP2 LT ISZERO PUSH2 0x187F JUMPI DUP2 MLOAD PUSH2 0x1866 DUP9 DUP3 PUSH2 0x180D JUMP JUMPDEST SWAP8 POP PUSH2 0x1871 DUP4 PUSH2 0x1824 JUMP JUMPDEST SWAP3 POP POP PUSH1 0x1 DUP2 ADD SWAP1 POP PUSH2 0x1852 JUMP JUMPDEST POP DUP6 SWAP4 POP POP POP POP SWAP3 SWAP2 POP POP JUMP JUMPDEST PUSH0 PUSH1 0xE0 DUP3 ADD SWAP1 POP PUSH2 0x189F PUSH0 DUP4 ADD DUP11 PUSH2 0x179F JUMP JUMPDEST DUP2 DUP2 SUB PUSH1 0x20 DUP4 ADD MSTORE PUSH2 0x18B1 DUP2 DUP10 PUSH2 0x1543 JUMP JUMPDEST SWAP1 POP DUP2 DUP2 SUB PUSH1 0x40 DUP4 ADD MSTORE PUSH2 0x18C5 DUP2 DUP9 PUSH2 0x1543 JUMP JUMPDEST SWAP1 POP PUSH2 0x18D4 PUSH1 0x60 DUP4 ADD DUP8 PUSH2 0x169D JUMP JUMPDEST PUSH2 0x18E1 PUSH1 0x80 DUP4 ADD DUP7 PUSH2 0x17AE JUMP JUMPDEST PUSH2 0x18EE PUSH1 0xA0 DUP4 ADD DUP6 PUSH2 0x17C6 JUMP JUMPDEST DUP2 DUP2 SUB PUSH1 0xC0 DUP4 ADD MSTORE PUSH2 0x1900 DUP2 DUP5 PUSH2 0x1830 JUMP JUMPDEST SWAP1 POP SWAP9 SWAP8 POP POP POP POP POP POP POP POP JUMP JUMPDEST PUSH0 PUSH0 PUSH1 0x40 DUP4 DUP6 SUB SLT ISZERO PUSH2 0x1924 JUMPI PUSH2 0x1923 PUSH2 0x159B JUMP JUMPDEST JUMPDEST PUSH0 PUSH2 0x1931 DUP6 DUP3 DUP7 ADD PUSH2 0x15E5 JUMP JUMPDEST SWAP3 POP POP PUSH1 0x20 PUSH2 0x1942 DUP6 DUP3 DUP7 ADD PUSH2 0x15E5 JUMP JUMPDEST SWAP2 POP POP SWAP3 POP SWAP3 SWAP1 POP JUMP JUMPDEST PUSH2 0x1955 DUP2 PUSH2 0x17BD JUMP JUMPDEST DUP2 EQ PUSH2 0x195F JUMPI PUSH0 PUSH0 REVERT JUMPDEST POP JUMP JUMPDEST PUSH0 DUP2 CALLDATALOAD SWAP1 POP PUSH2 0x1970 DUP2 PUSH2 0x194C JUMP JUMPDEST SWAP3 SWAP2 POP POP JUMP JUMPDEST PUSH2 0x197F DUP2 PUSH2 0x1715 JUMP JUMPDEST DUP2 EQ PUSH2 0x1989 JUMPI PUSH0 PUSH0 REVERT JUMPDEST POP JUMP JUMPDEST PUSH0 DUP2 CALLDATALOAD SWAP1 POP PUSH2 0x199A DUP2 PUSH2 0x1976 JUMP JUMPDEST SWAP3 SWAP2 POP POP JUMP JUMPDEST PUSH0 PUSH0 PUSH0 PUSH0 PUSH0 PUSH0 PUSH0 PUSH0 PUSH0 PUSH2 0x120 DUP11 DUP13 SUB SLT ISZERO PUSH2 0x19BE JUMPI PUSH2 0x19BD PUSH2 0x159B JUMP JUMPDEST JUMPDEST PUSH0 PUSH2 0x19CB DUP13 DUP3 DUP14 ADD PUSH2 0x15E5 JUMP JUMPDEST SWAP10 POP POP PUSH1 0x20 PUSH2 0x19DC DUP13 DUP3 DUP14 ADD PUSH2 0x15E5 JUMP JUMPDEST SWAP9 POP POP PUSH1 0x40 PUSH2 0x19ED DUP13 DUP3 DUP14 ADD PUSH2 0x1618 JUMP JUMPDEST SWAP8 POP POP PUSH1 0x60 PUSH2 0x19FE DUP13 DUP3 DUP14 ADD PUSH2 0x1618 JUMP JUMPDEST SWAP7 POP POP PUSH1 0x80 PUSH2 0x1A0F DUP13 DUP3 DUP14 ADD PUSH2 0x1618 JUMP JUMPDEST SWAP6 POP POP PUSH1 0xA0 PUSH2 0x1A20 DUP13 DUP3 DUP14 ADD PUSH2 0x1962 JUMP JUMPDEST SWAP5 POP POP PUSH1 0xC0 PUSH2 0x1A31 DUP13 DUP3 DUP14 ADD PUSH2 0x198C JUMP JUMPDEST SWAP4 POP POP PUSH1 0xE0 PUSH2 0x1A42 DUP13 DUP3 DUP14 ADD PUSH2 0x1962 JUMP JUMPDEST SWAP3 POP POP PUSH2 0x100 PUSH2 0x1A54 DUP13 DUP3 DUP14 ADD PUSH2 0x1962 JUMP JUMPDEST SWAP2 POP POP SWAP3 SWAP6 SWAP9 POP SWAP3 SWAP6 SWAP9 POP SWAP3 SWAP6 SWAP9 JUMP JUMPDEST PUSH0 PUSH0 PUSH1 0x40 DUP4 DUP6 SUB SLT ISZERO PUSH2 0x1A7A JUMPI PUSH2 0x1A79 PUSH2 0x159B JUMP JUMPDEST JUMPDEST PUSH0 PUSH2 0x1A87 DUP6 DUP3 DUP7 ADD PUSH2 0x15E5 JUMP JUMPDEST SWAP3 POP POP PUSH1 0x20 PUSH2 0x1A98 DUP6 DUP3 DUP7 ADD PUSH2 0x1962 JUMP JUMPDEST SWAP2 POP POP SWAP3 POP SWAP3 SWAP1 POP JUMP JUMPDEST PUSH32 0x4E487B7100000000000000000000000000000000000000000000000000000000 PUSH0 MSTORE PUSH1 0x22 PUSH1 0x4 MSTORE PUSH1 0x24 PUSH0 REVERT JUMPDEST PUSH0 PUSH1 0x2 DUP3 DIV SWAP1 POP PUSH1 0x1 DUP3 AND DUP1 PUSH2 0x1AE6 JUMPI PUSH1 0x7F DUP3 AND SWAP2 POP JUMPDEST PUSH1 0x20 DUP3 LT DUP2 SUB PUSH2 0x1AF9 JUMPI PUSH2 0x1AF8 PUSH2 0x1AA2 JUMP JUMPDEST JUMPDEST POP SWAP2 SWAP1 POP JUMP JUMPDEST PUSH32 0x4E487B7100000000000000000000000000000000000000000000000000000000 PUSH0 MSTORE PUSH1 0x41 PUSH1 0x4 MSTORE PUSH1 0x24 PUSH0 REVERT JUMPDEST PUSH32 0x417574686F72697A6174696F6E206E6F74207965742076616C69640000000000 PUSH0 DUP3 ADD MSTORE POP JUMP JUMPDEST PUSH0 PUSH2 0x1B60 PUSH1 0x1B DUP4 PUSH2 0x1515 JUMP JUMPDEST SWAP2 POP PUSH2 0x1B6B DUP3 PUSH2 0x1B2C JUMP JUMPDEST PUSH1 0x20 DUP3 ADD SWAP1 POP SWAP2 SWAP1 POP JUMP JUMPDEST PUSH0 PUSH1 0x20 DUP3 ADD SWAP1 POP DUP2 DUP2 SUB PUSH0 DUP4 ADD MSTORE PUSH2 0x1B8D DUP2 PUSH2 0x1B54 JUMP JUMPDEST SWAP1 POP SWAP2 SWAP1 POP JUMP JUMPDEST PUSH32 0x417574686F72697A6174696F6E20657870697265640000000000000000000000 PUSH0 DUP3 ADD MSTORE POP JUMP JUMPDEST PUSH0 PUSH2 0x1BC8 PUSH1 0x15 DUP4 PUSH2 0x1515 JUMP JUMPDEST SWAP2 POP PUSH2 0x1BD3 DUP3 PUSH2 0x1B94 JUMP JUMPDEST PUSH1 0x20 DUP3 ADD SWAP1 POP SWAP2 SWAP1 POP JUMP JUMPDEST PUSH0 PUSH1 0x20 DUP3 ADD SWAP1 POP DUP2 DUP2 SUB PUSH0 DUP4 ADD MSTORE PUSH2 0x1BF5 DUP2 PUSH2 0x1BBC JUMP JUMPDEST SWAP1 POP SWAP2 SWAP1 POP JUMP JUMPDEST PUSH32 0x417574686F72697A6174696F6E20616C72656164792075736564000000000000 PUSH0 DUP3 ADD MSTORE POP JUMP JUMPDEST PUSH0 PUSH2 0x1C30 PUSH1 0x1A DUP4 PUSH2 0x1515 JUMP JUMPDEST SWAP2 POP PUSH2 0x1C3B DUP3 PUSH2 0x1BFC JUMP JUMPDEST PUSH1 0x20 DUP3 ADD SWAP1 POP SWAP2 SWAP1 POP JUMP JUMPDEST PUSH0 PUSH1 0x20 DUP3 ADD SWAP1 POP DUP2 DUP2 SUB PUSH0 DUP4 ADD MSTORE PUSH2 0x1C5D DUP2 PUSH2 0x1C24 JUMP JUMPDEST SWAP1 POP SWAP2 SWAP1 POP JUMP JUMPDEST PUSH0 PUSH1 0xE0 DUP3 ADD SWAP1 POP PUSH2 0x1C77 PUSH0 DUP4 ADD DUP11 PUSH2 0x17C6 JUMP JUMPDEST PUSH2 0x1C84 PUSH1 0x20 DUP4 ADD DUP10 PUSH2 0x17AE JUMP JUMPDEST PUSH2 0x1C91 PUSH1 0x40 DUP4 ADD DUP9 PUSH2 0x17AE JUMP JUMPDEST PUSH2 0x1C9E PUSH1 0x60 DUP4 ADD DUP8 PUSH2 0x169D JUMP JUMPDEST PUSH2 0x1CAB PUSH1 0x80 DUP4 ADD DUP7 PUSH2 0x169D JUMP JUMPDEST PUSH2 0x1CB8 PUSH1 0xA0 DUP4 ADD DUP6 PUSH2 0x169D JUMP JUMPDEST PUSH2 0x1CC5 PUSH1 0xC0 DUP4 ADD DUP5 PUSH2 0x17C6 JUMP JUMPDEST SWAP9 SWAP8 POP POP POP POP POP POP POP POP JUMP JUMPDEST PUSH32 0x496E76616C6964207369676E6174757265000000000000000000000000000000 PUSH0 DUP3 ADD MSTORE POP JUMP JUMPDEST PUSH0 PUSH2 0x1D05 PUSH1 0x11 DUP4 PUSH2 0x1515 JUMP JUMPDEST SWAP2 POP PUSH2 0x1D10 DUP3 PUSH2 0x1CD1 JUMP JUMPDEST PUSH1 0x20 DUP3 ADD SWAP1 POP SWAP2 SWAP1 POP JUMP JUMPDEST PUSH0 PUSH1 0x20 DUP3 ADD SWAP1 POP DUP2 DUP2 SUB PUSH0 DUP4 ADD MSTORE PUSH2 0x1D32 DUP2 PUSH2 0x1CF9 JUMP JUMPDEST SWAP1 POP SWAP2 SWAP1 POP JUMP JUMPDEST PUSH0 PUSH1 0x60 DUP3 ADD SWAP1 POP PUSH2 0x1D4C PUSH0 DUP4 ADD DUP7 PUSH2 0x17AE JUMP JUMPDEST PUSH2 0x1D59 PUSH1 0x20 DUP4 ADD DUP6 PUSH2 0x169D JUMP JUMPDEST PUSH2 0x1D66 PUSH1 0x40 DUP4 ADD DUP5 PUSH2 0x169D JUMP JUMPDEST SWAP5 SWAP4 POP POP POP POP JUMP JUMPDEST PUSH0 PUSH1 0x20 DUP3 ADD SWAP1 POP PUSH2 0x1D81 PUSH0 DUP4 ADD DUP5 PUSH2 0x17AE JUMP JUMPDEST SWAP3 SWAP2 POP POP JUMP JUMPDEST PUSH32 0x4E487B7100000000000000000000000000000000000000000000000000000000 PUSH0 MSTORE PUSH1 0x11 PUSH1 0x4 MSTORE PUSH1 0x24 PUSH0 REVERT JUMPDEST PUSH0 PUSH2 0x1DBE DUP3 PUSH2 0x15F9 JUMP JUMPDEST SWAP2 POP PUSH2 0x1DC9 DUP4 PUSH2 0x15F9 JUMP JUMPDEST SWAP3 POP DUP3 DUP3 ADD SWAP1 POP DUP1 DUP3 GT ISZERO PUSH2 0x1DE1 JUMPI PUSH2 0x1DE0 PUSH2 0x1D87 JUMP JUMPDEST JUMPDEST SWAP3 SWAP2 POP POP JUMP JUMPDEST PUSH0 PUSH1 0x80 DUP3 ADD SWAP1 POP PUSH2 0x1DFA PUSH0 DUP4 ADD DUP8 PUSH2 0x17C6 JUMP JUMPDEST PUSH2 0x1E07 PUSH1 0x20 DUP4 ADD DUP7 PUSH2 0x1721 JUMP JUMPDEST PUSH2 0x1E14 PUSH1 0x40 DUP4 ADD DUP6 PUSH2 0x17C6 JUMP JUMPDEST PUSH2 0x1E21 PUSH1 0x60 DUP4 ADD DUP5 PUSH2 0x17C6 JUMP JUMPDEST SWAP6 SWAP5 POP POP POP POP POP JUMP JUMPDEST PUSH32 0x4E487B7100000000000000000000000000000000000000000000000000000000 PUSH0 MSTORE PUSH1 0x21 PUSH1 0x4 MSTORE PUSH1 0x24 PUSH0 REVERT JUMPDEST PUSH0 PUSH1 0x20 DUP3 ADD SWAP1 POP PUSH2 0x1E6A PUSH0 DUP4 ADD DUP5 PUSH2 0x17C6 JUMP JUMPDEST SWAP3 SWAP2 POP POP JUMP JUMPDEST PUSH0 PUSH1 0xA0 DUP3 ADD SWAP1 POP PUSH2 0x1E83 PUSH0 DUP4 ADD DUP9 PUSH2 0x17C6 JUMP JUMPDEST PUSH2 0x1E90 PUSH1 0x20 DUP4 ADD DUP8 PUSH2 0x17C6 JUMP JUMPDEST PUSH2 0x1E9D PUSH1 0x40 DUP4 ADD DUP7 PUSH2 0x17C6 JUMP JUMPDEST PUSH2 0x1EAA PUSH1 0x60 DUP4 ADD DUP6 PUSH2 0x169D JUMP JUMPDEST PUSH2 0x1EB7 PUSH1 0x80 DUP4 ADD DUP5 PUSH2 0x17AE JUMP JUMPDEST SWAP7 SWAP6 POP POP POP POP POP POP JUMP INVALID LOG2 PUSH5 0x6970667358 0x22 SLT KECCAK256 BALANCE DUP1 BASEFEE 0xB1 PUSH15 0xED2C60862B1A5724AEC01E157A2B15 SHL PUSH19 0x98ACE578870460B2CDB364736F6C634300081E STOP CALLER "
		},
		"gasEstimates": {
			"creation": {
				"codeDepositCost": "1585400",
				"executionCost": "infinite",
				"totalCost": "infinite"
			},
			"external": {
				"allowance(address,address)": "infinite",
				"approve(address,uint256)": "infinite",
				"authorizationState(address,bytes32)": "3158",
				"balanceOf(address)": "2917",
				"decimals()": "383",
				"eip712Domain()": "infinite",
				"faucet()": "infinite",
				"mint(address,uint256)": "infinite",
				"name()": "infinite",
				"symbol()": "infinite",
				"totalSupply()": "2500",
				"transfer(address,uint256)": "infinite",
				"transferFrom(address,address,uint256)": "infinite",
				"transferWithAuthorization(address,address,uint256,uint256,uint256,bytes32,uint8,bytes32,bytes32)": "infinite"
			}
		},
		"methodIdentifiers": {
			"allowance(address,address)": "dd62ed3e",
			"approve(address,uint256)": "095ea7b3",
			"authorizationState(address,bytes32)": "e94a0102",
			"balanceOf(address)": "70a08231",
			"decimals()": "313ce567",
			"eip712Domain()": "84b0196e",
			"faucet()": "de5f72fd",
			"mint(address,uint256)": "40c10f19",
			"name()": "06fdde03",
			"symbol()": "95d89b41",
			"totalSupply()": "18160ddd",
			"transfer(address,uint256)": "a9059cbb",
			"transferFrom(address,address,uint256)": "23b872dd",
			"transferWithAuthorization(address,address,uint256,uint256,uint256,bytes32,uint8,bytes32,bytes32)": "e3ee160e"
		}
	},
	"abi": [
		{
			"inputs": [],
			"stateMutability": "nonpayable",
			"type": "constructor"
		},
		{
			"inputs": [],
			"name": "ECDSAInvalidSignature",
			"type": "error"
		},
		{
			"inputs": [
				{
					"internalType": "uint256",
					"name": "length",
					"type": "uint256"
				}
			],
			"name": "ECDSAInvalidSignatureLength",
			"type": "error"
		},
		{
			"inputs": [
				{
					"internalType": "bytes32",
					"name": "s",
					"type": "bytes32"
				}
			],
			"name": "ECDSAInvalidSignatureS",
			"type": "error"
		},
		{
			"inputs": [
				{
					"internalType": "address",
					"name": "spender",
					"type": "address"
				},
				{
					"internalType": "uint256",
					"name": "allowance",
					"type": "uint256"
				},
				{
					"internalType": "uint256",
					"name": "needed",
					"type": "uint256"
				}
			],
			"name": "ERC20InsufficientAllowance",
			"type": "error"
		},
		{
			"inputs": [
				{
					"internalType": "address",
					"name": "sender",
					"type": "address"
				},
				{
					"internalType": "uint256",
					"name": "balance",
					"type": "uint256"
				},
				{
					"internalType": "uint256",
					"name": "needed",
					"type": "uint256"
				}
			],
			"name": "ERC20InsufficientBalance",
			"type": "error"
		},
		{
			"inputs": [
				{
					"internalType": "address",
					"name": "approver",
					"type": "address"
				}
			],
			"name": "ERC20InvalidApprover",
			"type": "error"
		},
		{
			"inputs": [
				{
					"internalType": "address",
					"name": "receiver",
					"type": "address"
				}
			],
			"name": "ERC20InvalidReceiver",
			"type": "error"
		},
		{
			"inputs": [
				{
					"internalType": "address",
					"name": "sender",
					"type": "address"
				}
			],
			"name": "ERC20InvalidSender",
			"type": "error"
		},
		{
			"inputs": [
				{
					"internalType": "address",
					"name": "spender",
					"type": "address"
				}
			],
			"name": "ERC20InvalidSpender",
			"type": "error"
		},
		{
			"inputs": [],
			"name": "InvalidShortString",
			"type": "error"
		},
		{
			"inputs": [
				{
					"internalType": "string",
					"name": "str",
					"type": "string"
				}
			],
			"name": "StringTooLong",
			"type": "error"
		},
		{
			"anonymous": false,
			"inputs": [
				{
					"indexed": true,
					"internalType": "address",
					"name": "owner",
					"type": "address"
				},
				{
					"indexed": true,
					"internalType": "address",
					"name": "spender",
					"type": "address"
				},
				{
					"indexed": false,
					"internalType": "uint256",
					"name": "value",
					"type": "uint256"
				}
			],
			"name": "Approval",
			"type": "event"
		},
		{
			"anonymous": false,
			"inputs": [
				{
					"indexed": true,
					"internalType": "address",
					"name": "authorizer",
					"type": "address"
				},
				{
					"indexed": true,
					"internalType": "bytes32",
					"name": "nonce",
					"type": "bytes32"
				}
			],
			"name": "AuthorizationCanceled",
			"type": "event"
		},
		{
			"anonymous": false,
			"inputs": [
				{
					"indexed": true,
					"internalType": "address",
					"name": "authorizer",
					"type": "address"
				},
				{
					"indexed": true,
					"internalType": "bytes32",
					"name": "nonce",
					"type": "bytes32"
				}
			],
			"name": "AuthorizationUsed",
			"type": "event"
		},
		{
			"anonymous": false,
			"inputs": [],
			"name": "EIP712DomainChanged",
			"type": "event"
		},
		{
			"anonymous": false,
			"inputs": [
				{
					"indexed": true,
					"internalType": "address",
					"name": "from",
					"type": "address"
				},
				{
					"indexed": true,
					"internalType": "address",
					"name": "to",
					"type": "address"
				},
				{
					"indexed": false,
					"internalType": "uint256",
					"name": "value",
					"type": "uint256"
				}
			],
			"name": "Transfer",
			"type": "event"
		},
		{
			"inputs": [
				{
					"internalType": "address",
					"name": "owner",
					"type": "address"
				},
				{
					"internalType": "address",
					"name": "spender",
					"type": "address"
				}
			],
			"name": "allowance",
			"outputs": [
				{
					"internalType": "uint256",
					"name": "",
					"type": "uint256"
				}
			],
			"stateMutability": "view",
			"type": "function"
		},
		{
			"inputs": [
				{
					"internalType": "address",
					"name": "spender",
					"type": "address"
				},
				{
					"internalType": "uint256",
					"name": "value",
					"type": "uint256"
				}
			],
			"name": "approve",
			"outputs": [
				{
					"internalType": "bool",
					"name": "",
					"type": "bool"
				}
			],
			"stateMutability": "nonpayable",
			"type": "function"
		},
		{
			"inputs": [
				{
					"internalType": "address",
					"name": "",
					"type": "address"
				},
				{
					"internalType": "bytes32",
					"name": "",
					"type": "bytes32"
				}
			],
			"name": "authorizationState",
			"outputs": [
				{
					"internalType": "bool",
					"name": "",
					"type": "bool"
				}
			],
			"stateMutability": "view",
			"type": "function"
		},
		{
			"inputs": [
				{
					"internalType": "address",
					"name": "account",
					"type": "address"
				}
			],
			"name": "balanceOf",
			"outputs": [
				{
					"internalType": "uint256",
					"name": "",
					"type": "uint256"
				}
			],
			"stateMutability": "view",
			"type": "function"
		},
		{
			"inputs": [],
			"name": "decimals",
			"outputs": [
				{
					"internalType": "uint8",
					"name": "",
					"type": "uint8"
				}
			],
			"stateMutability": "pure",
			"type": "function"
		},
		{
			"inputs": [],
			"name": "eip712Domain",
			"outputs": [
				{
					"internalType": "bytes1",
					"name": "fields",
					"type": "bytes1"
				},
				{
					"internalType": "string",
					"name": "name",
					"type": "string"
				},
				{
					"internalType": "string",
					"name": "version",
					"type": "string"
				},
				{
					"internalType": "uint256",
					"name": "chainId",
					"type": "uint256"
				},
				{
					"internalType": "address",
					"name": "verifyingContract",
					"type": "address"
				},
				{
					"internalType": "bytes32",
					"name": "salt",
					"type": "bytes32"
				},
				{
					"internalType": "uint256[]",
					"name": "extensions",
					"type": "uint256[]"
				}
			],
			"stateMutability": "view",
			"type": "function"
		},
		{
			"inputs": [],
			"name": "faucet",
			"outputs": [],
			"stateMutability": "nonpayable",
			"type": "function"
		},
		{
			"inputs": [
				{
					"internalType": "address",
					"name": "to",
					"type": "address"
				},
				{
					"internalType": "uint256",
					"name": "amount",
					"type": "uint256"
				}
			],
			"name": "mint",
			"outputs": [],
			"stateMutability": "nonpayable",
			"type": "function"
		},
		{
			"inputs": [],
			"name": "name",
			"outputs": [
				{
					"internalType": "string",
					"name": "",
					"type": "string"
				}
			],
			"stateMutability": "view",
			"type": "function"
		},
		{
			"inputs": [],
			"name": "symbol",
			"outputs": [
				{
					"internalType": "string",
					"name": "",
					"type": "string"
				}
			],
			"stateMutability": "view",
			"type": "function"
		},
		{
			"inputs": [],
			"name": "totalSupply",
			"outputs": [
				{
					"internalType": "uint256",
					"name": "",
					"type": "uint256"
				}
			],
			"stateMutability": "view",
			"type": "function"
		},
		{
			"inputs": [
				{
					"internalType": "address",
					"name": "to",
					"type": "address"
				},
				{
					"internalType": "uint256",
					"name": "value",
					"type": "uint256"
				}
			],
			"name": "transfer",
			"outputs": [
				{
					"internalType": "bool",
					"name": "",
					"type": "bool"
				}
			],
			"stateMutability": "nonpayable",
			"type": "function"
		},
		{
			"inputs": [
				{
					"internalType": "address",
					"name": "from",
					"type": "address"
				},
				{
					"internalType": "address",
					"name": "to",
					"type": "address"
				},
				{
					"internalType": "uint256",
					"name": "value",
					"type": "uint256"
				}
			],
			"name": "transferFrom",
			"outputs": [
				{
					"internalType": "bool",
					"name": "",
					"type": "bool"
				}
			],
			"stateMutability": "nonpayable",
			"type": "function"
		},
		{
			"inputs": [
				{
					"internalType": "address",
					"name": "from",
					"type": "address"
				},
				{
					"internalType": "address",
					"name": "to",
					"type": "address"
				},
				{
					"internalType": "uint256",
					"name": "value",
					"type": "uint256"
				},
				{
					"internalType": "uint256",
					"name": "validAfter",
					"type": "uint256"
				},
				{
					"internalType": "uint256",
					"name": "validBefore",
					"type": "uint256"
				},
				{
					"internalType": "bytes32",
					"name": "nonce",
					"type": "bytes32"
				},
				{
					"internalType": "uint8",
					"name": "v",
					"type": "uint8"
				},
				{
					"internalType": "bytes32",
					"name": "r",
					"type": "bytes32"
				},
				{
					"internalType": "bytes32",
					"name": "s",
					"type": "bytes32"
				}
			],
			"name": "transferWithAuthorization",
			"outputs": [],
			"stateMutability": "nonpayable",
			"type": "function"
		}
	]
}